:08000300D205121327C20A22E4
:10039E008F3D121599E518D3940A5003020469E5AE
:1003AE003D64017027E518B40B161215858F0EE506
:1003BE000EB40F05E4F50E8002050EAF0E1213BB40
:1003CE00E51864156003020533021266E518D3942E
:1003DE000A402CE53D64027026E518B40B15121583
:1003EE00858F0EE50E7005750E0F8002150EAF0E81
:1003FE001213BBE5186415600302053302128EE575
:10040E0018D3940A4014E53DB4030FE518B4150350
:10041E00E4F51BE4FF121435803DE518D3940A5021
:10042E0003020533E53D64046003020533E518B4A9
:10043E000B0312079AE518B4151DE50DD394004071
:10044E000F751B01E4F519F51A1215127F018004C0
:10045E00E4F51BFF121435E4F51822E53DB40C0348
:10046E000215ABE53DB40D0C1215858F0E75180BEC
:10047E007F65801DE53DB40B0D751815E4F51B5316
:10048E008EEF7F66800BE53DB40E09B200D2017F80
:10049E0005021435E53DB421047F018007E53DB426
:1004AE002C0AE4FF12156F8E158F1622E53DB41639
:1004BE00087F041214350214DFE53DB4011D7F04DC
:1004CE00121435E5132401FFE433FEC3EF9410EE4E
:1004DE0064809480504FE513048014E53DB40213FC
:1004EE007F04121435E513D394004039E51314FF3D
:1004FE000210BFE53DB4030EE514B51705E4F5147F
:10050E00801405148010E53DB4041AE514700585B9
:10051E00171480021514AF141213A18E0B8F0C1228
:06052E00108112000322FF
:10116F00C206E4F51B538EEF120C7E9206E4F518BF
:10117F00750D1E120C171214067F2C7E011214A36C
:10118F00120B4412159930060302079A85150B8529
:07119F00160C7F0A12143543
:0111A6002226
:100D3F00800F1215C78F3CE51BB4020AE53CB42C9B
:100D4F00F112116F80EC300B0C12158F8F127F0286
:100D5F00121435C20BE51BB4011AE50DC3940150F3
:100D6F0013751B02538EEF121502D2A3D2A2D2A17A
:100D7F00D2A080BEE53C6004FF12039E300AB3127E
:060D8F001327C20A80AC2C
:03000B00020927C0
:10092700C0E0C0F0C083C082C0D075D000C000C096
:0D09370001C002C003C004C005C006C00717
:100944001200608F22120066E51BC3940250441209
:1009540010405002803DE522640A6021E522C394E0
:100964006450300511E51170020510C394D0E510F0
:100974009407401F7F0A121435D20A8016300013E0
:100984000511E51170020510C394D0E510940740D9
:0B09940002D20B758A66758C7EC28D46
:10099F00D007D006D005D004D003D002D001D000AC
:0B09AF00D0D0D082D083D0F0D0E03256
:030063000212B6D0
:1012B600C0E0C0D0E51BB40119051AE51A70020595
:1012C60019C394B8E519940B4008150D75190075E6
:0712D6001A00D0D0D0E03275
:0A15590000007F217E42DEFEDFFC71
:011563002265
:0715A3000000007F05DFFEE0
:0115AA00221E
:1014A300AD07AC06ED1DAE0470011C4E60051215B0
:0414B3005980F12249
:1014B700AD07AC06ED1DAE0470011C4E600512159C
:0414C700A380F122EB
:0615C10000000000000024
:100BAE00011305C100021521FC011400011700C13B
:070BBE0005C102C104C101E1
:04123B008E478F4803
:10123F0078497C007D007BFF7A1579C17E007F02A3
:10124F001206047B007A007949AF48AE47120FBAF5
:06125F00E549FEE54AFF2F
:011265002266
:0213A1008F4675
:1013A300EF75F002A42402FFE5F03406FE12123BAF
:0713B3008E158F168546140C
:0113BA002210
:10144C008F3EE4FFFE1214CBE53EFDE4FFFE1214CA
:06145C0062E53EF51322DB
:040F22008E468F4721
:100F260078487C007D007BFF7A1579C37E007F02BE
:100F3600120604E546F5488547497F007E021214ED
:100F4600CBAD487F007E02121462AD497F017E025E
:100F5600121462E514F46009AD147402FFFE121453
:070F66006285461585471660
:010F6D002261
:10134B007F007E041214CBA203E433FD7F007E04E6
:0F135B00121462A200E433FD7F027E04021462CA
:10132700300509AF16AE15120F22C205300207AFFE
:101337001312144CC20220040330010712134BC2CC
:0413470004C20122B9
:0715B3007F007E060214CB4D
:060E87008F468C478D48E8
:100E8D00784B7C007D007BFF7A1579C57E007F0253
:100E9D00120604E547F54B85484CE54675F002A46E
:100EAD00AEF02402F54AEE3406F549AD4BAF4AFEDD
:100EBD001214627F047E001214A3E54A2401FFE49C
:080ECD003549FEAD4C02146230
:0B156400AD078D177F007E06021462A9
:100C7E00E4FFFE12141E8F13E513D3940F40047F6E
:100C8E000180027F00E513C3940050047E018002B0
:100C9E007E00EE4F60037513057F007E0412141E56
:100CAE00EF1392037F027E0412141EEF1392007F45
:100CBE00007E0612141E8F17E517B4FF02D3227F93
:100CCE00007E0212123B8E158F167402FFFE121456
:050CDE001E8F14C3226B
:0D154000E4F5C7F5C5F5C675C380F5C422F6
:1014CB0075C78075C5038FC48EC375C65A75C6A5FF
:0414DB0000021540B6
:10141E0075C78075C5018FC48EC375C65A75C6A5AE
:06142E0000AFC2121540E0
:011434002295
:0A0FBA008E4B8F4C8B4D8A4E894FF1
:100FC40075C78075C501E4FDED7E00254CF551EE35
:100FD400354BF5508551C4E550F5C375C65A75C6F1
:100FE400A50000AB4DAA4EA94F8D82758300E5C2C2
:0A0FF40012062A0DBD03D1021540BC
:1014620075C78075C5028FC48EC38DC275C65A7585
:06147200C6A500021540B2
:0715BA007F0A7E000214B756
:0F152200D2A4D2A51215BAC2A41215BAC2A5221C
:0C154D00C2A4D2A51215BAD2A40215BA8D
:1014F200EF24FF92A41215BAD2A51215BAC2A522E0
:10147800D2A41215BAD2A51215BAA2A49209C2A56D
:05148800A209E433FF9E
:01148D00223C
:0211A7008F6255
:1011A900756308AF631563EF601DE56230E704D22C
:1011B900A48002C2A41215BAD2A51215BAC2A5E515
:1011C9006225E0F56280DC121478EF24FF9208A210
:0411D90008E433FFF4
:0111DD0022EF
:0211DE008F621E
:1011E000756308E4F564D2A4AF631563EF6017E597
:1011F0006425E0F564D2A51215BA30A4020564C2D4
:0D120000A51215BA80E2AF621214F2AF64BD
:01120D0022BE
:0415CD00000000001A
:020BC500C18CE1
:10086400E4F555F556F557F558F559F55A7F031241
:100874000FFE7E00EF540C7802CEC313CE13D8F9CA
:10088400F55C8E5B7F03120FFE755D00EF5403F57C
:100894005EE55B7054E55C14601214601D146028FE
:1008A400240370787555217556FC801475551D7593
:1008B40056B075572375588C803175551D7556B0D3
:1008C40075572A75583080237F07120FFEEEC31325
:1008D40030E00875551975566480067555137556BC
:1008E4008875571D7558B080028031E55D702DE51F
:1008F4005E14601214601714601C2403701E755972
:1009040000755A0A8016755900755A14800E755967
:1009140000755A058006755900755A027B007A00E5
:02092400795503
:0109260022AE
:0610FB008F4D8C4E8D4F5D
:1011010078507C007D007BFF7A1579CD7E007F02CF
:10111100120604E54EF550E54FF5511215227F22D6
:101121001211A7AF4D1211A7AF501211A7AF511253
:0511310011A702154D9D
:020FFE008F5F03
:1010000078607C007D007BFF7A1579CF7E007F02BF
:101010001206041215227F221211A7AF5F1211A728
:101020001215227F231211A7E4FF1211DE8F607FB9
:0F103000011211DE8F6112154DE560FEE561FFC3
:01103F00228E
:100B44007D037C007F021210FB7F327E001214A30F
:100B54007D057CC07F021210FB7F327E001214A33D
:100B6400E5162404FFE51534DEFE7C007D0A12063A
:100B74005EEF7806C333CE33CED8F9AC064410FD0D
:100B84007F031210FB7486FCE51344A0FD7F05125D
:100B940010FBE4FDFC7F061210FB7D1A7C5F7F07CF
:0A0BA4001210FB85150B85160C22BC
:040DE7008E4D8F4E50
:100DEB00120864784F7C007D007E007F061206049B
:100DFB00E550454F7009E55245517003FEFF22C384
:100E0B00E54E9550E54D954F400BD3E54E9552E58C
:100E1B004D95514004E4FEFF22C3E54E9550FFE58E
:0B0E2B004D954FFEAC53AD5412065E17
:010E36002299
:040ED5008E4B8F4C65
:100ED900120864784D7C007D007E007F06120604AE
:100EE900E54E454D7009E550454F7003FEFF22ACB4
:100EF90051AD52AE4BAF4C12064CE54E2FFFE54DAE
:100F09003EFED3EF9550EE954F5009C3EF954EEE47
:080F1900954D5004E4FEFF2297
:010F210022AD
:0E153100E4FE7F0A120FFEEE5403FE120ED5EA
:01153F002289
:10108100120DE78E4B8F4C7F03120FFEAD075305F8
:101091003F7C00E54B5403FEE54C7806C333CE3369
:1010A100CED8F94205EE42044305107F031210FB2E
:0E10B1007F0A120FFEEE30E6F77F0A021435BA
:091585007F05120FFEEE540FFF6A
:01158E00223A
:0213BB008F3E63
:1013BD007F05120FFEAD07AC065304F0E53EFEEEC1
:0713CD0042047F050210FB42
:020AD3008F464C
:100AD500E4F549F54A7F03120FFEAD07AC06530551
:100AE500EF7F031210FB7F02120FFEAC06AD07E588
:100AF50046B4010543040280035304FD4304013059
:100B0500070553057F80034305807F021210FB7F95
:100B15000A120FFEEE20E6187F0A7E001214A305C6
:100B25004AE54A70020549D394C8E549940040DF77
:0E0B35001215318E478F48121081AE47AF481F
:010B4300228F
:0B156F00EF24FF920DD207120AD322D6
:0A157A007F0B120FFEEEFF53070176
:011584002244
:10079A00E4F53EF53F12086478407C007D007E0057
:1007AA007F06120604E54145407009E5434542705B
:1007BA0003020863AE40AF418E0B8F0C8E158F1665
:1007CA00D20D7F0A121435AF41AE401210817F322A
:1007DA007E001214A31215B3E51665437004E515DD
:1007EA0065426040C2077F01120AD38E158F167FB9
:1007FA00C87E001214A312157AEF6023121531EF86
:10080A00B5161CEEB515187F2C7E011214A3AF3F46
:10081A00AD16AC15120E87053FE53F7002053E1274
:10082A00159980B4D3E53F9400E53E94004008E56D
:10083A003F153F7002153EAF3F121564E4F514FFF1
:10084A001213A18E158F168E0B8F0CAF0CAE0B12D6
:09085A001081AF16AE15120F2239
:010863002272
:0210BF008F3E62
:1010C100200C187F02120FFE8E3F8F40433F40AD30
:1010D10040AC3F7F021210FBD20C227F05120FFEA3
:1010E1008E3F8F405340F0E53E540F4240AD40AC3F
:0910F1003F7F051210FB853E1340
:0110FA0022D3
:1014DF007F02120FFEAD07AC065304BFC20C7F0292
:0314EF000210FBED
:09158F007F0B120FFEEEC313FFE7
:011598002230
:101502007F02120FFEAC06EF54FEFD7F020210FBBB
:021136008F31F7
:10113800C2B47F197E001214B7E4FD74807E00A843
:1011480005088006CEA2E713CE13D8F8FFE531FBD9
:10115800EF5B24FF92B200D2B400C2B40DBD08DB2D
:06116800D2B30000C2B387
:01116E00225E
:100BC7005C000DC0F9A4B0999282F880907F888369
:100BD700C6A1868E8CC1CE9189C712C8ABF7BF4D0F
:100BE7000000407924301912027800107FC789026B
:100BF7000B21FC02100000010F06011200010E007C
:0C0C0700010D00C18D02091F4001080012
:10138600ED4C600A74002FF582E434008008740D79
:0B1396002FF582E43400F583E0FF2215
:1012DD00300308752C00752D158006752C00752DA5
:1012ED0016752E00752FFF7BFF7A007DFF7C007F2A
:0512FD00171206C922D2
:0409BA00AB07AA06D7
:1009BE007C277D1012065E8F257C277D10AF03AE3F
:1009CE000212065E7E037FE8CFCDCFCECCCE1206CE
:1009DE005E8F247C037DE8AF03AE0212065E7E00BE
:1009EE007F64CFCDCFCECCCE12065E8F23AE02AFBC
:1009FE00037C007D6412065E7E007F0ACFCDCFCED3
:100A0E00CCCE12065E8F26E525C39401E524FD7C2F
:100A1E0000E523FB7A00500F752C008F2D752E00EC
:100A2E00752F037F64800E752C0085262D752E0084
:080A3E00752F03AF251206C954
:010A4600228D
:100F6E00E50CB5160AE50BB51505AF0CFE8039304C
:100F7E000D19050CE50C7002050BD39430E50B949E
:100F8E002A4021750B21750CFC8019E50C150C708F
:100F9E0002150BC3E50C94FCE50B94215006750B62
:0C0FAE002A750C30AF0CAE0B1209BA22F1
:10130200E51375F00A84FD7C00E51375F00A84E5A7
:10131200F0FB7A00752C00752DFF752E00752FFFDE
:051322007FFF0206C977
:10000E00E51275F06484FFE51275F06484E5F07511
:10001E00F00A84F524E51275F00A8485F023EF606A
:10002E0016FD7C00E524FB7A00752C0085232D75CA
:10003E002E00752FFF8015E524FB7A00752C0085A8
:10004E00232D752E00752FFF7DFF7C007FFF12067E
:01005E00C9D8
:01005F00227E
:10120E00E50E75F00A84A9F0E50E75F06484E5F03C
:10121E0075F00A84FB7A00AF01752C008F2D752EA8
:0D122E0000752FFF7D197C007F170206C997
:100D9500E50D75F06484FFE50D75F06484E5F07587
:100DA500F00A84F524E50D75F00A8485F023EF60DB
:100DB50016FD7C00E524FB7A00752C0085232D7536
:100DC5002E00752FFF8015E524FB7A00752C008514
:100DD500232D752E00752FFF7DFF7C007F161206D3
:010DE500C944
:010DE60022EA
:10148E00E4F52CF52DF52E752FFF7B18FA7DFFFC5C
:05149E007FFF0206C9FA
:1013D400752C00752D1A752E00752FFF7B1A7A0057
:0913E4007DFF7C007FFF0206C9B9
:10136A00A200E433752C00F52D752E00752FFF7B36
:0C137A00FF7A007DFF7C007F170206C98F
:1013ED00752C00752D1B752E00752FFF7B1B7A003C
:0913FD007D1B7C007F1B0206C968
:100CE300A907E97012C3ED953BE53A6480F8EC641B
:100CF3008098500122C322B90112C3EB953BE53A18
:100D03006480F8EA648098500122C322B90214C3B4
:100D1300E537953BE53A6480F8E536648098500101
:100D230022C322B90314C3E539953BE53A6480F83D
:0C0D3300E538648098500122C322C322DE
:0A06C9008F278C288D298A2A8B2B9D
:1006D30075301CE527FD7C00852A36852B37852C54
:1006E30038852D39753A0085303BAB29AA28AF08E8
:1006F300120CE3400E0508E508D3940340D5E4F556
:100703000880D0D2A3D2A2D2A1D2A0E508701BE563
:100713002F6401452E7005FC7D0180047C007D0063
:10072300AF27121386121136C2A0E508B4011BAF1E
:1007330029E52F6402452E7005FC7D0180047C00B1
:100743007D00121386121136C2A1E508B4021BAF55
:100753002BE52F6403452E7005FC7D0180047C008E
:100763007D00121386121136C2A2E508B4031BAF33
:100773002DE52F6404452E7005FC7D0180047C006B
:100783007D00121386121136C2A30508E508D3941F
:06079300034003E4F50839
:01079900223D
:100E3700E50FB40A03120F6EE50F70031213D4E522
:100E47000FB4010312148EE50FB4020312000EE56E
:100E57000FB403031212DDE50FB40403121302E506
:100E67000FB4050312136AE50FB406031213EDE579
:100E77000FB4650312120EE50FB46603120D952227
:0815AB007F03121435B2032284
:0A15990020030675091F750A4022A1
:10104000200307E50FD394644005120E378030D398
:10105000E50A940AE5099400400D120E37E50A15D9
:101060000A701C15098018E50A64054509600E75AB
:101070000900750A05D2A3D2A2D2A1D2A0D322C35D
:01108000224D
:10143500E4F510F511E50F6F600CBF0402D202BF91
:071445000302D2048F0F2205
:03006000AF0F22BD
:10126600E50DC39414500474058014E50DC3943C35
:101276005004740A8009E50DC394E65006741425DB
:081286000DF50D7F6602143521
:10128E00E50DD3943C400474EC8014E50DD3941416
:10129E00400474F68009E50DC39405400674FB25E1
:0812AE000DF50D7F66021435F9
:030C1300011C00C1
:0515C700E4AF1CF51C5F
:0115CC0022FC
:10006600E4FFFDED14600E14600F1460102403709D
:1000760014A296800AA2978006A2958002A294E412
:1000860033F5238003752301E5237003020141ED57
:1000960075F006A4242CF582E43400F583E07003A1
:1000A60002012CED75F006A4242CF582E43400F54B
:1000B60083E4F0ED75F006A4242EF582E43400F511
:1000C60083E06022ED75F006A4242EF582E4340068
:1000D600F583E4F0ED75F006A4242FF582E43400F0
:1000E600F583E4F0802EED75F006A42430F582E465
:1000F6003400F583E0FAA3E0FBD39414EA940040BD
:1001060013D3EB94E8EA9403500A900029E07004B4
:10011600ED04F51CED75F006A4242DF582E43400FB
:10012600F583E4F07F01ED75F006A42430F582E452
:100136003400F583E4F0A3F0020228ED75F006A47E
:10014600242CF582E43400F583E0705BED75F0064F
:10015600A4242CF582E43400F5837401F0ED75F0E7
:1001660006A42430F582E43400F583E4F0A3F0ED30
:1001760075F006A4242EF582E43400F583E4F090AD
:100186000029E06022ED75F006A4242FF582E43400
:1001960000F583E07011ED75F006A4242EF582E4D7
:1001A6003400F5837401F0ED75F006A42430F58271
:1001B600E43400F583E0FAA3E0C394FFEA94FF5029
:1001C60015ED75F006A42430F582E43400F583E4D9
:1001D60075F0011206B3ED75F006A42430F582E43D
:1001E6003400F583E0FAA3E0D394E8EA94034032BE
:1001F600ED75F006A4242DF582E43400F583E07055
:1002060021900029E0701BED04FE75F00AA42EF57E
:100216001CED75F006A4242DF582E43400F58374F4
:1002260001F00DED64046003020069EF6040E490A4
:100236000029F0A304F0A37490F0E4FFFDED75F03F
:1002460006A4242EF582E43400F583E0600D7401E3
:10025600A805088002C333D8FC42070DBD04DEEFB3
:10026600600C900029F0A37401F0A37490F0E4FFF1
:10027600FEFDED75F006A4242CF582E43400F5832A
:10028600E0600E7401A805088002C333D8FC42075B
:100296000E0DBD04DDEEC3940250030203919000DF
:1002A60029E0700CEFF0A37401F0A37490F0801BAA
:1002B600C390002BE094FF90002AE094FF500CA31B
:1002C600E004F0700690002AE004F0D390002BE0E2
:1002D600940890002AE09402500302039DE4F9FC7E
:1002E600FD74017E00A805088005C333CE33CED841
:1002F600F9FF900029E0FBEF5B600EE97005ED0465
:10030600F98006EC7003ED04FC0DBD04D4E970031E
:1003160002039DEC700302039DE9C39C5009E97535
:10032600F00AA42CFF8007EC75F00AA429FF8F1CA5
:10033600E4FD74017E00A805088005C333CE33CEE4
:10034600D8F9FF900029E0FBEF5B6033ED75F0060E
:10035600A4242EF582E43400F5837401F0ED75F0E3
:1003660006A4242FF582E43400F5837401F0ED75BC
:10037600F006A4242DF582E43400F5837401F00D13
:10038600BD04AFE490002AF0A3F022E4900029F027
:07039600A304F0A37490F032
:01039D00223D
:100C170090002A7401F0A37490F0E4900029F0FF8B
:100C2700EF75F006A4242CF582E43400F583E4F094
:100C3700EF75F006A4242DF582E43400F583E4F083
:100C4700EF75F006A4242EF582E43400F583E4F072
:100C5700EF75F006A4242FF582E43400F583E4F061
:100C6700EF75F006A42430F582E43400F583E4F050
:060C7700A3F00FBF04AA68
:010C7D002254
:10140600438E805389F0438901758A66758C7EC246
:081416008DD28CD2A9D2AF22C5
:10151200538EFBE4F5D775D628438E1043AF0422D1
:03000000020A47AA
:0C0A4700787FE4F6D8FD758164020A8E09
:10053400E709F608DFFA8046E709F208DFFA803EA9
:1005440088828C83E709F0A3DFFA8032E309F60896
:10055400DFFA8078E309F208DFFA807088828C83FE
:10056400E309F0A3DFFA806489828A83E0A3F608B2
:10057400DFFA805889828A83E0A3F208DFFA804C8C
:1005840080D280FA80C680D4806980F28033801063
:1005940080A680EA809A80A880DA80E280CA8033CC
:1005A40089828A83ECFAE493A3C8C582C8CCC58344
:1005B400CCF0A3C8C582C8CCC583CCDFE9DEE78014
:1005C4000D89828A83E493A3F608DFF9ECFAA9F093
:1005D400EDFB2289828A83ECFAE0A3C8C582C8CCE9
:1005E400C583CCF0A3C8C582C8CCC583CCDFEADE02
:1005F400E880DB89828A83E493A3F208DFF980CC64
:1006040088F0EF60010E4E60C388F0ED2402B4045C
:100614000050B9F582EB2402B4040050AF23234503
:060624008223900584739F
:10062A00F8BB010DE58229F582E5833AF583E8F006
:10063A00225006E92582C8F622BBFE05E92582C8B2
:02064A00F2229A
:10064C00EF8DF0A4A8F0CF8CF0A428CE8DF0A42EC2
:02065C00FE227C
:10065E00BC000BBE0029EF8DF084FFADF022E4CC80
:10066E00F875F008EF2FFFEE33FEEC33FCEE9DEC49
:10067E00984005FCEE9DFE0FD5F0E9E4CEFD22ED8F
:10068E00F8F5F0EE8420D21CFEADF075F008EF2FD9
:10069E00FFED33FD4007985006D5F0F222C398FDCA
:0506AE000FD5F0EA2267
:1006B300C5F0F8A3E028F0C5F0F8E58215827002D2
:0606C3001583E038F0226F
:100A5300020D3FE493A3F8E493A34003F68001F26D
:100A630008DFF48029E493A3F85407240CC8C333A4
:100A7300C4540F4420C8834004F456800146F6DF73
:100A8300E4800B0102040810204080900BAEE47E4A
:100A9300019360BCA3FF543F30E509541FFEE49368
:100AA300A360010ECF54C025E060A840B8E493A32F
:100AB300FAE493A3F8E493A3C8C582C8CAC583CA5A
:100AC300F0A3C8C582C8CAC583CADFE9DEE780BE12
:010C160000DD
:00000001FF
