:0C189B00706F776572206F6E200D0A00E0
:0F186100120BDA856157856258D20BE4F56622C7
:02073E008F31F9
:100740007532061218E8E531B40C0302190CE531D4
:10075000B40B0B756615E4F5677F66020844E56621
:10076000D3940A4030E5316401702AE566B40B1970
:100770001218D48F32E532B40F05E4F53280020549
:1007800032AF3212170085325AE5666415600302F3
:1007900008DB0215C5E566D3940A402FE5316402F3
:1007A0007029E566B40B181218D48F32E532700543
:1007B00075320F80021532AF3212170085325AE5BA
:1007C00066641560030208DB0215EDE566D3940A42
:1007D000401EE531B40319E566B40B05B40C02C242
:1007E0000CE566B41503E4F567E4FF12163C8033AC
:1007F000E566D3940A4030E5316404702AE566B4B6
:100800000B03121861E566B41519E559D39400403D
:100810000A7F0112163C7567018008E4FF12163C3E
:10082000E4F567E4F56622E531B40D0C1218D48FB7
:100830005A75660B7F65800CE531B40E0A1218DE1E
:100840008F5E7F0202163CE531B42108D20AC20B4A
:100850007F01800BE531B42C0EC20AC20BE4FF12FB
:1008600019048E618F6222E531B416087F041216D6
:100870003C021615E531B4011D7F0412163CE55FFC
:100880002401FFE433FEC3EF9410EE6480948050A3
:100890004AE55F048014E531B402137F0412163C6C
:1008A000E55FD394004034E55F14FF021663E53141
:1008B000B4030EE560B56305E4F56080140560805F
:1008C00010E531B40415E56070058563608002159C
:0B08D00060D20BAF601216E61211FBA5
:0108DB0022FA
:10154600E4F566F567F5591211031217327F087E26
:10155600001217D0121039EF60051218618007AF1C
:0B15660062AE611211FBAF5F02166362
:1012DF001215467BFF7A18799B1200701219348F02
:1012EF0030E567B4020AE530B42CF112154680ECF4
:1012FF00E567B40117E559C39401501075670212E1
:10130F001851D2A3D2A2D2A1D2A080D0E53060CC06
:06131F00FF12073E80C62C
:03000B00020D558E
:100D5500C0E0C0F0C083C082C0D075D000C000C064
:0D0D650001C002C003C004C005C006C007E5
:100D7200E567C3940250031215191205771218F28F
:100D8200501C055CE55C7002055BC394D0E55B9486
:100D920007400B755B00755C007F0A12163CE56725
:100DA200B401190565E56570020564D394E8E5644C
:100DB200940340081559756400756500758A887535
:040DC2008C96C28DBC
:100DC600D007D006D005D004D003D002D001D00081
:0B0DD600D0D0D082D083D0F0D0E0322B
:0A18B30000007F217E42DEFEDFFC14
:0118BD002208
:05192200007F04DFFE60
:01192700229D
:1017D000AD07AC06ED1DAE0470011C4E600512187D
:0417E000B380F122BF
:03193E000217D0BD
:1017E400AD07AC06ED1DAE0470011C4E6005121968
:0417F4002280F1223C
:10180C00759850438E01438E0475D74175D6FD43B0
:03181C008E102209
:080003008F993099FDC299228A
:06192800AE0712000322CD
:10173200438E805389F0438901758A88758C96C2DD
:081742008DD28CD2A9D2AF2296
:0818FC000000000000000000E4
:0F0FCD00015F05C18C026121FC0160000163001E
:041571008E3A8F3BE4
:10157500783C7C007D007BFF7A1879FC7E007F0239
:1015850012043A7B007A00793CAF3BAE3A12132540
:06159500E53CFEE53DFF10
:01159B00222D
:101779008F45E4FFFE1217F8E545FDE4FFFE121759
:061789008FE545F55F222B
:04124B008E448F45F9
:10124F0078467C007D007BFF7A1879FE7E007F0256
:10125F0012043AE544F5468545477F007E02121792
:10126F00F8AD467F007E0212178F7F027E001219A3
:10127F003EAD477F017E0212178FE560F46009AD26
:08128F00607402FFFE12178FCC
:011297002234
:10174A007F007E041217F8A201E433FD7F007E04B5
:08175A0012178FA201920C226C
:071914007F007E060217F8B8
:060F5F008F398C3A8D3B36
:100F6500783E7C007D007BFF7A1979007E007F0248
:100F750012043A78407C007D007BFF7A1979027E65
:100F8500007F0212043AE53AF540853B41E53975A3
:100F9500F002A4AEF02402F53DEE3406F53CAD407A
:100FA500AF3DFE12178F7F027E0012193EE53D24EC
:100FB50001FFE4353CFEAD4112178F7B007A0079C5
:080FC5003EAF3DAE3C021325D6
:0B18BE00AD078D637F007E0602178FD0
:10103900E4FFFE1217628F5FE55FD3940F40047FD0
:101049000180027F00E55FC3940050047E018002A5
:101059007E00EE4F6003755F057F007E0412176204
:10106900EF24FF920C300C04D20C8002C20C7F00DA
:101079007E061217628F63E563B4FF037F01227F47
:10108900007E021215718E618F627402FFFE1217C3
:06109900628F607F00225F
:0216E6008F393A
:1016E800EF75F002A42402FFE5F03406FE1215712E
:0716F8008E618F62853960ED
:0116FF0022C8
:0D188E00E4F5C7F5C5F5C675C380F5C422A5
:1017F80075C78075C5038FC48EC375C65A75C6A5CF
:041808000002188E34
:1017620075C78075C5018FC48EC375C65A75C6A567
:0617720000AFC212188E48
:01177800224E
:0A1325008E428F438B448A458946AF
:10132F0075C78075C501E4FDED7E002543F548EED8
:10133F003542F5478548C4E547F5C375C65A75C6A6
:10134F00A50000AB44AA45A9468D82758300E5C26E
:0A135F001204600DBD03D102188EC8
:10178F0075C78075C5028FC48EC38DC275C65A7555
:06179F00C6A50002188E31
:07191B007F0A7E000217E4C1
:0F187000D2A4D2A512191BC2A412191BC2A52201
:0C18A700C2A4D2A512191BD2A402191B66
:10183100EF24FF92A412191BD2A512191BC2A522D3
:1017A500D2A412191BD2A512191BA2A49202C2A57A
:0517B500A202E433FF75
:0117BA00220C
:021427008F51E3
:10142900755208AF521552EF601DE55130E704D2ED
:10143900A48002C2A412191BD2A512191BC2A5E5C8
:101449005125E0F55180DC1217A5EF24FF9201A286
:0414590001E433FF78
:01145D00226C
:02148F008F517B
:10149100755208E4F553D2A4AF521552EF6017E527
:1014A1005325E0F553D2A512191B30A4020553C2EE
:0D14B100A512191B80E2AF51121831AF5384
:0114BE00220B
:04193A0000000000A9
:030FDC00016B00A6
:0C129800436A04436A08AD6AAC697F0237
:0612A4008F448C458D46CD
:1012AA0078477C007D007BFF7A19793A7E007F02BD
:1012BA0012043AE545F547E546F5481218707F22CB
:1012CA00121427AF44121427AF47121427AF48123B
:0512DA0014270218A713
:021369008F4EA5
:10136B00784F7C007D007BFF7A19793C7E007F02F1
:10137B0012043A1218707F22121427AF4E12142740
:10138B001218707F23121427E4FF12148F8F4F7FD4
:0F139B000112148F8F501218A7E54FFEE550FF77
:0113AA002220
:101103007D027C007F021212A47F327E001217D070
:101113007D017CC07F021212A47F587E021217D079
:101123007D107C007F031212A47D007C047F0412D7
:1011330012A47DA57C867F051212A47D007C807F8E
:10114300061212A47D1A7C5F7F071212A4856157D1
:041153008562582237
:0409E4008E448F4569
:1009E800E4F546F547F548F549F54AF54BF54CF574
:1009F8004D7F031213697E00EF540C7802CEC313A7
:100A0800CE13D8F9F54D8E4C454C700875462175B6
:100A180047FC8024E54D6401454C700E75461D75F4
:100A280047B075482375498C803DE54D6402454CB7
:100A3800700E75461D7547B075482A754930802770
:100A4800E54D6403454C70647F07121369EEC313C8
:100A580030E0087546197547648006754613754772
:100A68008875481D7549B07F03121369754C00EFEE
:100A78005403F54D454C7007F54A754B0A802FE530
:100A88004D6401454C7007F54A754B058020E54DCE
:100A98006402454C7007F54A754B148011E54D64A6
:100AA80003454C7007F54A754B2880028018C3E54A
:100AB800459547E54495465002800BD3E545954951
:100AC800E54495484004E4FEFF22C3E5459547FF09
:0C0AD800E5449546FEAC4AAD4B12049478
:010AE40022EF
:0408DC008E3E8F3F7E
:1008E000E4F540F541F542F543F544F545F546F5A7
:1008F000477F031213697E00EF540C7802CEC313B6
:10090000CE13D8F9F5478E464546700875402175D7
:1009100041FC8024E54764014546700E75401D7515
:1009200041B075422375438C803DE54764024546DE
:10093000700E75401D7541B075422A754330802791
:10094000E5476403454670647F07121369EEC313DD
:1009500030E0087540197541648006754013754193
:100960008875421D7543B07F03121369754600EF09
:100970005403F54745467007F54475450A802FE551
:1009800047640145467007F5447545058020E547F5
:10099000640245467007F5447545148011E54764C7
:1009A0000345467007F5447545508002802DAC44E0
:1009B000AD45AE3EAF3F120482E5412FF547E5401D
:1009C0003EF546D3E5479543E54695424002800B08
:1009D000C3E5479541E54695405004E4FEFF22AE4D
:0309E00046AF47D8
:0109E30022F1
:0E187F00E4FE7F0A121369EE5403FE1208DC29
:01188D002238
:0411FB008E3E8F3F56
:1011FF001209E48E408F417F031213698E428F4391
:10120F0053433F754200E5405403FEE5417806C362
:10121F0033CE33CED8F94243EE4242434310AD436F
:10122F00AC427F031212A4AD43AC427F031212A44F
:0C123F00AF3FAE3E12124B7F0A02163C7D
:0918D4007F05121369EE540FFFA9
:0118DD0022E8
:021700008F3325
:101702007F05121369AD07AC065304F0E533FEEE14
:0717120042047F050212A44E
:06109F008F398C3A8D3BF5
:1010A5007F03121369AD07AC065305EF7F031212D8
:1010B500A47F02121369AC06AD07E539B4010543F7
:1010C500040280035304FD430401E53B453A6005F2
:1010D50053057F80034305807F021212A47F0A1205
:1010E5001369EE20E6097F017E001217D080EE120B
:0D10F500187F8E3C8F3D1211FBAE3CAF3DCD
:0111020022CA
:081904007D017C0012109F22FE
:0A18C9007F0B121369EEFF530701B5
:0118D30022F2
:100BDA00E4F533F534FE7F031213697E00EF540CFB
:100BEA007802CEC313CE13D8F9FF4E70087535219B
:100BFA007536FC8020EF64014E700E75351D753612
:100C0A00B075372375388C803CEF64024E700E75D0
:100C1A00351D7536B075372A7538308028EF64036C
:100C2A004E6003020CC77F07121369EEC31330E04C
:100C3A0008753519753664800675351375368875E5
:100C4A00371D7538B0AE35AF368E578F588E618FD7
:100C5A0062D20A7F0A12163CC20BAF36AE351211A7
:100C6A00FB7F327E001217D0121914E562653870C4
:100C7A0004E5616537602FE4FDFC7F0112109F8E49
:100C8A00618F621218C9EF6018AF34AD62AC61129D
:100C9A000F5F7F647E001217D00534E534700205B9
:100CAA00331218E880C5E534153470021533AF34B1
:0D0CBA001218BEE4F560FF1216E61211FBE1
:010CC700220A
:021663008F33C3
:101665007F05121369AD07AC065305F0E533540F3A
:1016750042057F051212A485335FE56B70057F0176
:031685001216AE8C
:01168800223F
:0216AE008F3477
:1016B0007F02121369AD07AC06E5346005430440B0
:0A16C00080035304BF7F020212A44E
:101615007F02121369AD07AC06ECC413135403F42F
:1016250054016008430440756B0180065304BFE410
:07163500F56B7F020212A415
:0216CA008F1E71
:1016CC007F02121369AD07AC06E51E600553047F5B
:0A16DC0080034304807F020212A481
:0918DE007F0B121369EEC313FF26
:0118E70022DE
:06192E00E4FF1213692220
:020EEE008F680B
:100EF0007F031213698E698F6AE568B40105536A2E
:100F0000F78015E568B40208536AF7436A04800B5A
:100F1000E568B4030E436A08536AFBAD6AAC697FA7
:100F2000028038E568640470171212987F07121364
:100F3000698E698F6A436902AD6AAC697F07801B5D
:100F4000E568640570181212987F071213698E699C
:0E0F50008F6A5369FDAD6AAC697F071212A467
:010F5E002270
:0213EB008F1F52
:1013ED007F03121369AD07AC06E51FB40105530564
:1013FD00FD8012E51FB402055305FD8015E51FB4F0
:10140D0003084305025305FE800BE51FB404064394
:0A141D0005024305017F030212A43B
:101841007D037C007F021212A47F327E000217D03A
:101851007F02121369AC06EF54FEFD7F020212A44F
:0214BF00AD0777
:1014C100E4FB74807E00A803088006CEA2E713CE59
:1014D10013D8F8FFEDF582EF558224FF92B2D2B412
:0A14E100C2B40BBB08DCD2B3C2B3E7
:0114EB0022DE
:10159C00C0F9A4B0999282F880907F8883C6A18606
:1015AC008E8CC1CE9189C712C8ABF7407924301903
:0915BC0012027800107FC78900BB
:100FDF00025721FC025B0000015D0A015E00015A0D
:0F0FEF0000015900C18AC18B02551F40015400F7
:10181F00ED4C6007EF9015B793FF22EF90159C9357
:02182F00FF2296
:10145E00300C14752B00752CFF752D00752EFF7B2F
:10146E00FF7A007D158012752B00752CFF752D00EF
:10147E00752EFF7BFF7A007D167C007FFF120AE53A
:01148E00223B
:040CC800AB07AA06C6
:100CCC007C277D101204948F247C277D10AF03AEFB
:100CDC00021204947E037FE8CFCDCFCECCCE12048B
:100CEC00948F237C037DE8AF03AE021204947E0044
:100CFC007F64CFCDCFCECCCE1204948F22AE02AF78
:100D0C00037C007D641204947E007F0ACFCDCFCE8D
:100D1C00CCCE1204948F25E524C39401E523FD7CED
:100D2C0000E522FB7A00500F752B008F2C752D00DF
:100D3C00752E037F64800E752B0085252C752D0078
:080D4C00752E03AF24120AE525
:010D5400227C
:100E6D00E558B5620AE557B56105AF58FE800D30FE
:100E7D000B0D856157856258AF62AE61020CC830AB
:100E8D000A2DE55865627004E55765616052055895
:100E9D00E55870020557FFAE57120CC8D3E55894AC
:100EAD0030E557942A40DB7557217558FC80D320C7
:100EBD000A2EE55865627004E55765616022E558B4
:100ECD0015587002155714FFAE57120CC8C3E558CC
:100EDD0094FCE557942150DA75572A75583080D215
:010EED0022E2
:10168900E55F75F00A84FD7C00E55F75F00A84E585
:10169900F0FB7A00752B00752C64752D00752E648E
:0516A9007F64020AE568
:10115700E55E75F06484FFE55E75F06484E5F0751F
:10116700F00A84F523E55E75F00A8485F022EF60C6
:1011770016FD7C00E523FB7A00752B0085222C7574
:101187002D00752EFF8015E523FB7A00752B008552
:10119700222C752D00752EFF7DFF7C007FFF120A24
:0111A700E562
:0111A8002224
:1014EC00E55A75F00A84A9F0E55A75F06484E5F0C4
:1014FC0075F00A84FB7A00AF01752B008F2C752DCB
:0D150C0000752EFF7D197C007F17020AE597
:1011A900E55975F06484FFE55975F06484E5F075D7
:1011B900F00A84F523E55975F00A8485F022EF6079
:1011C90016FD7C00E523FB7A00752B0085222C7522
:1011D9002D00752EFF8015E523FB7A00752B008500
:1011E900222C752D00752EFF7DFF7C007F16120ABB
:0111F900E510
:0111FA0022D2
:1017BB00E4F52BF52CF52D752EFF7B18FA7DFFFC30
:0517CB007FFF020AE5AA
:10171900752B00752C1A752D00752EFF7B1A7A0012
:091729007DFF7C007FFF020AE550
:080AE5008C278D288A298B2A39
:100AED00752F1BE554702BEFC3952F4003020BCDD3
:100AFD00D2A3D2A2D2A1E52E6401452D7005FC7DB5
:100B0D000180047C007D0012181F1214BFC2A002C8
:100B1D000BC2E55464017033C3E528952F7480F83A
:100B2D006527984003020BCDD2A3D2A2D2A0AF2845
:100B3D00E52E6402452D7005FC7D0180047C007D51
:100B4D000012181F1214BFC2A1806AE5546402700E
:100B5D0030C3E52A952F7480F86529985062D2A389
:100B6D00D2A1D2A0AF2AE52E6403452D7005FC7DE0
:100B7D000180047C007D0012181F1214BFC2A280D8
:100B8D0034E55464037039C3E52C952F7480F865F2
:100B9D002B98502CD2A2D2A1D2A0AF2CE52E64045A
:100BAD00452D7005FC7D0180047C007D0012181F11
:100BBD001214BFC2A39015C4E493FF7E001217D088
:0C0BCD000554E554D394034003E4F554B0
:010BD90022F9
:1013AB00E55DB40A03120E6DE55D7003121719E5C6
:1013BB005DB401031217BBE55DB40203121157E5CF
:1013CB005DB4030312145EE55DB40403121689E5E4
:1013DB005DB465031214ECE55DB466031211A9222A
:08190C007F0312163CB20C220D
:0A18E800200C0675550F7556A0225E
:10151900200C07E55DD3946440030213ABD3E55671
:10152900940AE5559400400C1213ABE55615567014
:0D1539000B155522D2A3D2A2D2A1D2A0221E
:0A18F200E55DC39464500122C32297
:10163C008F44E4F55BF55CE55D65446019E55DB4EC
:10164C000405AF5F121779E55DB40307A20C920194
:07165C0012174A85445D22CC
:1015C500E559C39414500474058014E559C3943C3B
:1015D5005004740A8009E559C394E650067414252D
:0815E50059F5597F6602163C1E
:1015ED00E559D3943C400474EC8014E559D394141C
:1015FD00400474F68009E559C39405400674FB2533
:08160D0059F5597F6602163CF5
:100FFE00011D00010800010900010A00010B000299
:10100E001500000217000002190000021B0000016B
:10101E000E00010F00011000011100010C00010D66
:0A102E00000112000113000114007C
:05193400E4AF1DF51DEC
:01193900228B
:10057700309639E4F515F516E50E6006E4F50E75C7
:100587001D01E50C6021E5126005E4F5128015E513
:10059700136005E4F513800CE5146005E4F5148099
:1005A70003751D0BE4F50CE4F5088077E508707317
:1005B700E512706FE513706BE51470670516E516A5
:1005C70070020515D39414E51594004003750E01C8
:1005D7000516E51670020515D39458E515940240E3
:1005E70042209711750801750C01E4F50E7512018B
:1005F700751D0C802E209511750801750C01E4F509
:100607000E751301751D0D801A209411750801755B
:100617000C01E4F50E751401751D0E8006E4F50E48
:10062700750C01309713E50F6006E4F50F751D0291
:10063700E4F509F517F5188046E5097042E50E70EF
:100647003EE50C703AE5127036E5137032E514702A
:100657002E0518E51870020517D39414E5179400B2
:100667004003750F020518E51870020517D3945853
:10067700E51794024009E4F50F750902751D163058
:100687009513E5106006E4F510751D03E4F50AF50A
:1006970019F51A8046E50A7042E50E703EE50C70C2
:1006A7003AE5127036E5137032E514702E051AE537
:1006B7001A70020519D39414E519940040037510B4
:1006C70001051AE51A70020519D39458E519940221
:1006D7004009E4F510750A01751D21309412E511E2
:1006E7006006E4F511751D04E4F50BF51BF51C22F6
:1006F700E50B7042E50E703EE50C703AE512703678
:10070700E5137032E514702E051CE51C7002051BFD
:10071700D39414E51B94004003751101051CE51CD7
:100727007002051BD39458E51B94024009E4F511A8
:07073700750B01751D2C225A
:03000000020DE10D
:0C0DE100787FE4F6D8FD75816B020E28C7
:10036A00E709F608DFFA8046E709F208DFFA803E75
:10037A0088828C83E709F0A3DFFA8032E309F60862
:10038A00DFFA8078E309F208DFFA807088828C83CA
:10039A00E309F0A3DFFA806489828A83E0A3F6087E
:1003AA00DFFA805889828A83E0A3F208DFFA804C58
:1003BA0080D280FA80C680D4806980F2803380102F
:1003CA0080A680EA809A80A880DA80E280CA803398
:1003DA0089828A83ECFAE493A3C8C582C8CCC58310
:1003EA00CCF0A3C8C582C8CCC583CCDFE9DEE780E0
:1003FA000D89828A83E493A3F608DFF9ECFAA9F05F
:10040A00EDFB2289828A83ECFAE0A3C8C582C8CCB4
:10041A00C583CCF0A3C8C582C8CCC583CCDFEADECD
:10042A00E880DB89828A83E493A3F208DFF980CC2F
:10043A0088F0EF60010E4E60C388F0ED2402B40428
:10044A000050B9F582EB2402B4040050AF232345CF
:06045A0082239003BA7337
:10046000F8BB010DE58229F582E5833AF583E8F0D2
:10047000225006E92582C8F622BBFE05E92582C87E
:02048000F22266
:10048200EF8DF0A4A8F0CF8CF0A428CE8DF0A42E8E
:02049200FE2248
:10049400BC000BBE0029EF8DF084FFADF022E4CC4C
:1004A400F875F008EF2FFFEE33FEEC33FCEE9DEC15
:1004B400984005FCEE9DFE0FD5F0E9E4CEFD22ED5B
:1004C400F8F5F0EE8420D21CFEADF075F008EF2FA5
:1004D400FFED33FD4007985006D5F0F222C398FD96
:0504E4000FD5F0EA2233
:10000E00E5402434F8E60540227831300802783491
:10001E00E475F0011205410204E92001EB7F2ED2B6
:10002E00018018EF540F2490D43440D4FF30050BC8
:10003E00EF24BFB41A0050032461FFE5416002159E
:10004E00410544E5447002054330080D7831E475EE
:10005E00F001120541EF02052F0219287403D20890
:10006E008003E4C208F5408B318A328933E4F541CE
:10007E00F543F544E54160077F2012004980F57590
:10008E0042FFC202C201C203C204C206C207C209B3
:10009E00120017FF700D3008057F0012005AAF4492
:1000AE00AE4322B4255FC2D5C205120017FF24D07D
:1000BE00B40A00501A75F00A784130D50508B6FF1B
:1000CE000106C6A426F620D5047002D20480D924D7
:1000DE00CFB41A00EF5004C2E5D20502025AD20282
:1000EE0080C6D20180C0D20380BCD2D580BAD206DF
:1000FE0080B47F201200492003077401B5410040EF
:10010E00F112000EFF120049020082D209D20780BE
:10011E009512000EFB12000EFA12000EF94A4B70E9
:10012E0006792B7A037BFF20032EE541602A7E00A1
:10013E008E8275830012050260060EEE654270F027
:10014E00C2D5EBC0E0EAC0E0E9C0E0EE1202A1D0F9
:10015E00E0F9D0E0FAD0E0FB1204E9FF60AAEBC0B0
:10016E00E0EAC0E0E9C0E0120049D0E02401F9D095
:10017E00E03400FAD0E0FBE5420460DCD542D980E1
:10018E00877BFF7A02799DD203809C791080027959
:10019E0008C207C2098008D2D5790A8004790AC23A
:1001AE00D5E542047002F542E4FAFDFEFF12000EA0
:1001BE00FC7B0820021312000EFD7B1030010A1288
:1001CE00000EFE12000EFF7B20EC3382D592D5502E
:1001DE0013C3E43001069FFFE49EFEE42002039D5C
:1001EE00FDE49CFCE4CBF8C202EC700CCFCECDCC7F
:1001FE00E824F8F870F38017C3EF33FFEE33FEED0B
:10020E0033FDEC33FCEB33FB994002FB0FD8E9EBEB
:10021E00300205F8D0E0C448B202C0E00AEC4D4E00
:10022E004F78207B0070C2EAB5420040BCC0E0129D
:10023E0002A3D0F0D0E0200204C4C0E0C4B202C0D9
:10024E00F0120032D0F0D5F0EB020082120551010F
:10025E001F5301995800F04C00EC42019D4F01A52F
:0F026E004401A54901054301AB55018F46018F9E
:10027D0045018F47034B5000F42D00F82E011B2B29
:10028D0000FC2301192003342A00B4480000011397
:10029D003F3F3F00790AA2D5200414300609B9105A
:1002AD00020404B9080104A2D5200702500104205C
:1002BD0003689203B541005034C0E07F203004192B
:1002CD007F30A20372077206500F1202FAC203C2E8
:1002DD0007C206C2097F30800F300603E9C0E01265
:1002ED000049300603D0E0F9D0E0B541CC30061717
:1002FD007F30B9100C1200497F583005077F788088
:10030D0003B908031200493003057F2D0200497F10
:10031D00202009F87F2B2007F322920380CF286E2F
:10032D00756C6C2900D20212000E3002F8C20278F0
:10033D004130D50108F60200B42D50434958120042
:10034D000E2403B405004001E49003469312003AD5
:0D035D00743A12003AD2047541040201996D
:100DED000212DFE493A3F8E493A34003F68001F22B
:100DFD0008DFF48029E493A3F85407240CC8C33307
:100E0D00C4540F4420C8834004F456800146F6DFD5
:100E1D00E4800B0102040810204080900FCDE47E89
:100E2D00019360BCA3FF543F30E509541FFEE493CA
:100E3D00A360010ECF54C025E060A840B8E493A391
:100E4D00FAE493A3F8E493A3C8C582C8CAC583CABC
:100E5D00F0A3C8C582C8CAC583CADFE9DEE780BE74
:0110380000B7
:1004E900BB010689828A83E0225002E722BBFE0211
:0904F900E32289828A83E4932244
:10050200BB010CE58229F582E5833AF583E02250AE
:1005120006E92582F8E622BBFE06E92582F8E222F8
:0D052200E58229F582E5833AF583E4932212
:10052F00BB010689828A83F0225002F722BBFE01AB
:02053F00F322A5
:10054100FAE6FB0808E6F925F0F618E6CA3AF622BB
:10055100D083D082F8E4937012740193700DA3A339
:1005610093F8740193F5828883E47374029368604D
:06057100EFA3A3A380DF4D
:00000001FF
