:08000300D205121259C20A22B3
:10022D008F3D1214C1E56BD3940A50030202F8E519
:10023D003D64017027E56BB40B161214AD8F61E5AB
:10024D0061B40F05E4F56180020561AF611212EE34
:10025D00E56B641560030203C202114BE56BD39489
:10026D000A402CE53D64027026E56BB40B151214A3
:10027D00AD8F61E561700575610F80021561AF612C
:10028D001212EEE56B641560030203C2021173E5F1
:10029D006BD3940A4014E53DB4030FE56BB415031D
:1002AD00E4F56EE4FF12134F803DE56BD3940A50D5
:1002BD00030203C2E53D640460030203C2E56BB4AF
:1002CD000B0312064AE56BB4151DE560D39400408F
:1002DD000F756E01E4F56CF56D12142B7F01800422
:1002ED00E4F56EFF12134FE4F56B22E53DB40C03FC
:1002FD000214D3E53DB40D0C1214AD8F61756B0B6B
:10030D007F65801DE53DB40B0D756B15E4F56E53E2
:10031D008EEF7F66800BE53DB40E09B200D2017FF2
:10032D000502134FE53DB421047F018007E53DB47F
:10033D002C0AE4FF1214978E688F6922E53DB416DE
:10034D00087F0412134F0211C2E53DB4011D7F0455
:10035D0012134FE5662401FFE433FEC3EF9410EE54
:10036D0064809480504FE566048014E53DB402131B
:10037D007F0412134FE566D394004039E56614FFF0
:10038D000211E9E53DB4030EE567B56A05E4F567CD
:10039D00801405678010E53DB4041AE56770058586
:1003AD006A6780021567AF671212D48E5E8F5F1277
:0603BD000FD21200032222
:1010F900120C1F9206E4F56B75601E538EEFF56EA8
:10110900121459120ACB1214C11213203006030209
:08111900064A85685E85695FE6
:0111210022AB
:100D3D00801E300B0C1214B78F657F0212134FC239
:100D4D000B1214EF8F3CE56EB4020AE53CB42CE2B5
:100D5D001210F980DDE56EB4011AE560C3940150FF
:100D6D0013756E02538EEF12141BD2A3D2A2D2A111
:100D7D00D2A080BEE53C6004FF12022D300AB312F2
:060D8D001259C20A80ACFD
:03000B00020921C6
:10092100C0E0C0F0C083C082C0D075D000C000C09C
:0D09310001C002C003C004C005C006C0071D
:10093E001200608F22120066E56EC39402504212BE
:10094E000EC54045E522640A6021E522C394645039
:10095E00300564E56470020563C394D0E5639407C3
:10096E00401F7F0A12134FD20A80163000130564FF
:10097E00E56470020563C394D0E56394074002D228
:09098E000B758A66758C7EC28D22
:10099700D007D006D005D004D003D002D001D000B4
:0B09A700D0D0D082D083D0F0D0E0325E
:0300630002119BEC
:10119B00C0E0C0D0E56EB40119056DE56D700205B8
:1011AB006CD394B8E56C940B40081560756C0075A6
:0711BB006D00D0D0D0E0323E
:0A14810000007F217E42DEFEDFFC4A
:01148B00223E
:0514E900007F04DFFE9E
:0114EE0022DB
:1013BD00AD07AC06ED1DAE0470011C4E6005121498
:0413CD008180F12208
:1013D100AD07AC06ED1DAE0470011C4E6005121484
:0413E100E980F1228C
:0814CB00000000000000000019
:100B3F00016605C100026821FC016700016A00C15E
:070B4F0005C102C104C10150
:0410CE008E458F4676
:1010D20078477C007D007BFF7A1479CB7E007F020B
:1010E2001204937B007A007947AF46AE45120F0B8C
:0610F200E547FEE548FFA2
:0110F80022D5
:0212D4008F4445
:1012D600EF75F002A42402FFE5F03406FE1210CEEC
:0712E6008E688F69854467E3
:0112ED0022DE
:101366008F3EE4FFFE1213E5E53EFDE4FFFE121399
:061376007CE53EF5662255
:040DE5008E448F4564
:100DE90078467C007D007BFF7A1479CD7E007F02F6
:100DF900120493E544F5468545477F007E021213A8
:100E0900E5AD467F007E0212137CAD477F017E026D
:100E190012137CE567F46009AD677402FFFE1213D3
:070E29007C854468854569E2
:010E3000229F
:10127D007F007E041213E5A203E433FD7F007E049C
:0F128D0012137CA200E433FD7F027E0402137C67
:10125900300509AF69AE68120DE5C205300207AF66
:1012690066121366C20220040330010712127DC2FE
:0412790004C2012288
:0714DB007F007E060213E50D
:060BB1008F448C458D46C7
:100BB70078497C007D007BFF7A1479CF7E007F0225
:100BC700120493784B7C007D007BFF7A1479D17EE9
:100BD700007F02120493E545F54B85464CE54475C5
:100BE700F002A4AEF02402F548EE3406F547AD4B0B
:100BF700AF48FE12137C7F047E001213BDE5482424
:100C070001FFE43547FEAD4C12137C7B007A007977
:080C170049AF48AE47020F0B84
:0B148C00AD078D6A7F007E0602137C16
:100C1F00E4FFFE1213388F66E566D3940F40047F0E
:100C2F000180027F00E566C3940050047E018002BC
:100C3F007E00EE4F60037566057F007E0412133849
:100C4F00EF1392037F027E04121338EF1392007F8B
:100C5F00007E061213388F6AE56AB4FF02D3227F33
:100C6F00007E021210CE8E688F697402FFFE12137F
:050C7F00388F67C3225D
:0D146800E4F5C7F5C5F5C675C380F5C422CF
:1013E50075C78075C5038FC48EC375C65A75C6A5E6
:0413F5000002146876
:1013380075C78075C5018FC48EC375C65A75C6A595
:0613480000AFC2121468A0
:01134E00227C
:0A0F0B008E4D8F4E8B4F8A50895196
:100F150075C78075C501E4FDED7E00254EF553EEE0
:100F2500354DF5528553C4E552F5C375C65A75C698
:100F3500A50000AB4FAA50A9518D82758300E5C26B
:0A0F45001204B90DBD03D1021468B7
:10137C0075C78075C5028FC48EC38DC275C65A756C
:06138C00C6A50002146872
:0714E2007F0A7E000213D116
:0F143B00D2A4D2A51214E2C2A41214E2C2A522B6
:0C147500C2A4D2A51214E2D2A40214E218
:10140B00EF24FF92A41214E2D2A51214E2C2A52279
:10139200D2A41214E2D2A51214E2A2A49209C2A506
:0513A200A209E433FF85
:0113A7002223
:02100B008F58FC
:10100D00755908AF591559EF601DE55830E704D2F1
:10101D00A48002C2A41214E2D2A51214E2C2A5E564
:10102D005825E0F55880DC121392EF24FF9208A2A8
:04103D0008E433FF91
:01104100228C
:021042008F58C5
:10104400755908E4F55AD2A4AF591559EF6017E55C
:101054005A25E0F55AD2A51214E230A402055AC268
:0D106400A51214E280E2AF5812140BAF5A2F
:01107100225C
:0414F50000000000F3
:030B5600011E007D
:060F9100AD4AAC497F03EC
:060F97008F4B8C4C8D4DC8
:100F9D00784E7C007D007BFF7A1479F57E007F0210
:100FAD00120493E54CF54EE54DF54F12143B7F229F
:100FBD0012100BAF4B12100BAF4E12100BAF4F1296
:050FCD00100B02147579
:020F4F008F55BC
:100F510078567C007D007BFF7A1479F77E007F0252
:100F610012049312143B7F2212100BAF5512100B77
:100F710012143B7F2312100BE4FF1210428F567F95
:0F0F8100011210428F57121475E556FEE557FF07
:010F9000223E
:100ACB007D027C007F02120F977F327E001213BDD6
:100ADB007D017CC07F02120F977F327E001213BD07
:100AEB00E5692404FFE56834DEFE7C007D0A120410
:100AFB00EDEF7806C333CE33CED8F9AC064410FDF8
:100B0B007F03120F977D007C047F04120F9774866E
:100B1B00FCE56644A0FD7F05120F977D007C807F6E
:100B2B0006120F977D1A7C5F7F07120F9785685E01
:040B3B0085695F2247
:04074F008E4B8F4CF2
:10075300E4F54DF54EF54FF550F551F552F553F5DA
:10076300547F03120F4F7E00EF540C7802CEC31355
:10077300CE13D8F9F5548E5345537008754D217532
:100783004EFC8024E55464014553700E754D1D7570
:100793004EB0754F2375508C803DE554640245532C
:1007A300700E754D1D754EB0754F2A7550308027EC
:1007B300E5546403455370647F07120F4FEEC31370
:1007C30030E008754D19754E648006754D13754EEE
:1007D30088754F1D7550B07F03120F4F755300EF8F
:1007E3005403F55445537007F55175520A802FE5AC
:1007F30054640145537007F5517552148020E55434
:10080300640245537007F5517552058011E5546430
:100813000345537007F55175520280028018C3E5F2
:100823004C954EE54B954D5002800BD3E54C9550BE
:10083300E54B954F4004E4FEFF22C3E54C954EFF84
:0C084300E54B954DFEAC51AD521204ED9A
:01084F002286
:040542008E478F4809
:10054600E4F549F54AF54BF54CF54DF54EF54FF505
:10055600507F03120F4F7E00EF540C7802CEC31368
:10056600CE13D8F9F5508E4F454F70087549217551
:100576004AFC8024E5506401454F700E75491D758F
:100586004AB0754B23754C8C803DE5506402454F4F
:10059600700E75491D754AB0754B2A754C3080270B
:1005A600E5506403454F70647F07120F4FEEC31387
:1005B60030E008754919754A648006754913754A0D
:1005C60088754B1D754CB07F03120F4F754F00EFAA
:1005D6005403F550454F7007F54D754E0A802FE5CB
:1005E600506401454F7007F54D754E148020E55057
:1005F6006402454F7007F54D754E058011E5506450
:1006060003454F7007F54D754E028002802DAC4DA7
:10061600AD4EAE47AF481204DBE54A2FF550E5492B
:100626003EF54FD3E550954CE54F954B4002800B78
:10063600C3E550954AE54F95495004E4FEFF22AEC6
:030646004FAF5063
:01064900228E
:0E144A00E4FE7F0A120F4FEE5403FE1205421D
:011458002271
:100FD20012074F8E478F487F03120F4F8E498F4A59
:100FE200534A3F754900E5475403FEE5487806C376
:100FF20033CE33CED8F9424AEE4249434A10120F59
:0910020091120F917F0A02134FB5
:0914AD007F05120F4FEE540FFFF2
:0114B6002213
:0212EE008F3E31
:1012F0007F05120F4FAD07AC065304F0E53EFEEE3E
:0713000042047F05020F9774
:020C84008F449B
:100C86007F03120F4FAD07AC065305EF7F03120F1C
:100C9600977F02120F4FAC06AD07E544B40105433A
:100CA600040280035304FD43040130070553057F06
:100CB60080034305807F02120F977F0A120F4FEEC3
:100CC60020E6097F0A7E001213BD80EE12144A8EBA
:0A0CD600458F46120FD2AE45AF461F
:010CE00022F1
:0B149700EF24FF920CD207120C8422FD
:0A14A2007F0B120F4FEEFF530701FE
:0114AC00221D
:10064A00E4F53EF53FFE7F03120F4F7E00EF540C98
:10065A007802CEC313CE13D8F9FF4E700875402125
:10066A007541FC8020EF64014E700E75401D754186
:10067A00B075422375438C803CEF64024E700E7550
:10068A00401D7541B075422A7543308028EF6403D6
:10069A004E600302074E7F07120F4FEEC31330E07E
:1006AA00087540197541648006754013754188754F
:1006BA00421D7543B0AE40AF418E5E8F5F8E688F2C
:1006CA0069D20C7F0A12134FAF41AE40120FD27F8C
:1006DA00327E001213BD1214DBE56965437004E52E
:1006EA006865426035C2077F01120C848E688F6983
:1006FA007FF47E011213BD1214A2EF60187FF47EFC
:10070A00011213BDAF3FAD69AC68120BB1053FE5ED
:10071A003F7002053E1214C180BFE53F153F7002CB
:10072A00153EAF3F12148CE4F567FF1212D48E689F
:10073A008F698E5E8F5FAF5FAE5E120FD2AF69AE0A
:04074A0068120DE53F
:01074E002288
:0211E9008F3E37
:1011EB007F05120F4FAD07AC065305F0E53E540FCC
:1011FB0042057F05120F97853E66E51E70057F0140
:03120B0012129C20
:01120E0022BD
:02129C008F3F82
:10129E007F02120F4FAD07AC06E53F6005430440D9
:0A12AE0080035304BF7F02020F9774
:1011C2007F02120F4FAD07AC06ECC413135403F4A5
:1011D20054016008430440751E0180065304BFE4B5
:0711E200F51E7F02020F97CA
:0914B7007F0B120F4FEEC313FF6F
:0114C0002209
:10141B007F02120F4FAC06EF54FEFD7F02020F97B7
:0F145900C2B2C2B4C2B3D2A3D2A2D2A1D2A02235
:02107200AD07C8
:10107400E4FB74807E00A803088006CEA2E713CEAA
:1010840013D8F8FFEDF582EF558224FF92B2D2B463
:0C109400C2B40BBB08DCD2B30000C2B336
:0110A000222D
:10112200C0F9A4B0999282F880907F8883C6A18684
:101132008E8CC1CE9189C712C8ABF7BF40792430DB
:091142001912027800107FC78920
:100B5900025E21FC0263000001620A016500016175
:0D0B690000016000C18C025C1F40015B00B8
:1013F900ED4C6007EF90113E93FF22EF901122937D
:02140900FF22C0
:10120F00300308752C00752D158006752C00752D73
:10121F0016752E00752FFF7BFF7A007DFF7C007FF8
:05122F00171208502217
:0409B200AB07AA06DF
:1009B6007C277D101204ED8F257C277D10AF03AEBA
:1009C600021204ED7E037FE8CFCDCFCECCCE12044B
:1009D600ED8F247C037DE8AF03AE021204ED7E00AA
:1009E6007F64CFCDCFCECCCE1204ED8F23AE02AF37
:1009F600037C007D641204ED7E007F0ACFCDCFCE4E
:100A0600CCCE1204ED8F26E525C39401E524FD7CAA
:100A160000E523FB7A00500F752C008F2D752E00F4
:100A2600752F037F64800E752C0085262D752E008C
:080A3600752F03AF25120850D3
:010A3E002295
:100E3100E55FB5690AE55EB56805AF5FFE803930EB
:100E41000C19055FE55F7002055ED39430E55E9491
:100E51002A4021755E21755FFC8019E55F155F7081
:100E610002155EC3E55F94FCE55E94215006755E54
:0C0E71002A755F30AF5FAE5E1209B2223E
:10123400E56675F00A84FD7C00E56675F00A84E5D0
:10124400F0FB7A00752C00752DFF752E00752FFFAD
:051254007FFF020850BD
:10000E00E56575F06484FFE56575F06484E5F0756B
:10001E00F00A84F524E56575F00A8485F023EF6017
:10002E0016FD7C00E524FB7A00752C0085232D75CA
:10003E002E00752FFF8015E524FB7A00752C0085A8
:10004E00232D752E00752FFF7DFF7C007FFF12087C
:01005E005051
:01005F00227E
:1010A100E56175F00A84A9F0E56175F06484E5F005
:1010B10075F00A84FB7A00AF01752C008F2D752E17
:0D10C10000752FFF7D197C007F170208507D
:100D9300E56075F06484FFE56075F06484E5F075E3
:100DA300F00A84F524E56075F00A8485F023EF608A
:100DB30016FD7C00E524FB7A00752C0085232D7538
:100DC3002E00752FFF8015E524FB7A00752C008516
:100DD300232D752E00752FFF7DFF7C007F161208D3
:010DE30050BF
:010DE40022EC
:1013A800E4F52CF52DF52E752FFF7B18FA7DFFFC43
:0513B8007FFF02085058
:10130700752C00752D1A752E00752FFF7B1A7A0024
:091317007DFF7C007FFF020850FD
:1012B800A200E433752C00F52D752E00752FFF7BE9
:0C12C800FF7A007DFF7C007F17020850B9
:100CE100A907E97012C3ED953BE53A6480F8EC641D
:100CF1008098500122C322B90112C3EB953BE53A1A
:100D01006480F8EA648098500122C322B90214C3B6
:100D1100E537953BE53A6480F8E536648098500103
:100D210022C322B90314C3E539953BE53A6480F83F
:0C0D3100E538648098500122C322C322E0
:0A0850008F278C288D298A2A8B2B14
:10085A0075301CE527FD7C00852A36852B37852CCB
:10086A0038852D39753A0085303BAB29AA28AF5B0C
:10087A00120CE1400E055BE55BD3940340D5E4F529
:10088A005B80D0D2A3D2A2D2A1D2A0E55B701BE535
:10089A002F6401452E7005FC7D0180047C007D00DB
:1008AA00AF271213F9121072C2A0E55BB4011BAF95
:1008BA0029E52F6402452E7005FC7D0180047C0029
:1008CA007D001213F9121072C2A1E55BB4021BAFCC
:1008DA002BE52F6403452E7005FC7D0180047C0006
:1008EA007D001213F9121072C2A2E55BB4031BAFAA
:1008FA002DE52F6404452E7005FC7D0180047C00E3
:10090A007D001213F9121072C2A3055BE55BD39442
:06091A00034003E4F55B5D
:0109200022B4
:100E7D00E562B40A03120E31E5627003121307E541
:100E8D0062B401031213A8E562B4020312000EE569
:100E9D0062B4030312120FE562B40403121234E5B7
:100EAD0062B405031212B8E562B465031210A1E530
:080EBD0062B46603120D9322DA
:0814D3007F0312134FB2032244
:0A14C100200306755C1F755D4022D4
:100EC500200307E562D394644005120E7D8035D377
:100ED500E55D940AE55C9400400D120E7DE55D1517
:100EE5005D7021155C801DE55D6405455C601375CD
:100EF5005C00755D05D2A3D2A2D2A1D2A0E4FF12F7
:060F05001072D322C3228A
:10134F00E4F563F564E5626F600CBF0402D202BF7F
:07135F000302D2048F622299
:03006000AF62226A
:10114B00E560C39414500474058014E560C3943CAB
:10115B005004740A8009E560C394E65006741425A4
:08116B0060F5607F6602134F7E
:10117300E560D3943C400474EC8014E560D394148C
:10118300400474F68009E560C39405400674FB25AA
:0811930060F5607F6602134F56
:100B7600011A00010800010900010A00010B000228
:100B86001200000214000002160000021800000104
:100B96000E00010F00011000011100010C00010DF3
:0A0BA60000011B00011C00011D00EE
:0514EF00E4AF1AF51A3C
:0114F40022D5
:10006600309639E4F512F513E50E6006E4F50E75E3
:100076001A01E50C6021E51B6005E4F51B8015E51A
:100086001C6005E4F51C800CE51D6005E4F51D808B
:1000960003751A0BE4F50CE4F5088077E508707330
:1000A600E51B706FE51C706BE51D70670513E513A6
:1000B60070020512D39414E51294004003750E01E4
:1000C6000513E51370020512D394E8E51294034074
:1000D60042209711750801750C01E4F50E751B0198
:1000E600751A0C802E209511750801750C01E4F522
:1000F6000E751C01751A0D801A209411750801756C
:100106000C01E4F50E751D01751A0E8006E4F50E58
:10011600750C01309713E50F6006E4F50F751A02AA
:10012600E4F509F514F5158046E5097042E50E700B
:100136003EE50C703AE51B7036E51C7032E51D7025
:100146002E0515E51570020514D39414E5149400D4
:100156004003750F020515E51570020514D394E8E2
:10016600E51494034009E4F50F750902751A163073
:100176009513E5106006E4F510751A03E4F50AF523
:1001860016F5178046E50A7042E50E703EE50C70DE
:100196003AE51B7036E51C7032E51D702E0517E535
:1001A6001770020516D39414E516940040037510D3
:1001B600010517E51770020516D394E8E5169403B2
:1001C6004009E4F510750A01751A21309412E511FB
:1001D6006006E4F511751A04E4F50BF518F5192215
:1001E600E50B7042E50E703EE50C703AE51B703685
:1001F600E51C7032E51D702E0519E519700205180B
:10020600D39414E518940040037511010519E519F6
:1002160070020518D394E8E51894034009E4F51133
:07022600750B01751A2C2273
:10132000438E805389F0438901758A66758C7EC22D
:081330008DD28CD2A9D2AF22AC
:10142B00538EFBE4F5D775D628438E1043AF0422B9
:03000000020A3FB2
:0C0A3F00787FE4F6D8FD75816E020A860F
:1003C300E709F608DFFA8046E709F208DFFA803E1C
:1003D30088828C83E709F0A3DFFA8032E309F60809
:1003E300DFFA8078E309F208DFFA807088828C8371
:1003F300E309F0A3DFFA806489828A83E0A3F60825
:10040300DFFA805889828A83E0A3F208DFFA804CFE
:1004130080D280FA80C680D4806980F280338010D5
:1004230080A680EA809A80A880DA80E280CA80333E
:1004330089828A83ECFAE493A3C8C582C8CCC583B6
:10044300CCF0A3C8C582C8CCC583CCDFE9DEE78086
:100453000D89828A83E493A3F608DFF9ECFAA9F005
:10046300EDFB2289828A83ECFAE0A3C8C582C8CC5B
:10047300C583CCF0A3C8C582C8CCC583CCDFEADE74
:10048300E880DB89828A83E493A3F208DFF980CCD6
:1004930088F0EF60010E4E60C388F0ED2402B404CF
:1004A3000050B9F582EB2402B4040050AF23234576
:0604B30082239004137384
:1004B900F8BB010DE58229F582E5833AF583E8F079
:1004C900225006E92582C8F622BBFE05E92582C825
:0204D900F2220D
:1004DB00EF8DF0A4A8F0CF8CF0A428CE8DF0A42E35
:0204EB00FE22EF
:1004ED00BC000BBE0029EF8DF084FFADF022E4CCF3
:1004FD00F875F008EF2FFFEE33FEEC33FCEE9DECBC
:10050D00984005FCEE9DFE0FD5F0E9E4CEFD22ED01
:10051D00F8F5F0EE8420D21CFEADF075F008EF2F4B
:10052D00FFED33FD4007985006D5F0F222C398FD3C
:05053D000FD5F0EA22D9
:100A4B00020D3DE493A3F8E493A34003F68001F277
:100A5B0008DFF48029E493A3F85407240CC8C333AC
:100A6B00C4540F4420C8834004F456800146F6DF7B
:100A7B00E4800B0102040810204080900B3FE47EC1
:100A8B00019360BCA3FF543F30E509541FFEE49370
:100A9B00A360010ECF54C025E060A840B8E493A337
:100AAB00FAE493A3F8E493A3C8C582C8CAC583CA62
:100ABB00F0A3C8C582C8CAC583CADFE9DEE780BE1A
:010BB0000044
:00000001FF
