:08000300D205121254C20A22B8
:10022D008F3D1214ABE56BD3940A50030202F8E52F
:10023D003D64017027E56BB40B161214978F61E5C1
:10024D0061B40F05E4F56180020561AF611212E73B
:10025D00E56B641560030203C2021120E56BD394B4
:10026D000A402CE53D64027026E56BB40B151214A3
:10027D00978F61E561700575610F80021561AF6142
:10028D001212E7E56B641560030203C2021148E523
:10029D006BD3940A4014E53DB4030FE56BB415031D
:1002AD00E4F56EE4FF121348803DE56BD3940A50DC
:1002BD00030203C2E53D640460030203C2E56BB4AF
:1002CD000B0312064AE56BB4151DE560D39400408F
:1002DD000F756E01E4F56CF56D1214247F01800429
:1002ED00E4F56EFF121348E4F56B22E53DB40C0303
:1002FD000214BDE53DB40D0C1214978F61756B0B97
:10030D007F65801DE53DB40B0D756B15E4F56E53E2
:10031D008EEF7F66800BE53DB40E09B200D2017FF2
:10032D0005021348E53DB421047F018007E53DB486
:10033D002C0AE4FF1214818E688F6922E53DB416F4
:10034D00087F04121348021197E53DB4011D7F0487
:10035D00121348E5662401FFE433FEC3EF9410EE5B
:10036D0064809480504FE566048014E53DB402131B
:10037D007F04121348E566D394004039E56614FFF7
:10038D000211E4E53DB4030EE567B56A05E4F567D2
:10039D00801405678010E53DB4041AE56770058586
:1003AD006A6780021567AF671212CD8E5E8F5F127E
:0603BD000F9F1200032255
:1011BE00120C329206E4F56B75601E538EEFF56ECF
:1011CE00120ADE1214AB12131930060302064A85F8
:0511DE00685E85695FF9
:0111E30022E9
:100D5000801E300B0C1214A18F657F02121348C243
:100D60000B1214D98F3CE56EB4020AE53CB42CE2B8
:100D70001211BE80DDE56EB4011AE560C394015026
:100D800013756E02538EEF121414D2A3D2A2D2A105
:100D9000D2A080BEE53C6004FF12022D300AB312DF
:060DA0001254C20A80ACEF
:03000B00020934B3
:10093400C0E0C0F0C083C082C0D075D000C000C089
:0D09440001C002C003C004C005C006C0070A
:100951001200608F22120066E56EC39402504212AB
:10096100100F4045E522640A6021E522C3946450DA
:10097100300564E56470020563C394D0E5639407B0
:10098100401F7F0A121348D20A80163000130564F3
:10099100E56470020563C394D0E56394074002D215
:0909A1000B758A66758C7EC28D0F
:1009AA00D007D006D005D004D003D002D001D000A1
:0B09BA00D0D0D082D083D0F0D0E0324B
:0300630002117017
:10117000C0E0C0D0E56EB40119056DE56D700205E3
:101180006CD394B8E56C940B40081560756C0075D1
:071190006D00D0D0D0E03269
:0A146B0000007F217E42DEFEDFFC60
:011475002254
:0514D300007F04DFFEB4
:0114D80022F1
:1013B600AD07AC06ED1DAE0470011C4E600512149F
:0413C6006B80F12225
:1013CA00AD07AC06ED1DAE0470011C4E600512148B
:0413DA00D380F122A9
:0814B50000000000000000002F
:100B5200016605C100026821FC016700016A00C14B
:070B620005C102C104C1013D
:0410CC008E458F4678
:1010D00078477C007D007BFF7A1479B57E007F0223
:1010E0001204937B007A007947AF46AE45120ED8C2
:0610F000E547FEE548FFA4
:0110F60022D7
:0212CD008F444C
:1012CF00EF75F002A42402FFE5F03406FE1210CCF5
:0712DF008E688F69854467EA
:0112E60022E5
:10135F008F3EE4FFFE1213DEE53EFDE4FFFE1213A7
:06136F0075E53EF5662263
:040DF8008E448F4551
:100DFC0078467C007D007BFF7A1479B77E007F02F9
:100E0C00120493E544F5468545477F007E02121394
:100E1C00DEAD467F007E02121375AD477F017E0268
:100E2C00121375E567F46009AD677402FFFE1213C7
:070E3C0075854468854569D6
:010E4300228C
:101276007F007E041213DEA203E433FD7F007E04AA
:0F128600121375A200E433FD7F027E040213757C
:10125400300509AF69AE68120DF8C205300207AF58
:101264006612135FC202200403300105121276C213
:02127400042252
:0714C5007F007E060213DE2A
:060BC4008F448C458D46B4
:100BCA0078497C007D007BFF7A1479B97E007F0228
:100BDA00120493784B7C007D007BFF7A1479BB7EEC
:100BEA00007F02120493E545F54B85464CE54475B2
:100BFA00F002A4AEF02402F548EE3406F547AD4BF8
:100C0A00AF48FE1213757F047E001213B6E548241E
:100C1A0001FFE43547FEAD4C1213757B007A00796B
:080C2A0049AF48AE47020ED8A5
:0B147600AD078D6A7F007E0602137533
:100C3200E4FFFE1213318F66E566D3940F40047F02
:100C42000180027F00E566C3940050047E018002A9
:100C52007E00EE4F60037566057F007E041213313D
:100C6200EF1392037F027E04121331EF1392007F7F
:100C7200007E061213318F6AE56AB4FF02D3227F27
:100C8200007E021210CC8E688F697402FFFE12136E
:050C9200318F67C32251
:0D145200E4F5C7F5C5F5C675C380F5C422E5
:1013DE0075C78075C5038FC48EC375C65A75C6A5ED
:0413EE000002145293
:1013310075C78075C5018FC48EC375C65A75C6A59C
:0613410000AFC2121452BD
:011347002283
:0A0ED8008E4D8F4E8B4F8A508951CA
:100EE20075C78075C501E4FDED7E00254EF553EE14
:100EF200354DF5528553C4E552F5C375C65A75C6CC
:100F0200A50000AB4FAA50A9518D82758300E5C29E
:0A0F12001204B90DBD03D102145200
:1013750075C78075C5028FC48EC38DC275C65A7573
:06138500C6A5000214528F
:0714CC007F0A7E000213CA33
:0F143400D2A4D2A51214CCC2A41214CCC2A522E9
:0C145F00C2A4D2A51214CCD2A40214CC5A
:10140400EF24FF92A41214CCD2A51214CCC2A522AC
:10138B00D2A41214CCD2A51214CCA2A49209C2A539
:05139B00A209E433FF8C
:0113A000222A
:020FD8008F5830
:100FDA00755908AF591559EF601DE55830E704D225
:100FEA00A48002C2A41214CCD2A51214CCC2A5E5C4
:100FFA005825E0F55880DC12138BEF24FF9208A2E3
:04100A0008E433FFC4
:01100E0022BF
:021042008F58C5
:10104400755908E4F55AD2A4AF591559EF6017E55C
:101054005A25E0F55AD2A51214CC30A402055AC27E
:0D106400A51214CC80E2AF58121404AF5A4C
:01107100225C
:0414DF000000000009
:030B6900011E006A
:060F5E00AD4AAC497F031F
:060F64008F4B8C4C8D4DFB
:100F6A00784E7C007D007BFF7A1479DF7E007F0259
:100F7A00120493E54CF54EE54DF54F1214347F22D9
:100F8A00120FD8AF4B120FD8AF4E120FD8AF4F1265
:050F9A000FD802145FF6
:020F1C008F55EF
:100F1E0078567C007D007BFF7A1479E17E007F029B
:100F2E001204931214347F22120FD8AF55120FD819
:100F3E001214347F23120FD8E4FF1210428F567F03
:0F0F4E00011210428F5712145FE556FEE557FF50
:010F5D002271
:100ADE007D027C007F02120F647F327E001213B6FD
:100AEE007D017CC07F02120F647F327E001213B62E
:100AFE00E5692404FFE56834DEFE7C007D0A1204FD
:100B0E00EDEF7806C333CE33CED8F9AC064410FDE4
:100B1E007F03120F647D007C047F04120F647486C1
:100B2E00FCE56644A0FD7F05120F647D007C807F8E
:100B3E0006120F647D1A7C5F7F07120F6485685E54
:040B4E0085695F2234
:04074F008E4B8F4CF2
:10075300E4F54DF54EF54FF550F551F552F553F5DA
:10076300547F03120F1C7E00EF540C7802CEC31388
:10077300CE13D8F9F5548E5345537008754D217532
:100783004EFC8024E55464014553700E754D1D7570
:100793004EB0754F2375508C803DE554640245532C
:1007A300700E754D1D754EB0754F2A7550308027EC
:1007B300E5546403455370647F07120F1CEEC313A3
:1007C30030E008754D19754E648006754D13754EEE
:1007D30088754F1D7550B07F03120F1C755300EFC2
:1007E3005403F55445537007F55175520A802FE5AC
:1007F30054640145537007F5517552148020E55434
:10080300640245537007F5517552058011E5546430
:100813000345537007F55175520280028018C3E5F2
:100823004C954EE54B954D5002800BD3E54C9550BE
:10083300E54B954F4004E4FEFF22C3E54C954EFF84
:0C084300E54B954DFEAC51AD521204ED9A
:01084F002286
:040542008E478F4809
:10054600E4F549F54AF54BF54CF54DF54EF54FF505
:10055600507F03120F1C7E00EF540C7802CEC3139B
:10056600CE13D8F9F5508E4F454F70087549217551
:100576004AFC8024E5506401454F700E75491D758F
:100586004AB0754B23754C8C803DE5506402454F4F
:10059600700E75491D754AB0754B2A754C3080270B
:1005A600E5506403454F70647F07120F1CEEC313BA
:1005B60030E008754919754A648006754913754A0D
:1005C60088754B1D754CB07F03120F1C754F00EFDD
:1005D6005403F550454F7007F54D754E0A802FE5CB
:1005E600506401454F7007F54D754E148020E55057
:1005F6006402454F7007F54D754E058011E5506450
:1006060003454F7007F54D754E028002802DAC4DA7
:10061600AD4EAE47AF481204DBE54A2FF550E5492B
:100626003EF54FD3E550954CE54F954B4002800B78
:10063600C3E550954AE54F95495004E4FEFF22AEC6
:030646004FAF5063
:01064900228E
:0E144300E4FE7F0A120F1CEE5403FE12054257
:011451002278
:100F9F0012074F8E478F487F03120F1C8E498F4ABF
:100FAF00534A3F754900E5475403FEE5487806C3A9
:100FBF0033CE33CED8F9424AEE4249434A10120F8C
:090FCF005E120F5E7F0A02134856
:091497007F05120F1CEE540FFF3B
:0114A0002229
:0212E7008F3E38
:1012E9007F05120F1CAD07AC065304F0E53EFEEE78
:0712F90042047F05020F64AF
:020C97008F4488
:100C99007F03120F1CAD07AC065305EF7F03120F3C
:100CA900647F02120F1CAC06AD07E544B40105438D
:100CB900040280035304FD43040130070553057FF3
:100CC90080034305807F02120F647F0A120F1CEE16
:100CD90020E6097F0A7E001213B680EE1214438EB5
:0A0CE900458F46120F9FAE45AF463F
:010CF30022DE
:0B148100EF24FF920CD207120C972200
:0A148C007F0B120F1CEEFF53070147
:011496002233
:10064A00E4F53EF53FFE7F03120F1C7E00EF540CCB
:10065A007802CEC313CE13D8F9FF4E700875402125
:10066A007541FC8020EF64014E700E75401D754186
:10067A00B075422375438C803CEF64024E700E7550
:10068A00401D7541B075422A7543308028EF6403D6
:10069A004E600302074E7F07120F1CEEC31330E0B1
:1006AA00087540197541648006754013754188754F
:1006BA00421D7543B0AE40AF418E5E8F5F8E688F2C
:1006CA0069D20C7F0A121348AF41AE40120F9F7FC6
:1006DA00327E001213B61214C5E56965437004E54B
:1006EA006865426035C2077F01120C978E688F6970
:1006FA007FF47E011213B612148CEF60187FF47E19
:10070A00011213B6AF3FAD69AC68120BC4053FE5E1
:10071A003F7002053E1214AB80BFE53F153F7002E1
:10072A00153EAF3F121476E4F567FF1212CD8E68BC
:10073A008F698E5E8F5FAF5FAE5E120F9FAF69AE3D
:04074A0068120DF82C
:01074E002288
:0211E4008F3E3C
:1011E6007F05120F1CAD07AC065305F0E53E540F04
:1011F60042057F05120F64853E66E51E70057F0178
:031206001212952C
:0112090022C2
:021295008F3F89
:101297007F02120F1CAD07AC06E53F600543044013
:0A12A70080035304BF7F02020F64AE
:101197007F02120F1CAD07AC06ECC413135403F403
:1011A70054016008430440751E0180065304BFE4E0
:0711B700F51E7F02020F6428
:0914A1007F0B120F1CEEC313FFB8
:0114AA00221F
:101414007F02120F1CAC06EF54FEFD7F02020F6424
:02107200AD07C8
:10107400E4FB74807E00A803088006CEA2E713CEAA
:1010840013D8F8FFEDF582EF558224FF92B2D2B463
:0A109400C2B40BBB08DCD2B3C2B338
:01109E00222F
:1010F700C0F9A4B0999282F880907F8883C6A186B0
:101107008E8CC1CE9189C712C8ABF7BF4079243006
:091117001912027800107FC7894B
:100B6C00025E21FC0263000001620A016500016162
:0D0B7C0000016000C18C025C1F40015B00A5
:1013F200ED4C6007EF90111393FF22EF9010F793DB
:02140200FF22C7
:10120A00300308752C00752D158006752C00752D78
:10121A0016752E00752FFF7BFF7A007DFF7C007FFD
:05122A0017120850221C
:0409C500AB07AA06CC
:1009C9007C277D101204ED8F257C277D10AF03AEA7
:1009D900021204ED7E037FE8CFCDCFCECCCE120438
:1009E900ED8F247C037DE8AF03AE021204ED7E0097
:1009F9007F64CFCDCFCECCCE1204ED8F23AE02AF24
:100A0900037C007D641204ED7E007F0ACFCDCFCE3A
:100A1900CCCE1204ED8F26E525C39401E524FD7C97
:100A290000E523FB7A00500F752C008F2D752E00E1
:100A3900752F037F64800E752C0085262D752E0079
:080A4900752F03AF25120850C0
:010A51002282
:100E4400E55FB5690AE55EB56805AF5FFE803930D8
:100E54000C19055FE55F7002055ED39430E55E947E
:100E64002A4021755E21755FFC8019E55F155F706E
:100E740002155EC3E55F94FCE55E94215006755E41
:0C0E84002A755F30AF5FAE5E1209C52218
:10122F00E56675F00A84FD7C00E56675F00A84E5D5
:10123F00F0FB7A00752C00752DFF752E00752FFFB2
:05124F007FFF020850C2
:10000E00E56575F06484FFE56575F06484E5F0756B
:10001E00F00A84F524E56575F00A8485F023EF6017
:10002E0016FD7C00E524FB7A00752C0085232D75CA
:10003E002E00752FFF8015E524FB7A00752C0085A8
:10004E00232D752E00752FFF7DFF7C007FFF12087C
:01005E005051
:01005F00227E
:10109F00E56175F00A84A9F0E56175F06484E5F007
:1010AF0075F00A84FB7A00AF01752C008F2D752E19
:0D10BF0000752FFF7D197C007F170208507F
:100DA600E56075F06484FFE56075F06484E5F075D0
:100DB600F00A84F524E56075F00A8485F023EF6077
:100DC60016FD7C00E524FB7A00752C0085232D7525
:100DD6002E00752FFF8015E524FB7A00752C008503
:100DE600232D752E00752FFF7DFF7C007F161208C0
:010DF60050AC
:010DF70022D9
:1013A100E4F52CF52DF52E752FFF7B18FA7DFFFC4A
:0513B1007FFF0208505F
:10130000752C00752D1A752E00752FFF7B1A7A002B
:091310007DFF7C007FFF02085004
:1012B100A200E433752C00F52D752E00752FFF7BF0
:0C12C100FF7A007DFF7C007F17020850C0
:100CF400A907E97012C3ED953BE53A6480F8EC640A
:100D04008098500122C322B90112C3EB953BE53A06
:100D14006480F8EA648098500122C322B90214C3A3
:100D2400E537953BE53A6480F8E5366480985001F0
:100D340022C322B90314C3E539953BE53A6480F82C
:0C0D4400E538648098500122C322C322CD
:0A0850008F278C288D298A2A8B2B14
:10085A0075301CE527FD7C00852A36852B37852CCB
:10086A0038852D39753A0085303BAB29AA28AF5B0C
:10087A00120CF4400E055BE55BD3940340D5E4F516
:10088A005B80D0E55B7021D2A3D2A2D2A1E52F640E
:10089A0001452E7005FC7D0180047C007D00AF2798
:1008AA001213F2121072C2A0E55B64017021D2A386
:1008BA00D2A2D2A0AF29E52F6402452E7005FC7D95
:1008CA000180047C007D001213F2121072C2A1E5AD
:1008DA005B64027021D2A3D2A1D2A0AF2BE52F6410
:1008EA0003452E7005FC7D0180047C007D001213F7
:1008FA00F2121072C2A2E55B64037021D2A2D2A1E5
:10090A00D2A0AF2DE52F6404452E7005FC7D018031
:10091A00047C007D001213F2121072C2A3055BE57B
:09092A005BD394034003E4F55B88
:0109330022A1
:100E9000E562B40A03120E44E5627003121300E522
:100EA00062B401031213A1E562B4020312000EE55D
:100EB00062B4030312120AE562B4040312122FE5AE
:100EC00062B405031212B1E562B4650312109FE526
:080ED00062B46603120DA622B4
:0814BD007F03121348B2032261
:0A14AB00200306755C1F755D4022EA
:10100F00200307E562D394644005120E908022D32B
:10101F00E55D940AE55C9400400D120E90E55D15B8
:10102F005D700E155C800AD2A3D2A2D2A1D2A0D33A
:03103F0022C322A7
:10134800E4F563F564E5626F600CBF0402D202BF86
:071358000302D2048F6222A0
:03006000AF62226A
:10112000E560C39414500474058014E560C3943CD6
:101130005004740A8009E560C394E65006741425CF
:0811400060F5607F66021348B0
:10114800E560D3943C400474EC8014E560D39414B7
:10115800400474F68009E560C39405400674FB25D5
:0811680060F5607F6602134888
:100B8900011A00010800010900010A00010B000215
:100B990012000002140000021600000218000001F1
:100BA9000E00010F00011000011100010C00010DE0
:0A0BB90000011B00011C00011D00DB
:0514D900E4AF1AF51A52
:0114DE0022EB
:10006600309639E4F512F513E50E6006E4F50E75E3
:100076001A01E50C6021E51B6005E4F51B8015E51A
:100086001C6005E4F51C800CE51D6005E4F51D808B
:1000960003751A0BE4F50CE4F5088077E508707330
:1000A600E51B706FE51C706BE51D70670513E513A6
:1000B60070020512D39414E51294004003750E01E4
:1000C6000513E51370020512D394E8E51294034074
:1000D60042209711750801750C01E4F50E751B0198
:1000E600751A0C802E209511750801750C01E4F522
:1000F6000E751C01751A0D801A209411750801756C
:100106000C01E4F50E751D01751A0E8006E4F50E58
:10011600750C01309713E50F6006E4F50F751A02AA
:10012600E4F509F514F5158046E5097042E50E700B
:100136003EE50C703AE51B7036E51C7032E51D7025
:100146002E0515E51570020514D39414E5149400D4
:100156004003750F020515E51570020514D394E8E2
:10016600E51494034009E4F50F750902751A163073
:100176009513E5106006E4F510751A03E4F50AF523
:1001860016F5178046E50A7042E50E703EE50C70DE
:100196003AE51B7036E51C7032E51D702E0517E535
:1001A6001770020516D39414E516940040037510D3
:1001B600010517E51770020516D394E8E5169403B2
:1001C6004009E4F510750A01751A21309412E511FB
:1001D6006006E4F511751A04E4F50BF518F5192215
:1001E600E50B7042E50E703EE50C703AE51B703685
:1001F600E51C7032E51D702E0519E519700205180B
:10020600D39414E518940040037511010519E519F6
:1002160070020518D394E8E51894034009E4F51133
:07022600750B01751A2C2273
:10131900438E805389F0438901758A66758C7EC234
:081329008DD28CD2A9D2AF22B3
:10142400538EFBE4F5D775D628438E1043AF0422C0
:03000000020A529F
:0C0A5200787FE4F6D8FD75816E020A99E9
:1003C300E709F608DFFA8046E709F208DFFA803E1C
:1003D30088828C83E709F0A3DFFA8032E309F60809
:1003E300DFFA8078E309F208DFFA807088828C8371
:1003F300E309F0A3DFFA806489828A83E0A3F60825
:10040300DFFA805889828A83E0A3F208DFFA804CFE
:1004130080D280FA80C680D4806980F280338010D5
:1004230080A680EA809A80A880DA80E280CA80333E
:1004330089828A83ECFAE493A3C8C582C8CCC583B6
:10044300CCF0A3C8C582C8CCC583CCDFE9DEE78086
:100453000D89828A83E493A3F608DFF9ECFAA9F005
:10046300EDFB2289828A83ECFAE0A3C8C582C8CC5B
:10047300C583CCF0A3C8C582C8CCC583CCDFEADE74
:10048300E880DB89828A83E493A3F208DFF980CCD6
:1004930088F0EF60010E4E60C388F0ED2402B404CF
:1004A3000050B9F582EB2402B4040050AF23234576
:0604B30082239004137384
:1004B900F8BB010DE58229F582E5833AF583E8F079
:1004C900225006E92582C8F622BBFE05E92582C825
:0204D900F2220D
:1004DB00EF8DF0A4A8F0CF8CF0A428CE8DF0A42E35
:0204EB00FE22EF
:1004ED00BC000BBE0029EF8DF084FFADF022E4CCF3
:1004FD00F875F008EF2FFFEE33FEEC33FCEE9DECBC
:10050D00984005FCEE9DFE0FD5F0E9E4CEFD22ED01
:10051D00F8F5F0EE8420D21CFEADF075F008EF2F4B
:10052D00FFED33FD4007985006D5F0F222C398FD3C
:05053D000FD5F0EA22D9
:100A5E00020D50E493A3F8E493A34003F68001F251
:100A6E0008DFF48029E493A3F85407240CC8C33399
:100A7E00C4540F4420C8834004F456800146F6DF68
:100A8E00E4800B0102040810204080900B52E47E9B
:100A9E00019360BCA3FF543F30E509541FFEE4935D
:100AAE00A360010ECF54C025E060A840B8E493A324
:100ABE00FAE493A3F8E493A3C8C582C8CAC583CA4F
:100ACE00F0A3C8C582C8CAC583CADFE9DEE780BE07
:010BC3000031
:00000001FF
