:08000300D205121217C20922F6
:10036A008F3212145EE562D3940A5003020431E517
:10037A003264017027E562B40B1612144A8F56E5EF
:10038A0056B40F05E4F55680020556AF561212AA66
:10039A00E562641560030204F8021155E562D3941C
:1003AA000A402CE53264027026E562B40B15121479
:1003BA004A8F56E556700575560F80021556AF5688
:1003CA001212AAE562641560030204F802117DE5BF
:1003DA0062D3940A4014E532B4030FE562B41503FC
:1003EA00E4F563E4FF12130B8039E562D3940A50F3
:1003FA00030204F8E532640460030204F8E562B417
:10040A000B03120601E562B41519E555D3940040B1
:10041A000A7F0112130B7563018008E4FF12130BA4
:10042A00E4F563E4F56222E532B40C03021470E5E4
:10043A0032B40D0C12144A8F5675620B7F65801AFE
:10044A00E532B40B0A756215E4F5637F66800BE545
:10045A0032B40E09B200D2017F0502130BE532B4A1
:10046A0021047F018007E532B42C0AE4FF12143418
:10047A008E5D8F5E22E532B416087F0412130B02DA
:10048A0011A5E532B4011D7F0412130BE55B2401AB
:10049A00FFE433FEC3EF9410EE64809480504FE57E
:1004AA005B048014E532B402137F0412130BE55B7C
:1004BA00D394004039E55B14FF0211CCE532B40352
:1004CA000EE55CB55F05E4F55C8014055C8010E51B
:1004DA0032B4041AE55C7005855F5C8002155CAF76
:0F04EA005C1212908E538F54120F751200032262
:100FE500E4F562F563F555120C8312145E1212DCFA
:100FF5007F087E00121379120ACBEF6005120601F5
:10100500800D855D53855E54AF5EAE5D120F75AF85
:041015005B0211CC9D
:100CD700801E300A0C1214548F5A7F0212130BC253
:100CE7000A12148C8F31E563B4020AE531B42CE2A1
:100CF700120FE580DDE563B40117E555C394015094
:100D0700107563021213D7D2A3D2A2D2A1D2A080A8
:100D1700C1E5316004FF12036A3009B6121217C227
:030D27000980AF91
:03000B000208FCEC
:1008FC00C0E0C0F0C083C082C0D075D000C000C0C2
:0D090C0001C002C003C004C005C006C00742
:100919001214998F22E563C3940250031210D41262
:10092900000EE522640A6021E522C3946450300573
:1009390059E55970020558C394D0E5589407401FEA
:100949007F0A12130BD20980163000130559E55995
:1009590070020558C394D0E55894074002D20AE5BD
:1009690063B401220561E56170020560FFAE60E4D0
:10097900FCFD7B607AEAF9F8C31203545008155557
:0E098900756000756100758A88758C96C28D48
:10099700D007D006D005D004D003D002D001D000B4
:0B09A700D0D0D082D083D0F0D0E0325E
:0A141E0000007F217E42DEFEDFFCAD
:0114280022A1
:05148600007F04DFFE01
:01148B00223E
:10137900AD07AC06ED1DAE0470011C4E60051214DC
:041389001E80F122AF
:03149600021379C5
:10138D00AD07AC06ED1DAE0470011C4E60051214C8
:04139D008680F12233
:1012DC00438E805389F0438901758A88758C96C238
:0812EC008DD28CD2A9D2AF22F1
:0814680000000000000000007C
:100B4600015B05C100025D21FC015C00015F00C183
:070B560005C102C104C10149
:041101008E3A8F3B58
:10110500783C7C007D007BFF7A1479687E007F0245
:101115001202A57B007A00793CAF3BAE3A120EAEC7
:06112500E53CFEE53DFF84
:01112B0022A1
:021290008F3994
:10129200EF75F002A42402FFE5F03406FE121101FC
:0712A2008E5D8F5E85395C53
:0112A9002222
:101322008F33E4FFFE1213A1E533FDE4FFFE121337
:0613320038E533F55B22F3
:040DCE008E398F3A91
:100DD200783B7C007D007BFF7A14796A7E007F027B
:100DE2001202A5E539F53B853A3C7F007E021213DB
:100DF200A1AD3B7F007E02121338AD3C7F017E0223
:100E0200121338E55CF46009AD5C7402FFFE121344
:070E12003885395D853A5E69
:010E190022B6
:101239007F007E041213A1A203E433FD7F007E0424
:0F124900121338A200E433FD7F027E0402133833
:10121700300509AF5EAE5D120DCEC205300207AFD5
:101227005B121322C202200403300105121239C2D5
:0212370004228F
:071478007F007E060213A1B4
:060BB8008F398C3A8D3BE1
:100BBE00783E7C007D007BFF7A14796C7E007F028C
:100BCE001202A578407C007D007BFF7A14796E7E40
:100BDE00007F021202A5E53AF540853B41E53975E5
:100BEE00F002A4AEF02402F53DEE3406F53CAD4025
:100BFE00AF3DFE1213387F027E00121496E53D249F
:100C0E0001FFE4353CFEAD411213387B007A0079CA
:080C1E003EAF3DAE3C020EAEFC
:0B142900AD078D5F7F007E06021338C8
:100ACB00E4FFFE1212F48F5BE55BD3940F40047FBF
:100ADB000180027F00E55BC3940050047E0180021D
:100AEB007E00EE4F6003755B057F007E041212F4EF
:100AFB00EF24FF9203300304D2038002C2037F0270
:100B0B007E041212F4EF24FF9200300004D2008016
:100B1B0002C2007F007E061212F48F5FE55FB4FF06
:100B2B00037F01227F007E021211018E5D8F5E74A6
:0B0B3B0002FFFE1212F48F5C7F00220C
:0D140500E4F5C7F5C5F5C675C380F5C42232
:1013A10075C78075C5038FC48EC375C65A75C6A52A
:0413B100000214051D
:1012F40075C78075C5018FC48EC375C65A75C6A5DA
:0613040000AFC212140547
:01130A0022C0
:0A0EAE008E428F438B448A4589462B
:100EB80075C78075C501E4FDED7E002543F548EE54
:100EC8003542F5478548C4E547F5C375C65A75C622
:100ED800A50000AB44AA45A9468D82758300E5C2EA
:0A0EE8001202CB0DBD03D102140568
:1013380075C78075C5028FC48EC38DC275C65A75B0
:06134800C6A50002140519
:07147F007F0A7E0002138DBD
:0F13E700D2A4D2A512147FC2A412147FC2A522D1
:0C141200C2A4D2A512147FD2A402147F41
:1013C700EF24FF92A412147FD2A512147FC2A52284
:10134E00D2A412147FD2A512147FA2A49208C2A511
:05135E00A208E433FFCA
:011363002267
:020FAE008F4D65
:100FB000754E08AF4E154EEF601DE54D30E704D27B
:100FC000A48002C2A412147FD2A512147FC2A5E588
:100FD0004D25E0F54D80DC12134EEF24FF9207A261
:040FE00007E433FFF0
:010FE40022EA
:02104A008F4DC8
:10104C00754E08E4F54FD2A4AF4E154EEF6017E580
:10105C004F25E0F54FD2A512147F30A402054FC2E4
:0D106C00A512147F80E2AF4D1213C7AF4FE5
:011079002254
:041492000000000056
:030B5D00011E0076
:060F3400AD3FAC3E7F035F
:060F3A008F408C418D4246
:100F400078437C007D007BFF7A1479927E007F02DB
:100F50001202A5E541F543E542F5441213E77F226D
:100F6000120FAEAF40120FAEAF43120FAEAF44122E
:050F70000FAE02141297
:020EF2008F4A25
:100EF400784B7C007D007BFF7A1479947E007F021E
:100F04001202A51213E77F22120FAEAF4A120FAEE0
:100F14001213E77F23120FAEE4FF12104A8F4B7FA8
:0F0F24000112104A8F4C121412E54BFEE54CFFE0
:010F3300229B
:100C83007D027C007F02120F3A7F327E00121379BD
:100C93007D017CC07F02120F3A7F587E02121379C6
:100CA3007D107C007F03120F3A7D007C047F0412C9
:100CB3000F3A7DA57C867F05120F3A7D007C807FED
:100CC30006120F3A7D1A7C5F7F07120F3A855D5338
:040CD300855E5422C4
:040706008E408F4151
:10070A00E4F542F543F544F545F546F547F548F570
:10071A00497F03120EF27E00EF540C7802CEC31307
:10072A00CE13D8F9F5498E484548700875422175A7
:10073A0043FC8024E54964014548700E75421D75E5
:10074A0043B075442375458C803DE54964024548AC
:10075A00700E75421D7543B075442A754530802761
:10076A00E5496403454870647F07120EF2EEC3132D
:10077A0030E0087542197543648006754213754363
:10078A008875441D7545B07F03120EF2754800EF57
:10079A005403F54945487007F54675470A802FE521
:1007AA0049640145487007F5467547058020E549C3
:1007BA00640245487007F5467547148011E5496497
:1007CA000345487007F54675472880028018C3E537
:1007DA00419543E54095425002800BD3E54195454A
:1007EA00E54095444004E4FEFF22C3E5419543FFFA
:0C07FA00E5409542FEAC46AD471202FF00
:0108060022CF
:0404F9008E3C8F3D69
:1004FD00E4F53EF53FF540F541F542F543F544F59C
:10050D00457F03120EF27E00EF540C7802CEC3131A
:10051D00CE13D8F9F5458E4445447008753E2175C6
:10052D003FFC8024E54564014544700E753E1D7504
:10053D003FB075402375418C803DE54564024544CF
:10054D00700E753E1D753FB075402A754130802780
:10055D00E5456403454470647F07120EF2EEC31344
:10056D0030E008753E19753F648006753E13753F82
:10057D008875401D7541B07F03120EF2754400EF72
:10058D005403F54545447007F54275430A802FE540
:10059D0045640145447007F5427543058020E545E6
:1005AD00640245447007F5427543148011E54564B6
:1005BD000345447007F5427543508002802DAC42CF
:1005CD00AD43AE3CAF3D1202EDE53F2FF545E53EA7
:1005DD003EF544D3E5459541E54495404002800BF9
:1005ED00C3E545953FE544953E5004E4FEFF22AE3C
:0305FD0044AF45C3
:0106000022D7
:0E13F600E4FE7F0A120EF2EE5403FE1204F91A
:0114040022C5
:100F75001207068E3C8F3D7F03120EF28E3E8F3F89
:100F8500533F3F753E00E53C5403FEE53D7806C3FF
:100F950033CE33CED8F9423FEE423E433F10120FD7
:090FA50034120F347F0A02130B11
:09144A007F05120EF2EE540FFFB3
:011453002276
:0212AA008F3380
:1012AC007F05120EF2AD07AC065304F0E533FEEEEB
:0712BC0042047F05020F3A16
:020C26008F3904
:100C28007F03120EF2AD07AC065305EF7F03120FD8
:100C38003A7F02120EF2AC06AD07E539B40105435E
:100C4800040280035304FD43040130060553057F65
:100C580080034305807F02120F3A7F0A120EF2EEDC
:100C680020E6097F017E0012137980EE1213F68EBA
:0A0C78003A8F3B120F75AE3AAF3B06
:010C8200224F
:0B143400EF24FF920BD206120C2622C0
:0A143F007F0B120EF2EEFF530701BF
:011449002280
:10060100E4F533F534FE7F03120EF27E00EF540C55
:100611007802CEC313CE13D8F9FF4E700875352179
:100621007536FC8020EF64014E700E75351D7536F0
:10063100B075372375388C803CEF64024E700E75AF
:10064100351D7536B075372A7538308028EF64034B
:100651004E60030207057F07120EF2EEC31330E06E
:1006610008753519753664800675351375368875C4
:10067100371D7538B0AE35AF368E538F548E5D8FC2
:100681005ED20B7F0A12130BAF36AE35120F757F98
:10069100327E00121379121478E55E65387004E534
:1006A1005D65376035C2067F01120C268E5D8F5E57
:1006B1007FF47E0112137912143FEF60187FF47EEC
:1006C10001121379AF34AD5EAC5D120BB80534E5A0
:1006D100347002053312145E80BFE53415347002A4
:1006E1001533AF34121429E4F55CFF1212908E5DBC
:1006F1008F5E8E538F54AF54AE53120F75AF5EAEF3
:040701005D120DCEAA
:0107050022D1
:0211CC008F335F
:1011CE007F05120EF2AD07AC065305F0E533540F52
:1011DE0042057F05120F3A85335BE51E70057F01D0
:0311EE0012125882
:0111F10022DB
:021258008F34D1
:10125A007F02120EF2AD07AC06E534600543044086
:0A126A0080035304BF7F02020F3A15
:1011A5007F02120EF2AD07AC06ECC413135403F420
:1011B50054016008430440751E0180065304BFE4D2
:0711C500F51E7F02020F3A44
:091454007F0B120EF2EEC313FF30
:01145D00226C
:1013D7007F02120EF2AC06EF54FEFD7F02020F3AB7
:02107A00AD07C0
:10107C00E4FB74807E00A803088006CEA2E713CEA2
:10108C0013D8F8FFEDF582EF558224FF92B2D2B45B
:0A109C00C2B40BBB08DCD2B3C2B330
:0110A6002227
:10112C00C0F9A4B0999282F880907F8883C6A1867A
:10113C008E8CC1CE9189C712C8ABF7407924301977
:09114C0012027800107FC789002F
:100B6000025321FC0258000001570A015A000156A5
:0D0B700000015500C18B02511F40015000D3
:1013B500ED4C6007EF90114793FF22EF90112C93AE
:0213C500FF2205
:10101900300314752C00752DFF752E00752FFF7B7D
:10102900FF7A007D158012752C00752DFF752E0035
:10103900752FFF7BFF7A007D167C007FFF12080762
:011049002284
:0409B200AB07AA06DF
:1009B6007C277D101202FF8F257C277D10AF03AEAA
:1009C600021202FF7E037FE8CFCDCFCECCCE12023D
:1009D600FF8F247C037DE8AF03AE021202FF7E0088
:1009E6007F64CFCDCFCECCCE1202FF8F23AE02AF27
:1009F600037C007D641202FF7E007F0ACFCDCFCE3E
:100A0600CCCE1202FF8F26E525C39401E524FD7C9A
:100A160000E523FB7A00500F752C008F2D752E00F4
:100A2600752F037F64800E752C0085262D752E008C
:080A3600752F03AF251208071C
:010A3E002295
:100E1A00E554B55E0AE553B55D05AF54FE80393039
:100E2A000B190554E55470020553D39430E55394D5
:100E3A002A40217553217554FC8019E554155470C4
:100E4A00021553C3E55494FCE55394215006755397
:0C0E5A002A755430AF54AE531209B22276
:1011F200E55B75F00A84FD7C00E55B75F00A84E529
:10120200F0FB7A00752C00752D64752E00752F6425
:051212007F64020807E3
:100D2A00E55A75F06484FFE55A75F06484E5F07558
:100D3A00F00A84F524E55A75F00A8485F023EF60F9
:100D4A0016FD7C00E524FB7A00752C0085232D75A1
:100D5A002E00752FFF8015E524FB7A00752C00857F
:100D6A00232D752E00752FFF7DFF7C007FFF120853
:010D7A000771
:010D7B002255
:1010A700E55675F00A84A9F0E55675F06484E5F015
:1010B70075F00A84FB7A00AF01752C008F2D752E11
:0D10C70000752FFF7D197C007F17020807C0
:100D7C00E55575F06484FFE55575F06484E5F07510
:100D8C00F00A84F524E55575F00A8485F023EF60AC
:100D9C0016FD7C00E524FB7A00752C0085232D754F
:100DAC002E00752FFF8015E524FB7A00752C00852D
:100DBC00232D752E00752FFF7DFF7C007F161208EA
:010DCC00071F
:010DCD002203
:10136400E4F52CF52DF52E752FFF7B18FA7DFFFC87
:051374007FFF020807E5
:1012C300752C00752D1A752E00752FFF7B1A7A0069
:0912D3007DFF7C007FFF0208078B
:10127400A200E433752C00F52D752E00752FFF7B2D
:0C128400FF7A007DFF7C007F1702080746
:080807008C288D298A2A8B2B15
:10080F0075301BE550702BEFC3953040030208EF96
:10081F00D2A3D2A2D2A1E52F6401452E7005FC7D93
:10082F000180047C007D001213B512107AC2A00261
:10083F0008E4E55064017033C3E52995307480F8FE
:10084F0065289840030208EFD2A3D2A2D2A0AF2905
:10085F00E52F6402452E7005FC7D0180047C007D30
:10086F00001213B512107AC2A1806AE550640270AB
:10087F0030C3E52B95307480F8652A985062D2A367
:10088F00D2A1D2A0AF2BE52F6403452E7005FC7DBE
:10089F000180047C007D001213B512107AC2A28071
:1008AF0034E55064037039C3E52D95307480F865D5
:1008BF002C98502CD2A2D2A1D2A0AF2DE52F640438
:1008CF00452E7005FC7D0180047C007D001213B560
:1008DF0012107AC2A3901154E493FF7E0012137981
:0C08EF000550E550D394034003E4F5509D
:0108FB0022DA
:100E6600E557B40A03120E1AE55770031212C3E5CA
:100E760057B40103121364E557B40203120D2AE5B1
:100E860057B40303121019E557B404031211F2E51F
:100E960057B40503121274E557B465031210A7E59B
:080EA60057B46603120D7C2213
:081470007F0312130BB20322EB
:0A145E0020030675511F755240224D
:1010D400200307E557D394644003020E66D3E55218
:1010E400940AE5519400400C120E66E552155270B4
:0D10F4000B155122D2A3D2A2D2A1D2A0226C
:10130B00E4F558F559E5576F600CBF0402D202BFE4
:07131B000302D2048F5722E8
:03149900AF572228
:10115500E555C39414500474058014E555C3943CB7
:101165005004740A8009E555C394E65006741425A5
:0811750055F5557F6602130BCE
:10117D00E555D3943C400474EC8014E555D3941498
:10118D00400474F68009E555C39405400674FB25AB
:08119D0055F5557F6602130BA6
:100B7D00011D00010800010900010A00010B00021E
:100B8D001500000217000002190000021B000001F1
:100B9D000E00010F00011000011100010C00010DEC
:0A0BAD000001120001130001140002
:05148C00E4AF1DF51D99
:011491002238
:10000E00309639E4F515F516E50E6006E4F50E7535
:10001E001D01E50C6021E5126005E4F5128015E581
:10002E00136005E4F513800CE5146005E4F5148007
:10003E0003751D0BE4F50CE4F5088077E508707385
:10004E00E512706FE513706BE51470670516E51613
:10005E0070020515D39414E51594004003750E0136
:10006E000516E51670020515D394E8E515940340C0
:10007E0042209711750801750C01E4F50E751201F9
:10008E00751D0C802E209511750801750C01E4F577
:10009E000E751301751D0D801A20941175080175CA
:1000AE000C01E4F50E751401751D0E8006E4F50EB7
:1000BE00750C01309713E50F6006E4F50F751D0200
:1000CE00E4F509F517F5188046E5097042E50E705E
:1000DE003EE50C703AE5127036E5137032E5147099
:1000EE002E0518E51870020517D39414E517940021
:1000FE004003750F020518E51870020517D394E832
:10010E00E51794034009E4F50F750902751D1630C5
:10011E009513E5106006E4F510751D03E4F50AF578
:10012E0019F51A8046E50A7042E50E703EE50C7030
:10013E003AE5127036E5137032E514702E051AE5A5
:10014E001A70020519D39414E51994004003751022
:10015E0001051AE51A70020519D394E8E5199403FE
:10016E004009E4F510750A01751D21309412E51150
:10017E006006E4F511751D04E4F50BF51BF51C2264
:10018E00E50B7042E50E703EE50C703AE5127036E6
:10019E00E5137032E514702E051CE51C7002051B6C
:1001AE00D39414E51B94004003751101051CE51C46
:1001BE007002051BD394E8E51B94034009E4F51186
:0701CE00750B01751D2C22C9
:03000000020A3FB2
:0C0A3F00787FE4F6D8FD758163020A861A
:1001D500E709F608DFFA8046E709F208DFFA803E0C
:1001E50088828C83E709F0A3DFFA8032E309F608F9
:1001F500DFFA8078E309F208DFFA807088828C8361
:10020500E309F0A3DFFA806489828A83E0A3F60814
:10021500DFFA805889828A83E0A3F208DFFA804CEE
:1002250080D280FA80C680D4806980F280338010C5
:1002350080A680EA809A80A880DA80E280CA80332E
:1002450089828A83ECFAE493A3C8C582C8CCC583A6
:10025500CCF0A3C8C582C8CCC583CCDFE9DEE78076
:100265000D89828A83E493A3F608DFF9ECFAA9F0F5
:10027500EDFB2289828A83ECFAE0A3C8C582C8CC4B
:10028500C583CCF0A3C8C582C8CCC583CCDFEADE64
:10029500E880DB89828A83E493A3F208DFF980CCC6
:1002A50088F0EF60010E4E60C388F0ED2402B404BF
:1002B5000050B9F582EB2402B4040050AF23234566
:0602C50082239002257364
:1002CB00F8BB010DE58229F582E5833AF583E8F069
:1002DB00225006E92582C8F622BBFE05E92582C815
:0202EB00F222FD
:1002ED00EF8DF0A4A8F0CF8CF0A428CE8DF0A42E25
:0202FD00FE22DF
:1002FF00BC000BBE0029EF8DF084FFADF022E4CCE3
:10030F00F875F008EF2FFFEE33FEEC33FCEE9DECAB
:10031F00984005FCEE9DFE0FD5F0E9E4CEFD22EDF1
:10032F00F8F5F0EE8420D21CFEADF075F008EF2F3B
:10033F00FFED33FD4007985006D5F0F222C398FD2C
:05034F000FD5F0EA22C9
:10035400EB9FF5F0EA9E42F0E99D42F0EC6480C820
:0603640064809845F022C0
:100A4B00020CD7E493A3F8E493A34003F68001F2DE
:100A5B0008DFF48029E493A3F85407240CC8C333AC
:100A6B00C4540F4420C8834004F456800146F6DF7B
:100A7B00E4800B0102040810204080900B46E47EBA
:100A8B00019360BCA3FF543F30E509541FFEE49370
:100A9B00A360010ECF54C025E060A840B8E493A337
:100AAB00FAE493A3F8E493A3C8C582C8CAC583CA62
:100ABB00F0A3C8C582C8CAC583CADFE9DEE780BE1A
:010BB700003D
:00000001FF
