:050B1600016500C104AF
:0F145F00120802856056856157D201E4F56522B7
:0201D5008F3069
:1001D7007531061214DAE530B40C030214FEE5306B
:1001E700B40B0A756515C2047F660202D7E565D3AD
:1001F700940A4030E5306401702AE565B40B1912A2
:1002070014C68F31E531B40F05E4F53180020531AD
:10021700AF3112132C853159E5656415600302036C
:100227006E0211FEE565D3940A402FE53064027033
:1002370029E565B40B181214C68F31E531700575C1
:10024700310F80021531AF3112132C853159E56515
:100257006415600302036E021226E565D3940A4013
:100267001DE530B40318E565B40B05B40C02C205EF
:10027700E565B41502C204E4FF1215068031E56591
:10028700D3940A402EE53064047028E565B40B0367
:1002970012145FE565B41517E558D3940040097F3C
:1002A70001121506D2048007E4FF121506C204E402
:1002B700F56522E530B40D0C1214C68F5975650B20
:1002C7007F65800CE530B40E0A1214D08F5D7F0273
:1002D700021506E530B42108D200C2017F01800B68
:1002E700E530B42C0EC200C201E4FF1214F68E6092
:1002F7008F6122E530B416087F0412150602124EEC
:10030700E530B4011D7F04121506E55E2401FFE404
:1003170033FEC3EF9410EE64809480504AE55E0488
:100327008014E530B402137F04121506E55ED394FA
:10033700004034E55E14FF0211D6E530B4030EE544
:100347005FB56205E4F55F8014055F8010E530B4A2
:100357000415E55F700585625F8002155FD201AF06
:070367005F121312120E7B5E
:01036E00226C
:100ECB00120D3012135E7F087E001213CE120C66C9
:100EDB00EF600512145F8007AF61AE60120E7BAF3F
:100EEB005E1211D630041AE558C394015013121434
:100EFB004FC28CC2A9C2AFD2A3D2A2D2A1D2A08020
:0F0F0B00E312152E8F2FE52F60DA1201D580D556
:03000B0002097D6A
:10097D00C0E0C0F0C083C082C0D075D000C000C040
:0D098D0001C002C003C004C005C006C007C1
:10099A0012115512000E1214E4501C055BE55B702F
:1009AA0002055AC394D0E55A9407400B755A00754C
:1009BA005B007F0A1215063004220564E5647002A2
:1009CA000563FFAE63E4FCFD7B607AEAF9F8C312C3
:1009DA0004EE50081558756300756400758A8875A9
:0409EA008C96C28D98
:1009EE00D007D006D005D004D003D002D001D0005D
:0B09FE00D0D0D082D083D0F0D0E03207
:0A14A50000007F217E42DEFEDFFC26
:0114AF00221A
:05151C00007F04DFFE6A
:0115210022A7
:1013CE00AD07AC06ED1DAE0470011C4E6005121487
:0413DE00A580F122D3
:031538000213CECD
:1013E200AD07AC06ED1DAE0470011C4E6005121572
:0413F2001C80F12248
:10140A00759850438E01438E0475D74175D6FD43B6
:03141A008E10220F
:080003008F993099FDC299228A
:06152200AE0712000322D7
:10135E00438E805389F0438901758A88758C96C2B5
:08136E008DD28CD2A9D2AF226E
:0814EE000000000000000000F6
:0F0B1B00015E05C185026021FC015F00016200DF
:041182008E398F3AD9
:10118600783B7C007D007BFF7A1479EE7E007F023F
:1011960012043F7B007A00793BAF3AAE39120F61F9
:0611A600E53BFEE53CFF05
:0111AC002220
:1012BE008F33E55E65336013E4FFFE1213F6E533FC
:0C12CE00FDE4FFFE12138DE533F55E22F7
:040D84008E438F44C7
:100D880078457C007D007BFF7A1479F07E007F0235
:100D980012043FE543F5458544467F007E02121361
:100DA800F6AD457F007E0212138D7F027E0012157C
:100DB80038AD467F017E0212138DE55FF46009AD00
:0E0DC8005F7402FFFE12138D85436085446147
:010DD60022FA
:10129A007F007E04121376EF30E004C2058002D28A
:1012AA00057F007E041213F6A205E433FD7F007E5B
:0412BA000402138D8A
:07150E007F007E060213F6C8
:060BF8008F388C398D3AA4
:100BFE00783D7C007D007BFF7A1479F27E007F02C7
:100C0E0012043F783F7C007D007BFF7A1479F47EDE
:100C1E00007F0212043FE539F53F853A40E538750D
:100C2E00F002A4AEF02402F53CEE3406F53BAD3FE7
:100C3E00AF3CFE12138D7F027E00121538E53C2468
:100C4E0001FFE4353BFEAD4012138D7B007A007937
:080C5E003DAF3CAE3B020F610B
:0B14B000AD078D627F007E0602138DE9
:100C6600E4FFFE1213768F5EE55ED3940F40047F99
:100C76000180027F00E55EC3940050047E0180027D
:100C86007E00EE4F6003755E057F007E04121376CC
:100C9600EF24FF9205300504D2058002C2057F00CD
:100CA6007E061213768F62E562B4FF037F01227F10
:100CB600007E021211828E608F617402FFFE121393
:060CC600768F5F7F002223
:021312008F3812
:10131400EF75F002A42402FFE5F03406FE121182F8
:071324008E608F6185385FC8
:01132B00229F
:0D148C00E4F5C7F5C5F5C675C380F5C422AB
:1013F60075C78075C5038FC48EC375C65A75C6A5D5
:041406000002148C40
:1013760075C78075C5018FC48EC375C65A75C6A557
:0613860000AFC212148C3E
:01138C00223E
:0A0F61008E418F428B438A4489457C
:100F6B0075C78075C501E4FDED7E002542F547EEA2
:100F7B003541F5468547C4E546F5C375C65A75C672
:100F8B00A50000AB43AA44A9458D82758300E5C239
:0A0F9B001204650DBD03D102148C91
:10138D0075C78075C5028FC48EC38DC275C65A755B
:06139D00C6A50002148C3D
:071515007F0A7E000213E2D1
:0F146E00D2A4D2A5121515C2A4121515C2A5221B
:0C149900C2A4D2A5121515D2A40215158C
:10142F00EF24FF92A4121515D2A5121515C2A522ED
:1013A300D2A4121515D2A5121515A2A49203C2A593
:0513B300A203E433FF7A
:0113B8002212
:021063008F50AC
:10106500755108AF511551EF601DE55030E704D2B9
:10107500A48002C2A4121515D2A5121515C2A5E5A4
:101085005025E0F55080DC1213A3EF24FF9202A255
:0410950002E433FF3F
:011099002234
:0210CB008F5044
:1010CD00755108E4F552D2A4AF511551EF6017E5F3
:1010DD005225E0F552D2A512151530A4020552C2C3
:0D10ED00A512151580E2AF5012142FAF525E
:0110FA0022D3
:0415340000000000B3
:030B2A000169005E
:0C0F1A00436804436808AD68AC677F02C0
:060F26008F438C448D4551
:100F2C0078467C007D007BFF7A1579347E007F0249
:100F3C0012043FE544F546E545F54712146E7F2251
:100F4C00121063AF43121063AF46121063AF471217
:050F5C0010630214996E
:020FA5008F4D6E
:100FA700784E7C007D007BFF7A1579367E007F02C4
:100FB70012043F12146E7F22121063AF4D1210639A
:100FC70012146E7F23121063E4FF1210CB8F4E7F33
:0F0FD700011210CB8F4F121499E54EFEE54FFF1C
:010FE60022E8
:100D30007D027C007F02120F267F327E001213CECE
:100D40007D017CC07F02120F267F587E021213CED7
:100D50007D107C007F03120F267D007C047F04122F
:100D60000F267DA57C867F05120F267D007C807F67
:100D700006120F267D1A7C5F7F07120F26856056AC
:040D80008561572210
:04060C008E438F4446
:10061000E4F545F546F547F548F549F54AF54BF556
:100620004C7F03120FA57E00EF540C7802CEC3134B
:10063000CE13D8F9F54C8E4B454B70087545217596
:1006400046FC8024E54C6401454B700E75451D75D4
:1006500046B075472375488C803DE54C6402454B98
:10066000700E75451D7546B075472A754830802750
:10067000E54C6403454B70647F07120FA5EEC3136E
:1006800030E0087545197546648006754513754652
:100690008875471D7548B07F03120FA5754B00EF95
:1006A0005403F54C454B7007F549754A0A802FE510
:1006B0004C6401454B7007F549754A058020E54CAF
:1006C0006402454B7007F549754A148011E54C6486
:1006D00003454B7007F549754A2880028018C3E529
:1006E000449546E54395455002800BD3E544954833
:1006F000E54395474004E4FEFF22C3E5449546FFE9
:0C070000E5439545FEAC49AD4A12049952
:01070C0022CA
:040504008E3D8F3E5B
:10050800E4F53FF540F541F542F543F544F545F589
:10051800467F03120FA57E00EF540C7802CEC3135A
:10052800CE13D8F9F5468E4545457008753F2175B7
:1005380040FC8024E54664014545700E753F1D75F5
:1005480040B075412375428C803DE54664024545BF
:10055800700E753F1D7540B075412A754230802771
:10056800E5466403454570647F07120FA5EEC31383
:1005780030E008753F197540648006753F13754073
:100588008875411D7542B07F03120FA5754500EFB0
:100598005403F54645457007F54375440A802FE531
:1005A80046640145457007F5437544058020E546D6
:1005B800640245457007F5437544148011E54664A7
:1005C8000345457007F5437544508002802DAC43C0
:1005D800AD44AE3DAF3E120487E5402FF546E53FFA
:1005E8003EF545D3E5469542E54595414002800BE9
:1005F800C3E5469540E545953F5004E4FEFF22AE2D
:0306080045AF46B5
:01060B0022CC
:0E147D00E4FE7F0A120FA5EE5403FE120504D2
:01148B00223E
:040E7B008E3D8F3EDB
:100E7F0012060C8E3F8F407F03120FA58E418F42BB
:100E8F0053423F754100E53F5403FEE5407806C3EA
:100E9F0033CE33CED8F94242EE4241434210AD42F7
:100EAF00AC417F03120F26AD42AC417F03120F26D8
:0C0EBF00AF3EAE3D120D847F0A02150606
:0914C6007F05120FA5EE540FFF83
:0114CF0022FA
:02132C008F32FE
:10132E007F05120FA5AD07AC065304F0E532FEEEB5
:07133E0042047F05020F26A7
:060CCC008F388C398D3ACF
:100CD2007F03120FA5AD07AC065305EF7F03120F7A
:100CE200267F02120FA5AC06AD07E538B401054315
:100CF200040280035304FD430401E53A45396005CB
:100D020053057F80034305807F02120F267F0A125C
:100D12000FA5EE20E6097F017E001213CE80EE12AF
:0D0D2200147D8E3B8F3C120E7BAE3BAF3C30
:010D2F0022A1
:0814F6007D017C00120CCC22E8
:0A14BB007F0B120FA5EEFF5307018F
:0114C5002204
:10080200E4F532F533FE7F03120FA57E00EF540CA0
:100812007802CEC313CE13D8F9FF4E700875342177
:100822007535FC8020EF64014E700E75341D7535F0
:10083200B075362375378C803CEF64024E700E75AE
:10084200341D7535B075362A7537308028EF64034C
:100852004E60030208EF7F07120FA5EEC31330E0CC
:1008620008753419753564800675341375358875C5
:10087200361D7537B0AE34AF358E568F578E608FBA
:1008820061D2007F0A121506C201AF35AE34120ED4
:100892007B7F327E001213CE12150EE56165377032
:1008A20004E5606536602FE4FDFC7F01120CCC8EFE
:1008B200608F611214BBEF6018AF33AD61AC601290
:1008C2000BF87F647E001213CE0533E53370020508
:1008D200321214DA80C5E533153370021532AF33A4
:0D08E2001214B0E4F55FFF121312120E7B2A
:0108EF0022E6
:0211D6008F3256
:1011D8007F05120FA5AD07AC065305F0E532540F95
:1011E80042057F05120F26AF321212BEE56970055F
:0511F8007F011212DA74
:0111FD0022CF
:0212DA008F3350
:1012DC007F02120FA5AD07AC06E533600543044051
:0A12EC0080035304BF7F02020F26A7
:10124E007F02120FA5AD07AC06ECC413135403F4C2
:10125E005401600843044075690180065304BFE4DD
:07126E00F5697F02020F2663
:0212F6008F1E49
:1012F8007F02120FA5AD07AC06E51E600553047FFB
:0A13080080034304807F02020F26D9
:0914D0007F0B120FA5EEC313FF00
:0114D90022F0
:06152800E4FF120FA522F2
:020B87008F6677
:100B89007F03120FA58E678F68E566B40105536868
:100B9900F78015E566B402085368F7436804800BCB
:100BA900E566B4030E4368085368FBAD68AC677F1C
:100BB900028038E56664047017120F1A7F07120F56
:100BC900A58E678F68436702AD68AC677F07801B96
:100BD900E56664057018120F1A7F07120FA58E6754
:0E0BE9008F685367FDAD68AC677F07120F265B
:010BF70022DB
:021027008F1F19
:101029007F03120FA5AD07AC06E51FB401055305F3
:10103900FD8012E51FB402055305FD8015E51FB4B7
:1010490003084305025305FE800BE51FB40406435C
:0A10590005024305017F03020F2684
:10143F007D037C007F02120F267F327E000213CEC7
:10144F007F02120FA5AC06EF54FEFD7F02020F269E
:0210FB00AD073F
:1010FD00E4FB74807E00A803088006CEA2E713CE21
:10110D0013D8F8FFEDF582EF558224FF92B2D2B4D9
:0A111D00C2B40BBB08DCD2B3C2B3AE
:0111270022A5
:1011AD00C0F9A4B0999282F880907F8883C6A186F9
:1011BD008E8CC1CE9189C712C8ABF74079243019F6
:0911CD0012027800107FC78900AE
:100B2D00025621FC025A0000015C0A015D000159C8
:0F0B3D0000015800C180C18102541F40015300C4
:10141D00ED4C6007EF9011C893FF22EF9011AD9343
:02142D00FF229C
:10109A00300514752A00752BFF752C00752DFF7B02
:1010AA00FF7A007D158012752A00752BFF752C00BA
:1010BA00752DFF7BFF7A007D167C007FFF12070DDE
:0110CA002203
:0408F000AB07AA06A2
:1008F4007C277D101204998F237C277D10AF03AED3
:10090400021204997E037FE8CFCDCFCECCCE120461
:10091400998F227C037DE8AF03AE021204997E0016
:100924007F64CFCDCFCECCCE1204998F21AE02AF4F
:10093400037C007D641204997E007F0ACFCDCFCE64
:10094400CCCE1204998F24E523C39401E522FD7CC7
:1009540000E521FB7A00500F752A008F2B752C00BF
:10096400752D037F64800E752A0085242B752C0059
:08097400752D03AF2312070DDE
:01097C002258
:100A9500E557B5610AE556B56005AF57FE800D30DF
:100AA500010D856056856157AF61AE600208F03073
:100AB500002DE55765617004E55665606052055780
:100AC500E55770020556FFAE561208F0D3E5579468
:100AD50030E556942A40DB7556217557FC80D320A6
:100AE500002EE55765617004E55665606022E5579F
:100AF50015577002155614FFAE561208F0C3E55788
:100B050094FCE556942150DA75562A75573080D2F3
:010B150022BD
:10127500E55E75F00A84FD7C00E55E75F00A84E59F
:10128500F0FB7A00752A00752B64752C00752D64AA
:051295007F6402070D5B
:100DD700E55D75F06484FFE55D75F06484E5F075A5
:100DE700F00A84F522E55D75F00A8485F021EF604D
:100DF70016FD7C00E522FB7A00752A0085212B75FC
:100E07002C00752DFF8015E522FB7A00752A0085D9
:100E1700212B752C00752DFF7DFF7C007FFF1207AE
:010E27000DBD
:010E280022A7
:10112800E55975F00A84A9F0E55975F06484E5F08D
:1011380075F00A84FB7A00AF01752A008F2B752C95
:0D11480000752DFF7D197C007F1702070D3B
:100E2900E55875F06484FFE55875F06484E5F0755C
:100E3900F00A84F522E55875F00A8485F021EF60FF
:100E490016FD7C00E522FB7A00752A0085212B75A9
:100E59002C00752DFF8015E522FB7A00752A008587
:100E6900212B752C00752DFF7DFF7C007F16120745
:010E79000D6B
:010E7A002255
:1013B900E4F52AF52BF52C752DFF7B18FA7DFFFC3A
:0513C9007FFF02070D8B
:10134500752A00752B1A752C00752DFF7B1A7A00EE
:091355007DFF7C007FFF02070D03
:08070D008C268D278A288B2918
:10071500752E1BE553702BEFC3952E40030207F58D
:10072500D2A3D2A2D2A1E52D6401452C7005FC7D92
:100735000180047C007D0012141D1210FBC2A00272
:1007450007EAE55364017033C3E527952E7480F8F5
:1007550065269840030207F5D2A3D2A2D2A0AF27FF
:10076500E52D6402452C7005FC7D0180047C007D2F
:100775000012141D1210FBC2A1806AE553640270B9
:1007850030C3E529952E7480F86528985062D2A368
:10079500D2A1D2A0AF29E52D6403452C7005FC7DBF
:1007A5000180047C007D0012141D1210FBC2A28082
:1007B50034E55364037039C3E52B952E7480F865D1
:1007C5002A98502CD2A2D2A1D2A0AF2BE52D640439
:1007D500452C7005FC7D0180047C007D0012141DF4
:1007E5001210FBC2A39011D5E493FF7E001213CE25
:0C07F5000553E553D394034003E4F5538F
:0108010022D4
:100FE700E55CB40A03120A95E55C7003121345E544
:100FF7005CB401031213B9E55CB40203120DD7E523
:101007005CB4030312109AE55CB40403121275E58D
:101017005CB46503121128E55CB46603120E29223D
:0814FE007F0312150602129A89
:0A14DA0020050675540F7555A02279
:10115500200507E55CD394644003020FE7D3E5550A
:10116500940AE5549400400C120FE7E555155570A7
:0D1175000B155422D2A3D2A2D2A1D2A022E7
:0A14E400E55CC39464500122C322AA
:081506008F5CE4F55AF55B224D
:1011FE00E558C39414500474058014E558C3943C08
:10120E005004740A8009E558C394E65006741425F8
:08121E0058F5587F6602150621
:10122600E558D3943C400474EC8014E558D39414E8
:10123600400474F68009E558C39405400674FB25FE
:0812460058F5587F66021506F9
:100B4C00011D00010800010900010A00010B00024F
:100B5C001500000217000002190000021B00000122
:100B6C000E00010F00011000011100010C00010D1D
:0A0B7C000001120001130001140033
:05152E00E4AF1DF51DF6
:011533002295
:10000E00309639E4F515F516E50E6006E4F50E7535
:10001E001D01E50C6021E5126005E4F5128015E581
:10002E00136005E4F513800CE5146005E4F5148007
:10003E0003751D0BE4F50CE4F5088077E508707385
:10004E00E512706FE513706BE51470670516E51613
:10005E0070020515D39414E51594004003750E0136
:10006E000516E51670020515D39458E51594024051
:10007E0042209711750801750C01E4F50E751201F9
:10008E00751D0C802E209511750801750C01E4F577
:10009E000E751301751D0D801A20941175080175CA
:1000AE000C01E4F50E751401751D0E8006E4F50EB7
:1000BE00750C01309713E50F6006E4F50F751D0200
:1000CE00E4F509F517F5188046E5097042E50E705E
:1000DE003EE50C703AE5127036E5137032E5147099
:1000EE002E0518E51870020517D39414E517940021
:1000FE004003750F020518E51870020517D39458C2
:10010E00E51794024009E4F50F750902751D1630C6
:10011E009513E5106006E4F510751D03E4F50AF578
:10012E0019F51A8046E50A7042E50E703EE50C7030
:10013E003AE5127036E5137032E514702E051AE5A5
:10014E001A70020519D39414E51994004003751022
:10015E0001051AE51A70020519D39458E51994028F
:10016E004009E4F510750A01751D21309412E51150
:10017E006006E4F511751D04E4F50BF51BF51C2264
:10018E00E50B7042E50E703EE50C703AE5127036E6
:10019E00E5137032E514702E051CE51C7002051B6C
:1001AE00D39414E51B94004003751101051CE51C46
:1001BE007002051BD39458E51B94024009E4F51117
:0701CE00750B01751D2C22C9
:03000000020A09E8
:0C0A0900787FE4F6D8FD758169020A5080
:10036F00E709F608DFFA8046E709F208DFFA803E70
:10037F0088828C83E709F0A3DFFA8032E309F6085D
:10038F00DFFA8078E309F208DFFA807088828C83C5
:10039F00E309F0A3DFFA806489828A83E0A3F60879
:1003AF00DFFA805889828A83E0A3F208DFFA804C53
:1003BF0080D280FA80C680D4806980F2803380102A
:1003CF0080A680EA809A80A880DA80E280CA803393
:1003DF0089828A83ECFAE493A3C8C582C8CCC5830B
:1003EF00CCF0A3C8C582C8CCC583CCDFE9DEE780DB
:1003FF000D89828A83E493A3F608DFF9ECFAA9F05A
:10040F00EDFB2289828A83ECFAE0A3C8C582C8CCAF
:10041F00C583CCF0A3C8C582C8CCC583CCDFEADEC8
:10042F00E880DB89828A83E493A3F208DFF980CC2A
:10043F0088F0EF60010E4E60C388F0ED2402B40423
:10044F000050B9F582EB2402B4040050AF232345CA
:06045F0082239003BF732D
:10046500F8BB010DE58229F582E5833AF583E8F0CD
:10047500225006E92582C8F622BBFE05E92582C879
:02048500F22261
:10048700EF8DF0A4A8F0CF8CF0A428CE8DF0A42E89
:02049700FE2243
:10049900BC000BBE0029EF8DF084FFADF022E4CC47
:1004A900F875F008EF2FFFEE33FEEC33FCEE9DEC10
:1004B900984005FCEE9DFE0FD5F0E9E4CEFD22ED56
:1004C900F8F5F0EE8420D21CFEADF075F008EF2FA0
:1004D900FFED33FD4007985006D5F0F222C398FD91
:0504E9000FD5F0EA222E
:1004EE00EB9FF5F0EA9E42F0E99D42F0EC6480C885
:0604FE0064809845F02225
:100A1500020ECBE493A3F8E493A34003F68001F21E
:100A250008DFF48029E493A3F85407240CC8C333E2
:100A3500C4540F4420C8834004F456800146F6DFB1
:100A4500E4800B0102040810204080900B16E47E20
:100A5500019360BCA3FF543F30E509541FFEE493A6
:100A6500A360010ECF54C025E060A840B8E493A36D
:100A7500FAE493A3F8E493A3C8C582C8CAC583CA98
:100A8500F0A3C8C582C8CAC583CADFE9DEE780BE50
:010B8600006E
:00000001FF
