:030B1D0001640070
:10035400752F0612137E8F30E53070030204CFE54B
:1003640030B40C03121345E564D394004018E5300F
:10037400B401131213318F2FE52FB40F05E4F52FB9
:100384008020052F801CE564D39400401EE530B422
:1003940002191213318F2FE52F7005752F0F80026C
:1003A400152FAF2F1211D9852F5522E564D3940050
:1003B4004017E530B40312E4F56475560AE5646445
:1003C4000B60030204CFF55C22E564D39400402162
:1003D400E530B4041C75560AC2011207CE855D537C
:1003E400855E54E4F564E564B40B03E4F55CD20182
:1003F40022E530B40D191213318F55756401755609
:100404000EE55C60030204CF755C0175640B22E5A4
:1004140030B40E0912133B8F5975560222E530B4DD
:10042400210ED20075560AC2011213267F018011D3
:10043400E530B42C14C20075560AC201121326E426
:10044400FF1213568E5D8F5E22E530B41609755681
:10045400011213260210D5E530B4011E755601129F
:100464001326E55A2401FFE433FEC3EF9410EE642F
:100474008094805056E55A048015E530B402147512
:100484005601121326E55AD39400403FE55A14FF4F
:10049400021085E53064037010E55BB55F05E4F593
:1004A4005B8002055BD2008012E530B4041DE55B7D
:1004B4007005855F5B8002155BC20075560AD20128
:0B04C400121326AF5B1211BF120DA631
:0104CF00220A
:100E3800120D597F0A7E0012124D855D53855E544E
:100E48001211F2120C54EF601AE55C7003755C0124
:100E58001207CE855D53855E54E564B40B0CE4F54A
:100E68005C8007AF5EAE5D120DA6AF5A12108512F8
:040E7800035480FBA4
:03000B00020B865F
:100B8600C0E0C0F0C083C082C0D075D000C000C035
:0D0B960001C002C003C004C005C006C007B6
:100BA3001210FC12000EE556C3940A501A0563E5B1
:100BB3006370020562C394A0E562940F40097562F5
:0F0BC3000075630075560A758A88758C96C28D09
:100BD200D007D006D005D004D003D002D001D00077
:0B0BE200D0D0D082D083D0F0D0E03221
:0A13050000007F217E42DEFEDFFCC7
:01130F0022BB
:05136C00007F04DFFE1C
:011371002259
:10124D00AD07AC06ED1DAE0470011C4E600512130A
:04125D000580F122F5
:0313880002124D01
:10126100AD07AC06ED1DAE0470011C4E60051213F6
:041271006C80F1227A
:10128900759850438E01438E0475D74175D6FD4339
:031299008E102292
:080003008F993099FDC299228A
:06137200AE071200032289
:1011F200438E805389F0438901758A88758C96C223
:081202008DD2A9D2AFD28C22DB
:08134E00000000000000000097
:100B2000015A05015C01025D21FC015B00015F00CF
:041031008E388F392D
:10103500783A7C007D007BFF7A13794E7E007F0233
:101045001202A57B007A00793AAF39AE38120E7CD0
:06105500E53AFEE53BFF59
:01105B002272
:10116B008F32E55A65326013E4FFFE121275E532D9
:0C117B00FDE4FFFE121221E532F55A22BD
:040D0C008E428F4341
:100D100078447C007D007BFF7A1379507E007F024F
:100D20001202A5E542F5448543457F007E0212127A
:100D300075AD447F007E021212217F027E001213E5
:100D400088AD457F017E02121221E55BF46009AD9A
:080D50005B7402FFFE12122188
:010D58002278
:101148007F007E0412120AEF30E005E4F55C8003AC
:10115800755C017F007E04121275AD5C7F007E0411
:031168000212214F
:07135E007F007E06021275FC
:060AAF008F378C388D39F1
:100AB500783C7C007D007BFF7A1379527E007F02B3
:100AC5001202A5783E7C007D007BFF7A1379547E67
:100AD500007F021202A5E538F53E85393FE53775F9
:100AE500F002A4AEF02402F53BEE3406F53AAD3E35
:100AF500AF3BFE1212217F027E00121388E53B24D4
:100B050001FFE4353AFEAD3F1212217B007A0079F0
:080B15003CAF3BAE3A020E7C3E
:0B131000AD078D5F7F007E06021221FA
:100C5400E4FFFE12120A8F5AE55AD3940F40047F20
:100C64000180027F00E55AC3940050047E01800293
:100C74007E00EE4F6003755A057F007E0412120A4F
:100C84008F5CE55C6005755C018003E4F55C7F00C6
:100C94007E0612120A8F5FE55FB4FF037F01227F95
:100CA400007E021210318E5D8F5E7402FFFE1212FE
:060CB4000A8F5B7F0022A5
:0211BF008F3768
:1011C100EF75F002A42402FFE5F03406FE1210319F
:0711D1008E5D8F5E85375B28
:0111D80022F4
:0D12EC00E4F5C7F5C5F5C675C380F5C4224D
:1012750075C78075C5038FC48EC375C65A75C6A557
:04128500000212EC65
:10120A0075C78075C5018FC48EC375C65A75C6A5C4
:06121A0000AFC21212EC4D
:0112200022AB
:0A0E7C008E408F418B428A43894467
:100E860075C78075C501E4FDED7E002541F546EE8A
:100E96003540F5458546C4E545F5C375C65A75C65C
:100EA600A50000AB42AA43A9448D82758300E5C222
:0A0EB6001202CB0DBD03D10212ECB5
:1012210075C78075C5028FC48EC38DC275C65A75C8
:06123100C6A5000212EC4C
:071365007F0A7E0002126105
:0F12CE00D2A4D2A5121365C2A4121365C2A52221
:0C12F900C2A4D2A5121365D2A402136592
:1012AE00EF24FF92A4121365D2A5121365C2A522D4
:10123700D2A4121365D2A5121365A2A49203C2A564
:05124700A203E433FFE7
:01124C00227F
:020F3E008F4FD3
:100F4000755008AF501550EF601DE54F30E704D2E3
:100F5000A48002C2A4121365D2A5121365C2A5E52E
:100F60004F25E0F54F80DC121237EF24FF9202A2EA
:040F700002E433FF65
:010F7400225A
:020FA7008F4F6A
:100FA900755008E4F551D2A4AF501550EF6017E51C
:100FB9005125E0F551D2A512136530A4020551C29D
:0D0FC900A512136580E2AF4F1212AEAF51BA
:010FD60022F8
:041384000000000065
:030B300001680059
:0C0DF100436704436708AD67AC667F02EF
:060DFD008F428C438D447F
:100E030078457C007D007BFF7A1379847E007F0226
:100E13001202A5E543F545E544F5461212CE7F22BD
:100E2300120F3EAF42120F3EAF45120F3EAF4612B6
:050E33000F3E0212F960
:020EC0008F4C55
:100EC200784D7C007D007BFF7A1379867E007F025D
:100ED2001202A51212CE7F22120F3EAF4C120F3E0B
:100EE2001212CE7F23120F3EE4FF120FA78F4D7F07
:0F0EF20001120FA78F4E1212F9E54DFEE54EFFCC
:010F010022CD
:100D59007D027C007F02120DFD7F327E0012124D52
:100D69007D017CC07F02120DFD7F587E0212124D5B
:100D79007D107C007F03120DFD7D007C047F041231
:100D89000DFD7DA57C867F05120DFD7D007C807F94
:0D0D990006120DFD7D1A7C5F7F07020DFD27
:0405D8008E428F437D
:1005DC00E4F544F545F546F547F548F549F54AF592
:1005EC004B7F03120EC07E00EF540C7802CEC31367
:1005FC00CE13D8F9F54B8E4A454A700875442175CF
:10060C0045FC8024E54B6401454A700E75441D750C
:10061C0045B075462375478C803DE54B6402454AD1
:10062C00700E75441D7545B075462A754730802788
:10063C00E54B6403454A70647F07120EC0EEC3138A
:10064C0030E008754419754564800675441375458A
:10065C008875461D7547B07F03120EC0754A00EFB2
:10066C005403F54B454A7007F54875490A802FE548
:10067C004B6401454A7007F5487549058020E54BE8
:10068C006402454A7007F5487549148011E54B64BE
:10069C0003454A7007F54875492880028018C3E560
:1006AC00439545E54295445002800BD3E54395476D
:1006BC00E54295464004E4FEFF22C3E5439545FF21
:0C06CC00E5429544FEAC48AD491202FF27
:0106D80022FF
:0404D0008E3C8F3D92
:1004D400E4F53EF53FF540F541F542F543F544F5C5
:1004E400457F03120EC07E00EF540C7802CEC31376
:1004F400CE13D8F9F5458E4445447008753E2175F0
:100504003FFC8024E54564014544700E753E1D752D
:100514003FB075402375418C803DE54564024544F8
:10052400700E753E1D753FB075402A7541308027A9
:10053400E5456403454470647F07120EC0EEC3139F
:1005440030E008753E19753F648006753E13753FAB
:100554008875401D7541B07F03120EC0754400EFCD
:100564005403F54545447007F54275430A802FE569
:1005740045640145447007F5427543058020E5450F
:10058400640245447007F5427543148011E54564DF
:100594000345447007F5427543508002802DAC42F8
:1005A400AD43AE3CAF3D1202EDE53F2FF545E53ED0
:1005B4003EF544D3E5459541E54495404002800B22
:1005C400C3E545953FE544953E5004E4FEFF22AE65
:0305D40044AF45EC
:0105D7002201
:0E12DD00E4FE7F0A120EC0EE5403FE1204D08F
:0112EB0022E0
:040DA6008E3C8F3DB3
:100DAA001205D88E3E8F3F7F03120EC08E408F41B0
:100DBA0053413F754000E53E5403FEE53F7806C3C4
:100DCA0033CE33CED8F94241EE4240434110AD41D1
:100DDA00AC407F03120DFDAD41AC407F03120DFD07
:070DEA00AF3DAE3C020D0C11
:091331007F05120EC0EE540FFFFF
:01133A002290
:0211D9008F3154
:1011DB007F05120EC0AD07AC065304F0E531FEEEF1
:0711EB0042047F05020DFD27
:060BED008F378C388D39B2
:100BF3007F03120EC0AD07AC065305EF7F03120D42
:100C0300FD7F02120EC0AC06AD07E537B401054304
:100C1300040280035304FD430401E53945386005AC
:100C230053057F80034305807F02120DFD7F0A1267
:100C33000EC0EE20E6097F017E0012124D80EE12F7
:100C430012DD8E3A8F3B1212DD120DA6AE3AAF3B88
:010C5300227E
:081356007D017C00120BED2269
:0A131B007F0B120EC0EEFF53070116
:0113250022A5
:1007CE00E4F531F532FE7F03120EC07E00EF540CBD
:1007DE007802CEC313CE13D8F9FF4E7008753321AD
:1007EE007534FC8020EF64014E700E75331D753428
:1007FE00B075352375368C803CEF64024E700E75E5
:10080E00331D7534B075352A7536308028EF640384
:10081E004E60030208A37F07120EC0EEC31330E032
:10082E0008753319753464800675331375348875FD
:10083E00351D7536B0AF34AE33120DA67F327E0045
:10084E0012124D12135EE55E65367004E55D653578
:10085E00602CE4FDFC7F01120BED8E5D8F5E12139A
:10086E001BEF60E2AF32AD5EAC5D120AAF7F647E0D
:10087E000012124D0532E53270CC053180C8E532DA
:10088E00153270021531AF32121310E4F55BFF1200
:05089E0011BF120DA6C0
:0108A3002232
:021085008F31A9
:101087007F05120EC0AD07AC065305F0E531540FCE
:1010970042057F05120DFDAF3112116BE568700532
:0510A7007F011211871A
:0110AC002221
:021187008F32A5
:101189007F02120EC0AD07AC06E53260054304408C
:0A11990080035304BF7F02020DFD26
:1010D5007F02120EC0AD07AC06ECC413135403F423
:1010E5005401600843044075680180065304BFE459
:0710F500F5687F02020DFD0A
:0211A3008F1E9D
:1011A5007F02120EC0AD07AC06E51E600553047F35
:0A11B50080034304807F02020DFD59
:09133B007F0B120EC0EEC313FF7C
:011344002286
:06137800E4FF120EC0228A
:020A3E008F65C2
:100A40007F03120EC08E668F67E565B4010553679C
:100A5000F78015E565B402085367F7436704800B18
:100A6000E565B4030E4367085367FBAD67AC667F6B
:100A7000028038E56564047017120DF17F07120ECD
:100A8000C08E668F67436602AD67AC667F07801BCA
:100A9000E56564057018120DF17F07120EC08E66B1
:0E0AA0008F675366FDAD67AC667F07120DFDD4
:010AAE002225
:020F02008F1F3F
:100F04007F03120EC0AD07AC06E51FB401055305FF
:100F1400FD8012E51FB402055305FD8015E51FB4DD
:100F240003084305025305FE800BE51FB404064382
:0A0F340005024305017F03020DFDD5
:1012BE007D037C007F02120DFD7F327E0002124DF7
:020FD700AD0764
:100FD900E4FB74807E00A803088006CEA2E713CE46
:100FE90013D8F8FFEDF582EF558224FF92B2D2B4FF
:0A0FF900C2B40BBB08DCD2B3C2B3D4
:0110030022CA
:1010AD00C0F9A4B0999282F880907F8883C6A186FA
:1010BD008E8CC1CE9189C712C8AB407924301912DC
:0810CD00027800107FC78901C1
:100B3300025321FC01560A015900015500C180C12D
:080B43008102571F400152001E
:10129C00ED4C6007EF9010C793FF22EF9010AD93C9
:0212AC00FF221F
:100F7500E55C6014752A00752BFF752C00752DFF37
:100F85007BFF7A007D158012752A00752BFF752C65
:100F950000752DFF7BFF7A007D167C007FFF120612
:020FA500D9224F
:0408A400AB07AA06EE
:1008A8007C277D101202FF8F237C277D10AF03AEBB
:1008B800021202FF7E037FE8CFCDCFCECCCE12024C
:1008C800FF8F227C037DE8AF03AE021202FF7E0099
:1008D8007F64CFCDCFCECCCE1202FF8F21AE02AF38
:1008E800037C007D641202FF7E007F0ACFCDCFCE4D
:1008F800CCCE1202FF8F24E523C39401E522FD7CB0
:1009080000E521FB7A00500F752A008F2B752C000B
:10091800752D037F64800E752A0085242B752C00A5
:08092800752D03AF231206D95F
:0109300022A4
:1009BD00E554B55E0AE553B55D05AF54FE800D30C7
:1009CD00010D855D53855E54AF5EAE5D0208A430AA
:1009DD00002DE554655E7004E553655D6052055468
:1009ED00E55470020553FFAE531208A4D3E5549499
:1009FD0030E553942A40DB7553217554FC80D32088
:100A0D00002EE554655E7004E553655D6022E55486
:100A1D0015547002155314FFAE531208A4C3E554B8
:100A2D0094FCE553942150DA75532A75543080D2D5
:010A3D002296
:10112300E55A75F00A84FD7C00E55A75F00A84E5FA
:10113300F0FB7A00752A00752B64752C00752D64FD
:051143007F640206D9E3
:100CBA00E55975F06484FFE55975F06484E5F075CB
:100CCA00F00A84F522E55975F00A8485F021EF606F
:100CDA0016FD7C00E522FB7A00752A0085212B751A
:100CEA002C00752DFF8015E522FB7A00752A0085F8
:100CFA00212B752C00752DFF7DFF7C007FFF1206CE
:010D0A00D90F
:010D0B0022C5
:10100400E55575F00A84A9F0E55575F06484E5F0BA
:1010140075F00A84FB7A00AF01752A008F2B752CBA
:0D10240000752DFF7D197C007F170206D995
:0806D9008C268D278A288B294D
:1006E100752E1AE552702BEFC3952E40030207C1F8
:1006F100D2A3D2A2D2A1E52D6401452C7005FC7DC7
:100701000180047C007D0012129C120FD7C2A0024E
:1007110007B6E55264017033C3E527952E7480F85E
:1007210065269840030207C1D2A3D2A2D2A0AF2767
:10073100E52D6402452C7005FC7D0180047C007D63
:100741000012129C120FD7C2A1806AE55264027096
:1007510030C3E529952E7480F86528985062D2A39C
:10076100D2A1D2A0AF29E52D6403452C7005FC7DF3
:100771000180047C007D0012129C120FD7C2A2805E
:1007810034E55264037039C3E52B952E7480F86506
:100791002A98502CD2A2D2A1D2A0AF2BE52D64046D
:1007A100452C7005FC7D0180047C007D0012129CAB
:1007B100120FD7C2A39010D4E493FF7E0012124D02
:0C07C1000552E552D394034003E4F552C6
:0107CD002209
:10105C00E556B40A031209BDE556B4010312112377
:10106C00E556B40203120CBAE556B40303120F751D
:09107C00E556B40E031210042223
:091345001211487556030213262B
:0B132600E55C700675571F75584022EB
:1010FC00E55C600302105CD3E558940AE557940054
:10110C00400C12105CE5581558700B155722D2A3E1
:07111C00D2A2D2A1D2A02251
:100B4B00011D00010800010900010A00010B000250
:100B5B001500000217000002190000021B00000123
:100B6B000E00010F00011000011100010C00010D1E
:0A0B7B000001120001130001140034
:05137E00E4AF1DF51DA8
:011383002247
:10000E00309639E4F515F516E50E6006E4F50E7535
:10001E001D01E50C6021E5126005E4F5128015E581
:10002E00136005E4F513800CE5146005E4F5148007
:10003E0003751D0BE4F50CE4F5088077E508707385
:10004E00E512706FE513706BE51470670516E51613
:10005E0070020515D39414E51594004003750E0136
:10006E000516E51670020515D39458E51594024051
:10007E0042209711750801750C01E4F50E751201F9
:10008E00751D0C802E209511750801750C01E4F577
:10009E000E751301751D0D801A20941175080175CA
:1000AE000C01E4F50E751401751D0E8006E4F50EB7
:1000BE00750C01309713E50F6006E4F50F751D0200
:1000CE00E4F509F517F5188046E5097042E50E705E
:1000DE003EE50C703AE5127036E5137032E5147099
:1000EE002E0518E51870020517D39414E517940021
:1000FE004003750F020518E51870020517D39458C2
:10010E00E51794024009E4F50F750902751D1630C6
:10011E009513E5106006E4F510751D03E4F50AF578
:10012E0019F51A8046E50A7042E50E703EE50C7030
:10013E003AE5127036E5137032E514702E051AE5A5
:10014E001A70020519D39414E51994004003751022
:10015E0001051AE51A70020519D39458E51994028F
:10016E004009E4F510750A01751D21309412E51150
:10017E006006E4F511751D04E4F50BF51BF51C2264
:10018E00E50B7042E50E703EE50C703AE5127036E6
:10019E00E5137032E514702E051CE51C7002051B6C
:1001AE00D39414E51B94004003751101051CE51C46
:1001BE007002051BD39458E51B94024009E4F51117
:0701CE00750B01751D2C22C9
:03000000020931C1
:0C093100787FE4F6D8FD75816802097833
:1001D500E709F608DFFA8046E709F208DFFA803E0C
:1001E50088828C83E709F0A3DFFA8032E309F608F9
:1001F500DFFA8078E309F208DFFA807088828C8361
:10020500E309F0A3DFFA806489828A83E0A3F60814
:10021500DFFA805889828A83E0A3F208DFFA804CEE
:1002250080D280FA80C680D4806980F280338010C5
:1002350080A680EA809A80A880DA80E280CA80332E
:1002450089828A83ECFAE493A3C8C582C8CCC583A6
:10025500CCF0A3C8C582C8CCC583CCDFE9DEE78076
:100265000D89828A83E493A3F608DFF9ECFAA9F0F5
:10027500EDFB2289828A83ECFAE0A3C8C582C8CC4B
:10028500C583CCF0A3C8C582C8CCC583CCDFEADE64
:10029500E880DB89828A83E493A3F208DFF980CCC6
:1002A50088F0EF60010E4E60C388F0ED2402B404BF
:1002B5000050B9F582EB2402B4040050AF23234566
:0602C50082239002257364
:1002CB00F8BB010DE58229F582E5833AF583E8F069
:1002DB00225006E92582C8F622BBFE05E92582C815
:0202EB00F222FD
:1002ED00EF8DF0A4A8F0CF8CF0A428CE8DF0A42E25
:0202FD00FE22DF
:1002FF00BC000BBE0029EF8DF084FFADF022E4CCE3
:10030F00F875F008EF2FFFEE33FEEC33FCEE9DECAB
:10031F00984005FCEE9DFE0FD5F0E9E4CEFD22EDF1
:10032F00F8F5F0EE8420D21CFEADF075F008EF2F3B
:10033F00FFED33FD4007985006D5F0F222C398FD2C
:05034F000FD5F0EA22C9
:10093D00020E38E493A3F8E493A34003F68001F28A
:10094D0008DFF48029E493A3F85407240CC8C333BB
:10095D00C4540F4420C8834004F456800146F6DF8A
:10096D00E4800B0102040810204080900B1DE47EF2
:10097D00019360BCA3FF543F30E509541FFEE4937F
:10098D00A360010ECF54C025E060A840B8E493A346
:10099D00FAE493A3F8E493A3C8C582C8CAC583CA71
:1009AD00F0A3C8C582C8CAC583CADFE9DEE780BE29
:010B8500006F
:00000001FF
