:1001D5008F31121418E55CD3940A500302029CE592
:1001E5003164017027E55CB40B161214048F55E5D4
:1001F50055B40F05E4F55580020555AF5512126843
:10020500E55C64156003020392021151E55CD39429
:100215000A402CE53164027026E55CB40B15121416
:10022500048F55E555700575550F80021555AF5569
:10023500121268E55C64156003020392021179E508
:100245005CD3940A4014E531B4030FE55CB415039F
:10025500E4F55FE4FF1214348039E55CD3940A5069
:1002650003020392E53164046003020392E55CB482
:100275000B03120630E55CB41519E554D394004020
:100285000A7F01121434755F018008E4FF121434EB
:10029500E4F55FE4F55C22E531B40C0D12142CE4B1
:1002A500F55DF55EC207D20222E531B40B0A755C35
:1002B50015E4F55F7F66801DE531B40D0C1214045D
:1002C5008F55755C0B7F65800CE531B40E0A1214F1
:1002D5000E8F597F02021434E531B421047F018069
:1002E50007E531B42C0AE4FF1213EE8E628F632208
:1002F500E531B416087F041214340211A1E5316406
:1003050001701D7F04121434E5602401FFE433FEFF
:10031500C3EF9410EE648094805072E560048014FD
:10032500E531B4021D7F04121434E560D394004016
:100335005CE56014FF1211C8E4F55DF55EC207D2F5
:100345000022E53164037022E561B56405E4F561D9
:1003550080020561AF6112124E8E528F53120F71DA
:10036500E4F55DF55EC207D20322E531B4041EE56E
:1003750061700585646180021561AF6112124E8E50
:0E038500528F53120F71D203E4F55DF55E2224
:100FE100E4F55CF55FF554120C9612141812129A7E
:100FF1007F087E00121320120BD3EF60051206301A
:10100100800D856252856353AF63AE62120F71AF7B
:04101100600211C8A0
:100E2600800F1214508F30E55FB4020AE530B42CFF
:100E3600F1120FE180ECE55FB40117E554C39401AC
:100E46005010755F02121391D2A3D2A2D2A1D2A0E2
:100E560080D0E5306004FF1201D53007C5121213A9
:040E6600C20780BE81
:03000B0002092BBC
:10092B00C0E0C0F0C083C082C0D075D000C000C092
:0D093B0001C002C003C004C005C006C00713
:10094800E55FC3940250031210D012000E12142255
:10095800501E0557E55770020556C394D0E55694C6
:1009680007400D7F0A121434D207755D00755E00CA
:10097800E55FB40122055BE55B7002055AFFAE5ADC
:10098800E4FCFD7B607AEAF9F8C3120512500815F9
:1009980054755A00755B00200719055EE55E700204
:1009A800055DD394B8E55D940B4008D207755D00EA
:0B09B800755E00758A88758C96C28DF4
:1009C300D007D006D005D004D003D002D001D00088
:0B09D300D0D0D082D083D0F0D0E03232
:0A13D80000007F217E42DEFEDFFCF4
:0113E20022E8
:05144A00007F04DFFE3D
:01144F00227A
:10132000AD07AC06ED1DAE0470011C4E6005121336
:04133000D880F1224E
:03145A000213205A
:10133400AD07AC06ED1DAE0470011C4E6005121421
:041344004A80F122C8
:10129A00438E805389F0438901758A88758C96C27A
:0812AA008DD28CD2A9D2AF2233
:080003000000000000000000F5
:100B6500016005026221FC016100016400C103C14D
:030B750000C102BA
:0410FD008E398F3A5F
:10110100783B7C007D007BFF7A0079037E007F02C3
:101111001204637B007A00793BAF3AAE39120E6A52
:06112100E53BFEE53CFF8A
:0111270022A5
:02124E008F38D7
:10125000EF75F002A42402FFE5F03406FE1210FD43
:071260008E628F6385386187
:011267002264
:1012C9008F31E4FFFE121348E531FDE4FFFE1212EF
:0612D900DFE531F56022A3
:040D8E008E388F39D3
:100D9200783A7C007D007BFF7A0079057E007F0235
:100DA200120463E538F53A85393B7F007E0212135F
:100DB20048AD3A7F007E021212DFAD3B7F017E0218
:100DC2001212DFE561F46009AD617402FFFE1212D6
:070DD200DF853862853963FB
:010DD90022F7
:10135C007F007E04121348A201E433FD7F007E045B
:03136C000212DF8B
:10121300300309AF63AE62120D8EC203300007AF15
:0F122300601212C9C20030020512135CC202220F
:07143C007F007E0602134849
:060AF7008F388C398D3AA6
:100AFD00783D7C007D007BFF7A0079077E007F02C8
:100B0D00120463783F7C007D007BFF7A0079097EBB
:100B1D00007F02120463E539F53F853A40E53875EB
:100B2D00F002A4AEF02402F53CEE3406F53BAD3FE9
:100B3D00AF3CFE1212DF7F027E0012145AE53C24F8
:100B4D0001FFE4353BFEAD401212DF7B007A0079E8
:080B5D003DAF3CAE3B020E6A05
:0B13E300AD078D647F007E060212DF64
:100BD300E4FFFE1212B28F60E560D3940F40047FEE
:100BE3000180027F00E560C3940050047E0180020F
:100BF3007E00EE4F60037560057F007E041212B223
:100C0300EF24FF9201300104D2018002C2017F0070
:100C13007E061212B28F64E564B4FF037F01227F64
:100C2300007E021210FD8E628F637402FFFE1212A9
:060C3300B28F617F002278
:0D13BF00E4F5C7F5C5F5C675C380F5C42279
:1013480075C78075C5038FC48EC375C65A75C6A583
:04135800000213BFBD
:1012B20075C78075C5018FC48EC375C65A75C6A51C
:0612C20000AFC21213BFD1
:0112C8002203
:0A0E6A008E418F428B438A44894574
:100E740075C78075C501E4FDED7E002542F547EE9A
:100E84003541F5468547C4E546F5C375C65A75C66A
:100E9400A50000AB43AA44A9458D82758300E5C231
:0A0EA4001204890DBD03D10213BF33
:1012DF0075C78075C5028FC48EC38DC275C65A750A
:0612EF00C6A5000213BFBA
:071443007F0A7E0002133452
:0F13A100D2A4D2A5121443C2A4121443C2A5228F
:0C13CC00C2A4D2A5121443D2A402144300
:10138100EF24FF92A4121443D2A5121443C2A52242
:1012F500D2A4121443D2A5121443A2A49206C2A5E5
:05130500A206E433FF25
:01130A0022C0
:020FAA008F4C6A
:100FAC00754D08AF4D154DEF601DE54C30E704D283
:100FBC00A48002C2A4121443D2A5121443C2A5E504
:100FCC004C25E0F54C80DC1212F5EF24FF9205A2C3
:040FDC0005E433FFF6
:010FE00022EE
:021046008F4CCD
:10104800754D08E4F54ED2A4AF4D154DEF6017E588
:101058004E25E0F54ED2A512144330A402054EC227
:0D106800A512144380E2AF4C121381AF4E6D
:011075002258
:041456000000000092
:030B7800011E005B
:060EF000AD3EAC3D7F03A6
:060EF6008F3F8C408D418E
:100EFC0078427C007D007BFF7A1479567E007F025D
:100F0C00120463E540F542E541F5431213A17F223B
:100F1C00120FAAAF3F120FAAAF42120FAAAF431281
:050F2C000FAA0213CC26
:020EAE008F496A
:100EB000784A7C007D007BFF7A1479587E007F029F
:100EC0001204631213A17F22120FAAAF49120FAAB4
:100ED0001213A17F23120FAAE4FF1210468F4A7F3C
:0F0EE000011210468F4B1213CCE54AFEE54BFF73
:010EEF0022E0
:100C96007D027C007F02120EF67F327E0012132048
:100CA6007D017CC07F02120EF67F587E0212132051
:100CB6007D107C007F03120EF67D007C047F0412FB
:100CC6000EF67DA57C867F05120EF67D007C807F64
:100CD60006120EF67D1A7C5F7F07120EF6856252AB
:040CE60085635322AD
:040735008E3F8F4024
:10073900E4F541F542F543F544F545F546F547F548
:10074900487F03120EAE7E00EF540C7802CEC3131D
:10075900CE13D8F9F5488E4745477008754121757C
:1007690042FC8024E54864014547700E75411D75BA
:1007790042B075432375448C803DE5486402454782
:10078900700E75411D7542B075432A754430802736
:10079900E5486403454770647F07120EAEEEC31344
:1007A90030E0087541197542648006754113754238
:1007B9008875431D7544B07F03120EAE754700EF6F
:1007C9005403F54845477007F54575460A802FE5F6
:1007D90048640145477007F5457546058020E54899
:1007E900640245477007F5457546148011E548646C
:1007F9000345477007F54575462880028018C3E50B
:10080900409542E53F95415002800BD3E540954420
:10081900E53F95434004E4FEFF22C3E5409542FFCE
:0C082900E53F9541FEAC45AD461204BD14
:0108350022A0
:040528008E3B8F3C3B
:10052C00E4F53DF53EF53FF540F541F542F543F573
:10053C00447F03120EAE7E00EF540C7802CEC31330
:10054C00CE13D8F9F5448E4345437008753D21759B
:10055C003EFC8024E54464014543700E753D1D75D9
:10056C003EB0753F2375408C803DE54464024543A5
:10057C00700E753D1D753EB0753F2A754030802755
:10058C00E5446403454370647F07120EAEEEC3135B
:10059C0030E008753D19753E648006753D13753E57
:1005AC0088753F1D7540B07F03120EAE754300EF8A
:1005BC005403F54445437007F54175420A802FE515
:1005CC0044640145437007F5417542058020E544BC
:1005DC00640245437007F5417542148011E544648B
:1005EC000345437007F5417542508002802DAC41A4
:1005FC00AD42AE3BAF3C1204ABE53E2FF544E53DBE
:10060C003EF543D3E5449540E543953F4002800BCE
:10061C00C3E544953EE543953D5004E4FEFF22AE10
:03062C0043AF4495
:01062F0022A8
:0E13B000E4FE7F0A120EAEEE5403FE12052874
:0113BE00220C
:100F71001207358E3B8F3C7F03120EAE8E3D8F3EA6
:100F8100533E3F753D00E53B5403FEE53C7806C307
:100F910033CE33CED8F9423EEE423D433E10120EDF
:090FA100F0120EF07F0A02143474
:091404007F05120EAEEE540FFF3D
:01140D0022BC
:021268008F32C3
:10126A007F05120EAEAD07AC065304F0E532FEEE72
:07127A0042047F05020EF69D
:020C39008F38F2
:100C3B007F03120EAEAD07AC065305EF7F03120E0A
:100C4B00F67F02120EAEAC06AD07E538B4010543D4
:100C5B00040280035304FD43040130040553057F54
:100C6B0080034305807F02120EF67F0A120EAEEE52
:100C7B0020E6097F017E0012132080EE1213B08E46
:0A0C8B00398F3A120F71AE39AF3AFB
:010C9500223C
:0B13EE00EF24FF9208D204120C3922F9
:0A13F9007F0B120EAEEEFF5307014A
:0114030022C6
:10063000E4F532F533FE7F03120EAE7E00EF540C6C
:100640007802CEC313CE13D8F9FF4E70087534214B
:100650007535FC8020EF64014E700E75341D7535C4
:10066000B075362375378C803CEF64024E700E7582
:10067000341D7535B075362A7537308028EF640320
:100680004E60030207347F07120EAEEEC31330E054
:100690000875341975356480067534137535887599
:1006A000361D7537B0AE34AF358E528F538E628F94
:1006B00063D2087F0A121434AF35AE34120F717F43
:1006C000327E0012132012143CE56365377004E596
:1006D0006265366035C2047F01120C398E628F6309
:1006E0007FF47E011213201213F9EF60187FF47E5D
:1006F00001121320AF33AD63AC62120AF70533E584
:10070000337002053212141880BFE53315337002BE
:100710001532AF331213E3E4F561FF12124E8E620D
:100720008F638E528F53AF53AE52120F71AF63AEC1
:0407300062120D8EB6
:0107340022A2
:0211C8008F3264
:1011CA007F05120EAEAD07AC065305F0E532540F9B
:1011DA0042057F05120EF6853260E51E70057F0115
:0311EA00121232AC
:0111ED0022DF
:021232008F33F8
:101234007F02120EAEAD07AC06E5336005430440F1
:0A12440080035304BF7F02020EF680
:1011A1007F02120EAEAD07AC06ECC413135403F468
:1011B10054016008430440751E0180065304BFE4D6
:0711C100F51E7F02020EF68D
:09140E007F0B120EAEEEC313FFBA
:0114170022B2
:101391007F02120EAEAC06EF54FEFD7F02020EF686
:02107600AD07C4
:10107800E4FB74807E00A803088006CEA2E713CEA6
:1010880013D8F8FFEDF582EF558224FF92B2D2B45F
:0A109800C2B40BBB08DCD2B3C2B334
:0110A200222B
:10112800C0F9A4B0999282F880907F8883C6A1867E
:101138008E8CC1CE9189C712C8ABF740792430197B
:0911480012027800107FC7890033
:100B7B00025221FC0256000001580A01590001558E
:0D0B8B0000015400C18802501F40014F00BE
:10136F00ED4C6007EF90114393FF22EF90112893FC
:02137F00FF224B
:10101500300114752B00752CFF752D00752EFF7B87
:10102500FF7A007D158012752B00752CFF752D003C
:10103500752EFF7BFF7A007D167C007FFF12083638
:011045002288
:0409DE00AB07AA06B3
:1009E2007C277D101204BD8F247C277D10AF03AEBF
:1009F200021204BD7E037FE8CFCDCFCECCCE12044F
:100A0200BD8F237C037DE8AF03AE021204BD7E00DE
:100A12007F64CFCDCFCECCCE1204BD8F22AE02AF3B
:100A2200037C007D641204BD7E007F0ACFCDCFCE51
:100A3200CCCE1204BD8F25E524C39401E523FD7CB1
:100A420000E522FB7A00500F752B008F2C752D00CC
:100A5200752E037F64800E752B0085252C752D0065
:080A6200752E03AF24120836C3
:010A6A002269
:100DDA00E553B5630AE552B56205AF53FE80393073
:100DEA0008190553E55370020552D39430E552941D
:100DFA002A40217552217553FC8019E55315537009
:100E0A00021552C3E55394FCE552942150067552DB
:0C0E1A002A755330AF53AE521209DE228D
:1011EE00E56075F00A84FD7C00E56075F00A84E523
:1011FE00F0FB7A00752B00752C64752D00752E642E
:05120E007F64020836B8
:100CEA00E55975F06484FFE55975F06484E5F0759B
:100CFA00F00A84F523E55975F00A8485F022EF603D
:100D0A0016FD7C00E523FB7A00752B0085222C75E5
:100D1A002D00752EFF8015E523FB7A00752B0085C3
:100D2A00222C752D00752EFF7DFF7C007FFF120897
:010D3A003682
:010D3B002295
:1010A300E55575F00A84A9F0E55575F06484E5F01B
:1010B30075F00A84FB7A00AF01752B008F2C752D18
:0D10C30000752EFF7D197C007F1702083696
:100D3C00E55475F06484FFE55475F06484E5F07552
:100D4C00F00A84F523E55475F00A8485F022EF60EF
:100D5C0016FD7C00E523FB7A00752B0085222C7593
:100D6C002D00752EFF8015E523FB7A00752B008571
:100D7C00222C752D00752EFF7DFF7C007F1612082E
:010D8C003630
:010D8D002243
:10130B00E4F52BF52CF52D752EFF7B18FA7DFFFCE4
:05131B007FFF0208360F
:10128100752B00752C1A752D00752EFF7B1A7A00AF
:091291007DFF7C007FFF0208369E
:080836008C278D288A298B2AEA
:10083E00752F1BE54F702BEFC3952F400302091E3A
:10084E00D2A3D2A2D2A1E52E6401452D7005FC7D66
:10085E000180047C007D0012136F121076C2A0027C
:10086E000913E54F64017033C3E528952F7480F8A2
:10087E00652798400302091ED2A3D2A2D2A0AF28A8
:10088E00E52E6402452D7005FC7D0180047C007D03
:10089E000012136F121076C2A1806AE54F640270C7
:1008AE0030C3E52A952F7480F86529985062D2A33B
:1008BE00D2A1D2A0AF2AE52E6403452D7005FC7D92
:1008CE000180047C007D0012136F121076C2A2808C
:1008DE0034E54F64037039C3E52C952F7480F865A9
:1008EE002B98502CD2A2D2A1D2A0AF2CE52E64040C
:1008FE00452D7005FC7D0180047C007D0012136F78
:10090E00121076C2A3901150E493FF7E00121320B2
:0C091E00054FE54FD394034003E4F54F70
:01092A0022AA
:100F3100E558B40A03120DDAE5587003121281E57F
:100F410058B4010312130BE558B40203120CEAE57D
:100F510058B40303121015E558B404031211EEE559
:100F610058B465031210A3E558B46603120D3C2270
:08142C007F03121434B2012207
:0A14180020010675501F7551402297
:1010D000200107E558D394644003020F31D3E55152
:1010E000940AE5509400400C120F31E551155170EF
:0D10F0000B155022D2A3D2A2D2A1D2A02271
:0A142200E558C39464500122C32270
:08143400E4F556F5578F58222C
:10115100E554C39414500474058014E554C3943CBD
:101161005004740A8009E554C394E65006741425AA
:0811710054F5547F66021434AA
:10117900E554D3943C400474EC8014E554D394149E
:10118900400474F68009E554C39405400674FB25B0
:0811990054F5547F6602143482
:100B9800011D00010800010900010A00010B000203
:100BA8001500000217000002190000021B000001D6
:100BB8000E00010F00011000011100010C00010DD1
:0A0BC80000011200011300011400E7
:05145000E4AF1DF51DD5
:011455002274
:10000E00309639E4F515F516E50E6006E4F50E7535
:10001E001D01E50C6021E5126005E4F5128015E581
:10002E00136005E4F513800CE5146005E4F5148007
:10003E0003751D0BE4F50CE4F5088077E508707385
:10004E00E512706FE513706BE51470670516E51613
:10005E0070020515D39414E51594004003750E0136
:10006E000516E51670020515D39458E51594024051
:10007E0042209711750801750C01E4F50E751201F9
:10008E00751D0C802E209511750801750C01E4F577
:10009E000E751301751D0D801A20941175080175CA
:1000AE000C01E4F50E751401751D0E8006E4F50EB7
:1000BE00750C01309713E50F6006E4F50F751D0200
:1000CE00E4F509F517F5188046E5097042E50E705E
:1000DE003EE50C703AE5127036E5137032E5147099
:1000EE002E0518E51870020517D39414E517940021
:1000FE004003750F020518E51870020517D39458C2
:10010E00E51794024009E4F50F750902751D1630C6
:10011E009513E5106006E4F510751D03E4F50AF578
:10012E0019F51A8046E50A7042E50E703EE50C7030
:10013E003AE5127036E5137032E514702E051AE5A5
:10014E001A70020519D39414E51994004003751022
:10015E0001051AE51A70020519D39458E51994028F
:10016E004009E4F510750A01751D21309412E51150
:10017E006006E4F511751D04E4F50BF51BF51C2264
:10018E00E50B7042E50E703EE50C703AE5127036E6
:10019E00E5137032E514702E051CE51C7002051B6C
:1001AE00D39414E51B94004003751101051CE51C46
:1001BE007002051BD39458E51B94024009E4F51117
:0701CE00750B01751D2C22C9
:03000000020A6B86
:0C0A6B00787FE4F6D8FD758164020AB2C1
:10039300E709F608DFFA8046E709F208DFFA803E4C
:1003A30088828C83E709F0A3DFFA8032E309F60839
:1003B300DFFA8078E309F208DFFA807088828C83A1
:1003C300E309F0A3DFFA806489828A83E0A3F60855
:1003D300DFFA805889828A83E0A3F208DFFA804C2F
:1003E30080D280FA80C680D4806980F28033801006
:1003F30080A680EA809A80A880DA80E280CA80336F
:1004030089828A83ECFAE493A3C8C582C8CCC583E6
:10041300CCF0A3C8C582C8CCC583CCDFE9DEE780B6
:100423000D89828A83E493A3F608DFF9ECFAA9F035
:10043300EDFB2289828A83ECFAE0A3C8C582C8CC8B
:10044300C583CCF0A3C8C582C8CCC583CCDFEADEA4
:10045300E880DB89828A83E493A3F208DFF980CC06
:1004630088F0EF60010E4E60C388F0ED2402B404FF
:100473000050B9F582EB2402B4040050AF232345A6
:0604830082239003E373E5
:10048900F8BB010DE58229F582E5833AF583E8F0A9
:10049900225006E92582C8F622BBFE05E92582C855
:0204A900F2223D
:1004AB00EF8DF0A4A8F0CF8CF0A428CE8DF0A42E65
:0204BB00FE221F
:1004BD00BC000BBE0029EF8DF084FFADF022E4CC23
:1004CD00F875F008EF2FFFEE33FEEC33FCEE9DECEC
:1004DD00984005FCEE9DFE0FD5F0E9E4CEFD22ED32
:1004ED00F8F5F0EE8420D21CFEADF075F008EF2F7C
:1004FD00FFED33FD4007985006D5F0F222C398FD6D
:05050D000FD5F0EA2209
:10051200EB9FF5F0EA9E42F0E99D42F0EC6480C860
:0605220064809845F02200
:100A7700020E26E493A3F8E493A34003F68001F261
:100A870008DFF48029E493A3F85407240CC8C33380
:100A9700C4540F4420C8834004F456800146F6DF4F
:100AA700E4800B0102040810204080900B65E47E6F
:100AB700019360BCA3FF543F30E509541FFEE49344
:100AC700A360010ECF54C025E060A840B8E493A30B
:100AD700FAE493A3F8E493A3C8C582C8CAC583CA36
:100AE700F0A3C8C582C8CAC583CADFE9DEE780BEEE
:010BD2000022
:00000001FF
