:030B190001640074
:10035400752F061213868F30E53070030204BCE556
:1003640030B40C0312134DE564D394004018E53007
:10037400B401131213398F2FE52FB40F05E4F52FB1
:100384008020052F801CE564D39400401EE530B422
:1003940002191213398F2FE52F7005752F0F800264
:1003A400152FAF2F1211E1852F5522E564D3940048
:1003B4004017E530B40312E4F56475560AE5646445
:1003C4000B60030204BCF55C22E564D39400401C7A
:1003D400E530B404171207BB855D53855E54E4F51C
:1003E40064E564B40B03E4F55CD20122E530B40D9A
:1003F400191213398F5575640175560EE55C600347
:100404000204BC755C0175640B22E530B40E09125C
:1004140013438F5975560222E530B4210BD200C222
:100424000112132E7F01800EE530B42C11C200C2DC
:100434000112132EE4FF12135E8E5D8F5E22E530EF
:10044400B4160975560112132E0210DDE530B401FD
:100454001E75560112132EE55A2401FFE433FEC320
:10046400EF9410EE64809480504EE55A048015E5B4
:1004740030B4021475560112132EE55AD394004079
:1004840037E55A14FF02108DE530B4030EE55BB571
:100494005F05E4F55B8014055B8010E530B4041857
:1004A400E55B7005855F5B8002155BD20112132E3C
:0804B400AF5B1211C7120CB678
:0104BC00221D
:100E3E00120DAA7F0A7E00121255855D53855E54EF
:100E4E001211FA120C50EF601CE55C7003755C0118
:100E5E001207BB855D53855E54E564B40B03E4F560
:100E6E005CD2018007AF5EAE5D120CB6AF5A1210A7
:060E7E008D12035480FBFD
:03000B00020B8263
:100B8200C0E0C0F0C083C082C0D075D000C000C039
:0D0B920001C002C003C004C005C006C007BA
:100B9F0012110412000EE556C3940A501A0563E5AC
:100BAF006370020562C394A0E562940F40097562F9
:0F0BBF000075630075560A758A88758C96C28D0D
:100BCE00D007D006D005D004D003D002D001D0007B
:0B0BDE00D0D0D082D083D0F0D0E03225
:0A130D0000007F217E42DEFEDFFCBF
:0113170022B3
:05137400007F04DFFE14
:011379002251
:10125500AD07AC06ED1DAE0470011C4E6005121302
:041265000D80F122E5
:03139000021255F1
:10126900AD07AC06ED1DAE0470011C4E60051213EE
:041279007480F1226A
:10129100759850438E01438E0475D74175D6FD4331
:0312A1008E10228A
:080003008F993099FDC299228A
:06137A00AE071200032281
:1011FA00438E805389F0438901758A88758C96C21B
:08120A008DD2A9D2AFD28C22D3
:0813560000000000000000008F
:100B1C00015A05015C01025D21FC015B00015F00D3
:041039008E388F3925
:10103D00783A7C007D007BFF7A1379567E007F0223
:10104D001202A57B007A00793AAF39AE38120E84C0
:06105D00E53AFEE53BFF51
:01106300226A
:101173008F32E55A65326013E4FFFE12127DE532C9
:0C118300FDE4FFFE121229E532F55A22AD
:040D5D008E428F43F0
:100D610078447C007D007BFF7A1379587E007F02F6
:100D71001202A5E542F5448543457F007E02121229
:100D81007DAD447F007E021212297F027E00121384
:100D910090AD457F017E02121229E55BF46009AD39
:080DA1005B7402FFFE1212292F
:010DA9002227
:101150007F007E04121212EF30E005E4F55C80039C
:10116000755C017F007E0412127DAD5C7F007E0401
:031170000212293F
:071366007F007E0602127DEC
:060AAB008F378C388D39F5
:100AB100783C7C007D007BFF7A13795A7E007F02AF
:100AC1001202A5783E7C007D007BFF7A13795C7E63
:100AD100007F021202A5E538F53E85393FE53775FD
:100AE100F002A4AEF02402F53BEE3406F53AAD3E39
:100AF100AF3BFE1212297F027E00121390E53B24C8
:100B010001FFE4353AFEAD3F1212297B007A0079EC
:080B11003CAF3BAE3A020E843A
:0B131800AD078D5F7F007E06021229EA
:100C5000E4FFFE1212128F5AE55AD3940F40047F1C
:100C60000180027F00E55AC3940050047E01800297
:100C70007E00EE4F6003755A057F007E041212124B
:100C80008F5CE55C6005755C018003E4F55C7F00CA
:100C90007E061212128F5FE55FB4FF037F01227F91
:100CA000007E021210398E5D8F5E7402FFFE1212FA
:060CB000128F5B7F0022A1
:0211C7008F3760
:1011C900EF75F002A42402FFE5F03406FE1210398F
:0711D9008E5D8F5E85375B20
:0111E00022EC
:0D12F400E4F5C7F5C5F5C675C380F5C42245
:10127D0075C78075C5038FC48EC375C65A75C6A54F
:04128D00000212F455
:1012120075C78075C5018FC48EC375C65A75C6A5BC
:0612220000AFC21212F43D
:0112280022A3
:0A0E84008E408F418B428A4389445F
:100E8E0075C78075C501E4FDED7E002541F546EE82
:100E9E003540F5458546C4E545F5C375C65A75C654
:100EAE00A50000AB42AA43A9448D82758300E5C21A
:0A0EBE001202CB0DBD03D10212F4A5
:1012290075C78075C5028FC48EC38DC275C65A75C0
:06123900C6A5000212F43C
:07136D007F0A7E00021269F5
:0F12D600D2A4D2A512136DC2A412136DC2A52209
:0C130100C2A4D2A512136DD2A402136D79
:1012B600EF24FF92A412136DD2A512136DC2A522BC
:10123F00D2A412136DD2A512136DA2A49203C2A54C
:05124F00A203E433FFDF
:011254002277
:020F46008F4FCB
:100F4800755008AF501550EF601DE54F30E704D2DB
:100F5800A48002C2A412136DD2A512136DC2A5E516
:100F68004F25E0F54F80DC12123FEF24FF9202A2DA
:040F780002E433FF5D
:010F7C002252
:020FAF008F4F62
:100FB100755008E4F551D2A4AF501550EF6017E514
:100FC1005125E0F551D2A512136D30A4020551C28D
:0D0FD100A512136D80E2AF4F1212B6AF51A2
:010FDE0022F0
:04138C00000000005D
:030B2C000168005D
:0C0DF700436704436708AD67AC667F02E9
:060E03008F428C438D4478
:100E090078457C007D007BFF7A13798C7E007F0218
:100E19001202A5E543F545E544F5461212D67F22AF
:100E2900120F46AF42120F46AF45120F46AF461298
:050E39000F4602130149
:020EC8008F4C4D
:100ECA00784D7C007D007BFF7A13798E7E007F024D
:100EDA001202A51212D67F22120F46AF4C120F46EB
:100EEA001212D67F23120F46E4FF120FAF8F4D7FE7
:0F0EFA0001120FAF8F4E121301E54DFEE54EFFB3
:010F090022C5
:100DAA007D027C007F02120E037F327E00121255F2
:100DBA007D017CC07F02120E037F587E02121255FB
:100DCA007D107C007F03120E037D007C047F0412D9
:100DDA000E037DA57C867F05120E037D007C807F35
:0D0DEA0006120E037D1A7C5F7F07020E03C8
:0405C5008E428F4390
:1005C900E4F544F545F546F547F548F549F54AF5A5
:1005D9004B7F03120EC87E00EF540C7802CEC31372
:1005E900CE13D8F9F54B8E4A454A700875442175E2
:1005F90045FC8024E54B6401454A700E75441D7520
:1006090045B075462375478C803DE54B6402454AE4
:10061900700E75441D7545B075462A75473080279B
:10062900E54B6403454A70647F07120EC8EEC31395
:1006390030E008754419754564800675441375459D
:100649008875461D7547B07F03120EC8754A00EFBD
:100659005403F54B454A7007F54875490A802FE55B
:100669004B6401454A7007F5487549058020E54BFB
:100679006402454A7007F5487549148011E54B64D1
:1006890003454A7007F54875492880028018C3E573
:10069900439545E54295445002800BD3E543954780
:1006A900E54295464004E4FEFF22C3E5439545FF34
:0C06B900E5429544FEAC48AD491202FF3A
:0106C5002212
:0404BD008E3C8F3DA5
:1004C100E4F53EF53FF540F541F542F543F544F5D8
:1004D100457F03120EC87E00EF540C7802CEC31381
:1004E100CE13D8F9F5458E4445447008753E217503
:1004F1003FFC8024E54564014544700E753E1D7541
:100501003FB075402375418C803DE545640245440B
:10051100700E753E1D753FB075402A7541308027BC
:10052100E5456403454470647F07120EC8EEC313AA
:1005310030E008753E19753F648006753E13753FBE
:100541008875401D7541B07F03120EC8754400EFD8
:100551005403F54545447007F54275430A802FE57C
:1005610045640145447007F5427543058020E54522
:10057100640245447007F5427543148011E54564F2
:100581000345447007F5427543508002802DAC420B
:10059100AD43AE3CAF3D1202EDE53F2FF545E53EE3
:1005A1003EF544D3E5459541E54495404002800B35
:1005B100C3E545953FE544953E5004E4FEFF22AE78
:0305C10044AF45FF
:0105C4002214
:0E12E500E4FE7F0A120EC8EE5403FE1204BD92
:0112F30022D8
:040CB6008E3C8F3DA4
:100CBA001205C58E3E8F3F7F03120EC88E408F41AC
:100CCA0053413F754000E53E5403FEE53F7806C3B5
:100CDA0033CE33CED8F94241EE4240434110AD41C2
:100CEA00AC407F03120E03AD41AC407F03120E03EA
:100CFA00AF3DAE3C120D5D75560A853C5D853D5E85
:010D0A0022C6
:091339007F05120EC8EE540FFFEF
:011342002288
:0211E1008F314C
:1011E3007F05120EC8AD07AC065304F0E531FEEEE1
:0711F30042047F05020E0318
:060BE9008F378C388D39B6
:100BEF007F03120EC8AD07AC065305EF7F03120E3D
:100BFF00037F02120EC8AC06AD07E537B4010543FB
:100C0F00040280035304FD430401E53945386005B0
:100C1F0053057F80034305807F02120E037F0A1264
:100C2F000EC8EE20E6097F017E0012125580EE12EB
:100C3F0012E58E3A8F3B1212E5120CB6AE3AAF3B6D
:010C4F002282
:08135E007D017C00120BE92265
:0A1323007F0B120EC8EEFF53070106
:01132D00229D
:1007BB00E4F531F532FE7F03120EC87E00EF540CC8
:1007CB007802CEC313CE13D8F9FF4E7008753321C0
:1007DB007534FC8020EF64014E700E75331D75343B
:1007EB00B075352375368C803CEF64024E700E75F8
:1007FB00331D7534B075352A7536308028EF640398
:10080B004E600302089F7F07120EC8EEC31330E041
:10081B000875331975346480067533137534887510
:10082B00351D7536B0AE33AF348E538F548E5D8F0E
:10083B005ED20075560AC201120CB67F327E0012D0
:10084B001255121366E55E65367004E55D6535601D
:10085B002CE4FDFC7F01120BE98E5D8F5E121323DE
:10086B00EF60E2AF32AD5EAC5D120AAB7F647E002F
:10087B001212550532E53270CC053180C8E53215C0
:10088B003270021531AF32121318E4F55BFF1211FF
:04089B00C7120CB6BE
:01089F002236
:02108D008F31A1
:10108F007F05120EC8AD07AC065305F0E531540FBE
:10109F0042057F05120E03AF31121173E56870051B
:0510AF007F0112118F0A
:0110B4002219
:02118F008F329D
:101191007F02120EC8AD07AC06E53260054304407C
:0A11A10080035304BF7F02020E0317
:1010DD007F02120EC8AD07AC06ECC413135403F413
:1010ED005401600843044075680180065304BFE451
:0710FD00F5687F02020E03FB
:0211AB008F1E95
:1011AD007F02120EC8AD07AC06E51E600553047F25
:0A11BD0080034304807F02020E034A
:091343007F0B120EC8EEC313FF6C
:01134C00227E
:06138000E4FF120EC8227A
:020A3A008F65C6
:100A3C007F03120EC88E668F67E565B40105536798
:100A4C00F78015E565B402085367F7436704800B1C
:100A5C00E565B4030E4367085367FBAD67AC667F6F
:100A6C00028038E56564047017120DF77F07120ECB
:100A7C00C88E668F67436602AD67AC667F07801BC6
:100A8C00E56564057018120DF77F07120EC88E66A7
:0E0A9C008F675366FDAD67AC667F07120E03D1
:010AAA002229
:020F0A008F1F37
:100F0C007F03120EC8AD07AC06E51FB401055305EF
:100F1C00FD8012E51FB402055305FD8015E51FB4D5
:100F2C0003084305025305FE800BE51FB40406437A
:0A0F3C0005024305017F03020E03C6
:1012C6007D037C007F02120E037F327E00021255E0
:020FDF00AD075C
:100FE100E4FB74807E00A803088006CEA2E713CE3E
:100FF10013D8F8FFEDF582EF558224FF92B2D2B4F7
:0A100100C2B40BBB08DCD2B3C2B3CB
:01100B0022C2
:1010B500C0F9A4B0999282F880907F8883C6A186F2
:1010C5008E8CC1CE9189C712C8AB407924301912D4
:0810D500027800107FC78901B9
:100B2F00025321FC01560A015900015500C180C131
:080B3F008102571F4001520022
:1012A400ED4C6007EF9010CF93FF22EF9010B593B1
:0212B400FF2217
:100F7D00E55C6014752A00752BFF752C00752DFF2F
:100F8D007BFF7A007D158012752A00752BFF752C5D
:100F9D0000752DFF7BFF7A007D167C007FFF12060A
:020FAD00C6225A
:0408A000AB07AA06F2
:1008A4007C277D101202FF8F237C277D10AF03AEBF
:1008B400021202FF7E037FE8CFCDCFCECCCE120250
:1008C400FF8F227C037DE8AF03AE021202FF7E009D
:1008D4007F64CFCDCFCECCCE1202FF8F21AE02AF3C
:1008E400037C007D641202FF7E007F0ACFCDCFCE51
:1008F400CCCE1202FF8F24E523C39401E522FD7CB4
:1009040000E521FB7A00500F752A008F2B752C000F
:10091400752D037F64800E752A0085242B752C00A9
:08092400752D03AF231206C676
:01092C0022A8
:1009B900E554B55E0AE553B55D05AF54FE800D30CB
:1009C900010D855D53855E54AF5EAE5D0208A030B2
:1009D900002DE554655E7004E553655D605205546C
:1009E900E55470020553FFAE531208A0D3E55494A1
:1009F90030E553942A40DB7553217554FC80D3208C
:100A0900002EE554655E7004E553655D6022E5548A
:100A190015547002155314FFAE531208A0C3E554C0
:100A290094FCE553942150DA75532A75543080D2D9
:010A3900229A
:10112B00E55A75F00A84FD7C00E55A75F00A84E5F2
:10113B00F0FB7A00752A00752B64752C00752D64F5
:05114B007F640206C6EE
:100D0B00E55975F06484FFE55975F06484E5F07579
:100D1B00F00A84F522E55975F00A8485F021EF601D
:100D2B0016FD7C00E522FB7A00752A0085212B75C8
:100D3B002C00752DFF8015E522FB7A00752A0085A6
:100D4B00212B752C00752DFF7DFF7C007FFF12067C
:010D5B00C6D1
:010D5C002274
:10100C00E55575F00A84A9F0E55575F06484E5F0B2
:10101C0075F00A84FB7A00AF01752A008F2B752CB2
:0D102C0000752DFF7D197C007F170206C6A0
:0806C6008C268D278A288B2960
:1006CE00752E1AE552702BEFC3952E40030207AE1E
:1006DE00D2A3D2A2D2A1E52D6401452C7005FC7DDA
:1006EE000180047C007D001212A4120FDFC2A00252
:1006FE0007A3E55264017033C3E527952E7480F885
:10070E0065269840030207AED2A3D2A2D2A0AF278D
:10071E00E52D6402452C7005FC7D0180047C007D76
:10072E00001212A4120FDFC2A1806AE55264027099
:10073E0030C3E529952E7480F86528985062D2A3AF
:10074E00D2A1D2A0AF29E52D6403452C7005FC7D06
:10075E000180047C007D001212A4120FDFC2A28061
:10076E0034E55264037039C3E52B952E7480F86519
:10077E002A98502CD2A2D2A1D2A0AF2BE52D640480
:10078E00452C7005FC7D0180047C007D001212A4B6
:10079E00120FDFC2A39010DCE493FF7E00121255FD
:0C07AE000552E552D394034003E4F552D9
:0107BA00221C
:10106400E556B40A031209B9E556B4010312112B6B
:10107400E556B40203120D0BE556B40303120F7DBB
:09108400E556B40E0312100C2213
:09134D0012115075560302132E13
:0B132E00E55C700675571F75584022E3
:10110400E55C6003021064D3E558940AE557940043
:10111400400C121064E5581558700B155722D2A3D1
:07112400D2A2D2A1D2A02249
:100B4700011D00010800010900010A00010B000254
:100B57001500000217000002190000021B00000127
:100B67000E00010F00011000011100010C00010D22
:0A0B77000001120001130001140038
:05138600E4AF1DF51DA0
:01138B00223F
:10000E00309639E4F515F516E50E6006E4F50E7535
:10001E001D01E50C6021E5126005E4F5128015E581
:10002E00136005E4F513800CE5146005E4F5148007
:10003E0003751D0BE4F50CE4F5088077E508707385
:10004E00E512706FE513706BE51470670516E51613
:10005E0070020515D39414E51594004003750E0136
:10006E000516E51670020515D39458E51594024051
:10007E0042209711750801750C01E4F50E751201F9
:10008E00751D0C802E209511750801750C01E4F577
:10009E000E751301751D0D801A20941175080175CA
:1000AE000C01E4F50E751401751D0E8006E4F50EB7
:1000BE00750C01309713E50F6006E4F50F751D0200
:1000CE00E4F509F517F5188046E5097042E50E705E
:1000DE003EE50C703AE5127036E5137032E5147099
:1000EE002E0518E51870020517D39414E517940021
:1000FE004003750F020518E51870020517D39458C2
:10010E00E51794024009E4F50F750902751D1630C6
:10011E009513E5106006E4F510751D03E4F50AF578
:10012E0019F51A8046E50A7042E50E703EE50C7030
:10013E003AE5127036E5137032E514702E051AE5A5
:10014E001A70020519D39414E51994004003751022
:10015E0001051AE51A70020519D39458E51994028F
:10016E004009E4F510750A01751D21309412E51150
:10017E006006E4F511751D04E4F50BF51BF51C2264
:10018E00E50B7042E50E703EE50C703AE5127036E6
:10019E00E5137032E514702E051CE51C7002051B6C
:1001AE00D39414E51B94004003751101051CE51C46
:1001BE007002051BD39458E51B94024009E4F51117
:0701CE00750B01751D2C22C9
:0300000002092DC5
:0C092D00787FE4F6D8FD7581680209743B
:1001D500E709F608DFFA8046E709F208DFFA803E0C
:1001E50088828C83E709F0A3DFFA8032E309F608F9
:1001F500DFFA8078E309F208DFFA807088828C8361
:10020500E309F0A3DFFA806489828A83E0A3F60814
:10021500DFFA805889828A83E0A3F208DFFA804CEE
:1002250080D280FA80C680D4806980F280338010C5
:1002350080A680EA809A80A880DA80E280CA80332E
:1002450089828A83ECFAE493A3C8C582C8CCC583A6
:10025500CCF0A3C8C582C8CCC583CCDFE9DEE78076
:100265000D89828A83E493A3F608DFF9ECFAA9F0F5
:10027500EDFB2289828A83ECFAE0A3C8C582C8CC4B
:10028500C583CCF0A3C8C582C8CCC583CCDFEADE64
:10029500E880DB89828A83E493A3F208DFF980CCC6
:1002A50088F0EF60010E4E60C388F0ED2402B404BF
:1002B5000050B9F582EB2402B4040050AF23234566
:0602C50082239002257364
:1002CB00F8BB010DE58229F582E5833AF583E8F069
:1002DB00225006E92582C8F622BBFE05E92582C815
:0202EB00F222FD
:1002ED00EF8DF0A4A8F0CF8CF0A428CE8DF0A42E25
:0202FD00FE22DF
:1002FF00BC000BBE0029EF8DF084FFADF022E4CCE3
:10030F00F875F008EF2FFFEE33FEEC33FCEE9DECAB
:10031F00984005FCEE9DFE0FD5F0E9E4CEFD22EDF1
:10032F00F8F5F0EE8420D21CFEADF075F008EF2F3B
:10033F00FFED33FD4007985006D5F0F222C398FD2C
:05034F000FD5F0EA22C9
:10093900020E3EE493A3F8E493A34003F68001F288
:1009490008DFF48029E493A3F85407240CC8C333BF
:10095900C4540F4420C8834004F456800146F6DF8E
:10096900E4800B0102040810204080900B19E47EFA
:10097900019360BCA3FF543F30E509541FFEE49383
:10098900A360010ECF54C025E060A840B8E493A34A
:10099900FAE493A3F8E493A3C8C582C8CAC583CA75
:1009A900F0A3C8C582C8CAC583CADFE9DEE780BE2D
:010B81000073
:00000001FF
