:08000300D205121257C20A22B5
:10036A008F3D12149EE56DD3940A5003020431E5C1
:10037A003D64017027E56DB40B1612148A8F61E58E
:10038A0061B40F05E4F56180020561AF611212EAFA
:10039A00E56D641560030204F802114DE56DD3940E
:1003AA000A402CE53D64027026E56DB40B15121463
:1003BA008A8F61E561700575610F80021561AF6111
:1003CA001212EAE56D641560030204F8021175E57C
:1003DA006DD3940A4014E53DB4030FE56DB41503DB
:1003EA00E4F56EE4FF12134B8039E56DD3940A509D
:1003FA00030204F8E53D640460030204F8E56DB401
:10040A000B03120601E56DB41519E560D39400409B
:10041A000A7F0112134B756E018008E4FF12134B19
:10042A00E4F56EE4F56D22E53DB40C030214B0E583
:10043A003DB40D0C12148A8F61756D0B7F65801A9D
:10044A00E53DB40B0A756D15E4F56E7F66800BE524
:10045A003DB40E09B200D2017F0502134BE53DB44B
:10046A0021047F018007E53DB42C0AE4FF121474CD
:10047A008E688F6922E53DB416087F0412134B0279
:10048A00119DE53DB4011D7F0412134BE56624015D
:10049A00FFE433FEC3EF9410EE64809480504FE57E
:1004AA0066048014E53DB402137F0412134BE5661B
:1004BA00D394004039E56614FF0211C4E53DB40344
:1004CA000EE567B56A05E4F567801405678010E5EF
:1004DA003DB4041AE5677005856A6780021567AF3F
:0F04EA00671212D08E5E8F5F120FCC12000322AA
:10123400120C109206E4F56DF56E75601E120ABC70
:1012440012149E12131C30060302060185685E8583
:02125400695FD0
:011256002275
:100D2E00801E300B0C1214948F657F0212134BC26F
:100D3E000B1214CC8F3CE56EB4020AE53CB42CE2E7
:100D4E0012123480DDE56EB40117E560C3940150D4
:100D5E0010756E02121417D2A3D2A2D2A1D2A08005
:100D6E00C1E53C6004FF12036A300AB6121257C284
:030D7E000A80AF39
:03000B000208EBFD
:1008EB00C0E0C0F0C083C082C0D075D000C000C0D3
:0D08FB0001C002C003C004C005C006C00754
:100908001214D68F22E56EB40122056CE56C7002D4
:10091800056BFFAE6BE4FCFD7B607AEAF9F8C31265
:10092800035450081560756B00756C0012000EE5D5
:100938006EC39402504212103C4045E522640A609E
:1009480021E522C3946450300564E56470020563B0
:10095800C394D0E5639407401F7F0A12134BD20A51
:1009680080163000130564E56470020563C394D0F3
:10097800E56394074002D20B758A66758C7EC28D3A
:10098800D007D006D005D004D003D002D001D000C3
:0B099800D0D0D082D083D0F0D0E0326D
:0A145E0000007F217E42DEFEDFFC6D
:011468002261
:0514C600007F04DFFEC1
:0114CB0022FE
:1013B900AD07AC06ED1DAE0470011C4E600512149C
:0413C9005E80F1222F
:1013CD00AD07AC06ED1DAE0470011C4E6005121488
:0413DD00C680F122B3
:10131C00438E805389F0438901758A66758C7EC231
:08132C008DD28CD2A9D2AF22B0
:0814A80000000000000000003C
:100B3000016605C100026821FC016700016A00C16D
:070B400005C102C104C1015F
:0410F9008E458F464B
:1010FD0078477C007D007BFF7A1479A87E007F0203
:10110D001202A57B007A007947AF46AE45120F0556
:06111D00E547FEE548FF76
:0111230022A9
:0212D0008F4449
:1012D200EF75F002A42402FFE5F03406FE1210F9C5
:0712E2008E688F69854467E7
:0112E90022E2
:101362008F3EE4FFFE1213E1E53EFDE4FFFE1213A1
:0613720078E53EF566225D
:040E25008E448F4523
:100E290078467C007D007BFF7A1479AA7E007F02D8
:100E39001202A5E544F5468545477F007E02121357
:100E4900E1AD467F007E02121378AD477F017E0235
:100E5900121378E567F46009AD677402FFFE121397
:070E690078854468854569A6
:010E7000225F
:101279007F007E041213E1A203E433FD7F007E04A4
:0F128900121378A200E433FD7F027E0402137873
:10125700300509AF69AE68120E25C205300207AF27
:1012670066121362C202200403300105121279C20A
:0212770004224F
:0714B8007F007E060213E134
:060BA2008F448C458D46D6
:100BA80078497C007D007BFF7A1479AC7E007F0257
:100BB8001202A5784B7C007D007BFF7A1479AE7E0B
:100BC800007F021202A5E545F54B85464CE54475C4
:100BD800F002A4AEF02402F548EE3406F547AD4B1A
:100BE800AF48FE1213787F047E001213B9E548243B
:100BF80001FFE43547FEAD4C1213787B007A00798B
:080C080049AF48AE47020F0599
:0B146900AD078D6A7F007E060213783D
:100C1000E4FFFE1213348F66E566D3940F40047F21
:100C20000180027F00E566C3940050047E018002CB
:100C30007E00EE4F60037566057F007E041213345C
:100C4000EF1392037F027E04121334EF1392007F9E
:100C5000007E061213348F6AE56AB4FF02D3227F46
:100C6000007E021210F98E688F697402FFFE121363
:050C7000348F67C32270
:0D144500E4F5C7F5C5F5C675C380F5C422F2
:1013E10075C78075C5038FC48EC375C65A75C6A5EA
:0413F100000214459D
:1013340075C78075C5018FC48EC375C65A75C6A599
:0613440000AFC2121445C7
:01134A002280
:0A0F05008E4D8F4E8B4F8A5089519C
:100F0F0075C78075C501E4FDED7E00254EF553EEE6
:100F1F00354DF5528553C4E552F5C375C65A75C69E
:100F2F00A50000AB4FAA50A9518D82758300E5C271
:0A0F3F001202CB0DBD03D1021445D0
:1013780075C78075C5028FC48EC38DC275C65A7570
:06138800C6A50002144599
:0714BF007F0A7E000213CD3D
:0F142700D2A4D2A51214BFC2A41214BFC2A52210
:0C145200C2A4D2A51214BFD2A40214BF81
:10140700EF24FF92A41214BFD2A51214BFC2A522C3
:10138E00D2A41214BFD2A51214BFA2A49209C2A550
:05139E00A209E433FF89
:0113A3002227
:021005008F5802
:10100700755908AF591559EF601DE55830E704D2F7
:10101700A48002C2A41214BFD2A51214BFC2A5E5B0
:101027005825E0F55880DC12138EEF24FF9208A2B2
:0410370008E433FF97
:01103B002292
:02106F008F5898
:10107100755908E4F55AD2A4AF591559EF6017E52F
:101081005A25E0F55AD2A51214BF30A402055AC25E
:0D109100A51214BF80E2AF58121407AF5A29
:01109E00222F
:0414D2000000000016
:030B4700011E008C
:060F8B00AD4AAC497F03F2
:060F91008F4B8C4C8D4DCE
:100F9700784E7C007D007BFF7A1479D27E007F0239
:100FA7001202A5E54CF54EE54DF54F1214277F22A9
:100FB700121005AF4B121005AF4E121005AF4F12AE
:050FC7001005021452A8
:020F49008F55C2
:100F4B0078567C007D007BFF7A1479D47E007F027B
:100F5B001202A51214277F22121005AF551210058D
:100F6B001214277F23121005E4FF12106F8F567F88
:0F0F7B000112106F8F57121452E556FEE557FF03
:010F8A002244
:100ABC007D027C007F02120F917F327E001213B9EF
:100ACC007D017CC07F02120F917F327E001213B920
:100ADC00E5692404FFE56834DEFE7C007D0A120221
:100AEC00FFEF7806C333CE33CED8F9AC064410FDF5
:100AFC007F03120F917D007C047F04120F9174868A
:100B0C00FCE56644A0FD7F05120F917D007C807F83
:100B1C0006120F917D1A7C5F7F07120F9185685E1C
:040B2C0085695F2256
:040706008E4B8F4C3B
:10070A00E4F54DF54EF54FF550F551F552F553F523
:10071A00547F03120F497E00EF540C7802CEC313A4
:10072A00CE13D8F9F5548E5345537008754D21757B
:10073A004EFC8024E55464014553700E754D1D75B9
:10074A004EB0754F2375508C803DE5546402455375
:10075A00700E754D1D754EB0754F2A755030802735
:10076A00E5546403455370647F07120F49EEC313BF
:10077A0030E008754D19754E648006754D13754E37
:10078A0088754F1D7550B07F03120F49755300EFDE
:10079A005403F55445537007F55175520A802FE5F5
:1007AA0054640145537007F5517552148020E5547D
:1007BA00640245537007F5517552058011E554647A
:1007CA000345537007F55175520280028018C3E53C
:1007DA004C954EE54B954D5002800BD3E54C955008
:1007EA00E54B954F4004E4FEFF22C3E54C954EFFCE
:0C07FA00E54B954DFEAC51AD521202FFD4
:0108060022CF
:0404F9008E478F4853
:1004FD00E4F549F54AF54BF54CF54DF54EF54FF54F
:10050D00507F03120F497E00EF540C7802CEC313B7
:10051D00CE13D8F9F5508E4F454F7008754921759A
:10052D004AFC8024E5506401454F700E75491D75D8
:10053D004AB0754B23754C8C803DE5506402454F98
:10054D00700E75491D754AB0754B2A754C30802754
:10055D00E5506403454F70647F07120F49EEC313D6
:10056D0030E008754919754A648006754913754A56
:10057D0088754B1D754CB07F03120F49754F00EFF9
:10058D005403F550454F7007F54D754E0A802FE514
:10059D00506401454F7007F54D754E148020E550A0
:1005AD006402454F7007F54D754E058011E5506499
:1005BD0003454F7007F54D754E028002802DAC4DF1
:1005CD00AD4EAE47AF481202EDE54A2FF550E54965
:1005DD003EF54FD3E550954CE54F954B4002800BC2
:1005ED00C3E550954AE54F95495004E4FEFF22AE10
:0305FD004FAF50AD
:0106000022D7
:0E143600E4FE7F0A120F49EE5403FE1204F981
:011444002285
:100FCC001207068E478F487F03120F498E498F4AAE
:100FDC00534A3F754900E5475403FEE5487806C37C
:100FEC0033CE33CED8F9424AEE4249434A10120F5F
:090FFC008B120F8B7F0A02134BCC
:09148A007F05120F49EE540FFF1B
:011493002236
:0212EA008F3E35
:1012EC007F05120F49AD07AC065304F0E53EFEEE48
:0712FC0042047F05020F917F
:020C75008F44AA
:100C77007F03120F49AD07AC065305EF7F03120F31
:100C8700917F02120F49AC06AD07E544B401054355
:100C9700040280035304FD43040130070553057F15
:100CA70080034305807F02120F917F0A120F49EEDE
:100CB70020E6097F0A7E001213B980EE1214368EE1
:0A0CC700458F46120FCCAE45AF4634
:010CD1002200
:0B147400EF24FF920CD207120C75222F
:0A147F007F0B120F49EEFF53070127
:011489002240
:10060100E4F53EF53FFE7F03120F497E00EF540CE7
:100611007802CEC313CE13D8F9FF4E70087540216E
:100621007541FC8020EF64014E700E75401D7541CF
:10063100B075422375438C803CEF64024E700E7599
:10064100401D7541B075422A7543308028EF64031F
:100651004E60030207057F07120F49EEC31330E016
:100661000875401975416480067540137541887598
:10067100421D7543B0AE40AF418E5E8F5F8E688F75
:1006810069D20C7F0A12134BAF41AE40120FCC7FDF
:10069100327E001213B91214B8E56965437004E59E
:1006A1006865426035C2077F01120C758E688F69DB
:1006B1007FF47E011213B912147FEF60187FF47E6C
:1006C100011213B9AF3FAD69AC68120BA2053FE54A
:1006D1003F7002053E12149E80BFE53F153F700238
:1006E100153EAF3F121469E4F567FF1212D08E6810
:1006F1008F698E5E8F5FAF5FAE5E120FCCAF69AE5A
:0407010068120E2547
:0107050022D1
:0211C4008F3E5C
:1011C6007F05120F49AD07AC065305F0E53E540FF7
:1011D60042057F05120F91853E66E51E70057F016B
:0311E6001212984A
:0111E90022E3
:021298008F3F86
:10129A007F02120F49AD07AC06E53F6005430440E3
:0A12AA0080035304BF7F02020F917E
:10119D007F02120F49AD07AC06ECC413135403F4D0
:1011AD0054016008430440751E0180065304BFE4DA
:0711BD00F51E7F02020F91F5
:091494007F0B120F49EEC313FF98
:01149D00222C
:101417007F02120F49AC06EF54FEFD7F02020F91C7
:02109F00AD079B
:1010A100E4FB74807E00A803088006CEA2E713CE7D
:1010B10013D8F8FFEDF582EF558224FF92B2D2B436
:0A10C100C2B40BBB08DCD2B3C2B30B
:0110CB002202
:10112400C0F9A4B0999282F880907F8883C6A18682
:101134008E8CC1CE9189C712C8ABF7BF40792430D9
:091144001912027800107FC7891E
:100B4A00025E21FC0263000001620A016500016184
:0D0B5A0000016000C18C025C1F40015B00C7
:1013F500ED4C6007EF90114093FF22EF901124937D
:02140500FF22C4
:1011EA00300308752C00752D158006752C00752D99
:1011FA0016752E00752FFF7BFF7A007DFF7C007F1E
:05120A00171208072285
:0409A300AB07AA06EE
:1009A7007C277D101202FF8F257C277D10AF03AEB9
:1009B700021202FF7E037FE8CFCDCFCECCCE12024C
:1009C700FF8F247C037DE8AF03AE021202FF7E0097
:1009D7007F64CFCDCFCECCCE1202FF8F23AE02AF36
:1009E700037C007D641202FF7E007F0ACFCDCFCE4D
:1009F700CCCE1202FF8F26E525C39401E524FD7CAA
:100A070000E523FB7A00500F752C008F2D752E0003
:100A1700752F037F64800E752C0085262D752E009B
:080A2700752F03AF251208072B
:010A2F0022A4
:100E7100E55FB5690AE55EB56805AF5FFE803930AB
:100E81000C19055FE55F7002055ED39430E55E9451
:100E91002A4021755E21755FFC8019E55F155F7041
:100EA10002155EC3E55F94FCE55E94215006755E14
:0C0EB1002A755F30AF5FAE5E1209A3220D
:10120F00E56675F00A84FD7C00E56675F00A84E5F5
:10121F00F0FB7A00752C00752DFF752E00752FFFD2
:05122F007FFF0208072B
:100D8100E56575F06484FFE56575F06484E5F075EB
:100D9100F00A84F524E56575F00A8485F023EF6097
:100DA10016FD7C00E524FB7A00752C0085232D754A
:100DB1002E00752FFF8015E524FB7A00752C008528
:100DC100232D752E00752FFF7DFF7C007FFF1208FC
:010DD100071A
:010DD20022FE
:1010CC00E56175F00A84A9F0E56175F06484E5F0DA
:1010DC0075F00A84FB7A00AF01752C008F2D752EEC
:0D10EC0000752FFF7D197C007F170208079B
:100DD300E56075F06484FFE56075F06484E5F075A3
:100DE300F00A84F524E56075F00A8485F023EF604A
:100DF30016FD7C00E524FB7A00752C0085232D75F8
:100E03002E00752FFF8015E524FB7A00752C0085D5
:100E1300232D752E00752FFF7DFF7C007F16120892
:010E230007C7
:010E240022AB
:1013A400E4F52CF52DF52E752FFF7B18FA7DFFFC47
:0513B4007FFF020807A5
:10130300752C00752D1A752E00752FFF7B1A7A0028
:091313007DFF7C007FFF0208074A
:1012B400A200E433752C00F52D752E00752FFF7BED
:0C12C400FF7A007DFF7C007F1702080706
:100CD200A907E97012C3ED953BE53A6480F8EC642C
:100CE2008098500122C322B90112C3EB953BE53A29
:100CF2006480F8EA648098500122C322B90214C3C6
:100D0200E537953BE53A6480F8E536648098500112
:100D120022C322B90314C3E539953BE53A6480F84E
:0C0D2200E538648098500122C322C322EF
:0A0807008F278C288D298A2A8B2B5D
:1008110075301CE527FD7C00852A36852B37852C14
:1008210038852D39753A0085303BAB29AA28AF5B55
:10083100120CD2400E055BE55BD3940340D5E4F581
:100841005B80D0E55B7021D2A3D2A2D2A1E52F6457
:1008510001452E7005FC7D0180047C007D00AF27E1
:100861001213F512109FC2A0E55B64017021D2A39F
:10087100D2A2D2A0AF29E52F6402452E7005FC7DDE
:100881000180047C007D001213F512109FC2A1E5C6
:100891005B64027021D2A3D2A1D2A0AF2BE52F6459
:1008A10003452E7005FC7D0180047C007D00121340
:1008B100F512109FC2A2E55B64037021D2A2D2A1FE
:1008C100D2A0AF2DE52F6404452E7005FC7D01807B
:1008D100047C007D001213F512109FC2A3055BE595
:0908E1005BD394034003E4F55BD2
:0108EA0022EB
:100EBD00E562B40A03120E71E5627003121303E5C5
:100ECD0062B401031213A4E562B40203120D81E5AD
:100EDD0062B403031211EAE562B4040312120FE5C2
:100EED0062B405031212B4E562B465031210CCE5C9
:080EFD0062B46603120DD3225A
:0814B0007F0312134BB203226B
:0A149E00200306755C1F755D4022F7
:10103C00200307E562D394644005120EBD8022D3D1
:10104C00E55D940AE55C9400400D120EBDE55D155E
:10105C005D700E155C800AD2A3D2A2D2A1D2A0D30D
:03106C0022C3227A
:10134B00E4F563F564E5626F600CBF0402D202BF83
:07135B000302D2048F62229D
:0314D600AF6222E0
:10114D00E560C39414500474058014E560C3943CA9
:10115D005004740A8009E560C394E65006741425A2
:08116D0060F5607F6602134B80
:10117500E560D3943C400474EC8014E560D394148A
:10118500400474F68009E560C39405400674FB25A8
:0811950060F5607F6602134B58
:100B6700011A00010800010900010A00010B000237
:100B77001200000214000002160000021800000113
:100B87000E00010F00011000011100010C00010D02
:0A0B970000011B00011C00011D00FD
:0514CC00E4AF1AF51A5F
:0114D10022F8
:10000E00309639E4F512F513E50E6006E4F50E753B
:10001E001A01E50C6021E51B6005E4F51B8015E572
:10002E001C6005E4F51C800CE51D6005E4F51D80E3
:10003E0003751A0BE4F50CE4F5088077E508707388
:10004E00E51B706FE51C706BE51D70670513E513FE
:10005E0070020512D39414E51294004003750E013C
:10006E000513E51370020512D394E8E512940340CC
:10007E0042209711750801750C01E4F50E751B01F0
:10008E00751A0C802E209511750801750C01E4F57A
:10009E000E751C01751A0D801A20941175080175C4
:1000AE000C01E4F50E751D01751A0E8006E4F50EB1
:1000BE00750C01309713E50F6006E4F50F751A0203
:1000CE00E4F509F514F5158046E5097042E50E7064
:1000DE003EE50C703AE51B7036E51C7032E51D707E
:1000EE002E0515E51570020514D39414E51494002D
:1000FE004003750F020515E51570020514D394E83B
:10010E00E51494034009E4F50F750902751A1630CB
:10011E009513E5106006E4F510751A03E4F50AF57B
:10012E0016F5178046E50A7042E50E703EE50C7036
:10013E003AE51B7036E51C7032E51D702E0517E58D
:10014E001770020516D39414E5169400400375102B
:10015E00010517E51770020516D394E8E51694030A
:10016E004009E4F510750A01751A21309412E51153
:10017E006006E4F511751A04E4F50BF518F519226D
:10018E00E50B7042E50E703EE50C703AE51B7036DD
:10019E00E51C7032E51D702E0519E5197002051863
:1001AE00D39414E518940040037511010519E5194F
:1001BE0070020518D394E8E51894034009E4F5118C
:0701CE00750B01751A2C22CC
:03000000020A30C1
:0C0A3000787FE4F6D8FD75816E020A772D
:1001D500E709F608DFFA8046E709F208DFFA803E0C
:1001E50088828C83E709F0A3DFFA8032E309F608F9
:1001F500DFFA8078E309F208DFFA807088828C8361
:10020500E309F0A3DFFA806489828A83E0A3F60814
:10021500DFFA805889828A83E0A3F208DFFA804CEE
:1002250080D280FA80C680D4806980F280338010C5
:1002350080A680EA809A80A880DA80E280CA80332E
:1002450089828A83ECFAE493A3C8C582C8CCC583A6
:10025500CCF0A3C8C582C8CCC583CCDFE9DEE78076
:100265000D89828A83E493A3F608DFF9ECFAA9F0F5
:10027500EDFB2289828A83ECFAE0A3C8C582C8CC4B
:10028500C583CCF0A3C8C582C8CCC583CCDFEADE64
:10029500E880DB89828A83E493A3F208DFF980CCC6
:1002A50088F0EF60010E4E60C388F0ED2402B404BF
:1002B5000050B9F582EB2402B4040050AF23234566
:0602C50082239002257364
:1002CB00F8BB010DE58229F582E5833AF583E8F069
:1002DB00225006E92582C8F622BBFE05E92582C815
:0202EB00F222FD
:1002ED00EF8DF0A4A8F0CF8CF0A428CE8DF0A42E25
:0202FD00FE22DF
:1002FF00BC000BBE0029EF8DF084FFADF022E4CCE3
:10030F00F875F008EF2FFFEE33FEEC33FCEE9DECAB
:10031F00984005FCEE9DFE0FD5F0E9E4CEFD22EDF1
:10032F00F8F5F0EE8420D21CFEADF075F008EF2F3B
:10033F00FFED33FD4007985006D5F0F222C398FD2C
:05034F000FD5F0EA22C9
:10035400EB9FF5F0EA9E42F0E99D42F0EC6480C820
:0603640064809845F022C0
:100A3C00020D2EE493A3F8E493A34003F68001F295
:100A4C0008DFF48029E493A3F85407240CC8C333BB
:100A5C00C4540F4420C8834004F456800146F6DF8A
:100A6C00E4800B0102040810204080900B30E47EDF
:100A7C00019360BCA3FF543F30E509541FFEE4937F
:100A8C00A360010ECF54C025E060A840B8E493A346
:100A9C00FAE493A3F8E493A3C8C582C8CAC583CA71
:100AAC00F0A3C8C582C8CAC583CADFE9DEE780BE29
:010BA1000053
:00000001FF
