:070970000118000213FFFF54
:0614A100E4F513F514222E
:100D9C00E4F536F51812144A120A948F36E4F51558
:100DAC00750D1E121352D2AFE536B4010775151F1F
:100DBC007F68801D7F2C7E011213A5120827121448
:100DCC0080E536B402031208CD851C0B851D0C7F03
:040DDC000A121425BE
:010DE00022F0
:1002B3008F35121480E515D3940A50030203ABE57E
:1002C3003564017039E515B40B1612146C8F0EE505
:1002D3000EB40F05E4F50E8002050EAF0E12127D6B
:1002E300E515B41503121136E515641F6003020406
:1002F30095E51BC394044003020495051B22E535D1
:1003030064027038E515B40B1512146C8F0EE50EEC
:100313007005750E0F8002150EAF0E12127DE515D6
:10032300B4150312115EE515641F6003020495E51D
:100333001BD394005003020495151B22E535B40327
:1003430018E515B41503E4F518E515641F700302E9
:100353000495E4FF121425804BE535640460030221
:100363000495E515B40B031208CDE515B4151DE589
:100373000DD39400400F751801E4F516F51712120A
:10038300E17F018004E4F518FF121425E515B41F7D
:1003930005121264800BE515B429091213DC12133C
:1003A3007D020D9CE4F51522E535B40B0D7515158D
:1003B300E4F51812144A7F66805AE535B40C061228
:1003C300148A020492E535B40D0C12146C8F0E7569
:1003D300150B7F65803EE535B40E0AB2047F051226
:1003E3001425020492E535B416087F04121425027D
:1003F30013B9E535B421047F018007E535B42C0A30
:10040300E4FF1214618E1C8F1D22E535B42208759A
:1004130015297F67021425E535B401157F041214ED
:1004230025E519C3940F506AE51904FF120DE18005
:100433005EE535B402157F04121425E519D3940043
:100443004050E51914FF120DE18044E53564037053
:100453001EE51E603DE51AB51E05E4F51A8002058A
:100463001AAF1A12124A8E0B8F0C120F2E8020E530
:1004730035B4041EE51E601AE51A7005851E1A8040
:1004830002151AAF1A12124A8E0B8F0C120F2E126C
:0304930014A1228F
:100C59001214C180243006121214768F127F0212E8
:100C690014257510037511E8C2061214A78F34E50F
:100C790018B4020AE534B42CDC120D9C80D7E518AF
:100C8900B4011AE50DC39401501375180212144AE0
:100C99001213DCD2A3D2A2D2A1D2A080B8E53460CB
:070CA900B4FF1202B380AE9C
:03000B00020615D5
:10061500C0E0C0F0C083C082C0D075D000C000C0AB
:0D06250001C002C003C004C005C006C0072C
:100632001214BB8F22C3E51494D0E513940F500A11
:100642000514E514701705138013E514B4D00EE5F4
:1006520013B40F091210517513FF7514FF120066BF
:10066200E518C394025042120EED5002803BE5227F
:10067200640A601FE522C39464502E0511E51170CF
:10068200020510C394D0E5109407401D7F0A12148E
:100692002580163004130511E51170020510C3946C
:0F06A200D0E51094074002D206758A66758CFC6D
:1006B100D007D006D005D004D003D002D001D0009D
:0B06C100D0D0D082D083D0F0D0E03247
:0300630002118601
:10118600C0E0C0D0E518B401190517E517700205CF
:1011960016C394B8E516940B4008150D7516007520
:0711A6001700D0D0D0E032A9
:0414B3000000000035
:10097700011B00011905C185C104021C21FC011AD4
:0409870000011E004D
:0410E2008E3A8F3B78
:1010E600783C7C007D007BFF7A1479B37E007F021A
:1010F6001205667B007A00793CAF3BAE3A120E26AB
:06110600E53CFEE53DFFA3
:01110C0022C0
:02124A008F39DA
:10124C00EF75F002A42402FFE5F03406FE1210E262
:07125C008E1C8F1D85391A5D
:011263002268
:10105100E4FFFE121391E519FDE4FFFE121326AD24
:101061001A7F037E001213263004047F0080027F62
:10107100023005047E0180027E00EE4FFD7F047E7A
:041081000002132630
:030060007F0222FA
:101310007F017E061212F9BFFF037F0022EF541CEB
:051320001313543FFF10
:0113250022A5
:101264007F007E06121391120060E51B25E025E045
:091274004FFD7F017E06021326E6
:0B145600AD078D1E7F007E06021326EE
:060D02008F388C398D3A98
:100D0800783D7C007D007BFF7A1479B57E007F02F8
:100D1800120566E539F53D853A3EE53875F002A4D9
:100D2800AEF02402F53CEE3406F53BAD3DAF3CFE9B
:100D38001213267F047E001213A5E53C2401FFE46C
:080D4800353BFEAD3E0213260F
:100A94007F017E061212F98F377F047E001212F94D
:100AA4008F38E537B4FF06E4F51B7F0122E53754A0
:100AB4001C1313543FF51BE4FFFE1212F98F19E5C2
:100AC40019D3940F40047F0180027F00E519C39479
:100AD4000050047E0180027E00EE4F60037519050C
:100AE400E538139205E53830E103C38001D392045D
:100AF4007F007E061212F98F1EE51EF46004E51EC7
:100B040070037F02227F037E001212F98F1A1212E1
:030B14004A7F0015
:010B170022BB
:10137D00751905D205D204E4FFFE1213917F007E8C
:04138D0006021391B0
:0D140B00E4F5C7F5C5F5C675C380F5C4222C
:1013910075C78075C5038FC48EC375C65A75C6A53A
:0413A1000002140B27
:1012F90075C78075C5018FC48EC375C65A75C6A5D5
:0613090000AFC212140B3C
:01130F0022BB
:0A0E26008E3E8F3F8B408A418942C7
:100E300075C78075C501E4FDED7E00253FF544EEE4
:100E4000353EF5438544C4E543F5C375C65A75C6BA
:100E5000A50000AB40AA41A9428D82758300E5C27E
:0A0E600012058C0DBD03D102140B26
:1013260075C78075C5028FC48EC38DC275C65A75C2
:06133600C6A50002140B25
:07149A007F0A7E000213EC43
:0114C1002208
:0F13FC00D2A4D2A512149AC2A412149AC2A52286
:0C143200C2A4D2A512149AD2A402149AEB
:1013CC00EF24FF92A412149AD2A512149AC2A52249
:10133C00D2A412149AD2A512149AA2A49203C2A5F2
:05134C00A203E433FFE1
:011351002279
:02101A008F4203
:10101C00754308AF431543EF601DE54230E704D23A
:10102C00A48002C2A412149AD2A512149AC2A5E5E5
:10103C004225E0F54280DC12133CEF24FF9202A221
:04104C0002E433FF88
:01105000227D
:021085008F409A
:10108700754108E4F542D2A4AF411541EF6017E579
:101097004225E0F542D2A512149A30A4020542C2B5
:0D10A700A512149A80E2AF401213CCAF42A4
:0110B4002219
:0414B7000000000031
:0A098B00C1870661000000000000B3
:060EAC00AD3AAC397F02F3
:060EB2008F3D8C3E8D3FD8
:100EB80078407C007D007BFF7A1479B77E007F0242
:100EC800120566E53EF540E53FF5411213FC7F2229
:100ED80012101AAF3D12101AAF4012101AAF411279
:050EE800101A02143293
:020E6A008F3DBA
:100E6C00783E7C007D007BFF7A1479B97E007F028E
:100E7C001205661213FC7F2212101AAF3D12101AC3
:100E8C001213FC7F2312101AE4FF1210858F3E7F81
:0F0E9C00011210858F3F121432E53EFEE53FFF35
:010EAB002224
:100B1800EF14601214601D1460282403703B756183
:100B2800217562FC801475611D7562B0756323754B
:100B3800648C802575611D7562B075632A75643093
:100B48008017EB600875611975626480067561131A
:100B580075628875631D7564B0ED146011146015B5
:100B68001460192403701B75650075660A22756583
:100B78000075661422756500756605227565007531
:030B8800660222E0
:100F6C00E56645656020E5624561601AE5644563A8
:100F7C0070028012C3EF9562EE95614009D3EF9534
:100F8C0064EE95634004E4FEFF22C3EF9562FFEE2E
:0B0F9C009561FEAC65AD661205C02239
:100FA700E5664565602FE56245616029E56445634F
:100FB70070028021AC65AD661205AEE5622FFFE5D4
:100FC700613EFED3EF9564EE95635009C3EF9562DA
:090FD700EE95615004E4FEFF22D6
:010FE00022EE
:10082700E4F537F53875395F753A1A1213108F3BAF
:100837001200608F3C7D037C007F02120EB27F3274
:100847007E001213A57D057CC07F02120EB27F3297
:100857007E001213A5E53C4238E4E53BB40411439E
:10086700380C753A00533902E4FBAD3C7F03801323
:10087700E53B75F004A4AEF04238EE42377B01AD9C
:100887003CAF3B120B18AF1DAE1C120F6CEF780676
:10089700C333CE33CED8F94238EE4237433810ADA2
:1008A70038AC377F03120EB27488FCE51944A0FDFB
:1008B7007F05120EB2E4FDFC7F06120EB2AD3AAC14
:0608C700397F07020EB2AA
:0D1418007F0A120E6AEE5403FE120FA72287
:100F2E00120F6C8E388F397F03120E6AAD07530580
:100F3E003F7C00E5385403FEE5397806C333CE33E3
:100F4E00CED8F94205EE42044305107F03120EB2CD
:0E0F5E007F0A120E6AEE30E6F77F0A021425B3
:09146C007F05120E6AEE540FFF19
:011475002254
:02127D008F36AA
:10127F007F05120E6AAD07AC065304F0E536FEEE9D
:07128F0042047F05020EB2CC
:020B8B008F38A1
:100B8D007F03120E6A8E398F3A533AEFAD3AAC3974
:100B9D007F03120EB27F02120E6A8E398F3AE5383C
:100BAD00B4010543390280035339FD433901300146
:100BBD0005533A7F8003433A80120EAC7F0A120E22
:100BCD006AEE20E6097F0A7E001213A580EE12144C
:100BDD00188E3B8F3C7F02120E6A8E398F3A533935
:0B0BED00FE433940120EACAE3BAF3CA3
:010BF80022DA
:0B146100EF24FF9208D201120B8B2237
:070003007F0B120E6AEE13E1
:01000A0022D3
:1008CD00E4F537AE61AF628E0B8F0C8E1C8F1DD28F
:1008DD00087F0A121425AF62AE61120F2E7F327E91
:1008ED00001213A5121264C3E51D9564E51C9563F2
:1008FD005037C2017F01120B8B8E1C8F1D7FF47E32
:10090D00011213A57F0A120E6AEE20E51C120003D8
:10091D0050127FF47E011213A5AD1DAC1CAF371222
:10092D000D02053712148080BEE537700EFF1214CC
:10093D0056E4F51CF51DF51AF51E22E537D3940086
:10094D0040021537AF37121456E4F51AFF12124A4A
:10095D008E1C8F1D8E0B8F0CAF0CAE0B120F2E122B
:02096D00105127
:01096F002265
:020DE1008F364B
:100DE300E536D3940F400375360F2007177F0212A1
:100DF3000E6A8E378F38433740AD38AC377F0212D7
:100E03000EB2D2077F05120E6A8E378F385338F031
:100E1300E536540F4238AD38AC377F05120EB28534
:020E230036197E
:010E250022AA
:1013B9007F02120E6AAD07AC065304BFC2077F0253
:0313C900020EB25F
:091476007F0B120E6AEEC313FF96
:01147F00224A
:1013DC007F02120E6AAC06EF54FEFD7F02020EB2C3
:020FE1008F334C
:100FE300C2B47F197E001213ECE4FD74807E00A866
:100FF30005088006CEA2E713CE13D8F8FFE533FB2E
:10100300EF5B24FF92B200D2B400C2B40DBD08DB83
:06101300D2B30000C2B3DD
:0110190022B4
:100995005C000DC0F9A4B0999282F880907F88839D
:1009A500C6A1868E8CC1CE9189C712C8ABF7BF4D43
:1009B5000000407924301912027800107FC789029F
:1009C5000B21FC02100000010F06011200010E00B0
:0C09D500010D1EC18802091F400108002E
:10122F00ED4C600A74002FF582E434008008740DD1
:0B123F002FF582E43400F583E0FF226D
:1006CC007E1CD2A3D2A2D2A1D2A0E508700F8F3289
:1006DC00E532C39E50028001C39200803FE508B40E
:1006EC00010F8D32E532C39E50028001C39200800F
:1006FC002BE508B4020F8B32E532C39E5002800109
:10070C00C392008017E508B40310852F32E532C37D
:10071C009E50028001C392008002C200300043E56B
:10072C00082401FFE433FEEFB5310AEEB530067C48
:10073C00007D0180047C007D00AF3212122F120F5D
:10074C00E1E5087004C2A08019E508B40104C2A157
:10075C008010E508B40204C2A28007E508B40302C5
:0E076C00C2A30508E508D394034003E4F50892
:01077A00225C
:1011AD00300508752E00752F158006752E00752FCC
:1011BD00167530007531FF7BFF7A007DFF7C007F57
:0511CD00171206CC2200
:04077B008E238F2416
:10077F00E52445237015F52E752F10F5307531FFD3
:10078F007B10FA7D10FC7F10020823AE23AF247C70
:10079F00277D101205C08F27AE23AF247C277D1035
:1007AF001205C07E037FE8CFCDCFCECCCE1205C0D1
:1007BF008F26AE23AF247C037DE81205C07E007F19
:1007CF0064CFCDCFCECCCE1205C08F25AE23AF24B4
:1007DF007C007D641205C07E007F0ACFCDCFCECCCA
:1007EF00CE1205C08F28E527C39401E526FD7C00B6
:1007FF00E525FB7A00500F752E008F2F7530007591
:10080F0031037F64800E752E0085282F753000759B
:07081F003103AF271206CCE4
:0108260022AF
:100D5000E50CB51D0AE50BB51C05AF0CFE8039305E
:100D60000819050CE50C7002050BD39430E50B94C3
:100D70002A4021750B21750CFC8019E50C150C70AF
:100D800002150BC3E50C94FCE50B94215006750B82
:0C0D90002A750C30AF0CAE0B12077B2252
:1011D200E51975F00A84FD7C00E51975F00A84E5CD
:1011E200F0FB7A00752E00752FFF7530007531FF08
:0511F2007FFF0206CCA6
:10000E00E51275F06484FFE51275F06484E5F07511
:10001E00F00A84F524E51275F00A8485F023EF606A
:10002E0016FD7C00E524FB7A00752E0085232F75C6
:10003E0030007531FF8015E524FB7A00752E0085A2
:10004E00232F7530007531FF7DFF7C007FFF120678
:01005E00CCD5
:01005F00227E
:1010B500E50E75F00A84A9F0E50E75F06484E5F097
:1010C50075F00A84FB7A00AF01752E008F2F7530FD
:0D10D500007531FF7D197C007F170206CCED
:100CB000E50D75F06484FFE50D75F06484E5F0756D
:100CC000F00A84F524E50D75F00A8485F023EF60C1
:100CD00016FD7C00E524FB7A00752E0085232F7518
:100CE00030007531FF8015E524FB7A00752E0085F4
:100CF000232F7530007531FF7DFF7C007F161206B3
:010D0000CC26
:010D010022CF
:10129600752E00752F1B7530007531FF7B1B7A008C
:0912A6007D1A7C007F1A0206CCBF
:10110D00E51B75F00A84FFE51B75F00A84AEF0EF60
:10111D00FB7A00AF06752E008F2F7530007531FFED
:09112D007DFF7C007F0C0206CC62
:10136800E4F52EF52FF5307531FF7B18FA7DFFFC7B
:051378007FFF0206CC1E
:1012AF00752E00752F1A7530007531FF7B1A7A0075
:0912BF007DFF7C007FFF0206CCDC
:1011F700A204E433752E00F52F7530007531FF7B9F
:0C120700FF7A007DFF7C007F170206CC00
:1012C800752E00752F1B7530007531FF7B1B7A005A
:0912D8007D1B7C007F1B0206CC8B
:100BF900E50FB40A03120D50E50F70031212AFE5A9
:100C09000FB40103121368E50FB4020312000EE5D5
:100C19000FB403031211ADE50FB404031211D2E5A9
:100C29000FB405031211F7E50FB406031212C8E554
:100C39000FB465031210B5E50FB46603120CB0E5E5
:100C49000FB46703121296E50FB4680312110D224F
:08148A007F03121425B20522B4
:0A14800020050675091F750A4022B9
:100EED00200507E50FD394644005120BF98030D32C
:100EFD00E50A940AE5099400400D120BF9E50A156F
:100F0D000A701C15098018E50A64054509600E75FF
:100F1D000900750A05D2A3D2A2D2A1D2A0D322C3B1
:010F2D0022A1
:0D142500E4F510F511E50F6F60028F0F2246
:0314BB00AF0F224E
:10113600E50DC39414500474058014E50DC3943C66
:101146005004740A8009E50DC394E650067414250C
:081156000DF50D7F6602142562
:10115E00E50DD3943C400474EC8014E50DD3941447
:10116E00400474F68009E50DC39405400674FB2512
:08117E000DF50D7F660214253A
:1009E1000160001848000000000000000000000045
:1009F10000000000000000000000000000024601AD
:040A0100900145001B
:0514A700AF60E4F560F8
:0114AC00221D
:10006600E4FFFDED14600E14600F1460102403709D
:1000760014A296800AA2978006A2958002A294E412
:1000860033F5238003752301E5236067ED75F006DC
:10009600A4244AF8E6604DE4F6ED75F006A4244C77
:1000A600F8E6600EE4F6ED75F006A4244DF8E4F6E5
:1000B6008026ED75F006A42448F8E6FA08E6FBD398
:1000C6009414EA94004011D3EB94E8EA94035008A0
:1000D600E5457004ED04F560ED75F006A4244BF8D3
:1000E600E4F67F01ED75F006A42448F8E4F608F678
:1000F600020187ED75F006A4244AF8E67031760110
:10010600ED75F006A42448F8E4F608F6ED75F00659
:10011600A4244CF8E4F6E5456015ED75F006A42434
:100126004DF8E6700AED75F006A4244CF87601ED5C
:1001360075F006A42448F8E6FA08E6C394FFEA94A4
:10014600FF500FED75F006A42448F80806E618706F
:100156000106ED75F006A42448F8E6FA08E6D394FD
:10016600E8EA9403401BED75F006A4244BF8E6700C
:1001760010E545700CED04FE75F00AA42EF56076C8
:10018600010DED64046003020069EF6032E4F54599
:10019600754601754790FFFDED75F006A4244CF8F1
:1001A600E6600D7401A805088002C333D8FC420737
:1001B6000DBD04E4EF6008F545754601754790E40A
:1001C600FFFEFDED75F006A4244AF8E6600E740104
:1001D600A805088002C333D8FC42070E0DBD04E310
:1001E600EEC3940250030202A9E545700A8F4575D5
:1001F60046017547908013C3E54794FFE54694FF93
:1002060050080547E54770020546D3E5479408E5DB
:1002160046940250030202B2E4F9FCFD74017E002A
:10022600A805088005C333CE33CED8F9FFEF554570
:10023600600EE97005ED04F98006EC7003ED04FC30
:100246000DBD04D8E96065EC6062E9C39C5009E91C
:1002560075F00AA42CFF8007EC75F00AA429FF8F1D
:1002660060E4FD74017E00A805088005C333CE3323
:10027600CED8F9FFE545FBEF5B601EED75F006A4F1
:10028600244CF87601ED75F006A4244DF87601EDC0
:1002960075F006A4244BF876010DBD04C6E4F546B8
:0C02A600F54722E4F545754601754790C8
:0102B2002229
:020A0500C10925
:0314BE00A209225E
:101213007F2C7E011213A5D209759850438E01438A
:0C1223008E0475D7E875D6FF438E1022AC
:081492008F993099FDC29922E7
:0614AD00AE0712149222AA
:0B143E000000007F0B7EBEDEFEDFFC26
:011449002280
:1013EC00EF1FAC0670011E4C600500000080F1225E
:1013A500AD07AC06ED1DAE0470011C4E60051214B0
:0413B5003E80F12263
:10135200538E7F5389F0438901758A66758CFCC26E
:061362008DD28CD2A922FD
:1012E1001214BE4012538EFB538EF7E4F5D775D618
:0812F100B8438E1043AF042244
:0C144A001214BE4006538EEF53AFFB227D
:03000000020A08E9
:0C0A0800787FE4F6D8FD758166020A4F85
:10049600E709F608DFFA8046E709F208DFFA803E48
:1004A60088828C83E709F0A3DFFA8032E309F60835
:1004B600DFFA8078E309F208DFFA807088828C839D
:1004C600E309F0A3DFFA806489828A83E0A3F60851
:1004D600DFFA805889828A83E0A3F208DFFA804C2B
:1004E60080D280FA80C680D4806980F28033801002
:1004F60080A680EA809A80A880DA80E280CA80336B
:1005060089828A83ECFAE493A3C8C582C8CCC583E2
:10051600CCF0A3C8C582C8CCC583CCDFE9DEE780B2
:100526000D89828A83E493A3F608DFF9ECFAA9F031
:10053600EDFB2289828A83ECFAE0A3C8C582C8CC87
:10054600C583CCF0A3C8C582C8CCC583CCDFEADEA0
:10055600E880DB89828A83E493A3F208DFF980CC02
:1005660088F0EF60010E4E60C388F0ED2402B404FB
:100576000050B9F582EB2402B4040050AF232345A2
:0605860082239004E673DD
:10058C00F8BB010DE58229F582E5833AF583E8F0A5
:10059C00225006E92582C8F622BBFE05E92582C851
:0205AC00F22239
:1005AE00EF8DF0A4A8F0CF8CF0A428CE8DF0A42E61
:0205BE00FE221B
:1005C000BC000BBE0029EF8DF084FFADF022E4CC1F
:1005D000F875F008EF2FFFEE33FEEC33FCEE9DECE8
:1005E000984005FCEE9DFE0FD5F0E9E4CEFD22ED2E
:1005F000F8F5F0EE8420D21CFEADF075F008EF2F78
:10060000FFED33FD4007985006D5F0F222C398FD68
:050610000FD5F0EA2205
:100A1400020C59E493A3F8E493A34003F68001F293
:100A240008DFF48029E493A3F85407240CC8C333E3
:100A3400C4540F4420C8834004F456800146F6DFB2
:100A4400E4800B0102040810204080900970E47EC9
:100A5400019360BCA3FF543F30E509541FFEE493A7
:100A6400A360010ECF54C025E060A840B8E493A36E
:100A7400FAE493A3F8E493A3C8C582C8CAC583CA99
:100A8400F0A3C8C582C8CAC583CADFE9DEE780BE51
:010A070000EE
:00000001FF
