:08000300D2051212D2C20A223A
:1002B3008F3D121544E518D3940A500302037EE5DB
:1002C3003D64017027E518B40B161215308F0EE547
:1002D3000EB40F05E4F50E8002050EAF0E12136780
:1002E300E518641560030204480211C4E518D394A9
:1002F3000A402CE53D64027026E518B40B1512156F
:10030300308F0EE50E7005750E0F8002150EAF0EC1
:10031300121367E518641560030204480211ECE543
:1003230018D3940A4014E53DB4030FE518B415033C
:10033300E4F51BE4FF1213E1803DE518D3940A5062
:1003430003020448E53D64046003020448E518B46D
:100353000B031206D0E518B4151DE50DD394004028
:100363000F751B01E4F519F51A1214BD7F01800402
:10037300E4F51BFF1213E1E4F51822E53DB40C0389
:1003830002155EE53DB40D0C1215308F0E75180B7A
:100393007F65801DE53DB40B0D751815E4F51B5302
:1003A3008EEF7F66800BE53DB40E09B200D2017F6C
:1003B300050213E1E53DB421047F018007E53DB467
:1003C3002C0AE4FF12151A8E158F1622E53DB4167A
:1003D300087F041213E102123BE53DB4011D7F04C3
:1003E3001213E1E5132401FFE433FEC3EF9410EE8F
:1003F30064809480504FE513048014E53DB40213E8
:100403007F041213E1E513D394004039E51314FF7D
:10041300021262E53DB4030EE514B51705E4F514C5
:10042300801405148010E53DB4041AE514700585A5
:10043300171480021514AF1412134D8E0B8F0C1268
:060443000FFC1200032271
:10111500C206E4F51B120C2B9206E4F518750D1E9C
:10112500120BC11213B2538EEF121544300603028F
:0D11350006D085150B85160C7F0A1213E1FC
:01114200228A
:100DA500801E300B0C12153A8F127F021213E1C20E
:100DB5000B1215748F3CE51BB4020AE53CB42CE21A
:100DC50012111580DDE51BB4011AE50DC394015020
:100DD50013751B02538EEF1214ADD2A3D2A2D2A16A
:100DE500D2A080BEE53C6004FF1202B3300AB31204
:060DF50012D2C20A80AC1C
:03000B000209A740
:1009A700C0E0C0F0C083C082C0D075D000C000C016
:0D09B70001C002C003C004C005C006C00797
:1009C4001200608F22120066E51BC3940250441289
:1009D4000FBB5002803DE522640A6021E522C394E6
:1009E4006450300511E51170020510C394D0E51070
:1009F4009407401F7F0A1213E1D20A8016300013B5
:100A04000511E51170020510C394D0E51094074058
:0B0A140002D20B758A66758C7EC28DC5
:100A1F00D007D006D005D004D003D002D001D0002B
:0B0A2F00D0D0D082D083D0F0D0E032D5
:0300630002121472
:10121400C0E0C0D0E51BB40119051AE51A70020537
:1012240019C394B8E519940B4008150D7519007588
:071234001A00D0D0D0E03217
:0A15040000007F217E42DEFEDFFCC6
:01150E0022BA
:07154E000000007F05DFFE35
:011555002273
:10144F00AD07AC06ED1DAE0470011C4E6005121504
:04145F000480F122F2
:10146300AD07AC06ED1DAE0470011C4E60051215F0
:041473004E80F12294
:0815560000000000000000008D
:100CED00011305C100021521FC011400011700C1FB
:070CFD0005C102C104C101A1
:041170008E458F46D3
:1011740078477C007D007BFF7A1579567E007F02DC
:101184001205197B007A007947AF46AE45120F3538
:06119400E547FEE548FFFF
:01119A002232
:02134D008F44CB
:10134F00EF75F002A42402FFE5F03406FE121170CF
:07135F008E158F1685441462
:011366002264
:1013F8008F3EE4FFFE121477E53EFDE4FFFE121473
:061408000EE53EF5132283
:040E9D008E448F45AB
:100EA10078467C007D007BFF7A1579587E007F02B1
:100EB100120519E544F5468545477F007E02121467
:100EC10077AD467F007E0212140EAD477F017E0290
:100ED10012140EE514F46009AD147402FFFE12142D
:070EE1000E8544158545163E
:010EE80022E7
:1012F6007F007E04121477A203E433FD7F007E0490
:0F13060012140EA200E433FD7F027E0402140EC7
:1012D200300509AF16AE15120E9DC205300207AFDA
:1012E200131213F8C2022004033001071212F6C2CD
:0412F20004C201220F
:071566007F007E06021477EE
:060B53008F448C458D4625
:100B590078497C007D007BFF7A15795A7E007F02F7
:100B6900120519784B7C007D007BFF7A15795C7E34
:100B7900007F02120519E545F54B85464CE544759C
:100B8900F002A4AEF02402F548EE3406F547AD4B69
:100B9900AF48FE12140E7F047E0012144FE548245C
:100BA90001FFE43547FEAD4C12140E7B007A007943
:080BB90049AF48AE47020F35B9
:0B150F00AD078D177F007E0602140E52
:100C2B00E4FFFE1213CA8F13E513D3940F40047F16
:100C3B000180027F00E513C3940050047E01800203
:100C4B007E00EE4F60037513057F007E041213CAFE
:100C5B00EF1392037F027E041213CAEF1392007FED
:100C6B00007E061213CA8F17E517B4FF02D3227F3B
:100C7B00007E021211708E158F167402FFFE121376
:050C8B00CA8F14C32212
:0D14EB00E4F5C7F5C5F5C675C380F5C4224C
:1014770075C78075C5038FC48EC375C65A75C6A553
:04148700000214EB60
:1013CA0075C78075C5018FC48EC375C65A75C6A503
:0613DA0000AFC21214EB8B
:0113E00022EA
:0A0F35008E4D8F4E8B4F8A5089516C
:100F3F0075C78075C501E4FDED7E00254EF553EEB6
:100F4F00354DF5528553C4E552F5C375C65A75C66E
:100F5F00A50000AB4FAA50A9518D82758300E5C241
:0A0F6F0012053F0DBD03D10214EB83
:10140E0075C78075C5028FC48EC38DC275C65A75D9
:06141E00C6A5000214EB5C
:07156D007F0A7E00021463F7
:0F14CD00D2A4D2A512156DC2A412156DC2A5220C
:0C14F800C2A4D2A512156DD2A402156D7D
:10149D00EF24FF92A412156DD2A512156DC2A522CF
:10142400D2A412156DD2A512156DA2A49209C2A55B
:05143400A209E433FFF2
:011439002290
:0210AE008F565B
:1010B000755708AF571557EF601DE55630E704D256
:1010C000A48002C2A412156DD2A512156DC2A5E5A9
:1010D0005625E0F55680DC121424EF24FF9208A276
:0410E00008E433FFEE
:0110E40022E9
:0210E5008F5624
:1010E700755708E4F558D2A4AF571557EF6017E5C1
:1010F7005825E0F558D2A512156D30A4020558C23F
:0D110700A512156D80E2AF5612149DAF5871
:0111140022B8
:04157A00000000006D
:030D0400011C00CF
:06103A008F498C4A8D4B2A
:10104000784C7C007D007BFF7A15797A7E007F02E8
:10105000120519E54AF54CE54BF54D1214CD7F22EA
:101060001210AEAF491210AEAF4C1210AEAF4D120F
:0510700010AE0214F8AF
:020F79008F5394
:100F7B0078547C007D007BFF7A15797C7E007F02A4
:100F8B001205191214CD7F221210AEAF531210AEF0
:100F9B001214CD7F231210AEE4FF1210E58F547F95
:0F0FAB00011210E58F551214F8E554FEE555FFBD
:010FBA002214
:100BC1007D037C007F0212103A7F327E0012144FA7
:100BD1007D057CC07F0212103A7F327E0012144FD5
:100BE100E5162404FFE51534DEFE7C007D0A1205BE
:100BF10073EF7806C333CE33CED8F9AC064410FD7B
:100C01007F0312103A7486FCE51344A0FD7F0512A0
:100C1100103AE4FDFC7F0612103A7D1A7C5F7F07D3
:0A0C210012103A85150B85160C22FF
:0407D5008E498F4A70
:1007D900E4F54BF54CF54DF54EF54FF550F551F562
:1007E900527F03120F797E00EF540C7802CEC313A7
:1007F900CE13D8F9F5528E5145517008754B2175B4
:100809004CFC8024E55264014551700E754B1D75F1
:100819004CB0754D23754E8C803DE55264024551AF
:10082900700E754B1D754CB0754D2A754E3080276D
:10083900E5526403455170647F07120F79EEC313C3
:1008490030E008754B19754C648006754B13754C6F
:1008590088754D1D754EB07F03120F79755100EFE4
:100869005403F55245517007F54F75500A802FE52D
:1008790052640145517007F54F7550148020E552B7
:10088900640245517007F54F7550058011E55264B2
:100899000345517007F54F75500280028018C3E572
:1008A9004A954CE549954B5002800BD3E54A954E44
:1008B900E549954D4004E4FEFF22C3E54A954CFF06
:0C08C900E549954BFEAC4FAD5012057395
:0108D5002200
:0405C8008E478F4883
:1005CC00E4F549F54AF54BF54CF54DF54EF54FF57F
:1005DC00507F03120F797E00EF540C7802CEC313B8
:1005EC00CE13D8F9F5508E4F454F700875492175CB
:1005FC004AFC8024E5506401454F700E75491D7509
:10060C004AB0754B23754C8C803DE5506402454FC8
:10061C00700E75491D754AB0754B2A754C30802784
:10062C00E5506403454F70647F07120F79EEC313D6
:10063C0030E008754919754A648006754913754A86
:10064C0088754B1D754CB07F03120F79754F00EFF9
:10065C005403F550454F7007F54D754E0A802FE544
:10066C00506401454F7007F54D754E148020E550D0
:10067C006402454F7007F54D754E058011E55064C9
:10068C0003454F7007F54D754E028002802DAC4D21
:10069C00AD4EAE47AF48120561E54A2FF550E5491E
:1006AC003EF54FD3E550954CE54F954B4002800BF2
:1006BC00C3E550954AE54F95495004E4FEFF22AE40
:0306CC004FAF50DD
:0106CF002208
:0E14DC00E4FE7F0A120F79EE5403FE1205C8DB
:0114EA0022DF
:100FFC001207D58E478F487F03120F79AD07530523
:10100C003F7C00E5475403FEE5487806C333CE33F6
:10101C00CED8F94205EE42044305107F0312103A74
:0E102C007F0A120F79EE30E6F77F0A0213E119
:091530007F05120F79EE540FFF44
:01153900228F
:021367008F3EB7
:101369007F05120F79AD07AC065304F0E53EFEEE9A
:0713790042047F0502103A57
:020C90008F448F
:100C92007F03120F79AD07AC065305EF7F031210E5
:100CA2003A7F02120F79AC06AD07E544B401054361
:100CB200040280035304FD43040130070553057FFA
:100CC20080034305807F0212103A7F0A120F79EEE9
:100CD20020E6097F0A7E0012144F80EE1214DC8E89
:0A0CE200458F46120FFCAE45AF46E9
:010CEC0022E5
:0B151A00EF24FF920CD207120C90226D
:0A1525007F0B120F79EEFF53070150
:01152F002299
:1006D000E4F53EF53FFE7F03120F797E00EF540CE8
:1006E0007802CEC313CE13D8F9FF4E70087540219F
:1006F0007541FC8020EF64014E700E75401D754100
:10070000B075422375438C803CEF64024E700E75C9
:10071000401D7541B075422A7543308028EF64034F
:100720004E60030207D47F07120F79EEC31330E047
:1007300008754019754164800675401375418875C8
:10074000421D7543B0AE40AF418E0B8F0C8E158F9E
:1007500016D20C7F0A1213E1AF41AE40120FFC7F9C
:10076000327E0012144F121566E51665437004E5DB
:100770001565426035C2077F01120C908E158F16E9
:100780007FF47E0112144F121525EF60187FF47E5E
:100790000112144FAF3FAD16AC15120B53053FE5D8
:1007A0003F7002053E12154480BFE53F153F7002C1
:1007B000153EAF3F12150FE4F514FF12134D8E15C1
:1007C0008F168E0B8F0CAF0CAE0B120FFCAF16AE4C
:0407D00015120E9D53
:0107D4002202
:021262008F3EBD
:101264007F05120F79AD07AC065305F0E53E540F28
:1012740042057F0512103A853E13E51C70057F0177
:031284001213152D
:011287002244
:021315008F3F08
:101317007F02120F79AD07AC06E53F600543044035
:0A13270080035304BF7F0202103A56
:10123B007F02120F79AD07AC06ECC413135403F401
:10124B0054016008430440751C0180065304BFE43D
:07125B00F51C7F0202103AAE
:09153A007F0B120F79EEC313FFC1
:011543002285
:1014AD007F02120F79AC06EF54FEFD7F0202103A57
:021075008F31B9
:10107700C2B47F197E00121463E4FD74807E00A859
:1010870005088006CEA2E713CE13D8F8FFE531FB9B
:10109700EF5B24FF92B200D2B400C2B40DBD08DBEF
:0610A700D2B30000C2B349
:0110AD002220
:10119B00C0F9A4B0999282F880907F8883C6A1860B
:1011AB008E8CC1CE9189C712C8ABF7BF4079243062
:0911BB001912027800107FC789A7
:100D0700020B21FC02100000010F06011200010E68
:0D0D170000010D00C18C02091F4001080001
:10148B00ED4C6007EF9011B793FF22EF90119B93F8
:02149B00FF222E
:10128800300308752C00752D158006752C00752DFA
:1012980016752E00752FFF7BFF7A007DFF7C007F7F
:0512A800171208D62218
:040A3A00AB07AA0656
:100A3E007C277D101205738F257C277D10AF03AEAA
:100A4E00021205737E037FE8CFCDCFCECCCE12053A
:100A5E00738F247C037DE8AF03AE021205737E0014
:100A6E007F64CFCDCFCECCCE1205738F23AE02AF27
:100A7E00037C007D641205737E007F0ACFCDCFCE3E
:100A8E00CCCE1205738F26E525C39401E524FD7C9B
:100A9E0000E523FB7A00500F752C008F2D752E006C
:100AAE00752F037F64800E752C0085262D752E0004
:080ABE00752F03AF251208D6C5
:010AC600220D
:100EE900E50CB5160AE50BB51505AF0CFE803930D2
:100EF9000C19050CE50C7002050BD39430E50B9425
:100F09002A4021750B21750CFC8019E50C150C7014
:100F190002150BC3E50C94FCE50B94215006750BE7
:0C0F29002A750C30AF0CAE0B120A3A22F5
:1012AD00E51375F00A84FD7C00E51375F00A84E5FD
:1012BD00F0FB7A00752C00752DFF752E00752FFF34
:0512CD007FFF0208D6BE
:10000E00E51275F06484FFE51275F06484E5F07511
:10001E00F00A84F524E51275F00A8485F023EF606A
:10002E0016FD7C00E524FB7A00752C0085232D75CA
:10003E002E00752FFF8015E524FB7A00752C0085A8
:10004E00232D752E00752FFF7DFF7C007FFF12087C
:01005E00D6CB
:01005F00227E
:10114300E50E75F00A84A9F0E50E75F06484E5F008
:1011530075F00A84FB7A00AF01752C008F2D752E74
:0D11630000752FFF7D197C007F170208D654
:100DFB00E50D75F06484FFE50D75F06484E5F07521
:100E0B00F00A84F524E50D75F00A8485F023EF6074
:100E1B0016FD7C00E524FB7A00752C0085232D75CF
:100E2B002E00752FFF8015E524FB7A00752C0085AD
:100E3B00232D752E00752FFF7DFF7C007F1612086A
:010E4B00D6D0
:010E4C002283
:10143A00E4F52CF52DF52E752FFF7B18FA7DFFFCB0
:05144A007FFF0208D63F
:10138000752C00752D1A752E00752FFF7B1A7A00AB
:091390007DFF7C007FFF0208D6FE
:10133100A200E433752C00F52D752E00752FFF7B6F
:0C134100FF7A007DFF7C007F170208D6B9
:10139900752C00752D1B752E00752FFF7B1B7A0090
:0913A9007D1B7C007F1B0208D6AD
:100D4900A907E97012C3ED953BE53A6480F8EC64B4
:100D59008098500122C322B90112C3EB953BE53AB1
:100D69006480F8EA648098500122C322B90214C34E
:100D7900E537953BE53A6480F8E53664809850019B
:100D890022C322B90314C3E539953BE53A6480F8D7
:0C0D9900E538648098500122C322C32278
:0A08D6008F278C288D298A2A8B2B8E
:1008E00075301CE527FD7C00852A36852B37852C45
:1008F00038852D39753A0085303BAB29AA28AF08D9
:10090000120D49400E0508E508D3940340D5E4F5DF
:100910000880D0D2A3D2A2D2A1D2A0E508701BE554
:100920002F6401452E7005FC7D0180047C007D0054
:10093000AF2712148B121075C2A0E508B4011BAFCB
:1009400029E52F6402452E7005FC7D0180047C00A2
:100950007D0012148B121075C2A1E508B4021BAF02
:100960002BE52F6403452E7005FC7D0180047C007F
:100970007D0012148B121075C2A2E508B4031BAFE0
:100980002DE52F6404452E7005FC7D0180047C005C
:100990007D0012148B121075C2A30508E508D394CC
:0609A000034003E4F5082A
:0109A600222E
:100E4D00E50FB40A03120EE9E50F7003121380E5E6
:100E5D000FB4010312143AE50FB4020312000EE5AC
:100E6D000FB40303121288E50FB404031212ADE59B
:100E7D000FB40503121331E50FB40603121399E5F0
:100E8D000FB46503121143E50FB46603120DFB2277
:08155E007F031213E1B2032226
:0A15440020030675091F750A4022F6
:100FBB00200307E50FD394644005120E4D8030D308
:100FCB00E50A940AE5099400400D120E4DE50A1549
:100FDB000A701C15098018E50A64054509600E7531
:100FEB000900750A05D2A3D2A2D2A1D2A0D322C3E3
:010FFB0022D3
:1013E100E4F510F511E50F6F600CBF0402D202BFE6
:0713F1000302D2048F0F225A
:03006000AF0F22BD
:1011C400E50DC39414500474058014E50DC3943CD8
:1011D4005004740A8009E50DC394E650067414257E
:0811E4000DF50D7F660213E119
:1011EC00E50DD3943C400474EC8014E50DD39414B9
:1011FC00400474F68009E50DC39405400674FB2584
:08120C000DF50D7F660213E1F0
:100D2400017400185C0000000000000000000000D6
:100D340000000000000000000000000000025A0152
:040D440090015900C1
:05157400E4AF74F57402
:01157900224F
:10006600E4FFFDED14600E14600F1460102403709D
:1000760014A296800AA2978006A2958002A294E412
:1000860033F5238003752301E5236067ED75F006DC
:10009600A4245EF8E6604DE4F6ED75F006A424604F
:1000A600F8E6600EE4F6ED75F006A42461F8E4F6D1
:1000B6008026ED75F006A4245CF8E6FA08E6FBD384
:1000C6009414EA94004011D3EB94E8EA94035008A0
:1000D600E5597004ED04F574ED75F006A4245FF897
:1000E600E4F67F01ED75F006A4245CF8E4F608F664
:1000F600020187ED75F006A4245EF8E670317601FC
:10010600ED75F006A4245CF8E4F608F6ED75F00645
:10011600A42460F8E4F6E5596015ED75F006A4240C
:1001260061F8E6700AED75F006A42460F87601ED34
:1001360075F006A4245CF8E6FA08E6C394FFEA9490
:10014600FF500FED75F006A4245CF80806E618705B
:100156000106ED75F006A4245CF8E6FA08E6D394E9
:10016600E8EA9403401BED75F006A4245FF8E670F8
:1001760010E559700CED04FE75F00AA42EF57476A0
:10018600010DED64046003020069EF6032E4F55985
:10019600755A01755B90FFFDED75F006A42460F8B5
:1001A600E6600D7401A805088002C333D8FC420737
:1001B6000DBD04E4EF6008F559755A01755B90E4CE
:1001C600FFFEFDED75F006A4245EF8E6600E7401F0
:1001D600A805088002C333D8FC42070E0DBD04E310
:1001E600EEC3940250030202A9E559700A8F5975AD
:1001F6005A01755B908013C3E55B94FFE55A94FF43
:100206005008055BE55B7002055AD3E55B9408E58B
:100216005A940250030202B2E4F9FCFD74017E0016
:10022600A805088005C333CE33CED8F9FFEF55595C
:10023600600EE97005ED04F98006EC7003ED04FC30
:100246000DBD04D8E96065EC6062E9C39C5009E91C
:1002560075F00AA42CFF8007EC75F00AA429FF8F1D
:1002660074E4FD74017E00A805088005C333CE330F
:10027600CED8F9FFE559FBEF5B601EED75F006A4DD
:100286002460F87601ED75F006A42461F87601ED98
:1002960075F006A4245FF876010DBD04C6E4F55A90
:0C02A600F55B22E4F559755A01755B9078
:0102B2002229
:1013B200438E805389F0438901758A66758C7EC29B
:0813C2008DD28CD2A9D2AF221A
:1014BD00538EFBE4F5D775D628438E1043AF042227
:03000000020AC72A
:0C0AC700787FE4F6D8FD758174020B0EF8
:10044900E709F608DFFA8046E709F208DFFA803E95
:1004590088828C83E709F0A3DFFA8032E309F60882
:10046900DFFA8078E309F208DFFA807088828C83EA
:10047900E309F0A3DFFA806489828A83E0A3F6089E
:10048900DFFA805889828A83E0A3F208DFFA804C78
:1004990080D280FA80C680D4806980F2803380104F
:1004A90080A680EA809A80A880DA80E280CA8033B8
:1004B90089828A83ECFAE493A3C8C582C8CCC58330
:1004C900CCF0A3C8C582C8CCC583CCDFE9DEE78000
:1004D9000D89828A83E493A3F608DFF9ECFAA9F07F
:1004E900EDFB2289828A83ECFAE0A3C8C582C8CCD5
:1004F900C583CCF0A3C8C582C8CCC583CCDFEADEEE
:10050900E880DB89828A83E493A3F208DFF980CC4F
:1005190088F0EF60010E4E60C388F0ED2402B40448
:100529000050B9F582EB2402B4040050AF232345EF
:0605390082239004997377
:10053F00F8BB010DE58229F582E5833AF583E8F0F2
:10054F00225006E92582C8F622BBFE05E92582C89E
:02055F00F22286
:10056100EF8DF0A4A8F0CF8CF0A428CE8DF0A42EAE
:02057100FE2268
:10057300BC000BBE0029EF8DF084FFADF022E4CC6C
:10058300F875F008EF2FFFEE33FEEC33FCEE9DEC35
:10059300984005FCEE9DFE0FD5F0E9E4CEFD22ED7B
:1005A300F8F5F0EE8420D21CFEADF075F008EF2FC5
:1005B300FFED33FD4007985006D5F0F222C398FDB6
:0505C3000FD5F0EA2253
:100AD300020DA5E493A3F8E493A34003F68001F287
:100AE30008DFF48029E493A3F85407240CC8C33324
:100AF300C4540F4420C8834004F456800146F6DFF3
:100B0300E4800B0102040810204080900CEDE47E89
:100B1300019360BCA3FF543F30E509541FFEE493E7
:100B2300A360010ECF54C025E060A840B8E493A3AE
:100B3300FAE493A3F8E493A3C8C582C8CAC583CAD9
:100B4300F0A3C8C582C8CAC583CADFE9DEE780BE91
:010D480000AA
:00000001FF
