:08000300D205121333C20A22D8
:10039E008F3D1215CFE518D3940A5003020469E578
:1003AE003D64017027E518B40B161215BB8F0EE5D0
:1003BE000EB40F05E4F50E8002050EAF0E121404F6
:1003CE00E5186415600302053302124BE518D39449
:1003DE000A402CE53D64027026E518B40B15121583
:1003EE00BB8F0EE50E7005750E0F8002150EAF0E4B
:1003FE00121404E51864156003020533021273E546
:10040E0018D3940A4014E53DB4030FE518B4150350
:10041E00E4F51BE4FF12147E803DE518D3940A50D8
:10042E0003020533E53D64046003020533E518B4A9
:10043E000B0312079AE518B4151DE50DD394004071
:10044E000F751B01E4F519F51A1215487F0180048A
:10045E00E4F51BFF12147EE4F51822E53DB40C03FF
:10046E000215E9E53DB40D0C1215BB8F0E75180B78
:10047E007F65801DE53DB40B0D751815E4F51B5316
:10048E008EEF7F66800BE53DB40E09B200D2017F80
:10049E000502147EE53DB421047F018007E53DB4DD
:1004AE002C0AE4FF1215A58E158F1622E53DB41603
:1004BE00087F0412147E0212C2E53DB4011D7F04B2
:1004CE0012147EE5132401FFE433FEC3EF9410EE05
:1004DE0064809480504FE513048014E53DB40213FC
:1004EE007F0412147EE513D394004039E51314FFF4
:1004FE00021357E53DB4030EE514B51705E4F514E4
:10050E00801405148010E53DB4041AE514700585B9
:10051E00171480021514AF141213EA8E0B8F0C12DF
:06052E0010A212000322DE
:10115400C206E4F51B538EEF120CED9206E4F5186B
:10116400750D1E120C8612144F7F2C7E011214EC86
:10117400120C1C1215CF30060302079A85150B8535
:07118400160C7F0A12147E15
:01118B002241
:100DAE00800F1215FF8F3CE51BB4020AE53CB42CF4
:100DBE00F112115480EC300B0C1215C58F127F02FC
:100DCE0012147EC20BE51BB4011AE50DC39401503B
:100DDE0013751B02538EEF121538D2A3D2A2D2A1D5
:100DEE00D2A080BEE53C6004FF12039E300AB3120F
:060DFE001333C20A80ACB1
:03000B00020927C0
:10092700C0E0C0F0C083C082C0D075D000C000C096
:0D09370001C002C003C004C005C006C00717
:100944001200608F22120066E51BC3940250441209
:1009540010615002803DE522640A6021E522C394BF
:100964006450300511E51170020510C394D0E510F0
:100974009407401F7F0A12147ED20A801630001397
:100984000511E51170020510C394D0E510940740D9
:0B09940002D20B758A66758C7EC28D46
:10099F00D007D006D005D004D003D002D001D000AC
:0B09AF00D0D0D082D083D0F0D0E03256
:0300630002129BEB
:10129B00C0E0C0D0E51BB40119051AE51A700205B0
:1012AB0019C394B8E519940B4008150D7519007501
:0712BB001A00D0D0D0E03290
:0A158F0000007F217E42DEFEDFFC3B
:01159900222F
:0715D9000000007F05DFFEAA
:0115E00022E8
:1014EC00AD07AC06ED1DAE0470011C4E6005121567
:0414FC008F80F122CA
:10150000AD07AC06ED1DAE0470011C4E6005121552
:04151000D980F1226B
:0815E100000000000000000002
:100BB200011305C100021521FC011400011700C137
:070BC20005C102C104C101DD
:041220008E478F481E
:1012240078497C007D007BFF7A1579E17E007F029E
:101234001206047B007A007949AF48AE47120FDBEF
:06124400E549FEE54AFF4A
:01124A002281
:0213EA008F462C
:1013EC00EF75F002A42402FFE5F03406FE12122081
:0713FC008E158F16854614C3
:0114030022C6
:101495008F3EE4FFFE121514E53EFDE4FFFE121437
:0614A500ABE53EF5132249
:040F43008E468F4700
:100F470078487C007D007BFF7A1579E37E007F027D
:100F5700120604E546F5488547497F007E021215CB
:100F670014AD487F007E021214ABAD497F017E02AB
:100F77001214ABE514F46009AD147402FFFE1214E9
:070F8700AB854615854716F6
:010F8E002240
:101378007F007E04121514A203E433FD7F007E046F
:0F1388001214ABA200E433FD7F027E040214AB0B
:10133300300509AF16AE15120F43C205300207AFD1
:1013430013121495C202200403300107121378C24A
:0413530004C20122AD
:0715F1007F007E06021514C5
:060B44008F468C478D482E
:100B4A00784B7C007D007BFF7A1579E57E007F0279
:100B5A00120604784D7C007D007BFF7A1579E77ECA
:100B6A00007F02120604E547F54D85484EE54675B5
:100B7A00F002A4AEF02402F54AEE3406F549AD4D72
:100B8A00AF4AFE1214AB7F047E001214ECE54A242D
:100B9A0001FFE43549FEAD4E1214AB7B007A0079B1
:080BAA004BAF4AAE49020FDB1C
:0B159A00AD078D177F007E060214AB2A
:100CED00E4FFFE1214678F13E513D3940F40047FB6
:100CFD000180027F00E513C3940050047E01800241
:100D0D007E00EE4F60037513057F007E041214679D
:100D1D00EF1392037F027E04121467EF1392007F8C
:100D2D00007E061214678F17E517B4FF02D3227FDA
:100D3D00007E021212208E158F167402FFFE121401
:050D4D00678F14C322B2
:0D157600E4F5C7F5C5F5C675C380F5C422C0
:1015140075C78075C5038FC48EC375C65A75C6A5B5
:041524000002157636
:1014670075C78075C5018FC48EC375C65A75C6A565
:0614770000AFC212157661
:01147D00224C
:0A0FDB008E4F8F508B518A528953BC
:100FE50075C78075C501E4FDED7E002550F555EE0C
:100FF500354FF5548555C4E554F5C375C65A75C6C0
:10100500A50000AB51AA52A9538D82758300E5C294
:0A10150012062A0DBD03D102157664
:1014AB0075C78075C5028FC48EC38DC275C65A753C
:0614BB00C6A50002157633
:0715F8007F0A7E00021500CE
:0F155800D2A4D2A51215F8C2A41215F8C2A5226A
:0C158300C2A4D2A51215F8D2A40215F8DB
:10152800EF24FF92A41215F8D2A51215F8C2A5222D
:1014C100D2A41215F8D2A51215F8A2A49209C2A5A8
:0514D100A209E433FF55
:0114D60022F3
:02118C008F6270
:10118E00756308AF631563EF601DE56230E704D247
:10119E00A48002C2A41215F8D2A51215F8C2A5E5B4
:1011AE006225E0F56280DC1214C1EF24FF9208A2E2
:0411BE0008E433FF0F
:0111C200220A
:0211C3008F6239
:1011C500756308E4F564D2A4AF631563EF6017E5B2
:1011D5006425E0F564D2A51215F830A4020564C2B1
:0D11E500A51215F880E2AF62121528AF6464
:0111F20022DA
:0416050000000000E1
:030BC900011C000C
:10086400E4F555F556F557F558F559F55A7F031241
:10087400101F7E00EF540C7802CEC313CE13D8F9A8
:10088400F55C8E5B7F0312101F755D00EF5403F55A
:100894005EE55B7054E55C14601214601D146028FE
:1008A400240370787555217556FC801475551D7593
:1008B40056B075572375588C803175551D7556B0D3
:1008C40075572A75583080237F0712101FEEC31303
:1008D40030E00875551975566480067555137556BC
:1008E4008875571D7558B080028031E55D702DE51F
:1008F4005E14601214601714601C2403701E755972
:1009040000755A0A8016755900755A14800E755967
:1009140000755A058006755900755A027B007A00E5
:02092400795503
:0109260022AE
:0610E0008F4D8C4E8D4F78
:1010E60078507C007D007BFF7A1679057E007F02B2
:1010F600120604E54EF550E54FF5511215587F22BC
:1011060012118CAF4D12118CAF5012118CAF5112BF
:05111600118C0215839D
:02101F008F5FE1
:1010210078607C007D007BFF7A1679077E007F0265
:101031001206041215587F2212118CAF5F12118C07
:101041001215587F2312118CE4FF1211C38F607F98
:0F105100011211C38F61121583E560FEE561FF87
:01106000226D
:100C1C007D037C007F021210E07F327E001214EC08
:100C2C007D057CC07F021210E07F327E001214EC36
:100C3C00E5162404FFE51534DEFE7C007D0A120661
:100C4C005EEF7806C333CE33CED8F9AC064410FD34
:100C5C007F031210E07486FCE51344A0FD7F05129F
:100C6C0010E0E4FDFC7F061210E07D1A7C5F7F072C
:0A0C7C001210E085150B85160C22FE
:040E56008E4D8F4EE0
:100E5A00120864784F7C007D007E007F061206042B
:100E6A00E550454F7009E55245517003FEFF22C314
:100E7A00E54E9550E54D954F400BD3E54E9552E51D
:100E8A004D95514004E4FEFF22C3E54E9550FFE51F
:0B0E9A004D954FFEAC53AD5412065EA8
:010EA500222A
:040EF6008E4B8F4C44
:100EFA00120864784D7C007D007E007F061206048D
:100F0A00E54E454D7009E550454F7003FEFF22AC92
:100F1A0051AD52AE4BAF4C12064CE54E2FFFE54D8C
:100F2A003EFED3EF9550EE954F5009C3EF954EEE26
:080F3A00954D5004E4FEFF2276
:010F4200228C
:0E156700E4FE7F0A12101FEE5403FE120EF671
:011575002253
:1010A200120E568E4B8F4C7F0312101FAD07530545
:1010B2003F7C00E54B5403FEE54C7806C333CE3348
:1010C200CED8F94205EE42044305107F031210E028
:0E10D2007F0A12101FEE30E6F77F0A02147E2E
:0915BB007F0512101FEE540FFF12
:0115C4002204
:021404008F3E19
:101406007F0512101FAD07AC065304F0E53EFEEE55
:0714160042047F050210E013
:020AD3008F464C
:100AD500E4F549F54A7F0312101FAD07AC0653052F
:100AE500EF7F031210E07F0212101FAC06AD07E581
:100AF50046B4010543040280035304FD4304013059
:100B0500070553057F80034305807F021210E07FB0
:100B15000A12101FEE20E6187F0A7E001214EC055B
:100B25004AE54A70020549D394C8E549940040DF77
:0E0B35001215678E478F481210A2AE47AF48C8
:010B4300228F
:0B15A500EF24FF920CD207120AD322A1
:0A15B0007F0B12101FEEFF5307011E
:0115BA00220E
:10079A00E4F53EF53F12086478407C007D007E0057
:1007AA007F06120604E54145407009E5434542705B
:1007BA0003020863AE40AF418E0B8F0C8E158F1665
:1007CA00D20C7F0A12147EAF41AE401210A27F32C1
:1007DA007E001214EC1215F1E51665437004E51556
:1007EA0065426040C2077F01120AD38E158F167FB9
:1007FA00C87E001214EC1215B0EF6023121567EFD1
:10080A00B5161CEEB515187F2C7E011214ECAF3FFD
:10081A00AD16AC15120B44053FE53F7002053E12BA
:10082A0015CF80B4D3E53F9400E53E94004008E537
:10083A003F153F7002153EAF3F12159AE4F514FFBB
:10084A001213EA8E158F168E0B8F0CAF0CAE0B128D
:09085A0010A2AF16AE15120F43F7
:010863002272
:021357008F3EC7
:101359007F0512101FAD07AC065305F0E53E540F8B
:0F13690042057F051210E0853E137F01021397A6
:021397008F3F86
:101399007F0212101FAD07AC06E53F60054304400C
:0A13A90080035304BF7F020210E02E
:1012C2007F0212101FAD07AC06ECC413135403F4D3
:1012D20054016008430440751C0180065304BFE4B6
:0712E200F51C7F020210E081
:0915C5007F0B12101FEEC313FF8F
:0115CE0022FA
:101538007F0212101FAC06EF54FEFD7F020210E07E
:02111B008F3112
:10111D00C2B47F197E00121500E4FD74807E00A814
:10112D0005088006CEA2E713CE13D8F8FFE531FBF4
:10113D00EF5B24FF92B200D2B400C2B40DBD08DB48
:06114D00D2B30000C2B3A2
:011153002279
:100BCC005C000DC0F9A4B0999282F880907F888364
:100BDC00C6A1868E8CC1CE9189C712C8ABF7BF4D0A
:100BEC000000407924301912027800107FC7890266
:100BFC000B21FC02100000010F06011200010E0077
:0C0C0C00010D00C18C02091F400108000E
:1013CF00ED4C600A74002FF582E434008008740D30
:0B13DF002FF582E43400F583E0FF22CC
:1012E900300308752C00752D158006752C00752D99
:1012F90016752E00752FFF7BFF7A007DFF7C007F1E
:05130900171206C922C5
:0409BA00AB07AA06D7
:1009BE007C277D1012065E8F257C277D10AF03AE3F
:1009CE000212065E7E037FE8CFCDCFCECCCE1206CE
:1009DE005E8F247C037DE8AF03AE0212065E7E00BE
:1009EE007F64CFCDCFCECCCE12065E8F23AE02AFBC
:1009FE00037C007D6412065E7E007F0ACFCDCFCED3
:100A0E00CCCE12065E8F26E525C39401E524FD7C2F
:100A1E0000E523FB7A00500F752C008F2D752E00EC
:100A2E00752F037F64800E752C0085262D752E0084
:080A3E00752F03AF251206C954
:010A4600228D
:100F8F00E50CB5160AE50BB51505AF0CFE8039302B
:100F9F000C19050CE50C7002050BD39430E50B947E
:100FAF002A4021750B21750CFC8019E50C150C706E
:100FBF0002150BC3E50C94FCE50B94215006750B41
:0C0FCF002A750C30AF0CAE0B1209BA22D0
:10130E00E51375F00A84FD7C00E51375F00A84E59B
:10131E00F0FB7A00752C00752DFF752E00752FFFD2
:05132E007FFF0206C96B
:10000E00E51275F06484FFE51275F06484E5F07511
:10001E00F00A84F524E51275F00A8485F023EF606A
:10002E0016FD7C00E524FB7A00752C0085232D75CA
:10003E002E00752FFF8015E524FB7A00752C0085A8
:10004E00232D752E00752FFF7DFF7C007FFF12067E
:01005E00C9D8
:01005F00227E
:1011F300E50E75F00A84A9F0E50E75F06484E5F058
:1012030075F00A84FB7A00AF01752C008F2D752EC3
:0D12130000752FFF7D197C007F170206C9B2
:100E0400E50D75F06484FFE50D75F06484E5F07517
:100E1400F00A84F524E50D75F00A8485F023EF606B
:100E240016FD7C00E524FB7A00752C0085232D75C6
:100E34002E00752FFF8015E524FB7A00752C0085A4
:100E4400232D752E00752FFF7DFF7C007F16120663
:010E5400C9D4
:010E5500227A
:1014D700E4F52CF52DF52E752FFF7B18FA7DFFFC13
:0514E7007FFF0206C9B1
:10141D00752C00752D1A752E00752FFF7B1A7A000D
:09142D007DFF7C007FFF0206C96F
:1013B300A200E433752C00F52D752E00752FFF7BED
:0C13C300FF7A007DFF7C007F170206C946
:10143600752C00752D1B752E00752FFF7B1B7A00F2
:091446007D1B7C007F1B0206C91E
:100D5200A907E97012C3ED953BE53A6480F8EC64AB
:100D62008098500122C322B90112C3EB953BE53AA8
:100D72006480F8EA648098500122C322B90214C345
:100D8200E537953BE53A6480F8E536648098500192
:100D920022C322B90314C3E539953BE53A6480F8CE
:0C0DA200E538648098500122C322C3226F
:0A06C9008F278C288D298A2A8B2B9D
:1006D30075301CE527FD7C00852A36852B37852C54
:1006E30038852D39753A0085303BAB29AA28AF08E8
:1006F300120D52400E0508E508D3940340D5E4F5E6
:100703000880D0D2A3D2A2D2A1D2A0E508701BE563
:100713002F6401452E7005FC7D0180047C007D0063
:10072300AF271213CF12111BC2A0E508B4011BAFF0
:1007330029E52F6402452E7005FC7D0180047C00B1
:100743007D001213CF12111BC2A1E508B4021BAF27
:100753002BE52F6403452E7005FC7D0180047C008E
:100763007D001213CF12111BC2A2E508B4031BAF05
:100773002DE52F6404452E7005FC7D0180047C006B
:100783007D001213CF12111BC2A30508E508D394F1
:06079300034003E4F50839
:01079900223D
:100EA600E50FB40A03120F8FE50F700312141DE548
:100EB6000FB401031214D7E50FB4020312000EE5B6
:100EC6000FB403031212E9E50FB4040312130EE57F
:100ED6000FB405031213B3E50FB40603121436E577
:100EE6000FB465031211F3E50FB46603120E042264
:0815E9007F0312147EB20322FD
:0A15CF0020030675091F750A40226B
:10106100200307E50FD394644005120EA68030D308
:10107100E50A940AE5099400400D120EA6E50A1549
:101081000A701C15098018E50A64054509600E758A
:101091000900750A05D2A3D2A2D2A1D2A0D322C33C
:0110A100222C
:10147E00E4F510F511E50F6F600CBF0402D202BF48
:07148E000302D2048F0F22BC
:03006000AF0F22BD
:10124B00E50DC39414500474058014E50DC3943C50
:10125B005004740A8009E50DC394E65006741425F6
:08126B000DF50D7F6602147EF3
:10127300E50DD3943C400474EC8014E50DD3941431
:10128300400474F68009E50DC39405400674FB25FC
:081293000DF50D7F6602147ECB
:030C1800011D00BB
:0515FF00E4AF1DF51D25
:0116040022C3
:10006600E4FFFDED14600E14600F1460102403709D
:1000760014A296800AA2978006A2958002A294E412
:1000860033F5238003752301E5237003020141ED57
:1000960075F006A4242CF582E43400F583E07003A1
:1000A60002012CED75F006A4242CF582E43400F54B
:1000B60083E4F0ED75F006A4242EF582E43400F511
:1000C60083E06022ED75F006A4242EF582E4340068
:1000D600F583E4F0ED75F006A4242FF582E43400F0
:1000E600F583E4F0802EED75F006A42430F582E465
:1000F6003400F583E0FAA3E0FBD39414EA940040BD
:1001060013D3EB94E8EA9403500A900029E07004B4
:10011600ED04F51DED75F006A4242DF582E43400FA
:10012600F583E4F07F01ED75F006A42430F582E452
:100136003400F583E4F0A3F0020228ED75F006A47E
:10014600242CF582E43400F583E0705BED75F0064F
:10015600A4242CF582E43400F5837401F0ED75F0E7
:1001660006A42430F582E43400F583E4F0A3F0ED30
:1001760075F006A4242EF582E43400F583E4F090AD
:100186000029E06022ED75F006A4242FF582E43400
:1001960000F583E07011ED75F006A4242EF582E4D7
:1001A6003400F5837401F0ED75F006A42430F58271
:1001B600E43400F583E0FAA3E0C394FFEA94FF5029
:1001C60015ED75F006A42430F582E43400F583E4D9
:1001D60075F0011206B3ED75F006A42430F582E43D
:1001E6003400F583E0FAA3E0D394E8EA94034032BE
:1001F600ED75F006A4242DF582E43400F583E07055
:1002060021900029E0701BED04FE75F00AA42EF57E
:100216001DED75F006A4242DF582E43400F58374F3
:1002260001F00DED64046003020069EF6040E490A4
:100236000029F0A304F0A37490F0E4FFFDED75F03F
:1002460006A4242EF582E43400F583E0600D7401E3
:10025600A805088002C333D8FC42070DBD04DEEFB3
:10026600600C900029F0A37401F0A37490F0E4FFF1
:10027600FEFDED75F006A4242CF582E43400F5832A
:10028600E0600E7401A805088002C333D8FC42075B
:100296000E0DBD04DDEEC3940250030203919000DF
:1002A60029E0700CEFF0A37401F0A37490F0801BAA
:1002B600C390002BE094FF90002AE094FF500CA31B
:1002C600E004F0700690002AE004F0D390002BE0E2
:1002D600940890002AE09402500302039DE4F9FC7E
:1002E600FD74017E00A805088005C333CE33CED841
:1002F600F9FF900029E0FBEF5B600EE97005ED0465
:10030600F98006EC7003ED04FC0DBD04D4E970031E
:1003160002039DEC700302039DE9C39C5009E97535
:10032600F00AA42CFF8007EC75F00AA429FF8F1DA4
:10033600E4FD74017E00A805088005C333CE33CEE4
:10034600D8F9FF900029E0FBEF5B6033ED75F0060E
:10035600A4242EF582E43400F5837401F0ED75F0E3
:1003660006A4242FF582E43400F5837401F0ED75BC
:10037600F006A4242DF582E43400F5837401F00D13
:10038600BD04AFE490002AF0A3F022E4900029F027
:07039600A304F0A37490F032
:01039D00223D
:100C860090002A7401F0A37490F0E4900029F0FF1C
:100C9600EF75F006A4242CF582E43400F583E4F025
:100CA600EF75F006A4242DF582E43400F583E4F014
:100CB600EF75F006A4242EF582E43400F583E4F003
:100CC600EF75F006A4242FF582E43400F583E4F0F2
:100CD600EF75F006A42430F582E43400F583E4F0E1
:060CE600A3F00FBF04AAF9
:010CEC0022E5
:10144F00438E805389F0438901758A66758C7EC2FD
:08145F008DD28CD2A9D2AF227C
:10154800538EFBE4F5D775D628438E1043AF04229B
:03000000020A47AA
:0C0A4700787FE4F6D8FD758164020A8E09
:10053400E709F608DFFA8046E709F208DFFA803EA9
:1005440088828C83E709F0A3DFFA8032E309F60896
:10055400DFFA8078E309F208DFFA807088828C83FE
:10056400E309F0A3DFFA806489828A83E0A3F608B2
:10057400DFFA805889828A83E0A3F208DFFA804C8C
:1005840080D280FA80C680D4806980F28033801063
:1005940080A680EA809A80A880DA80E280CA8033CC
:1005A40089828A83ECFAE493A3C8C582C8CCC58344
:1005B400CCF0A3C8C582C8CCC583CCDFE9DEE78014
:1005C4000D89828A83E493A3F608DFF9ECFAA9F093
:1005D400EDFB2289828A83ECFAE0A3C8C582C8CCE9
:1005E400C583CCF0A3C8C582C8CCC583CCDFEADE02
:1005F400E880DB89828A83E493A3F208DFF980CC64
:1006040088F0EF60010E4E60C388F0ED2402B4045C
:100614000050B9F582EB2402B4040050AF23234503
:060624008223900584739F
:10062A00F8BB010DE58229F582E5833AF583E8F006
:10063A00225006E92582C8F622BBFE05E92582C8B2
:02064A00F2229A
:10064C00EF8DF0A4A8F0CF8CF0A428CE8DF0A42EC2
:02065C00FE227C
:10065E00BC000BBE0029EF8DF084FFADF022E4CC80
:10066E00F875F008EF2FFFEE33FEEC33FCEE9DEC49
:10067E00984005FCEE9DFE0FD5F0E9E4CEFD22ED8F
:10068E00F8F5F0EE8420D21CFEADF075F008EF2FD9
:10069E00FFED33FD4007985006D5F0F222C398FDCA
:0506AE000FD5F0EA2267
:1006B300C5F0F8A3E028F0C5F0F8E58215827002D2
:0606C3001583E038F0226F
:100A5300020DAEE493A3F8E493A34003F68001F2FE
:100A630008DFF48029E493A3F85407240CC8C333A4
:100A7300C4540F4420C8834004F456800146F6DF73
:100A8300E4800B0102040810204080900BB2E47E46
:100A9300019360BCA3FF543F30E509541FFEE49368
:100AA300A360010ECF54C025E060A840B8E493A32F
:100AB300FAE493A3F8E493A3C8C582C8CAC583CA5A
:100AC300F0A3C8C582C8CAC583CADFE9DEE780BE12
:010C1B0000D8
:00000001FF
