:08000300D2031211C3C207224F
:10036A008F311213DFE561D3940A5003020431E599
:10037A003164017027E561B40B161213CB8F55E572
:10038A0055B40F05E4F55580020555AF55121218FC
:10039A00E561641560030204F9021101E561D39471
:1003AA000A402CE53164027026E561B40B1512137C
:1003BA00CB8F55E555700575550F80021555AF550C
:1003CA00121218E561641560030204F9021129E5A5
:1003DA0061D3940A4014E531B4030FE561B41503FF
:1003EA00E4F562E4FF1212798039E561D3940A5088
:1003FA00030204F9E531640460030204F9E561B417
:10040A000B03120602E561B41519E554D3940040B2
:10041A000A7F011212797562018008E4FF121279CB
:10042A00E4F562E4F56122E531B40C030213FBE55D
:10043A0031B40B0A756115E4F5627F66801DE531FA
:10044A00B40D0C1213CB8F5575610B7F65800CE5CB
:10045A0031B40E0A1213D58F597F02021279E5318F
:10046A00B421047F018007E531B42C0AE4FF12139A
:10047A00B58E5C8F5D22E531B416087F04121279BD
:10048A00021151E531B4011D7F04121279E55A2493
:10049A0001FFE433FEC3EF9410EE64809480504F62
:1004AA00E55A048014E531B402137F04121279E587
:1004BA005AD394004039E55A14FF021178E531B451
:1004CA00030EE55BB55E05E4F55B8014055B801001
:1004DA00E531B4041AE55B7005855E5B8002155B45
:1004EA00AF5B1211FE8E528F53120F21120003229C
:100F9100E4F561F562F554120C461213DF12124AA0
:100FA1007F087E001212E7120B83EF600512060222
:100FB100800D855C52855D53AF5DAE5C120F21AF34
:040FC1005A02117847
:100DD600800F1214178F30E562B4020AE530B42C86
:100DE600F1120F9180ECE562B40117E554C394014A
:100DF6005010756202121358D2A3D2A2D2A1D2A069
:100E060080D0E5306004FF12036A3007C51211C3B3
:040E1600C20780BED1
:03000B000208FDEB
:1008FD00C0E0C0F0C083C082C0D075D000C000C0C1
:0D090D0001C002C003C004C005C006C00741
:10091A00E562C39402500312108012000E1213E90A
:10092A0050180557E55770020556C394D0E55694FA
:10093A000740077F0A121279D207E562B40122053D
:10094A0060E5607002055FFFAE5FE4FCFD7B607AE4
:10095A00EAF9F8C312035450081554755F0075601C
:09096A0000758A88758C96C28D17
:10097300D007D006D005D004D003D002D001D000D8
:0B098300D0D0D082D083D0F0D0E03282
:0A139F0000007F217E42DEFEDFFC2D
:0113A9002221
:05141100007F04DFFE76
:0114160022B3
:1012E700AD07AC06ED1DAE0470011C4E6005121370
:0412F7009F80F122C1
:031421000212E7CD
:1012FB00AD07AC06ED1DAE0470011C4E600512145B
:04130B001180F1223A
:10124A00438E805389F0438901758A88758C96C2CA
:08125A008DD28CD2A9D2AF2283
:0813F3000000000000000000F2
:100B1500015A05025C21FC015B00015E00C103C1B5
:030B250000C1020A
:0410AD008E398F3AAF
:1010B100783B7C007D007BFF7A1379F37E007F0211
:1010C1001202A57B007A00793BAF3AAE39120E1AB3
:0610D100E53BFEE53CFFDB
:0110D70022F6
:0211FE008F3828
:10120000EF75F002A42402FFE5F03406FE1210ADE3
:071210008E5C8F5D85385BE9
:0112170022B4
:101290008F32E4FFFE12130FE532FDE4FFFE12125F
:0612A000A6E532F55A221A
:040D3E008E388F3923
:100D4200783A7C007D007BFF7A1379F57E007F0282
:100D52001202A5E538F53A85393B7F007E0212136F
:100D62000FAD3A7F007E021212A6AD3B7F017E02DA
:100D72001212A6E55BF46009AD5B7402FFFE12126B
:070D8200A685385C85395D90
:010D89002247
:101323007F007E0412130FA201E433FD7F007E04CD
:031333000212A6FD
:1011C300300309AF5DAE5C120D3EC203300007AFC2
:0F11D3005A121290C200300205121323C20222D8
:071403007F007E0602130FBB
:060AA7008F388C398D3AF6
:100AAD00783D7C007D007BFF7A1379F77E007F0215
:100ABD001202A5783F7C007D007BFF7A1379F97EC9
:100ACD00007F021202A5E539F53F853A40E53875FC
:100ADD00F002A4AEF02402F53CEE3406F53BAD3F3A
:100AED00AF3CFE1212A67F027E00121421E53C24BB
:100AFD0001FFE4353BFEAD401212A67B007A007972
:080B0D003DAF3CAE3B020E1AA5
:0B13AA00AD078D5E7F007E060212A6DC
:100B8300E4FFFE1212628F5AE55AD3940F40047F9A
:100B93000180027F00E55AC3940050047E01800265
:100BA3007E00EE4F6003755A057F007E04121262C9
:100BB300EF24FF9201300104D2018002C2017F00C1
:100BC3007E061212628F5EE55EB4FF037F01227F11
:100BD300007E021210AD8E5C8F5D7402FFFE121256
:060BE300628F5B7F00221F
:0D138600E4F5C7F5C5F5C675C380F5C422B2
:10130F0075C78075C5038FC48EC375C65A75C6A5BC
:04131F00000213862F
:1012620075C78075C5018FC48EC375C65A75C6A56C
:0612720000AFC21213865A
:011278002253
:0A0E1A008E418F428B438A448945C4
:100E240075C78075C501E4FDED7E002542F547EEEA
:100E34003541F5468547C4E546F5C375C65A75C6BA
:100E4400A50000AB43AA44A9458D82758300E5C281
:0A0E54001202CB0DBD03D10213867C
:1012A60075C78075C5028FC48EC38DC275C65A7543
:0612B600C6A5000213862C
:07140A007F0A7E000212FBC5
:0F136800D2A4D2A512140AC2A412140AC2A5223A
:0C139300C2A4D2A512140AD2A402140AAB
:10134800EF24FF92A412140AD2A512140AC2A522ED
:1012BC00D2A412140AD2A512140AA2A49206C2A590
:0512CC00A206E433FF5F
:0112D10022FA
:020F5A008F4CBA
:100F5C00754D08AF4D154DEF601DE54C30E704D2D3
:100F6C00A48002C2A412140AD2A512140AC2A5E5C6
:100F7C004C25E0F54C80DC1212BCEF24FF9205A24C
:040F8C0005E433FF46
:010F9000223E
:020FF6008F4C1E
:100FF800754D08E4F54ED2A4AF4D154DEF6017E5D9
:101008004E25E0F54ED2A512140A30A402054EC2B0
:0D101800A512140A80E2AF4C121348AF4E2F
:0110250022A8
:04141D0000000000CB
:030B2800011E00AB
:060EA000AD3EAC3D7F03F6
:060EA6008F3F8C408D41DE
:100EAC0078427C007D007BFF7A14791D7E007F02E6
:100EBC001202A5E540F542E541F5431213687F2285
:100ECC00120F5AAF3F120F5AAF42120F5AAF4312C2
:050EDC000F5A02139300
:020E5E008F49BA
:100E6000784A7C007D007BFF7A14791F7E007F0228
:100E70001202A51213687F22120F5AAF49120F5A9D
:100E80001213687F23120F5AE4FF120FF68F4A7F66
:0F0E900001120FF68F4B121393E54AFEE54BFF4D
:010E9F002230
:100C46007D027C007F02120EA67F327E001212E722
:100C56007D017CC07F02120EA67F587E021212E72B
:100C66007D107C007F03120EA67D007C047F04129B
:100C76000EA67DA57C867F05120EA67D007C807F54
:100C860006120EA67D1A7C5F7F07120EA6855C52A1
:040C9600855D532203
:040707008E3F8F4052
:10070B00E4F541F542F543F544F545F546F547F576
:10071B00487F03120E5E7E00EF540C7802CEC3139B
:10072B00CE13D8F9F5488E474547700875412175AA
:10073B0042FC8024E54864014547700E75411D75E8
:10074B0042B075432375448C803DE54864024547B0
:10075B00700E75411D7542B075432A754430802764
:10076B00E5486403454770647F07120E5EEEC313C2
:10077B0030E0087541197542648006754113754266
:10078B008875431D7544B07F03120E5E754700EFED
:10079B005403F54845477007F54575460A802FE524
:1007AB0048640145477007F5457546058020E548C7
:1007BB00640245477007F5457546148011E548649A
:1007CB000345477007F54575462880028018C3E539
:1007DB00409542E53F95415002800BD3E54095444F
:1007EB00E53F95434004E4FEFF22C3E5409542FFFD
:0C07FB00E53F9541FEAC45AD461202FF03
:0108070022CE
:0404FA008E3B8F3C6A
:1004FE00E4F53DF53EF53FF540F541F542F543F5A2
:10050E00447F03120E5E7E00EF540C7802CEC313AE
:10051E00CE13D8F9F5448E4345437008753D2175C9
:10052E003EFC8024E54464014543700E753D1D7507
:10053E003EB0753F2375408C803DE54464024543D3
:10054E00700E753D1D753EB0753F2A754030802783
:10055E00E5446403454370647F07120E5EEEC313D9
:10056E0030E008753D19753E648006753D13753E85
:10057E0088753F1D7540B07F03120E5E754300EF08
:10058E005403F54445437007F54175420A802FE543
:10059E0044640145437007F5417542058020E544EA
:1005AE00640245437007F5417542148011E54464B9
:1005BE000345437007F5417542508002802DAC41D2
:1005CE00AD42AE3BAF3C1202EDE53E2FF544E53DAC
:1005DE003EF543D3E5449540E543953F4002800BFD
:1005EE00C3E544953EE543953D5004E4FEFF22AE3F
:0305FE0043AF44C4
:0106010022D6
:0E137700E4FE7F0A120E5EEE5403FE1204FA2C
:011385002245
:100F21001207078E3B8F3C7F03120E5E8E3D8F3E74
:100F3100533E3F753D00E53B5403FEE53C7806C357
:100F410033CE33CED8F9423EEE423D433E10120E2F
:090F5100A0120EA07F0A02127921
:0913CB007F05120E5EEE540FFFC7
:0113D40022F6
:021218008F3213
:10121A007F05120E5EAD07AC065304F0E532FEEE12
:07122A0042047F05020EA63D
:020BE9008F3843
:100BEB007F03120E5EAD07AC065305EF7F03120EAB
:100BFB00A67F02120E5EAC06AD07E538B4010543C5
:100C0B00040280035304FD43040130040553057FA4
:100C1B0080034305807F02120EA67F0A120E5EEE42
:100C2B0020E6097F017E001212E780EE1213778E09
:0A0C3B00398F3A120F21AE39AF3A9B
:010C4500228C
:0B13B500EF24FF9208D204120BE92283
:0A13C0007F0B120E5EEEFF530701D3
:0113CA002200
:10060200E4F532F533FE7F03120E5E7E00EF540CEA
:100612007802CEC313CE13D8F9FF4E700875342179
:100622007535FC8020EF64014E700E75341D7535F2
:10063200B075362375378C803CEF64024E700E75B0
:10064200341D7535B075362A7537308028EF64034E
:100652004E60030207067F07120E5EEEC31330E000
:1006620008753419753564800675341375358875C7
:10067200361D7537B0AE34AF358E528F538E5C8FC8
:100682005DD2087F0A121279AF35AE34120F217F84
:10069200327E001212E7121403E55D65377004E53D
:1006A2005C65366035C2047F01120BE98E5C8F5D9A
:1006B2007FF47E011212E71213C0EF60187FF47EFE
:1006C200011212E7AF33AD5DAC5C120AA70533E548
:1006D20033700205321213DF80BFE5331533700227
:1006E2001532AF331213AAE4F55BFF1211FE8E5CD2
:1006F2008F5D8E528F53AF53AE52120F21AF5DAE4C
:040702005C120D3E3A
:0107060022D0
:021178008F32B4
:10117A007F05120E5EAD07AC065305F0E532540F3B
:10118A0042057F05120EA685325AE51E70057F01BB
:03119A001211E24D
:01119D00222F
:0211E2008F3349
:1011E4007F02120E5EAD07AC06E533600543044092
:0A11F40080035304BF7F02020EA621
:101151007F02120E5EAD07AC06ECC413135403F408
:1011610054016008430440751E0180065304BFE426
:07117100F51E7F02020EA62D
:0913D5007F0B120E5EEEC313FF44
:0113DE0022EC
:101358007F02120E5EAC06EF54FEFD7F02020EA65F
:02102600AD0714
:10102800E4FB74807E00A803088006CEA2E713CEF6
:1010380013D8F8FFEDF582EF558224FF92B2D2B4AF
:0A104800C2B40BBB08DCD2B3C2B384
:01105200227B
:1010D800C0F9A4B0999282F880907F8883C6A186CF
:1010E8008E8CC1CE9189C712C8ABF74079243019CC
:0910F80012027800107FC7890084
:100B2B00025221FC0256000001580A0159000155DE
:0D0B3B0000015400C18802501F40014F000E
:10133600ED4C6007EF9010F393FF22EF9010D893D7
:02134600FF2284
:100FC500300114752B00752CFF752D00752EFF7BD8
:100FD500FF7A007D158012752B00752CFF752D008D
:100FE500752EFF7BFF7A007D167C007FFF120808B7
:010FF50022D9
:04098E00AB07AA0603
:100992007C277D101202FF8F247C277D10AF03AECF
:1009A200021202FF7E037FE8CFCDCFCECCCE120261
:1009B200FF8F237C037DE8AF03AE021202FF7E00AD
:1009C2007F64CFCDCFCECCCE1202FF8F22AE02AF4C
:1009D200037C007D641202FF7E007F0ACFCDCFCE62
:1009E200CCCE1202FF8F25E524C39401E523FD7CC2
:1009F20000E522FB7A00500F752B008F2C752D001D
:100A0200752E037F64800E752B0085252C752D00B5
:080A1200752E03AF2412080841
:010A1A0022B9
:100D8A00E553B55D0AE552B55C05AF53FE803930CF
:100D9A0008190553E55370020552D39430E552946D
:100DAA002A40217552217553FC8019E55315537059
:100DBA00021552C3E55394FCE5529421500675522C
:0C0DCA002A755330AF53AE5212098E222E
:10119E00E55A75F00A84FD7C00E55A75F00A84E57F
:1011AE00F0FB7A00752B00752C64752D00752E647E
:0511BE007F6402080837
:100C9A00E55975F06484FFE55975F06484E5F075EB
:100CAA00F00A84F523E55975F00A8485F022EF608D
:100CBA0016FD7C00E523FB7A00752B0085222C7536
:100CCA002D00752EFF8015E523FB7A00752B008514
:100CDA00222C752D00752EFF7DFF7C007FFF1208E8
:010CEA000801
:010CEB0022E6
:10105300E55575F00A84A9F0E55575F06484E5F06B
:1010630075F00A84FB7A00AF01752B008F2C752D68
:0D10730000752EFF7D197C007F1702080814
:100CEC00E55475F06484FFE55475F06484E5F075A3
:100CFC00F00A84F523E55475F00A8485F022EF6040
:100D0C0016FD7C00E523FB7A00752B0085222C75E3
:100D1C002D00752EFF8015E523FB7A00752B0085C1
:100D2C00222C752D00752EFF7DFF7C007F1612087E
:010D3C0008AE
:010D3D002293
:1012D200E4F52BF52CF52D752EFF7B18FA7DFFFC1E
:0512E2007FFF02080877
:10123100752B00752C1A752D00752EFF7B1A7A00FF
:091241007DFF7C007FFF0208081C
:080808008C278D288A298B2A18
:10081000752F1BE54F702BEFC3952F40030208F097
:10082000D2A3D2A2D2A1E52E6401452D7005FC7D94
:100830000180047C007D00121336121026C2A00233
:1008400008E5E54F64017033C3E528952F7480F8FF
:1008500065279840030208F0D2A3D2A2D2A0AF2805
:10086000E52E6402452D7005FC7D0180047C007D31
:1008700000121336121026C2A1806AE54F6402707E
:1008800030C3E52A952F7480F86529985062D2A369
:10089000D2A1D2A0AF2AE52E6403452D7005FC7DC0
:1008A0000180047C007D00121336121026C2A28043
:1008B00034E54F64037039C3E52C952F7480F865D7
:1008C0002B98502CD2A2D2A1D2A0AF2CE52E64043A
:1008D000452D7005FC7D0180047C007D00121336DF
:1008E000121026C2A3901100E493FF7E001212E7BB
:0C08F000054FE54FD394034003E4F54F9F
:0108FC0022D9
:100EE100E558B40A03120D8AE5587003121231E570
:100EF10058B401031212D2E558B40203120C9AE558
:100F010058B40303120FC5E558B4040312119EE54A
:100F110058B46503121053E558B46603120CEC2261
:0813FB007F03121279B20122F6
:0A13DF0020010675501F75514022D1
:10108000200107E558D394644003020EE1D3E551F3
:10109000940AE5509400400C120EE1E55115517090
:0D10A0000B155022D2A3D2A2D2A1D2A022C1
:0A13E900E558C39464500122C322AA
:10127900E4F556F557E5586F600CBF0402D200BF7C
:071289000302D2028F58227C
:10110100E554C39414500474058014E554C3943C0D
:101111005004740A8009E554C394E65006741425FA
:0811210054F5547F66021279B7
:10112900E554D3943C400474EC8014E554D39414EE
:10113900400474F68009E554C39405400674FB2500
:0811490054F5547F660212798F
:100B4800011D00010800010900010A00010B000253
:100B58001500000217000002190000021B00000126
:100B68000E00010F00011000011100010C00010D21
:0A0B78000001120001130001140037
:05141700E4AF1DF51D0E
:01141C0022AD
:10000E00309639E4F515F516E50E6006E4F50E7535
:10001E001D01E50C6021E5126005E4F5128015E581
:10002E00136005E4F513800CE5146005E4F5148007
:10003E0003751D0BE4F50CE4F5088077E508707385
:10004E00E512706FE513706BE51470670516E51613
:10005E0070020515D39414E51594004003750E0136
:10006E000516E51670020515D394E8E515940340C0
:10007E0042209711750801750C01E4F50E751201F9
:10008E00751D0C802E209511750801750C01E4F577
:10009E000E751301751D0D801A20941175080175CA
:1000AE000C01E4F50E751401751D0E8006E4F50EB7
:1000BE00750C01309713E50F6006E4F50F751D0200
:1000CE00E4F509F517F5188046E5097042E50E705E
:1000DE003EE50C703AE5127036E5137032E5147099
:1000EE002E0518E51870020517D39414E517940021
:1000FE004003750F020518E51870020517D394E832
:10010E00E51794034009E4F50F750902751D1630C5
:10011E009513E5106006E4F510751D03E4F50AF578
:10012E0019F51A8046E50A7042E50E703EE50C7030
:10013E003AE5127036E5137032E514702E051AE5A5
:10014E001A70020519D39414E51994004003751022
:10015E0001051AE51A70020519D394E8E5199403FE
:10016E004009E4F510750A01751D21309412E51150
:10017E006006E4F511751D04E4F50BF51BF51C2264
:10018E00E50B7042E50E703EE50C703AE5127036E6
:10019E00E5137032E514702E051CE51C7002051B6C
:1001AE00D39414E51B94004003751101051CE51C46
:1001BE007002051BD394E8E51B94034009E4F51186
:0701CE00750B01751D2C22C9
:03000000020A1BD6
:0C0A1B00787FE4F6D8FD758162020A6263
:1001D500E709F608DFFA8046E709F208DFFA803E0C
:1001E50088828C83E709F0A3DFFA8032E309F608F9
:1001F500DFFA8078E309F208DFFA807088828C8361
:10020500E309F0A3DFFA806489828A83E0A3F60814
:10021500DFFA805889828A83E0A3F208DFFA804CEE
:1002250080D280FA80C680D4806980F280338010C5
:1002350080A680EA809A80A880DA80E280CA80332E
:1002450089828A83ECFAE493A3C8C582C8CCC583A6
:10025500CCF0A3C8C582C8CCC583CCDFE9DEE78076
:100265000D89828A83E493A3F608DFF9ECFAA9F0F5
:10027500EDFB2289828A83ECFAE0A3C8C582C8CC4B
:10028500C583CCF0A3C8C582C8CCC583CCDFEADE64
:10029500E880DB89828A83E493A3F208DFF980CCC6
:1002A50088F0EF60010E4E60C388F0ED2402B404BF
:1002B5000050B9F582EB2402B4040050AF23234566
:0602C50082239002257364
:1002CB00F8BB010DE58229F582E5833AF583E8F069
:1002DB00225006E92582C8F622BBFE05E92582C815
:0202EB00F222FD
:1002ED00EF8DF0A4A8F0CF8CF0A428CE8DF0A42E25
:0202FD00FE22DF
:1002FF00BC000BBE0029EF8DF084FFADF022E4CCE3
:10030F00F875F008EF2FFFEE33FEEC33FCEE9DECAB
:10031F00984005FCEE9DFE0FD5F0E9E4CEFD22EDF1
:10032F00F8F5F0EE8420D21CFEADF075F008EF2F3B
:10033F00FFED33FD4007985006D5F0F222C398FD2C
:05034F000FD5F0EA22C9
:10035400EB9FF5F0EA9E42F0E99D42F0EC6480C820
:0603640064809845F022C0
:100A2700020DD6E493A3F8E493A34003F68001F202
:100A370008DFF48029E493A3F85407240CC8C333D0
:100A4700C4540F4420C8834004F456800146F6DF9F
:100A5700E4800B0102040810204080900B15E47E0F
:100A6700019360BCA3FF543F30E509541FFEE49394
:100A7700A360010ECF54C025E060A840B8E493A35B
:100A8700FAE493A3F8E493A3C8C582C8CAC583CA86
:100A9700F0A3C8C582C8CAC583CADFE9DEE780BE3E
:010B82000072
:00000001FF
