:08000300D2051212DFC20A222D
:1002B3008F3D12155AE518D3940A500302037EE5C5
:1002C3003D64017027E518B40B161215468F0EE531
:1002D3000EB40F05E4F50E8002050EAF0E12138F58
:1002E300E518641560030204480211D1E518D3949C
:1002F3000A402CE53D64027026E518B40B1512156F
:10030300468F0EE50E7005750E0F8002150EAF0EAB
:1003130012138FE518641560030204480211F9E50E
:1003230018D3940A4014E53DB4030FE518B415033C
:10033300E4F51BE4FF121409803DE518D3940A5039
:1003430003020448E53D64046003020448E518B46D
:100353000B031206D0E518B4151DE50DD394004028
:100363000F751B01E4F519F51A1214D37F018004EC
:10037300E4F51BFF121409E4F51822E53DB40C0360
:10038300021574E53DB40D0C1215468F0E75180B4E
:100393007F65801DE53DB40B0D751815E4F51B5302
:1003A3008EEF7F66800BE53DB40E09B200D2017F6C
:1003B30005021409E53DB421047F018007E53DB43E
:1003C3002C0AE4FF1215308E158F1622E53DB41664
:1003D300087F04121409021248E53DB4011D7F048D
:1003E300121409E5132401FFE433FEC3EF9410EE66
:1003F30064809480504FE513048014E53DB40213E8
:100403007F04121409E513D394004039E51314FF54
:1004130002126FE53DB4030EE514B51705E4F514B8
:10042300801405148010E53DB4041AE514700585A5
:10043300171480021514AF141213758E0B8F0C1240
:06044300102B1200032241
:10111400C206E4F51B538EEF120CB69206E4F518E2
:10112400750D1E1213DA7F2C7E01121477120C4CEB
:1011340012155A3006030206D085150B85160C7F4E
:041144000A1214096E
:011148002284
:100DD400800F12158A8F3CE51BB4020AE53CB42C43
:100DE400F112111480EC300B0C1215508F127F028B
:100DF400121409C20BE51BB4011AE50DC39401508A
:100E040013751B02538EEF1214C3D2A3D2A2D2A124
:100E1400D2A080BEE53C6004FF1202B3300AB312D4
:060E240012DFC20A80ACDF
:03000B000209A740
:1009A700C0E0C0F0C083C082C0D075D000C000C016
:0D09B70001C002C003C004C005C006C00797
:1009C4001200608F22120066E51BC3940250441289
:1009D4000FEA5002803DE522640A6021E522C394B7
:1009E4006450300511E51170020510C394D0E51070
:1009F4009407401F7F0A121409D20A80163000138C
:100A04000511E51170020510C394D0E51094074058
:0B0A140002D20B758A66758C7EC28DC5
:100A1F00D007D006D005D004D003D002D001D0002B
:0B0A2F00D0D0D082D083D0F0D0E032D5
:0300630002122165
:10122100C0E0C0D0E51BB40119051AE51A7002052A
:1012310019C394B8E519940B4008150D751900757B
:071241001A00D0D0D0E0320A
:0A151A0000007F217E42DEFEDFFCB0
:0115240022A4
:071564000000007F05DFFE1F
:01156B00225D
:10147700AD07AC06ED1DAE0470011C4E60051215DC
:041487001A80F122B4
:10148B00AD07AC06ED1DAE0470011C4E60051215C8
:04149B006480F12256
:08156C00000000000000000077
:100B5300011305C100021521FC011400011700C196
:070B630005C102C104C1013C
:0411A6008E458F469D
:1011AA0078477C007D007BFF7A15796C7E007F0290
:1011BA001205197B007A007947AF46AE45120F64D3
:0611CA00E547FEE548FFC9
:0111D00022FC
:021375008F44A3
:10137700EF75F002A42402FFE5F03406FE1211A671
:071387008E158F168544143A
:01138E00223C
:101420008F3EE4FFFE12149FE53EFDE4FFFE121422
:0614300036E53EF5132233
:040ECC008E448F457C
:100ED00078467C007D007BFF7A15796E7E007F026C
:100EE000120519E544F5468545477F007E02121438
:100EF0009FAD467F007E02121436AD477F017E0211
:100F0000121436E514F46009AD147402FFFE1214D5
:070F100036854415854516E6
:010F170022B7
:101303007F007E0412149FA203E433FD7F007E045A
:0F131300121436A200E433FD7F027E040214366A
:1012DF00300509AF16AE15120ECCC205300207AF9E
:1012EF0013121420C202200403300107121303C289
:0412FF0004C2012202
:07157C007F007E0602149FB0
:060BDE008F448C458D469A
:100BE40078497C007D007BFF7A1579707E007F0256
:100BF400120519784B7C007D007BFF7A1579727E93
:100C0400007F02120519E545F54B85464CE5447510
:100C1400F002A4AEF02402F548EE3406F547AD4BDD
:100C2400AF48FE1214367F047E00121477E5482480
:100C340001FFE43547FEAD4C1214367B007A00798F
:080C440049AF48AE47020F64FE
:0B152500AD078D177F007E0602143614
:100CB600E4FFFE1213F28F13E513D3940F40047F63
:100CC6000180027F00E513C3940050047E01800278
:100CD6007E00EE4F60037513057F007E041213F24B
:100CE600EF1392037F027E041213F2EF1392007F3A
:100CF600007E061213F28F17E517B4FF02D3227F88
:100D0600007E021211A68E158F167402FFFE1213B4
:050D1600F28F14C3225E
:0D150100E4F5C7F5C5F5C675C380F5C42235
:10149F0075C78075C5038FC48EC375C65A75C6A52B
:0414AF000002150121
:1013F20075C78075C5018FC48EC375C65A75C6A5DB
:0614020000AFC21215014B
:0114080022C1
:0A0F64008E4D8F4E8B4F8A5089513D
:100F6E0075C78075C501E4FDED7E00254EF553EE87
:100F7E00354DF5528553C4E552F5C375C65A75C63F
:100F8E00A50000AB4FAA50A9518D82758300E5C212
:0A0F9E0012053F0DBD03D10215013D
:1014360075C78075C5028FC48EC38DC275C65A75B1
:06144600C6A5000215011D
:071583007F0A7E0002148BB9
:0F14E300D2A4D2A5121583C2A4121583C2A522CA
:0C150E00C2A4D2A5121583D2A40215833A
:1014B300EF24FF92A4121583D2A5121583C2A5228D
:10144C00D2A4121583D2A5121583A2A49209C2A507
:05145C00A209E433FFCA
:011461002268
:0210DD008F562C
:1010DF00755708AF571557EF601DE55630E704D227
:1010EF00A48002C2A4121583D2A5121583C2A5E54E
:1010FF005625E0F55680DC12144CEF24FF9208A21F
:04110F0008E433FFBE
:0111130022B9
:021149008F56BF
:10114B00755708E4F558D2A4AF571557EF6017E55C
:10115B005825E0F558D2A512158330A4020558C2C4
:0D116B00A512158380E2AF561214B3AF58E1
:011178002254
:041590000000000057
:030B6A00011C006B
:061069008F498C4A8D4BFB
:10106F00784C7C007D007BFF7A1579907E007F02A3
:10107F00120519E54AF54CE54BF54D1214E37F22A5
:10108F001210DDAF491210DDAF4C1210DDAF4D1253
:05109F0010DD02150E3A
:020FA8008F5365
:100FAA0078547C007D007BFF7A1579927E007F025F
:100FBA001205191214E37F221210DDAF531210DD4D
:100FCA001214E37F231210DDE4FF1211498F547FBC
:0F0FDA00011211498F5512150EE554FEE555FF12
:010FE90022E5
:100C4C007D037C007F021210697F327E00121477C4
:100C5C007D057CC07F021210697F327E00121477F2
:100C6C00E5162404FFE51534DEFE7C007D0A120532
:100C7C0073EF7806C333CE33CED8F9AC064410FDEF
:100C8C007F031210697486FCE51344A0FD7F0512E6
:100C9C001069E4FDFC7F061210697D1A7C5F7F07EA
:0A0CAC0012106985150B85160C2245
:0407D5008E498F4A70
:1007D900E4F54BF54CF54DF54EF54FF550F551F562
:1007E900527F03120FA87E00EF540C7802CEC31378
:1007F900CE13D8F9F5528E5145517008754B2175B4
:100809004CFC8024E55264014551700E754B1D75F1
:100819004CB0754D23754E8C803DE55264024551AF
:10082900700E754B1D754CB0754D2A754E3080276D
:10083900E5526403455170647F07120FA8EEC31394
:1008490030E008754B19754C648006754B13754C6F
:1008590088754D1D754EB07F03120FA8755100EFB5
:100869005403F55245517007F54F75500A802FE52D
:1008790052640145517007F54F7550148020E552B7
:10088900640245517007F54F7550058011E55264B2
:100899000345517007F54F75500280028018C3E572
:1008A9004A954CE549954B5002800BD3E54A954E44
:1008B900E549954D4004E4FEFF22C3E54A954CFF06
:0C08C900E549954BFEAC4FAD5012057395
:0108D5002200
:0405C8008E478F4883
:1005CC00E4F549F54AF54BF54CF54DF54EF54FF57F
:1005DC00507F03120FA87E00EF540C7802CEC31389
:1005EC00CE13D8F9F5508E4F454F700875492175CB
:1005FC004AFC8024E5506401454F700E75491D7509
:10060C004AB0754B23754C8C803DE5506402454FC8
:10061C00700E75491D754AB0754B2A754C30802784
:10062C00E5506403454F70647F07120FA8EEC313A7
:10063C0030E008754919754A648006754913754A86
:10064C0088754B1D754CB07F03120FA8754F00EFCA
:10065C005403F550454F7007F54D754E0A802FE544
:10066C00506401454F7007F54D754E148020E550D0
:10067C006402454F7007F54D754E058011E55064C9
:10068C0003454F7007F54D754E028002802DAC4D21
:10069C00AD4EAE47AF48120561E54A2FF550E5491E
:1006AC003EF54FD3E550954CE54F954B4002800BF2
:1006BC00C3E550954AE54F95495004E4FEFF22AE40
:0306CC004FAF50DD
:0106CF002208
:0E14F200E4FE7F0A120FA8EE5403FE1205C896
:0115000022C8
:10102B001207D58E478F487F03120FA8AD075305C4
:10103B003F7C00E5475403FEE5487806C333CE33C7
:10104B00CED8F94205EE42044305107F0312106916
:0E105B007F0A120FA8EE30E6F77F0A02140992
:091546007F05120FA8EE540FFFFF
:01154F002279
:02138F008F3E8F
:101391007F05120FA8AD07AC065304F0E53EFEEE43
:0713A10042047F0502106900
:020D1B008F4403
:100D1D007F03120FA8AD07AC065305EF7F0312102A
:100D2D00697F02120FA8AC06AD07E544B401054377
:100D3D00040280035304FD43040130070553057F6E
:100D4D0080034305807F021210697F0A120FA8EEFF
:100D5D0020E6097F0A7E0012147780EE1214F28EBF
:0A0D6D00458F4612102BAE45AF462D
:010D77002259
:0B153000EF24FF920CD207120D1B22CB
:0A153B007F0B120FA8EEFF5307010B
:011545002283
:1006D000E4F53EF53FFE7F03120FA87E00EF540CB9
:1006E0007802CEC313CE13D8F9FF4E70087540219F
:1006F0007541FC8020EF64014E700E75401D754100
:10070000B075422375438C803CEF64024E700E75C9
:10071000401D7541B075422A7543308028EF64034F
:100720004E60030207D47F07120FA8EEC31330E018
:1007300008754019754164800675401375418875C8
:10074000421D7543B0AE40AF418E0B8F0C8E158F9E
:1007500016D20C7F0A121409AF41AE4012102B7F43
:10076000327E0012147712157CE51665437004E59D
:100770001565426035C2077F01120D1B8E158F165D
:100780007FF47E0112147712153BEF60187FF47E20
:1007900001121477AF3FAD16AC15120BDE053FE525
:1007A0003F7002053E12155A80BFE53F153F7002AB
:1007B000153EAF3F121525E4F514FF1213758E1583
:1007C0008F168E0B8F0CAF0CAE0B12102BAF16AE1C
:0407D00015120ECC24
:0107D4002202
:02126F008F3EB0
:101271007F05120FA8AD07AC065305F0E53E540FEC
:1012810042057F05121069853E13E51C70057F013B
:0312910012132213
:011294002237
:021322008F3FFB
:101324007F02120FA8AD07AC06E53F6005430440F9
:0A13340080035304BF7F020210691A
:101248007F02120FA8AD07AC06ECC413135403F4C5
:1012580054016008430440751C0180065304BFE430
:07126800F51C7F0202106972
:091550007F0B120FA8EEC313FF7C
:01155900226F
:1014C3007F02120FA8AC06EF54FEFD7F02021069E3
:0210A4008F318A
:1010A600C2B47F197E0012148BE4FD74807E00A802
:1010B60005088006CEA2E713CE13D8F8FFE531FB6C
:1010C600EF5B24FF92B200D2B400C2B40DBD08DBC0
:0610D600D2B30000C2B31A
:0110DC0022F1
:100B6D005C000DC0F9A4B0999282F880907F8883C3
:100B7D00C6A1868E8CC1CE9189C712C8ABF7BF4D69
:100B8D000000407924301912027800107FC78902C5
:100B9D000B21FC02100000010F06011200010E00D6
:0C0BAD00010D00C18C02091F400108006E
:10135A00ED4C600A74002FF582E434008008740DA5
:0B136A002FF582E43400F583E0FF2241
:10129500300308752C00752D158006752C00752DED
:1012A50016752E00752FFF7BFF7A007DFF7C007F72
:0512B500171208D6220B
:040A3A00AB07AA0656
:100A3E007C277D101205738F257C277D10AF03AEAA
:100A4E00021205737E037FE8CFCDCFCECCCE12053A
:100A5E00738F247C037DE8AF03AE021205737E0014
:100A6E007F64CFCDCFCECCCE1205738F23AE02AF27
:100A7E00037C007D641205737E007F0ACFCDCFCE3E
:100A8E00CCCE1205738F26E525C39401E524FD7C9B
:100A9E0000E523FB7A00500F752C008F2D752E006C
:100AAE00752F037F64800E752C0085262D752E0004
:080ABE00752F03AF251208D6C5
:010AC600220D
:100F1800E50CB5160AE50BB51505AF0CFE803930A2
:100F28000C19050CE50C7002050BD39430E50B94F5
:100F38002A4021750B21750CFC8019E50C150C70E5
:100F480002150BC3E50C94FCE50B94215006750BB8
:0C0F58002A750C30AF0CAE0B120A3A22C6
:1012BA00E51375F00A84FD7C00E51375F00A84E5F0
:1012CA00F0FB7A00752C00752DFF752E00752FFF27
:0512DA007FFF0208D6B1
:10000E00E51275F06484FFE51275F06484E5F07511
:10001E00F00A84F524E51275F00A8485F023EF606A
:10002E0016FD7C00E524FB7A00752C0085232D75CA
:10003E002E00752FFF8015E524FB7A00752C0085A8
:10004E00232D752E00752FFF7DFF7C007FFF12087C
:01005E00D6CB
:01005F00227E
:10117900E50E75F00A84A9F0E50E75F06484E5F0D2
:1011890075F00A84FB7A00AF01752C008F2D752E3E
:0D11990000752FFF7D197C007F170208D61E
:100E2A00E50D75F06484FFE50D75F06484E5F075F1
:100E3A00F00A84F524E50D75F00A8485F023EF6045
:100E4A0016FD7C00E524FB7A00752C0085232D75A0
:100E5A002E00752FFF8015E524FB7A00752C00857E
:100E6A00232D752E00752FFF7DFF7C007F1612083B
:010E7A00D6A1
:010E7B002254
:10146200E4F52CF52DF52E752FFF7B18FA7DFFFC88
:051472007FFF0208D617
:1013A800752C00752D1A752E00752FFF7B1A7A0083
:0913B8007DFF7C007FFF0208D6D6
:10133E00A200E433752C00F52D752E00752FFF7B62
:0C134E00FF7A007DFF7C007F170208D6AC
:1013C100752C00752D1B752E00752FFF7B1B7A0068
:0913D1007D1B7C007F1B0208D685
:100D7800A907E97012C3ED953BE53A6480F8EC6485
:100D88008098500122C322B90112C3EB953BE53A82
:100D98006480F8EA648098500122C322B90214C31F
:100DA800E537953BE53A6480F8E53664809850016C
:100DB80022C322B90314C3E539953BE53A6480F8A8
:0C0DC800E538648098500122C322C32249
:0A08D6008F278C288D298A2A8B2B8E
:1008E00075301CE527FD7C00852A36852B37852C45
:1008F00038852D39753A0085303BAB29AA28AF08D9
:10090000120D78400E0508E508D3940340D5E4F5B0
:100910000880D0D2A3D2A2D2A1D2A0E508701BE554
:100920002F6401452E7005FC7D0180047C007D0054
:10093000AF2712135A1210A4C2A0E508B4011BAFCE
:1009400029E52F6402452E7005FC7D0180047C00A2
:100950007D0012135A1210A4C2A1E508B4021BAF05
:100960002BE52F6403452E7005FC7D0180047C007F
:100970007D0012135A1210A4C2A2E508B4031BAFE3
:100980002DE52F6404452E7005FC7D0180047C005C
:100990007D0012135A1210A4C2A30508E508D394CF
:0609A000034003E4F5082A
:0109A600222E
:100E7C00E50FB40A03120F18E50F70031213A8E55F
:100E8C000FB40103121462E50FB4020312000EE555
:100E9C000FB40303121295E50FB404031212BAE552
:100EAC000FB4050312133EE50FB406031213C1E58C
:100EBC000FB46503121179E50FB46603120E2A22E2
:081574007F03121409B20322E7
:0A155A0020030675091F750A4022E0
:100FEA00200307E50FD394644005120E7C8030D3AA
:100FFA00E50A940AE5099400400D120E7CE50A15EB
:10100A000A701C15098018E50A64054509600E7501
:10101A000900750A05D2A3D2A2D2A1D2A0D322C3B3
:01102A0022A3
:10140900E4F510F511E50F6F600CBF0402D202BFBD
:071419000302D2048F0F2231
:03006000AF0F22BD
:1011D100E50DC39414500474058014E50DC3943CCB
:1011E1005004740A8009E50DC394E6500674142571
:0811F1000DF50D7F66021409E3
:1011F900E50DD3943C400474EC8014E50DD39414AC
:10120900400474F68009E50DC39405400674FB2576
:081219000DF50D7F66021409BA
:100BB900017400185C000000000000000000000043
:100BC90000000000000000000000000000025A01BF
:040BD900900159002E
:05158A00E4AF74F574EC
:01158F002239
:10006600E4FFFDED14600E14600F1460102403709D
:1000760014A296800AA2978006A2958002A294E412
:1000860033F5238003752301E5236067ED75F006DC
:10009600A4245EF8E6604DE4F6ED75F006A424604F
:1000A600F8E6600EE4F6ED75F006A42461F8E4F6D1
:1000B6008026ED75F006A4245CF8E6FA08E6FBD384
:1000C6009414EA94004011D3EB94E8EA94035008A0
:1000D600E5597004ED04F574ED75F006A4245FF897
:1000E600E4F67F01ED75F006A4245CF8E4F608F664
:1000F600020187ED75F006A4245EF8E670317601FC
:10010600ED75F006A4245CF8E4F608F6ED75F00645
:10011600A42460F8E4F6E5596015ED75F006A4240C
:1001260061F8E6700AED75F006A42460F87601ED34
:1001360075F006A4245CF8E6FA08E6C394FFEA9490
:10014600FF500FED75F006A4245CF80806E618705B
:100156000106ED75F006A4245CF8E6FA08E6D394E9
:10016600E8EA9403401BED75F006A4245FF8E670F8
:1001760010E559700CED04FE75F00AA42EF57476A0
:10018600010DED64046003020069EF6032E4F55985
:10019600755A01755B90FFFDED75F006A42460F8B5
:1001A600E6600D7401A805088002C333D8FC420737
:1001B6000DBD04E4EF6008F559755A01755B90E4CE
:1001C600FFFEFDED75F006A4245EF8E6600E7401F0
:1001D600A805088002C333D8FC42070E0DBD04E310
:1001E600EEC3940250030202A9E559700A8F5975AD
:1001F6005A01755B908013C3E55B94FFE55A94FF43
:100206005008055BE55B7002055AD3E55B9408E58B
:100216005A940250030202B2E4F9FCFD74017E0016
:10022600A805088005C333CE33CED8F9FFEF55595C
:10023600600EE97005ED04F98006EC7003ED04FC30
:100246000DBD04D8E96065EC6062E9C39C5009E91C
:1002560075F00AA42CFF8007EC75F00AA429FF8F1D
:1002660074E4FD74017E00A805088005C333CE330F
:10027600CED8F9FFE559FBEF5B601EED75F006A4DD
:100286002460F87601ED75F006A42461F87601ED98
:1002960075F006A4245FF876010DBD04C6E4F55A90
:0C02A600F55B22E4F559755A01755B9078
:0102B2002229
:1013DA00438E805389F0438901758A66758C7EC273
:0813EA008DD28CD2A9D2AF22F2
:1014D300538EFBE4F5D775D628438E1043AF042211
:03000000020AC72A
:0C0AC700787FE4F6D8FD758174020B0EF8
:10044900E709F608DFFA8046E709F208DFFA803E95
:1004590088828C83E709F0A3DFFA8032E309F60882
:10046900DFFA8078E309F208DFFA807088828C83EA
:10047900E309F0A3DFFA806489828A83E0A3F6089E
:10048900DFFA805889828A83E0A3F208DFFA804C78
:1004990080D280FA80C680D4806980F2803380104F
:1004A90080A680EA809A80A880DA80E280CA8033B8
:1004B90089828A83ECFAE493A3C8C582C8CCC58330
:1004C900CCF0A3C8C582C8CCC583CCDFE9DEE78000
:1004D9000D89828A83E493A3F608DFF9ECFAA9F07F
:1004E900EDFB2289828A83ECFAE0A3C8C582C8CCD5
:1004F900C583CCF0A3C8C582C8CCC583CCDFEADEEE
:10050900E880DB89828A83E493A3F208DFF980CC4F
:1005190088F0EF60010E4E60C388F0ED2402B40448
:100529000050B9F582EB2402B4040050AF232345EF
:0605390082239004997377
:10053F00F8BB010DE58229F582E5833AF583E8F0F2
:10054F00225006E92582C8F622BBFE05E92582C89E
:02055F00F22286
:10056100EF8DF0A4A8F0CF8CF0A428CE8DF0A42EAE
:02057100FE2268
:10057300BC000BBE0029EF8DF084FFADF022E4CC6C
:10058300F875F008EF2FFFEE33FEEC33FCEE9DEC35
:10059300984005FCEE9DFE0FD5F0E9E4CEFD22ED7B
:1005A300F8F5F0EE8420D21CFEADF075F008EF2FC5
:1005B300FFED33FD4007985006D5F0F222C398FDB6
:0505C3000FD5F0EA2253
:100AD300020DD4E493A3F8E493A34003F68001F258
:100AE30008DFF48029E493A3F85407240CC8C33324
:100AF300C4540F4420C8834004F456800146F6DFF3
:100B0300E4800B0102040810204080900B53E47E24
:100B1300019360BCA3FF543F30E509541FFEE493E7
:100B2300A360010ECF54C025E060A840B8E493A3AE
:100B3300FAE493A3F8E493A3C8C582C8CAC583CAD9
:100B4300F0A3C8C582C8CAC583CADFE9DEE780BE91
:010BDD000017
:00000001FF
