:08000300D205121257C20A22B5
:10022D008F3D1214ABE56BD3940A50030202FBE52C
:10023D003D64017027E56BB40B161214978F61E5C1
:10024D0061B40F05E4F56180020561AF611212EA38
:10025D00E56B641560030203C5021123E56BD394AE
:10026D000A402CE53D64027026E56BB40B151214A3
:10027D00978F61E561700575610F80021561AF6142
:10028D001212EAE56B641560030203C502114BE51A
:10029D006BD3940A4014E53DB4030FE56BB415031D
:1002AD00E4F56EE4FF12134B8040E56BD3940A50D6
:1002BD00030203C5E53D640460030203C5E56BB4A9
:1002CD000B0312064DE56BB41520E560D394004089
:1002DD0012756E0112145243AF04E4F56CF56D7F87
:1002ED00018004E4F56EFF12134BE4F56B22E53D3E
:1002FD00B40C030214BDE53DB40D0C1214978F61BF
:10030D00756B0B7F65801DE53DB40B0D756B15E4AD
:10031D00F56E53AFFB7F66800BE53DB40E09B20061
:10032D00D2017F0502134BE53DB421047F01800707
:10033D00E53DB42C0AE4FF1214818E688F6922E525
:10034D003DB416087F0412134B02119AE53DB4011A
:10035D001D7F0412134BE5662401FFE433FEC3EF4A
:10036D009410EE64809480504FE566048014E53D52
:10037D00B402137F0412134BE566D394004039E5A4
:10038D006614FF0211E7E53DB4030EE567B56A0596
:10039D00E4F567801405678010E53DB4041AE56740
:1003AD007005856A6780021567AF671212D08E5E81
:0903BD008F5F120FA2120003224F
:1011C100120C359206E4F56B75601E53AFFBF56E9C
:1011D100120AE11214AB12131C30060302064D85EC
:0511E100685E85695FF6
:0111E60022E6
:100D5300801E300B0C1214A18F657F0212134BC23D
:100D63000B1214D98F3CE56EB4020AE53CB42CE2B5
:100D73001211C180DDE56EB4011AE560C394015020
:100D830013756E0253AFFB121417D2A3D2A2D2A1D2
:100D9300D2A080BEE53C6004FF12022D300AB312DC
:060DA3001257C20A80ACE9
:03000B00020937B0
:10093700C0E0C0F0C083C082C0D075D000C000C086
:0D09470001C002C003C004C005C006C00707
:100954001200608F22120066E56EC39402504212A8
:1009640010124045E522640A6021E522C3946450D4
:10097400300564E56470020563C394D0E5639407AD
:10098400401F7F0A12134BD20A80163000130564ED
:10099400E56470020563C394D0E56394074002D212
:0909A4000B758A66758C7EC28D0C
:1009AD00D007D006D005D004D003D002D001D0009E
:0B09BD00D0D0D082D083D0F0D0E03248
:0300630002117314
:10117300C0E0C0D0E56EB40119056DE56D700205E0
:101183006CD394B8E56C940B40081560756C0075CE
:071193006D00D0D0D0E03266
:0A146B0000007F217E42DEFEDFFC60
:011475002254
:0514D300007F04DFFEB4
:0114D80022F1
:1013B900AD07AC06ED1DAE0470011C4E600512149C
:0413C9006B80F12222
:1013CD00AD07AC06ED1DAE0470011C4E6005121488
:0413DD00D380F122A6
:0814B50000000000000000002F
:100B5500016605C100026821FC016700016A00C148
:070B650005C102C104C1013A
:0410CF008E458F4675
:1010D30078477C007D007BFF7A1479B57E007F0220
:1010E3001204967B007A007947AF46AE45120EDBB9
:0610F300E547FEE548FFA1
:0110F90022D4
:0212D0008F4449
:1012D200EF75F002A42402FFE5F03406FE1210CFEF
:0712E2008E688F69854467E7
:0112E90022E2
:101362008F3EE4FFFE1213E1E53EFDE4FFFE1213A1
:0613720078E53EF566225D
:040DFB008E448F454E
:100DFF0078467C007D007BFF7A1479B77E007F02F6
:100E0F00120496E544F5468545477F007E0212138E
:100E1F00E1AD467F007E02121378AD477F017E025F
:100E2F00121378E567F46009AD677402FFFE1213C1
:070E3F0078854468854569D0
:010E46002289
:101279007F007E041213E1A203E433FD7F007E04A4
:0F128900121378A200E433FD7F027E0402137873
:10125700300509AF69AE68120DFBC205300207AF52
:1012670066121362C202200403300105121279C20A
:0212770004224F
:0714C5007F007E060213E127
:060BC7008F448C458D46B1
:100BCD0078497C007D007BFF7A1479B97E007F0225
:100BDD00120496784B7C007D007BFF7A1479BB7EE6
:100BED00007F02120496E545F54B85464CE54475AC
:100BFD00F002A4AEF02402F548EE3406F547AD4BF5
:100C0D00AF48FE1213787F047E001213B9E5482415
:100C1D0001FFE43547FEAD4C1213787B007A007965
:080C2D0049AF48AE47020EDB9F
:0B147600AD078D6A7F007E0602137830
:100C3500E4FFFE1213348F66E566D3940F40047FFC
:100C45000180027F00E566C3940050047E018002A6
:100C55007E00EE4F60037566057F007E0412133437
:100C6500EF1392037F027E04121334EF1392007F79
:100C7500007E061213348F6AE56AB4FF02D3227F21
:100C8500007E021210CF8E688F697402FFFE121368
:050C9500348F67C3224B
:0D144500E4F5C7F5C5F5C675C380F5C422F2
:1013E10075C78075C5038FC48EC375C65A75C6A5EA
:0413F100000214459D
:1013340075C78075C5018FC48EC375C65A75C6A599
:0613440000AFC2121445C7
:01134A002280
:0A0EDB008E4D8F4E8B4F8A508951C7
:100EE50075C78075C501E4FDED7E00254EF553EE11
:100EF500354DF5528553C4E552F5C375C65A75C6C9
:100F0500A50000AB4FAA50A9518D82758300E5C29B
:0A0F15001204BC0DBD03D102144507
:1013780075C78075C5028FC48EC38DC275C65A7570
:06138800C6A50002144599
:0714CC007F0A7E000213CD30
:0F142700D2A4D2A51214CCC2A41214CCC2A522F6
:0C145F00C2A4D2A51214CCD2A40214CC5A
:10140700EF24FF92A41214CCD2A51214CCC2A522A9
:10138E00D2A41214CCD2A51214CCA2A49209C2A536
:05139E00A209E433FF89
:0113A3002227
:020FDB008F582D
:100FDD00755908AF591559EF601DE55830E704D222
:100FED00A48002C2A41214CCD2A51214CCC2A5E5C1
:100FFD005825E0F55880DC12138EEF24FF9208A2DD
:04100D0008E433FFC1
:0110110022BC
:021045008F58C2
:10104700755908E4F55AD2A4AF591559EF6017E559
:101057005A25E0F55AD2A51214CC30A402055AC27B
:0D106700A51214CC80E2AF58121407AF5A46
:011074002259
:0414DF000000000009
:030B6C00011E0067
:060F6100AD4AAC497F031C
:060F67008F4B8C4C8D4DF8
:100F6D00784E7C007D007BFF7A1479DF7E007F0256
:100F7D00120496E54CF54EE54DF54F1214277F22E0
:100F8D00120FDBAF4B120FDBAF4E120FDBAF4F1259
:050F9D000FDB02145FF0
:020F1F008F55EC
:100F210078567C007D007BFF7A1479E17E007F0298
:100F31001204961214277F22120FDBAF55120FDB1A
:100F41001214277F23120FDBE4FF1210458F567F07
:0F0F5100011210458F5712145FE556FEE557FF4A
:010F6000226E
:100AE1007D027C007F02120F677F327E001213B9F4
:100AF1007D017CC07F02120F677F327E001213B925
:100B0100E5692404FFE56834DEFE7C007D0A1204F9
:100B1100F0EF7806C333CE33CED8F9AC064410FDDE
:100B21007F03120F677D007C047F04120F677486B8
:100B3100FCE56644A0FD7F05120F677D007C807F88
:100B410006120F677D1A7C5F7F07120F6785685E4B
:040B510085695F2231
:040752008E4B8F4CEF
:10075600E4F54DF54EF54FF550F551F552F553F5D7
:10076600547F03120F1F7E00EF540C7802CEC31382
:10077600CE13D8F9F5548E5345537008754D21752F
:100786004EFC8024E55464014553700E754D1D756D
:100796004EB0754F2375508C803DE5546402455329
:1007A600700E754D1D754EB0754F2A7550308027E9
:1007B600E5546403455370647F07120F1FEEC3139D
:1007C60030E008754D19754E648006754D13754EEB
:1007D60088754F1D7550B07F03120F1F755300EFBC
:1007E6005403F55445537007F55175520A802FE5A9
:1007F60054640145537007F5517552148020E55431
:10080600640245537007F5517552058011E554642D
:100816000345537007F55175520280028018C3E5EF
:100826004C954EE54B954D5002800BD3E54C9550BB
:10083600E54B954F4004E4FEFF22C3E54C954EFF81
:0C084600E54B954DFEAC51AD521204F094
:010852002283
:040545008E478F4806
:10054900E4F549F54AF54BF54CF54DF54EF54FF502
:10055900507F03120F1F7E00EF540C7802CEC31395
:10056900CE13D8F9F5508E4F454F7008754921754E
:100579004AFC8024E5506401454F700E75491D758C
:100589004AB0754B23754C8C803DE5506402454F4C
:10059900700E75491D754AB0754B2A754C30802708
:1005A900E5506403454F70647F07120F1FEEC313B4
:1005B90030E008754919754A648006754913754A0A
:1005C90088754B1D754CB07F03120F1F754F00EFD7
:1005D9005403F550454F7007F54D754E0A802FE5C8
:1005E900506401454F7007F54D754E148020E55054
:1005F9006402454F7007F54D754E058011E550644D
:1006090003454F7007F54D754E028002802DAC4DA4
:10061900AD4EAE47AF481204DEE54A2FF550E54925
:100629003EF54FD3E550954CE54F954B4002800B75
:10063900C3E550954AE54F95495004E4FEFF22AEC3
:030649004FAF5060
:01064C00228B
:0E143600E4FE7F0A120F1FEE5403FE1205455E
:011444002285
:100FA2001207528E478F487F03120F1F8E498F4AB6
:100FB200534A3F754900E5475403FEE5487806C3A6
:100FC20033CE33CED8F9424AEE4249434A10120F89
:090FD20061120F617F0A02134B4A
:091497007F05120F1FEE540FFF38
:0114A0002229
:0212EA008F3E35
:1012EC007F05120F1FAD07AC065304F0E53EFEEE72
:0712FC0042047F05020F67A9
:020C9A008F4485
:100C9C007F03120F1FAD07AC065305EF7F03120F36
:100CAC00677F02120F1FAC06AD07E544B401054384
:100CBC00040280035304FD43040130070553057FF0
:100CCC0080034305807F02120F677F0A120F1FEE0D
:100CDC0020E6097F0A7E001213B980EE1214368EBC
:0A0CEC00458F46120FA2AE45AF4639
:010CF60022DB
:0B148100EF24FF920CD207120C9A22FD
:0A148C007F0B120F1FEEFF53070144
:011496002233
:10064D00E4F53EF53FFE7F03120F1F7E00EF540CC5
:10065D007802CEC313CE13D8F9FF4E700875402122
:10066D007541FC8020EF64014E700E75401D754183
:10067D00B075422375438C803CEF64024E700E754D
:10068D00401D7541B075422A7543308028EF6403D3
:10069D004E60030207517F07120F1FEEC31330E0A8
:1006AD00087540197541648006754013754188754C
:1006BD00421D7543B0AE40AF418E5E8F5F8E688F29
:1006CD0069D20C7F0A12134BAF41AE40120FA27FBD
:1006DD00327E001213B91214C5E56965437004E545
:1006ED006865426035C2077F01120C9A8E688F696A
:1006FD007FF47E011213B912148CEF60187FF47E13
:10070D00011213B9AF3FAD69AC68120BC7053FE5D8
:10071D003F7002053E1214AB80BFE53F153F7002DE
:10072D00153EAF3F121476E4F567FF1212D08E68B6
:10073D008F698E5E8F5FAF5FAE5E120FA2AF69AE37
:04074D0068120DFB26
:010751002285
:0211E7008F3E39
:1011E9007F05120F1FAD07AC065305F0E53E540FFE
:1011F90042057F05120F67853E66E51E70057F0172
:0312090012129826
:01120C0022BF
:021298008F3F86
:10129A007F02120F1FAD07AC06E53F60054304400D
:0A12AA0080035304BF7F02020F67A8
:10119A007F02120F1FAD07AC06ECC413135403F4FD
:1011AA0054016008430440751E0180065304BFE4DD
:0711BA00F51E7F02020F6722
:0914A1007F0B120F1FEEC313FFB5
:0114AA00221F
:101417007F02120F1FAC06EF54FEFD7F02020F671B
:02107500AD07C5
:10107700E4FB74807E00A803088006CEA2E713CEA7
:1010870013D8F8FFEDF582EF558224FF92B2D2B460
:0A109700C2B40BBB08DCD2B3C2B335
:0110A100222C
:1010FA00C0F9A4B0999282F880907F8883C6A186AD
:10110A008E8CC1CE9189C712C8ABF7BF4079243003
:09111A001912027800107FC78948
:100B6F00025E21FC0263000001620A01650001615F
:0D0B7F0000016000C18C025C1F40015B00A2
:1013F500ED4C6007EF90111693FF22EF9010FA93D2
:02140500FF22C4
:10120D00300308752C00752D158006752C00752D75
:10121D0016752E00752FFF7BFF7A007DFF7C007FFA
:05122D00171208532216
:0409C800AB07AA06C9
:1009CC007C277D101204F08F257C277D10AF03AEA1
:1009DC00021204F07E037FE8CFCDCFCECCCE120432
:1009EC00F08F247C037DE8AF03AE021204F07E008E
:1009FC007F64CFCDCFCECCCE1204F08F23AE02AF1E
:100A0C00037C007D641204F07E007F0ACFCDCFCE34
:100A1C00CCCE1204F08F26E525C39401E524FD7C91
:100A2C0000E523FB7A00500F752C008F2D752E00DE
:100A3C00752F037F64800E752C0085262D752E0076
:080A4C00752F03AF25120853BA
:010A5400227F
:100E4700E55FB5690AE55EB56805AF5FFE803930D5
:100E57000C19055FE55F7002055ED39430E55E947B
:100E67002A4021755E21755FFC8019E55F155F706B
:100E770002155EC3E55F94FCE55E94215006755E3E
:0C0E87002A755F30AF5FAE5E1209C82212
:10123200E56675F00A84FD7C00E56675F00A84E5D2
:10124200F0FB7A00752C00752DFF752E00752FFFAF
:051252007FFF020853BC
:10000E00E56575F06484FFE56575F06484E5F0756B
:10001E00F00A84F524E56575F00A8485F023EF6017
:10002E0016FD7C00E524FB7A00752C0085232D75CA
:10003E002E00752FFF8015E524FB7A00752C0085A8
:10004E00232D752E00752FFF7DFF7C007FFF12087C
:01005E00534E
:01005F00227E
:1010A200E56175F00A84A9F0E56175F06484E5F004
:1010B20075F00A84FB7A00AF01752C008F2D752E16
:0D10C20000752FFF7D197C007F1702085379
:100DA900E56075F06484FFE56075F06484E5F075CD
:100DB900F00A84F524E56075F00A8485F023EF6074
:100DC90016FD7C00E524FB7A00752C0085232D7522
:100DD9002E00752FFF8015E524FB7A00752C008500
:100DE900232D752E00752FFF7DFF7C007F161208BD
:010DF90053A6
:010DFA0022D6
:1013A400E4F52CF52DF52E752FFF7B18FA7DFFFC47
:0513B4007FFF02085359
:10130300752C00752D1A752E00752FFF7B1A7A0028
:091313007DFF7C007FFF020853FE
:1012B400A200E433752C00F52D752E00752FFF7BED
:0C12C400FF7A007DFF7C007F17020853BA
:100CF700A907E97012C3ED953BE53A6480F8EC6407
:100D07008098500122C322B90112C3EB953BE53A03
:100D17006480F8EA648098500122C322B90214C3A0
:100D2700E537953BE53A6480F8E5366480985001ED
:100D370022C322B90314C3E539953BE53A6480F829
:0C0D4700E538648098500122C322C322CA
:0A0853008F278C288D298A2A8B2B11
:10085D0075301CE527FD7C00852A36852B37852CC8
:10086D0038852D39753A0085303BAB29AA28AF5B09
:10087D00120CF7400E055BE55BD3940340D5E4F510
:10088D005B80D0E55B7021D2A3D2A2D2A1E52F640B
:10089D0001452E7005FC7D0180047C007D00AF2795
:1008AD001213F5121075C2A0E55B64017021D2A37D
:1008BD00D2A2D2A0AF29E52F6402452E7005FC7D92
:1008CD000180047C007D001213F5121075C2A1E5A4
:1008DD005B64027021D2A3D2A1D2A0AF2BE52F640D
:1008ED0003452E7005FC7D0180047C007D001213F4
:1008FD00F5121075C2A2E55B64037021D2A2D2A1DC
:10090D00D2A0AF2DE52F6404452E7005FC7D01802E
:10091D00047C007D001213F5121075C2A3055BE572
:09092D005BD394034003E4F55B85
:01093600229E
:100E9300E562B40A03120E47E5627003121303E519
:100EA30062B401031213A4E562B4020312000EE557
:100EB30062B4030312120DE562B40403121232E5A5
:100EC30062B405031212B4E562B465031210A2E51D
:080ED30062B46603120DA922AE
:0814BD007F0312134BB203225E
:0A14AB00200306755C1F755D4022EA
:10101200200307E562D394644005120E938022D325
:10102200E55D940AE55C9400400D120E93E55D15B2
:101032005D700E155C800AD2A3D2A2D2A1D2A0D337
:0310420022C322A4
:10134B00E4F563F564E5626F600CBF0402D202BF83
:07135B000302D2048F62229D
:03006000AF62226A
:10112300E560C39414500474058014E560C3943CD3
:101133005004740A8009E560C394E65006741425CC
:0811430060F5607F6602134BAA
:10114B00E560D3943C400474EC8014E560D39414B4
:10115B00400474F68009E560C39405400674FB25D2
:08116B0060F5607F6602134B82
:100B8C00011A00010800010900010A00010B000212
:100B9C0012000002140000021600000218000001EE
:100BAC000E00010F00011000011100010C00010DDD
:0A0BBC0000011B00011C00011D00D8
:0514D900E4AF1AF51A52
:0114DE0022EB
:10006600309639E4F512F513E50E6006E4F50E75E3
:100076001A01E50C6021E51B6005E4F51B8015E51A
:100086001C6005E4F51C800CE51D6005E4F51D808B
:1000960003751A0BE4F50CE4F5088077E508707330
:1000A600E51B706FE51C706BE51D70670513E513A6
:1000B60070020512D39414E51294004003750E01E4
:1000C6000513E51370020512D394E8E51294034074
:1000D60042209711750801750C01E4F50E751B0198
:1000E600751A0C802E209511750801750C01E4F522
:1000F6000E751C01751A0D801A209411750801756C
:100106000C01E4F50E751D01751A0E8006E4F50E58
:10011600750C01309713E50F6006E4F50F751A02AA
:10012600E4F509F514F5158046E5097042E50E700B
:100136003EE50C703AE51B7036E51C7032E51D7025
:100146002E0515E51570020514D39414E5149400D4
:100156004003750F020515E51570020514D394E8E2
:10016600E51494034009E4F50F750902751A163073
:100176009513E5106006E4F510751A03E4F50AF523
:1001860016F5178046E50A7042E50E703EE50C70DE
:100196003AE51B7036E51C7032E51D702E0517E535
:1001A6001770020516D39414E516940040037510D3
:1001B600010517E51770020516D394E8E5169403B2
:1001C6004009E4F510750A01751A21309412E511FB
:1001D6006006E4F511751A04E4F50BF518F5192215
:1001E600E50B7042E50E703EE50C703AE51B703685
:1001F600E51C7032E51D702E0519E519700205180B
:10020600D39414E518940040037511010519E519F6
:1002160070020518D394E8E51894034009E4F51133
:07022600750B01751A2C2273
:10131C00438E805389F0438901758A66758C7EC231
:08132C008DD28CD2A9D2AF22B0
:0D145200538EFBE4F5D775D628438E10228B
:03000000020A559C
:0C0A5500787FE4F6D8FD75816E020A9CE3
:1003C600E709F608DFFA8046E709F208DFFA803E19
:1003D60088828C83E709F0A3DFFA8032E309F60806
:1003E600DFFA8078E309F208DFFA807088828C836E
:1003F600E309F0A3DFFA806489828A83E0A3F60822
:10040600DFFA805889828A83E0A3F208DFFA804CFB
:1004160080D280FA80C680D4806980F280338010D2
:1004260080A680EA809A80A880DA80E280CA80333B
:1004360089828A83ECFAE493A3C8C582C8CCC583B3
:10044600CCF0A3C8C582C8CCC583CCDFE9DEE78083
:100456000D89828A83E493A3F608DFF9ECFAA9F002
:10046600EDFB2289828A83ECFAE0A3C8C582C8CC58
:10047600C583CCF0A3C8C582C8CCC583CCDFEADE71
:10048600E880DB89828A83E493A3F208DFF980CCD3
:1004960088F0EF60010E4E60C388F0ED2402B404CC
:1004A6000050B9F582EB2402B4040050AF23234573
:0604B6008223900416737E
:1004BC00F8BB010DE58229F582E5833AF583E8F076
:1004CC00225006E92582C8F622BBFE05E92582C822
:0204DC00F2220A
:1004DE00EF8DF0A4A8F0CF8CF0A428CE8DF0A42E32
:0204EE00FE22EC
:1004F000BC000BBE0029EF8DF084FFADF022E4CCF0
:10050000F875F008EF2FFFEE33FEEC33FCEE9DECB8
:10051000984005FCEE9DFE0FD5F0E9E4CEFD22EDFE
:10052000F8F5F0EE8420D21CFEADF075F008EF2F48
:10053000FFED33FD4007985006D5F0F222C398FD39
:050540000FD5F0EA22D6
:100A6100020D53E493A3F8E493A34003F68001F24B
:100A710008DFF48029E493A3F85407240CC8C33396
:100A8100C4540F4420C8834004F456800146F6DF65
:100A9100E4800B0102040810204080900B55E47E95
:100AA100019360BCA3FF543F30E509541FFEE4935A
:100AB100A360010ECF54C025E060A840B8E493A321
:100AC100FAE493A3F8E493A3C8C582C8CAC583CA4C
:100AD100F0A3C8C582C8CAC583CADFE9DEE780BE04
:010BC600002E
:00000001FF
