:1001D5008F3112140BE55CD3940A500302029CE59F
:1001E5003164017027E55CB40B161213F78F55E5E2
:1001F50055B40F05E4F55580020555AF5512125B50
:10020500E55C64156003020380021144E55CD39448
:100215000A402CE53164027026E55CB40B15121317
:10022500F78F55E555700575550F80021555AF5576
:1002350012125BE55C6415600302038002116CE534
:100245005CD3940A4014E531B4030FE55CB415039F
:10025500E4F55FE4FF1214278039E55CD3940A5076
:1002650003020380E53164046003020380E55CB4A6
:100275000B0312061EE55CB41519E554D394004032
:100285000A7F01121427755F018008E4FF12142705
:10029500E4F55FE4F55C22E531B40C0D12141FE4BE
:1002A500F55DF55EC207D20222E531B40B0A755C35
:1002B50015E4F55F7F66801DE531B40D0C1213F76B
:1002C5008F55755C0B7F65800CE531B40E0A1214F1
:1002D500018F597F02021427E531B421047F018083
:1002E50007E531B42C0AE4FF1213E18E628F632215
:1002F500E531B416087F04121427021194E5316420
:1003050001701D7F04121427E5602401FFE433FE0C
:10031500C3EF9410EE648094805060E5600480140F
:10032500E531B4021D7F04121427E560D394004023
:100335004AE56014FF1211BBE4F55DF55EC207D214
:100345000022E5316403700EE561B56405E4F561ED
:10035500801405618010E531B40420E561700585E0
:10036500646180021561AF611212418E528F531282
:0C0375000F64E4F55DF55EC207D20322C0
:100FD400E4F55CF55FF554120C8412140B12128DB7
:100FE4007F087E00121313120BC1EF600512061E58
:100FF400800D856252856353AF63AE62120F64AF96
:04100400600211BBBA
:100E1400800F1214438F30E55FB4020AE530B42C1E
:100E2400F1120FD480ECE55FB40117E554C39401CB
:100E34005010755F02121384D2A3D2A2D2A1D2A001
:100E440080D0E5306004FF1201D53007C5121206C8
:090E5400E4F55DF55EC20780B90A
:03000B00020919CE
:10091900C0E0C0F0C083C082C0D075D000C000C0A4
:0D09290001C002C003C004C005C006C00725
:10093600E55FC3940250031210C312000E12141581
:10094600501E0557E55770020556C394D0E55694D8
:1009560007400D7F0A121427D207755D00755E00E9
:10096600E55FB40122055BE55B7002055AFFAE5AEE
:10097600E4FCFD7B607AEAF9F8C31205005008151D
:1009860054755A00755B00200719055EE55E700216
:10099600055DD394B8E55D940B4008D207755D00FC
:0B09A600755E00758A88758C96C28D06
:1009B100D007D006D005D004D003D002D001D0009A
:0B09C100D0D0D082D083D0F0D0E03244
:0A13CB0000007F217E42DEFEDFFC01
:0113D50022F5
:05143D00007F04DFFE4A
:011442002287
:10131300AD07AC06ED1DAE0470011C4E6005121343
:04132300CB80F12268
:03144D0002131374
:10132700AD07AC06ED1DAE0470011C4E600512142E
:041337003D80F122E2
:10128D00438E805389F0438901758A88758C96C287
:08129D008DD28CD2A9D2AF2240
:080003000000000000000000F5
:100B5300016005026221FC016100016400C103C15F
:030B630000C102CC
:0410F0008E398F3A6C
:1010F400783B7C007D007BFF7A0079037E007F02D1
:101104001204517B007A00793BAF3AAE39120E5D7E
:06111400E53BFEE53CFF97
:01111A0022B2
:021241008F38E4
:10124300EF75F002A42402FFE5F03406FE1210F05D
:071253008E628F6385386194
:01125A002271
:1012BC008F31E4FFFE12133BE531FDE4FFFE121209
:0612CC00D2E531F56022BD
:040D7C008E388F39E5
:100D8000783A7C007D007BFF7A0079057E007F0247
:100D9000120451E538F53A85393B7F007E02121383
:100DA0003BAD3A7F007E021212D2AD3B7F017E0244
:100DB0001212D2E561F46009AD617402FFFE1212F5
:070DC000D28538628539631A
:010DC7002209
:10134F007F007E0412133BA201E433FD7F007E0475
:03135F000212D2A5
:10120600300309AF63AE62120D7CC203300007AF34
:0F121600601212BCC20030020512134FC2022236
:07142F007F007E0602133B63
:060AE5008F388C398D3AB8
:100AEB00783D7C007D007BFF7A0079077E007F02DA
:100AFB00120451783F7C007D007BFF7A0079097EE0
:100B0B00007F02120451E539F53F853A40E538750F
:100B1B00F002A4AEF02402F53CEE3406F53BAD3FFB
:100B2B00AF3CFE1212D27F027E0012144DE53C2424
:100B3B0001FFE4353BFEAD401212D27B007A007907
:080B4B003DAF3CAE3B020E5D24
:0B13D600AD078D647F007E060212D27E
:100BC100E4FFFE1212A58F60E560D3940F40047F0D
:100BD1000180027F00E560C3940050047E01800221
:100BE1007E00EE4F60037560057F007E041212A542
:100BF100EF24FF9201300104D2018002C2017F0083
:100C01007E061212A58F64E564B4FF037F01227F83
:100C1100007E021210F08E628F637402FFFE1212C8
:060C2100A58F617F002297
:0D13B200E4F5C7F5C5F5C675C380F5C42286
:10133B0075C78075C5038FC48EC375C65A75C6A590
:04134B00000213B2D7
:1012A50075C78075C5018FC48EC375C65A75C6A529
:0612B50000AFC21213B2EB
:0112BB002210
:0A0E5D008E418F428B438A44894581
:100E670075C78075C501E4FDED7E002542F547EEA7
:100E77003541F5468547C4E546F5C375C65A75C677
:100E8700A50000AB43AA44A9458D82758300E5C23E
:0A0E97001204770DBD03D10213B25F
:1012D20075C78075C5028FC48EC38DC275C65A7517
:0612E200C6A5000213B2D4
:071436007F0A7E000213276C
:0F139400D2A4D2A5121436C2A4121436C2A522B6
:0C13BF00C2A4D2A5121436D2A402143627
:10137400EF24FF92A4121436D2A5121436C2A52269
:1012E800D2A4121436D2A5121436A2A49206C2A50C
:0512F800A206E433FF33
:0112FD0022CE
:020F9D008F4C77
:100F9F00754D08AF4D154DEF601DE54C30E704D290
:100FAF00A48002C2A4121436D2A5121436C2A5E52B
:100FBF004C25E0F54C80DC1212E8EF24FF9205A2DD
:040FCF0005E433FF03
:010FD30022FB
:021039008F4CDA
:10103B00754D08E4F54ED2A4AF4D154DEF6017E595
:10104B004E25E0F54ED2A512143630A402054EC241
:0D105B00A512143680E2AF4C121374AF4E94
:011068002265
:04144900000000009F
:030B6600011E006D
:060EE300AD3EAC3D7F03B3
:060EE9008F3F8C408D419B
:100EEF0078427C007D007BFF7A1479497E007F0277
:100EFF00120451E540F542E541F5431213947F2268
:100F0F00120F9DAF3F120F9DAF42120F9DAF4312B5
:050F1F000F9D0213BF4D
:020EA1008F4977
:100EA300784A7C007D007BFF7A14794B7E007F02B9
:100EB3001204511213947F22120F9DAF49120F9DFA
:100EC3001213947F23120F9DE4FF1210398F4A7F70
:0F0ED300011210398F4B1213BFE54AFEE54BFF9A
:010EE20022ED
:100C84007D027C007F02120EE97F327E0012131374
:100C94007D017CC07F02120EE97F587E021213137D
:100CA4007D107C007F03120EE97D007C047F04121A
:100CB4000EE97DA57C867F05120EE97D007C807F90
:100CC40006120EE97D1A7C5F7F07120EE9856252D7
:040CD40085635322BF
:040723008E3F8F4036
:10072700E4F541F542F543F544F545F546F547F55A
:10073700487F03120EA17E00EF540C7802CEC3133C
:10074700CE13D8F9F5488E4745477008754121758E
:1007570042FC8024E54864014547700E75411D75CC
:1007670042B075432375448C803DE5486402454794
:10077700700E75411D7542B075432A754430802748
:10078700E5486403454770647F07120EA1EEC31363
:1007970030E008754119754264800675411375424A
:1007A7008875431D7544B07F03120EA1754700EF8E
:1007B7005403F54845477007F54575460A802FE508
:1007C70048640145477007F5457546058020E548AB
:1007D700640245477007F5457546148011E548647E
:1007E7000345477007F54575462880028018C3E51D
:1007F700409542E53F95415002800BD3E540954433
:10080700E53F95434004E4FEFF22C3E5409542FFE0
:0C081700E53F9541FEAC45AD461204AB38
:0108230022B2
:040516008E3B8F3C4D
:10051A00E4F53DF53EF53FF540F541F542F543F585
:10052A00447F03120EA17E00EF540C7802CEC3134F
:10053A00CE13D8F9F5448E4345437008753D2175AD
:10054A003EFC8024E54464014543700E753D1D75EB
:10055A003EB0753F2375408C803DE54464024543B7
:10056A00700E753D1D753EB0753F2A754030802767
:10057A00E5446403454370647F07120EA1EEC3137A
:10058A0030E008753D19753E648006753D13753E69
:10059A0088753F1D7540B07F03120EA1754300EFA9
:1005AA005403F54445437007F54175420A802FE527
:1005BA0044640145437007F5417542058020E544CE
:1005CA00640245437007F5417542148011E544649D
:1005DA000345437007F5417542508002802DAC41B6
:1005EA00AD42AE3BAF3C120499E53E2FF544E53DE2
:1005FA003EF543D3E5449540E543953F4002800BE1
:10060A00C3E544953EE543953D5004E4FEFF22AE22
:03061A0043AF44A7
:01061D0022BA
:0E13A300E4FE7F0A120EA1EE5403FE120516A0
:0113B1002219
:100F64001207238E3B8F3C7F03120EA18E3D8F3ED2
:100F7400533E3F753D00E53B5403FEE53C7806C314
:100F840033CE33CED8F9423EEE423D433E10120EEC
:090F9400E3120EE37F0A021427A8
:0913F7007F05120EA1EE540FFF58
:0114000022C9
:02125B008F32D0
:10125D007F05120EA1AD07AC065304F0E532FEEE8C
:07126D0042047F05020EE9B7
:020C27008F3804
:100C29007F03120EA1AD07AC065305EF7F03120E29
:100C3900E97F02120EA1AC06AD07E538B401054300
:100C4900040280035304FD43040130040553057F66
:100C590080034305807F02120EE97F0A120EA1EE7E
:100C690020E6097F017E0012131380EE1213A38E72
:0A0C7900398F3A120F64AE39AF3A1A
:010C8300224E
:0B13E100EF24FF9208D204120C272218
:0A13EC007F0B120EA1EEFF53070164
:0113F60022D4
:10061E00E4F532F533FE7F03120EA17E00EF540C8B
:10062E007802CEC313CE13D8F9FF4E70087534215D
:10063E007535FC8020EF64014E700E75341D7535D6
:10064E00B075362375378C803CEF64024E700E7594
:10065E00341D7535B075362A7537308028EF640332
:10066E004E60030207227F07120EA1EEC31330E085
:10067E0008753419753564800675341375358875AB
:10068E00361D7537B0AE34AF358E528F538E628FA6
:10069E0063D2087F0A121427AF35AE34120F647F6F
:1006AE00327E0012131312142FE56365377004E5C2
:1006BE006265366035C2047F01120C278E628F632D
:1006CE007FF47E011213131213ECEF60187FF47E89
:1006DE0001121313AF33AD63AC62120AE50533E5B5
:1006EE00337002053212140B80BFE53315337002DE
:1006FE001532AF331213D6E4F561FF1212418E623A
:10070E008F638E528F53AF53AE52120F64AF63AEE0
:04071E0062120D7CDA
:0107220022B4
:0211BB008F3271
:1011BD007F05120EA1AD07AC065305F0E532540FB5
:1011CD0042057F05120EE9853260E51E70057F012F
:0311DD00121225C6
:0111E00022EC
:021225008F3305
:101227007F02120EA1AD07AC06E53360054304400B
:0A12370080035304BF7F02020EE99A
:101194007F02120EA1AD07AC06ECC413135403F482
:1011A40054016008430440751E0180065304BFE4E3
:0711B400F51E7F02020EE9A7
:091401007F0B120EA1EEC313FFD4
:01140A0022BF
:101384007F02120EA1AC06EF54FEFD7F02020EE9AD
:02106900AD07D1
:10106B00E4FB74807E00A803088006CEA2E713CEB3
:10107B0013D8F8FFEDF582EF558224FF92B2D2B46C
:0A108B00C2B40BBB08DCD2B3C2B341
:011095002238
:10111B00C0F9A4B0999282F880907F8883C6A1868B
:10112B008E8CC1CE9189C712C8ABF7407924301988
:09113B0012027800107FC7890040
:100B6900025221FC0256000001580A0159000155A0
:0D0B790000015400C18802501F40014F00D0
:10136200ED4C6007EF90113693FF22EF90111B9323
:02137200FF2258
:10100800300114752B00752CFF752D00752EFF7B94
:10101800FF7A007D158012752B00752CFF752D0049
:10102800752EFF7BFF7A007D167C007FFF12082457
:011038002295
:0409CC00AB07AA06C5
:1009D0007C277D101204AB8F247C277D10AF03AEE3
:1009E000021204AB7E037FE8CFCDCFCECCCE120473
:1009F000AB8F237C037DE8AF03AE021204AB7E0015
:100A00007F64CFCDCFCECCCE1204AB8F22AE02AF5F
:100A1000037C007D641204AB7E007F0ACFCDCFCE75
:100A2000CCCE1204AB8F25E524C39401E523FD7CD5
:100A300000E522FB7A00500F752B008F2C752D00DE
:100A4000752E037F64800E752B0085252C752D0077
:080A5000752E03AF24120824E7
:010A5800227B
:100DC800E553B5630AE552B56205AF53FE80393085
:100DD80008190553E55370020552D39430E552942F
:100DE8002A40217552217553FC8019E5531553701B
:100DF800021552C3E55394FCE552942150067552EE
:0C0E08002A755330AF53AE521209CC22B1
:1011E100E56075F00A84FD7C00E56075F00A84E530
:1011F100F0FB7A00752B00752C64752D00752E643B
:051201007F64020824D7
:100CD800E55975F06484FFE55975F06484E5F075AD
:100CE800F00A84F523E55975F00A8485F022EF604F
:100CF80016FD7C00E523FB7A00752B0085222C75F8
:100D08002D00752EFF8015E523FB7A00752B0085D5
:100D1800222C752D00752EFF7DFF7C007FFF1208A9
:010D280024A6
:010D290022A7
:10109600E55575F00A84A9F0E55575F06484E5F028
:1010A60075F00A84FB7A00AF01752B008F2C752D25
:0D10B60000752EFF7D197C007F17020824B5
:100D2A00E55475F06484FFE55475F06484E5F07564
:100D3A00F00A84F523E55475F00A8485F022EF6001
:100D4A0016FD7C00E523FB7A00752B0085222C75A5
:100D5A002D00752EFF8015E523FB7A00752B008583
:100D6A00222C752D00752EFF7DFF7C007F16120840
:010D7A002454
:010D7B002255
:1012FE00E4F52BF52CF52D752EFF7B18FA7DFFFCF2
:05130E007FFF0208242E
:10127400752B00752C1A752D00752EFF7B1A7A00BC
:091284007DFF7C007FFF020824BD
:080824008C278D288A298B2AFC
:10082C00752F1BE54F702BEFC3952F400302090C5E
:10083C00D2A3D2A2D2A1E52E6401452D7005FC7D78
:10084C000180047C007D00121362121069C2A002A8
:10085C000901E54F64017033C3E528952F7480F8C6
:10086C00652798400302090CD2A3D2A2D2A0AF28CC
:10087C00E52E6402452D7005FC7D0180047C007D15
:10088C0000121362121069C2A1806AE54F640270F3
:10089C0030C3E52A952F7480F86529985062D2A34D
:1008AC00D2A1D2A0AF2AE52E6403452D7005FC7DA4
:1008BC000180047C007D00121362121069C2A280B8
:1008CC0034E54F64037039C3E52C952F7480F865BB
:1008DC002B98502CD2A2D2A1D2A0AF2CE52E64041E
:1008EC00452D7005FC7D0180047C007D0012136297
:1008FC00121069C2A3901143E493FF7E00121313EC
:0C090C00054FE54FD394034003E4F54F82
:0109180022BC
:100F2400E558B40A03120DC8E5587003121274E5AB
:100F340058B401031212FEE558B40203120CD8E5AA
:100F440058B40303121008E558B404031211E1E580
:100F540058B46503121096E558B46603120D2A229C
:08141F007F03121427B2012221
:0A140B0020010675501F75514022A4
:1010C300200107E558D394644003020F24D3E5516C
:1010D300940AE5509400400C120F24E55115517009
:0D10E3000B155022D2A3D2A2D2A1D2A0227E
:0A141500E558C39464500122C3227D
:08142700E4F556F5578F582239
:10114400E554C39414500474058014E554C3943CCA
:101154005004740A8009E554C394E65006741425B7
:0811640054F5547F66021427C4
:10116C00E554D3943C400474EC8014E554D39414AB
:10117C00400474F68009E554C39405400674FB25BD
:08118C0054F5547F660214279C
:100B8600011D00010800010900010A00010B000215
:100B96001500000217000002190000021B000001E8
:100BA6000E00010F00011000011100010C00010DE3
:0A0BB60000011200011300011400F9
:05144300E4AF1DF51DE2
:011448002281
:10000E00309639E4F515F516E50E6006E4F50E7535
:10001E001D01E50C6021E5126005E4F5128015E581
:10002E00136005E4F513800CE5146005E4F5148007
:10003E0003751D0BE4F50CE4F5088077E508707385
:10004E00E512706FE513706BE51470670516E51613
:10005E0070020515D39414E51594004003750E0136
:10006E000516E51670020515D394E8E515940340C0
:10007E0042209711750801750C01E4F50E751201F9
:10008E00751D0C802E209511750801750C01E4F577
:10009E000E751301751D0D801A20941175080175CA
:1000AE000C01E4F50E751401751D0E8006E4F50EB7
:1000BE00750C01309713E50F6006E4F50F751D0200
:1000CE00E4F509F517F5188046E5097042E50E705E
:1000DE003EE50C703AE5127036E5137032E5147099
:1000EE002E0518E51870020517D39414E517940021
:1000FE004003750F020518E51870020517D394E832
:10010E00E51794034009E4F50F750902751D1630C5
:10011E009513E5106006E4F510751D03E4F50AF578
:10012E0019F51A8046E50A7042E50E703EE50C7030
:10013E003AE5127036E5137032E514702E051AE5A5
:10014E001A70020519D39414E51994004003751022
:10015E0001051AE51A70020519D394E8E5199403FE
:10016E004009E4F510750A01751D21309412E51150
:10017E006006E4F511751D04E4F50BF51BF51C2264
:10018E00E50B7042E50E703EE50C703AE5127036E6
:10019E00E5137032E514702E051CE51C7002051B6C
:1001AE00D39414E51B94004003751101051CE51C46
:1001BE007002051BD394E8E51B94034009E4F51186
:0701CE00750B01751D2C22C9
:03000000020A5998
:0C0A5900787FE4F6D8FD758164020AA0E5
:10038100E709F608DFFA8046E709F208DFFA803E5E
:1003910088828C83E709F0A3DFFA8032E309F6084B
:1003A100DFFA8078E309F208DFFA807088828C83B3
:1003B100E309F0A3DFFA806489828A83E0A3F60867
:1003C100DFFA805889828A83E0A3F208DFFA804C41
:1003D10080D280FA80C680D4806980F28033801018
:1003E10080A680EA809A80A880DA80E280CA803381
:1003F10089828A83ECFAE493A3C8C582C8CCC583F9
:10040100CCF0A3C8C582C8CCC583CCDFE9DEE780C8
:100411000D89828A83E493A3F608DFF9ECFAA9F047
:10042100EDFB2289828A83ECFAE0A3C8C582C8CC9D
:10043100C583CCF0A3C8C582C8CCC583CCDFEADEB6
:10044100E880DB89828A83E493A3F208DFF980CC18
:1004510088F0EF60010E4E60C388F0ED2402B40411
:100461000050B9F582EB2402B4040050AF232345B8
:0604710082239003D17309
:10047700F8BB010DE58229F582E5833AF583E8F0BB
:10048700225006E92582C8F622BBFE05E92582C867
:02049700F2224F
:10049900EF8DF0A4A8F0CF8CF0A428CE8DF0A42E77
:0204A900FE2231
:1004AB00BC000BBE0029EF8DF084FFADF022E4CC35
:1004BB00F875F008EF2FFFEE33FEEC33FCEE9DECFE
:1004CB00984005FCEE9DFE0FD5F0E9E4CEFD22ED44
:1004DB00F8F5F0EE8420D21CFEADF075F008EF2F8E
:1004EB00FFED33FD4007985006D5F0F222C398FD7F
:0504FB000FD5F0EA221C
:10050000EB9FF5F0EA9E42F0E99D42F0EC6480C872
:0605100064809845F02212
:100A6500020E14E493A3F8E493A34003F68001F285
:100A750008DFF48029E493A3F85407240CC8C33392
:100A8500C4540F4420C8834004F456800146F6DF61
:100A9500E4800B0102040810204080900B53E47E93
:100AA500019360BCA3FF543F30E509541FFEE49356
:100AB500A360010ECF54C025E060A840B8E493A31D
:100AC500FAE493A3F8E493A3C8C582C8CAC583CA48
:100AD500F0A3C8C582C8CAC583CADFE9DEE780BE00
:010BC0000034
:00000001FF
