:030CFB00011800DD
:1003F0007530061213348F31E5317003020571E553
:1004000031B40C03121303E518D394004018E531FE
:10041000B401131212EF8F30E530B40F05E4F5305C
:1004200080200530801CE518D39400401EE531B4CF
:1004300002191212EF8F30E530700575300F80020F
:100440001530AF3012118E85300B22E518D3940091
:070450004023E531B4031E57
:10045700E518B40B047F0180027F008F32E4F518A2
:0E046700750C0AE5327003020571E4F51222ED
:0D047500E518D394004029E531640470239C
:10048200E518B40B047F0180027F008F32120870DE
:1004920085130985140AE4F518E5326003E4F512C0
:0304A200D204225F
:1004A500E531B40D191212EF8F0B751801750C0E8D
:1004B500E512600302057175120175180B22E5310D
:1004C500B40E091212F98F0F750C0222E531B42111
:1004D5000BD203C2041212E47F01800EE531B42C65
:1004E50011C203C2041212E4E4FF12132E8E138FFD
:1004F5001422E531B41609750C011212E4021089B3
:10050500E531B4011E750C011212E4E5102401FF5A
:10051500E433FEC3EF9410EE64809480504EE510F2
:10052500048015E531B40214750C011212E4E510CE
:10053500D394004037E51014FF021039E531B403B8
:100545000EE511B51505E4F511801405118010E5CA
:1005550031B40418E511700585151180021511D205
:0C056500041212E4AF11121174120DE226
:010571002267
:100D9700120D4A7F0A7E0012121B85130985140A59
:090DA7001211C0120BFFEF6021D4
:100DB000E4F52FE5127006751201752F0112087007
:0F0DC00085130985140AE52F6003E4F512D204A8
:100DCF008007AF14AE13120DE2AF101210391203D9
:030DDF00F080FBA6
:03000B00020ADB0B
:100ADB00C0E0C0F0C083C082C0D075D000C000C0E1
:0D0AEB0001C002C003C004C005C006C00762
:100AF8001210B0120263E50CC3940A501A0517E5E8
:100B08001770020516C394A0E516940F40097516D0
:0F0B180000751700750C0A758A88758C96C28D4A
:100B2700D007D006D005D004D003D002D001D00022
:0B0B3700D0D0D082D083D0F0D0E032CC
:0A12C30000007F217E42DEFEDFFC0A
:0112CD0022FE
:05132200007F04DFFE66
:0113270022A3
:10121B00AD07AC06ED1DAE0470011C4E600512123D
:04122B00C380F12269
:03133E0002121B7D
:10122F00AD07AC06ED1DAE0470011C4E6005121328
:04123F002280F122F6
:10125700759850438E01438E0475D74175D6FD436B
:031267008E1022C4
:080003008F993099FDC299228A
:06132800AE0712000322D3
:1011C000438E805389F0438901758A88758C96C255
:0811D0008DD2A9D2AFD28C220E
:08130C000000000000000000D9
:100CFE00011005011201021321FC01110001150062
:040FE5008E3A8F3B76
:100FE900783C7C007D007BFF7A13790C7E007F02C0
:100FF9001200DE7B007A00793CAF3BAE3A120E2B31
:06100900E53CFEE53DFFA1
:01100F0022BE
:10113C008F34E51065346013E4FFFE121243E5347E
:0C114C00FDE4FFFE1211EFE534F5102267
:040C55008E438F44F7
:100C590078457C007D007BFF7A13790E7E007F0248
:100C69001200DEE543F5458544467F007E021212F7
:100C790043AD457F007E021211EF7F027E00121301
:100C89003EAD467F017E021211EF7F027E001213F4
:0F0C99003EE511F46009AD117402FFFE1211EF78
:010CA8002229
:1010FC007F007E041211D8EF30E005E4F512800376
:10110C007512017F007E04121243AD127F007E0423
:03111C000211EFCE
:071314007F007E0602124378
:060A6D008F398C3A8D3B2D
:100A7300783E7C007D007BFF7A1379107E007F0235
:100A83001200DE78407C007D007BFF7A1379127EB2
:100A9300007F021200DEE53AF540853B41E53975FA
:100AA300F002A4AEF02402F53DEE3406F53CAD4071
:100AB300AF3DFE1211EF7F027E0012133EE53D248F
:100AC30001FFE4353CFEAD411211EF7B007A007962
:080AD3003EAF3DAE3C020E2BCC
:0B12CE00AD078D157F007E060211EFBA
:100BFF00E4FFFE1211D88F10E510C394004007E5F3
:100C0F0010D3940F40037510057F007E041211D886
:100C1F008F12E51260057512018003E4F5127F0053
:100C2F007E061211D88F15E515B4FF037F01227FC1
:100C3F00007E02120FE58E138F147402FFFE121145
:060C4F00D88F117F002286
:021174008F39B1
:10117600EF75F002A42402FFE5F03406FE120FE537
:071186008E138F148539114F
:01118D00223F
:0D12AA00E4F5C7F5C5F5C675C380F5C4228F
:1012430075C78075C5038FC48EC375C65A75C6A589
:04125300000212AAD9
:1011D80075C78075C5018FC48EC375C65A75C6A5F7
:0611E80000AFC21212AAC2
:0111EE0022DE
:0A0E2B008E428F438B448A458946AE
:100E350075C78075C501E4FDED7E002543F548EED7
:100E45003542F5478548C4E547F5C375C65A75C6A5
:100E5500A50000AB44AA45A9468D82758300E5C26D
:0A0E650012014A0DBD03D10212AACA
:1011EF0075C78075C5028FC48EC38DC275C65A75FB
:0611FF00C6A5000212AAC1
:07131B007F0A7E0002122F81
:0F128C00D2A4D2A512131BC2A412131BC2A522F7
:0C12B700C2A4D2A512131BD2A402131B68
:10127C00EF24FF92A412131BD2A512131BC2A5229A
:10120500D2A412131BD2A512131BA2A49202C2A52B
:05121500A202E433FF1A
:01121A0022B1
:020EF2008F501F
:100EF400755108AF511551EF601DE55030E704D22C
:100F0400A48002C2A412131BD2A512131BC2A5E50E
:100F14005025E0F55080DC121205EF24FF9201A267
:040F240001E433FFB2
:010F280022A6
:020F5B008F50B5
:100F5D00755108E4F552D2A4AF511551EF6017E564
:100F6D005225E0F552D2A512131B30A4020552C230
:0D0F7D00A512131B80E2AF5012127CAF5280
:010F8A002244
:04133A0000000000AF
:030D0E00011900C8
:060EB100AD42AC417F03DD
:060EB7008F438C448D45C1
:100EBD0078467C007D007BFF7A13793A7E007F02B5
:100ECD001200DEE544F546E545F54712128C7F220A
:100EDD00120EF2AF43120EF2AF46120EF2AF4712E0
:050EED000EF20212B735
:020E6F008F4DA5
:100E7100784E7C007D007BFF7A13793C7E007F02F7
:100E81001200DE12128C7F22120EF2AF4D120EF200
:100E910012128C7F23120EF2E4FF120F5B8F4E7F32
:0F0EA10001120F5B8F4F1212B7E54EFEE54FFFA8
:010EB000221F
:100D4A007D027C007F02120EB77F327E0012121BD8
:100D5A007D017CC07F02120EB77F587E0212121BE1
:100D6A007D107C007F03120EB77D007C047F041285
:100D7A000EB77DA57C867F05120EB77D007C807F2D
:0D0D8A0006120EB77D1A7C5F7F07020EB7C0
:04067A008E438F44D8
:10067E00E4F545F546F547F548F549F54AF54BF5E8
:10068E004C7F03120E6F7E00EF540C7802CEC31314
:10069E00CE13D8F9F54C8E4B454B70087545217528
:1006AE0046FC8024E54C6401454B700E75451D7566
:1006BE0046B075472375488C803DE54C6402454B2A
:1006CE00700E75451D7546B075472A7548308027E2
:1006DE00E54C6403454B70647F07120E6FEEC31337
:1006EE0030E00875451975466480067545137546E4
:1006FE008875471D7548B07F03120E6F754B00EF5E
:10070E005403F54C454B7007F549754A0A802FE5A1
:10071E004C6401454B7007F549754A058020E54C40
:10072E006402454B7007F549754A148011E54C6417
:10073E0003454B7007F549754A2880028018C3E5BA
:10074E00449546E54395455002800BD3E5449548C4
:10075E00E54395474004E4FEFF22C3E5449546FF7A
:0C076E00E5439545FEAC49AD4A12017E02
:01077A00225C
:040572008E3D8F3EED
:10057600E4F53FF540F541F542F543F544F545F51B
:10058600467F03120E6F7E00EF540C7802CEC31323
:10059600CE13D8F9F5468E4545457008753F217549
:1005A60040FC8024E54664014545700E753F1D7587
:1005B60040B075412375428C803DE5466402454551
:1005C600700E753F1D7540B075412A754230802703
:1005D600E5466403454570647F07120E6FEEC3134C
:1005E60030E008753F197540648006753F13754005
:1005F6008875411D7542B07F03120E6F754500EF79
:100606005403F54645457007F54375440A802FE5C2
:1006160046640145457007F5437544058020E54667
:10062600640245457007F5437544148011E5466438
:100636000345457007F5437544508002802DAC4351
:10064600AD44AE3DAF3E12016CE5402FF546E53FA9
:100656003EF545D3E5469542E54595414002800B7A
:10066600C3E5469540E545953F5004E4FEFF22AEBE
:0306760045AF4647
:01067900225E
:0E129B00E4FE7F0A120E6FEE5403FE1205727F
:0112A9002222
:040DE2008E3D8F3E75
:100DE60012067A8E3F8F407F03120E6F8E418F421E
:100DF60053423F754100E53F5403FEE5407806C384
:100E060033CE33CED8F94242EE4241434210120E5F
:100E1600B1120EB1AF3EAE3D120C55750C0A853DB2
:040E260013853E14DE
:010E2A0022A5
:0912EF007F05120E6FEE540FFF93
:0112F80022D3
:02118E008F339D
:101190007F05120E6FAD07AC065304F0E533FEEE8B
:0711A00042047F05020EB7B7
:040B42008F398D3A20
:100B46007F03120E6FAD07AC065305EF7F03120E3F
:100B5600B77F02120E6FAC06AD07E539B401054347
:100B6600040280035304FD430401E53A600553057E
:100B76007F80034305807F02120EB77F0A120E6F35
:100B8600EE20E6097F017E0012121B80EE12129BF8
:0E0B96008E3B8F3C12129B120DE2AE3BAF3C29
:010BA400222E
:06132E007D01120B4222BA
:0A12D9007F0B120E6FEEFF530701AA
:0112E30022E8
:10087000E4F533F534FE7F03120E6F7E00EF540C67
:100880007802CEC313CE13D8F9FF4E700875352108
:100890007536FC8020EF64014E700E75351D75367F
:1008A000B075372375388C803CEF64024E700E753E
:1008B000351D7536B075372A7538308028EF6403DA
:1008C0004E60030209537F07120E6FEEC31330E030
:1008D0000875351975366480067535137536887553
:1008E000371D7538B0AE35AF368E098F0A8E138F2F
:1008F00014D203750C0AC204120DE27F327E00127C
:10090000121B121314E51465387004E51365376083
:100910002BE4FD7F01120B428E138F141212D9EFBC
:1009200060E3AF34AD14AC13120A6D7F647E001225
:10093000121B0534E53470CD053380C9E534153418
:1009400070021533AF341212CEE4F511FF12117498
:03095000120DE2A3
:010953002281
:021039008F33F3
:10103B007F05120E6FAD07AC065305F0E533540F69
:10104B0042057F05120EB7AF3312113CE51970053F
:05105B007F0112115895
:01106000226D
:021158008F34D2
:10115A007F02120E6FAD07AC06E53460054304400A
:0A116A0080035304BF7F02020EB79A
:101089007F02120E6FAD07AC06ECC413135403F4C0
:101099005401600843044075190180065304BFE4F4
:0710A900F5197F02020EB7EA
:0912F9007F0B120E6FEEC313FF10
:0113020022C8
:020F8B00AD07B0
:100F8D00E4FB74807E00A803088006CEA2E713CE92
:100F9D0013D8F8FFEDF582EF558224FF92B2D2B44B
:0A0FAD00C2B40BBB08DCD2B3C2B320
:010FB7002217
:10106100C0F9A4B0999282F880907F8883C6A18646
:101071008E8CC1CE9189C712C8AB40792430191228
:08108100027800107FC789010D
:100D1100020921FC010C0A010F00010B00C183C172
:080D210084020D1F40010800CF
:10126A00ED4C6007EF90107B93FF22EF9010619393
:02127A00FF2251
:100F2900E5126014752A00752BFF752C00752DFFCD
:100F39007BFF7A007D158012752A00752BFF752CB1
:100F490000752DFF7BFF7A007D167C007FFF12075D
:020F59007B22F9
:04095400AB07AA063D
:100958007C277D1012017E8F237C277D10AF03AE8C
:100968000212017E7E037FE8CFCDCFCECCCE12011E
:100978007E8F227C037DE8AF03AE0212017E7E00EB
:100988007F64CFCDCFCECCCE12017E8F21AE02AF09
:10099800037C007D6412017E7E007F0ACFCDCFCE1E
:1009A800CCCE12017E8F24E523C39401E522FD7C81
:1009B80000E521FB7A00500F752A008F2B752C005B
:1009C800752D037F64800E752A0085242B752C00F5
:0809D800752D03AF2312077B0C
:0109E00022F4
:100BA500E50AB5140AE509B51305AF0AFE80473015
:100BB500040C85130985140AAF14AE13803830036D
:100BC50019050AE50A70020509D39430E509942A46
:100BD5004020750921750AFC8018E50A150A70027E
:100BE500150914C394FCE5099421500675092A7565
:0A0BF5000A30AF0AAE0912095422BB
:1010D700E51075F00A84FD7C00E51075F00A84E5DB
:1010E700F0FB7A00752A00752B64752C00752D644A
:0510F7007F6402077B8D
:100CA900E50F75F06484FFE50F75F06484E5F07570
:100CB900F00A84F522E50F75F00A8485F021EF60CA
:100CC90016FD7C00E522FB7A00752A0085212B752B
:100CD9002C00752DFF8015E522FB7A00752A008509
:100CE900212B752C00752DFF7DFF7C007FFF1207DE
:010CF9007B7F
:010CFA0022D7
:100FB800E50B75F00A84A9F0E50B75F06484E5F09B
:100FC80075F00A84FB7A00AF01752A008F2B752C07
:0D0FD80000752DFF7D197C007F1702077B3F
:08077B008C268D278A288B29AA
:10078300752E1AE508702BEFC3952E4003020863FC
:10079300D2A3D2A2D2A1E52D6401452C7005FC7D24
:1007A3000180047C007D0012126A120F8BC2A0022A
:1007B3000858E50864017033C3E527952E7480F863
:1007C3006526984003020863D2A3D2A2D2A0AF2722
:1007D300E52D6402452C7005FC7D0180047C007DC1
:1007E3000012126A120F8BC2A1806AE508640270BC
:1007F30030C3E529952E7480F86528985062D2A3FA
:10080300D2A1D2A0AF29E52D6403452C7005FC7D50
:100813000180047C007D0012126A120F8BC2A28039
:1008230034E50864037039C3E52B952E7480F865AD
:100833002A98502CD2A2D2A1D2A0AF2BE52D6404CA
:10084300452C7005FC7D0180047C007D0012126A3A
:10085300120F8BC2A3901088E493FF7E0012121B29
:0C0863000508E508D394034003E4F50801
:01086F002266
:10101000E50CB40A03120BA5E50CB401031210D7BA
:10102000E50CB40203120CA9E50CB40303120F295A
:09103000E50CB40E03120FB82206
:091303001210FC750C030212E447
:0B12E400E5127006750D1F750E40220C
:1010B000E5126003021010D3E50E940AE50D9400CA
:1010C000400C121010E50E150E700B150D22D2A358
:0710D000D2A2D2A1D2A0229E
:100D2900185301000000010B020000000216030025
:100D39000000032104000000042C016C00016B0079
:10111F00EF24FE600D14600D14600D2403700CA2FB
:0D112F009622A29722A29522A29422D322FA
:05133400AF6CE4F56C54
:011339002291
:1011A700E56B60122097037F0C222095037F0D22A9
:0911B7002094037F0E227F002228
:10026300E55664037024E56B60201211A7EF601A52
:10027300F56CE4F56BF521E52175F006A42456F839
:0D02830076040521E521B404EE22E4F52106
:10029000E52175F006A42453F9E4FAFBF522F523D1
:1002A0008924120104FF12111F9200AB22AA23A974
:1002B0002490000312011D14602D14605414700367
:1002C000020368147003020391240460030203D63E
:1002D0003000030203E3900001E4F5F012022090E5
:1002E000000374010203E0300007900003E40203FE
:1002F000E0900001E475F0011201D3FEC3E5F09433
:1003000014EE940050030203E3900003740202030E
:10031000E030001B90000412011DF56C900003E416
:1003200012014AE52160030203E3F56B0203E39047
:100330000001E475F0011201D3FEC3E5F09458EE1C
:10034000940250030203E3900003740312014AE590
:10035000217006756B010203E390000512011DF583
:100360006C90000374048078300078E56B601412A0
:1003700011A7EF700EAB22AA23A924900005120149
:100380001DF56CE4F56BAB22AA23A9249000038031
:040390004F30004F9B
:10039400752501E4F526E52675F006A42453F8E650
:1003A400FF12111F4005E4F52580090526E526C343
:1003B400940440E2E5256027E4F526E52675F00679
:1003C400A42456F8E4F60526E526B404EEE4F56B19
:0F03D400800DAB22AA23A924900003E412014A52
:0C03E3000521E521C394045003020290A0
:0103EF0022EB
:030000000209E111
:0C09E100787FE4F6D8FD75816C020A28CE
:10000E00E709F608DFFA8046E709F208DFFA803ED4
:10001E0088828C83E709F0A3DFFA8032E309F608C1
:10002E00DFFA8078E309F208DFFA807088828C8329
:10003E00E309F0A3DFFA806489828A83E0A3F608DD
:10004E00DFFA805889828A83E0A3F208DFFA804CB7
:10005E0080D280FA80C680D4806980F2803380108E
:10006E0080A680EA809A80A880DA80E280CA8033F7
:10007E0089828A83ECFAE493A3C8C582C8CCC5836F
:10008E00CCF0A3C8C582C8CCC583CCDFE9DEE7803F
:10009E000D89828A83E493A3F608DFF9ECFAA9F0BE
:1000AE00EDFB2289828A83ECFAE0A3C8C582C8CC14
:1000BE00C583CCF0A3C8C582C8CCC583CCDFEADE2D
:1000CE00E880DB89828A83E493A3F208DFF980CC8F
:1000DE0088F0EF60010E4E60C388F0ED2402B40488
:1000EE000050B9F582EB2402B4040050AF2323452F
:0600FE00822390005E73F6
:10010400BB010689828A83E0225002E722BBFE02F9
:09011400E32289828A83E493222C
:10011D00BB010CE58229F582E5833AF583E0225097
:10012D0006E92582F8E622BBFE06E92582F8E222E1
:0D013D00E58229F582E5833AF583E49322FB
:10014A00F8BB010DE58229F582E5833AF583E8F0EB
:10015A00225006E92582C8F622BBFE05E92582C897
:02016A00F2227F
:10016C00EF8DF0A4A8F0CF8CF0A428CE8DF0A42EA7
:02017C00FE2261
:10017E00BC000BBE0029EF8DF084FFADF022E4CC65
:10018E00F875F008EF2FFFEE33FEEC33FCEE9DEC2E
:10019E00984005FCEE9DFE0FD5F0E9E4CEFD22ED74
:1001AE00F8F5F0EE8420D21CFEADF075F008EF2FBE
:1001BE00FFED33FD4007985006D5F0F222C398FDAF
:0501CE000FD5F0EA224C
:1001D300BB010DC58229C582C5833AC58302024D81
:1001E3005011C58229F808E5F026F618F5F0E582E6
:1001F30036F622BBFE11C58229F808E225F0F5F098
:10020300F218E23582F222F8E58229F582E5832AA3
:0D021300F58374019325F0F5F0E493382293
:10022000F8BB0111E58229F582E5833AF583E8F010
:10023000E5F0A3F0225009E92582C8F608A6F022CD
:0D024000BBFE09E92582C8F2E5F008F222B4
:1009ED00020D97E493A3F8E493A34003F68001F27C
:1009FD0008DFF48029E493A3F85407240CC8C3330B
:100A0D00C4540F4420C8834004F456800146F6DFD9
:100A1D00E4800B0102040810204080900CFBE47E62
:100A2D00019360BCA3FF543F30E509541FFEE493CE
:100A3D00A360010ECF54C025E060A840B8E493A395
:100A4D00FAE493A3F8E493A3C8C582C8CAC583CAC0
:100A5D00F0A3C8C582C8CAC583CADFE9DEE780BE78
:010D490000A9
:10024D00C5F0F8A3E028F0C5F0F8E582158270023C
:06025D001583E038F022D9
:00000001FF
